:020000021000EC
:10C000000080002049020200910202009302020017
:10C010000000000000000000000000000000000020
:10C020000000000000000000000000009502020077
:10C0300000000000000000009702020099020200C8
:10C040009B0202009B02020055C801009B020200F5
:10C050009B020200000000009B0202009B02020003
:10C060009B0202009B0202009B0202009B02020054
:10C070009B0202009B0202009B0202009B02020044
:10C080009B020200B5C201009B0202009B0202005B
:10C0900095C301009B020200150202009B020200F0
:10C0A0009B0202009B020200000000000000000052
:10C0B0000000000000000000000000000000000080
:10C0C00010B5064C2378002B07D1054B002B02D06E
:10C0D000044800E000BF0123237010BD6828002041
:10C0E0000000000050070200084B10B5002B03D0E1
:10C0F0000749084800E000BF07480368002B00D14B
:10C1000010BD064B002BFBD09847F9E7000000005C
:10C110006C28002050070200682800200000000062
:10C12000164B002B00D1144B9D46402292029A1AC6
:10C13000924600218B460F461348144A121A00F00B
:10C1400067F80F4B002B00D098470E4B002B00D008
:10C1500098470020002104000D000D48002802D05F
:10C160000C4800E000BF00F02DF82000290002F08C
:10C17000F9F900F011F8C046000008000080002026
:10C18000000000000000000068280020D8300020D7
:10C190000000000000000000084B10B50400002B58
:10C1A00002D0002100E000BF054B1868836A002B15
:10C1B00000D09847200000F033F8C046000000008F
:10C1C000D00502000E4B70B500251E000D4CE41A80
:10C1D000A410A54204D0AB00F35898470135F8E706
:10C1E00004F0EAF9084B00251E00084CE41AA410DC
:10C1F000A54204D0AB00F35898470135F8E770BD6D
:10C20000602800206028002060280020642800208A
:10C2100003008218934202D019700133FAE7704785
:10C22000FEE7C046BFF34F8F024A034BDA60BFF30D
:10C230004F8FFEE70400FA0500ED00E08021802327
:10C24000184A8902D1508022D221174B520289000C
:10C250005A5040395A5001222F205A600138C046A6
:10C26000C046C046C046C046C046C046C046C0469E
:10C27000C046C046C046F1D19A6000230B4A2F2029
:10C2800013600138C046C046C046C046C046C046DE
:10C29000C046C046C046C046C046C046F1D1044A6A
:10C2A0001370704700E100E0001001408428002076
:10C2B000A4280020A021F0B5002347462C4A4900BD
:10C2C00080B453500431535004315350043153500F
:10C2D0004C39535004315350264B1B68002B37D038
:10C2E0002549002652582549254F0C68141B002269
:10C2F0002402240A904602E0002D1AD02B001A686E
:10C30000A24216D8A41AB6181A7CDD69002AF3D006
:10C31000424699691A745A693B68002B1BD0100079
:10C3200098470028E8D000220021FFF77BFF002D6E
:10C33000E4D1144B14491A780B789A420ED0134A60
:10C340009B009E5080218023114A49035B00D150FD
:10C3500004BC9046F0BD08009047CDE70132D3B24F
:10C36000022B01D00B70EAE700230B70E7E7C04611
:10C3700000100140882800200405000084280020C7
:10C380008C28002098280020992800209C28002034
:10C3900000E100E0F0B55F4656464D464446F0B435
:10C3A000C24BC34A1B68C3498BB005930978137805
:10C3B000994200D154E10133DBB2022B00D10023BA
:10C3C0001370BD4A9B009B58B84A9A46059B53443C
:10C3D0001B021B0A136001230193B84B00241B6846
:10C3E0009B46B74B5A461B789146190088460393E3
:10C3F000B44B47461B68013F0493AC4B1B68089342
:10C40000B14B1B7807930023099306931E00FBB2E0
:10C410009846FF2B32D04346D800049B9C4613001D
:10C4200060440178457800961A00A9421FD04668FA
:10C430004A00B446521886780131D200C9B262442B
:10C440008E4200D1EBE01678022E00D1C5E0032E1B
:10C45000EAD1002BE8D01C74DB69002BFBD101333F
:10C4600045780093002399461A00A942DFD1474638
:10C47000013FFBB2009E9846FF2BCCD10292002ECA
:10C4800000D0F1E0069B002B02D0884B089A1A607E
:10C49000099B002B03D06A468B4B127F1A70019BBD
:10C4A000002B00D02AE15B46029A00259B1A5A1EF7
:10C4B0009341DBB205937D4B00271B6802999C4694
:10C4C0007E4B1B689B46804B1B7806930023019391
:10C4D0007E4B994601230093039B013BDBB2039300
:10C4E000FF2B00D1F6E0049ADB0092460E009A443E
:10C4F000002D28D06A68A9682C00ED696346D31A1C
:10C500001B021B0A4B4552D86A4612785B182360FF
:10C510006760A7602274E761002E58D03168300050
:10C52000994205D3B6E01168994200D3A0E010000B
:10C53000C2695B1A002AF6D1E26132002360C4614D
:10C540001600002DD6D153461A785B7831009342FD
:10C55000C2D0514649685300884651469B18013263
:10C56000D2B20A708978DB004344914200D19AE04C
:10C57000197832000129E3D15C68227C904641465B
:10C5800032000029DCD19A686260D968A16018691C
:10C59000E0605B69A361069B002BAFD0434600229D
:10C5A00063606346D31A1B021B0A4B45ACD9634632
:10C5B0009A1A1202120A8A4261D28B1A6A461278B9
:10C5C00023606760A7602274E761002EA6D1220075
:10C5D0000123A34601931600B3E75668002B30D021
:10C5E0009E421ED0009A1F00944602E0964206D05A
:10C5F0001700FA69002AF9D16246009214E76546ED
:10C600000095BA420FD01568D269FA61002A16D097
:10C6100013689C466544156045784B4604E7002145
:10C6200011E71A001F00DE69002E0CD001250095CD
:10C630001568D269B1463300FA61002AE8D145781D
:10C64000F2E60023F0E60125214B9D600995079550
:10C650000695002500230895013599460095D2E7F7
:10C6600000239A460193B8E64A46144B1A6009E73C
:10C67000C91A1160E26123603200C46160E76B4651
:10C680001B7827606760A7602374E761002E9ED047
:10C6900000233168CB1A336022000123E661A346F0
:10C6A000019316004DE75246157061E7842800207B
:10C6B00098280020992800209C2800208828002005
:10C6C00090280020942800209A280020FEFF7F0058
:10C6D00000100140019B002B00D09DE0029B99427D
:10C6E00036D1059B002B33D10023534A13700BB076
:10C6F0003CBC90469946A246AB46F0BD4F4B002449
:10C7000018680025029B00210026574615E01A688C
:10C71000BA4200D984E0D868BF1A89181E60DC6963
:10C72000002807D0DD611D00059A9860521812029A
:10C73000120A5A6023002000019C002BE7D1002C34
:10C7400001D03E4B18600023029301330593B2E6FB
:10C75000002900D15DE00B6839489846394B3A4DC5
:10C76000C4583A4B2E781B68E11A0902090A0331B2
:10C77000002E2DD042468A4200D20A00A820D218AC
:10C7800012022F49130AC0002E4D0B504A591B1B91
:10C79000121B1202120A1B0203321B0A9A42A3D96D
:10C7A0004B590B502F200138C046C046C046C046EA
:10C7B000C046C046C046C046C046C046C046C04649
:10C7C000F1D180218023224A89025B00D1508BE77E
:10C7D0008026D1277602BF00C651403FC651C022F5
:10C7E00080271B4EBF025200B750376001260660FB
:10C7F0002F200138C046C046C046C046C046C0468D
:10C80000C046C046C046C046C046C046F1D12E70A4
:10C81000B0E7FFF713FD67E75A46084B1A605DE77C
:10C82000BA46002C01D0054908605146521A1A60D8
:10C830000293012305933EE69A28002088280020D1
:10C840000010014004050000A428002084280020D6
:10C8500000E100E0C12210B5514B92009A5884B01B
:10C8600092054CD54F4A1168002948D0002111602B
:10C870008121C2228900920099504B4B5A7D002A97
:10C8800002D10121494A1160022269460A709021B1
:10C890004348C9004258425069460392DA7C6846D0
:10C8A0000A72DA68196801920022DA745B689847A4
:10C8B0003F4A1368002B10D03B4B188A997C814269
:10C8C00051D9002111601A8A9968895C1A8A01324B
:10C8D00092B21A82374B324AD150374B1A68002A2B
:10C8E0000BD000221A60304B5A7D002A02D0012161
:10C8F0002B4A1160DA7C002A44D104B010BDC12358
:10C90000274A9B00D3585B07D2D52C4B19680029C6
:10C91000CED00021A3241960234BE400187DD968F0
:10C9200012590A541A7DD87C0132D2B21A751A7D76
:10C930009042BDD15A7D002A02D101201B4A1060CD
:10C940008124C2221648A400920084506C461A7DAD
:10C9500001202272002220700191DA741968684661
:10C960005B689847A4E7002010600029B5D06A46AC
:10C97000107011729A689874196801925B68684621
:10C980009847AAE768461A7D01210272DA680170A9
:10C99000019200221968DA745B689847ADE7C046D7
:10C9A0000020004024210040A8280020042000404E
:10C9B0001C2100401C0500004421004008210040CB
:10C9C00029DF704728DF7047F0B5564644465F467A
:10C9D0004D46F0B4534E85B03478012C66D0002C0F
:10C9E0004CD0022C15D0032C0CD14F4B1868FFF7FC
:10C9F000E9FF002806D0112860D108234B4A1168AE
:10CA00000B43136005B03CBC90469946A246AB462A
:10CA1000F0BD464B9A461B680393454B99461B78DD
:10CA20009D00ED188023AD005B0519694D442F6909
:10CA30000904090C38009B4603F030FC3A4B804651
:10CA400018605B461969E888013F0904C019090CA0
:10CA500003F024FC80452CD00323039C9C435346C5
:10CA60001C60344B1B68002B02D10233234241D09F
:10CA70000022314B1A7000F0F3FAC3E72F4B1C6011
:10CA80002F4B1C602A4B5A78002ABBD01A78910091
:10CA90008A1892009B18D9882A4A1B791160032BA7
:10CAA00025D0042B23D0012BACD1337000F07AFCBD
:10CAB000A8E70123039A9A431443D0E71C4D2B782F
:10CAC0009C00E3189C002A19140053691179D2685C
:10CAD0000C345500AA181B4D92002D6800951A4D74
:10CAE000555902002000A847042333708AE700F05C
:10CAF0002DF887E7104A40461370FFF763FF0028C0
:10CB000000D17FE7112804D108231C4353461C6041
:10CB100078E74B461B789C00E4184B46A4001A1992
:10CB2000D2E7C04622290020142900203029002005
:10CB3000C028002024290020232900203429002097
:10CB40001C2900202C29002038290020F0B55F4640
:10CB500056464D464446F0B45B4B5C481A788026F6
:10CB600091008A1892009B18DF681D697A00D2191B
:10CB7000920082181489508952686043804690441C
:10CB8000DA881B8914009946514B92469B46002334
:10CB90005A467605316983B009044C441360090C88
:10CBA0002800641903F000FC00295CD133699BB2B2
:10CBB0009A4542D0A04500D174E0022F3DD0280014
:10CBC000316948440904090C03F0EEFB414B890824
:10CBD000196031690904090C200003F0E5FB002904
:10CBE00025D080256D0529692B696A4699464346FB
:10CBF000D380D08889B203F051FB6A464B46A6B277
:10CC0000D3800700D188300003F048FBBFB280B268
:10CC100087423DD02C692969300089B203F0C4FBFA
:10CC20005B462404240C89B2641AA4081C60022206
:10CC3000294B1A70FFF7C8FE0EE080235B051969C7
:10CC400028000904090C03F029FB0322234B186078
:10CC5000214B1A70FFF7B8FE03B03CBC90469946D2
:10CC6000A246AB46F0BD022FE7D028003169484408
:10CC70000904090C03F098FB164B89081960316907
:10CC8000A045A7D10222144B1A70FFF79DFEE3E7DF
:10CC9000434624041B041B0C240C1C1B5B46A408E9
:10CCA0001C60C4E74B46002BC7D0022FC5D028001C
:10CCB000316948440904090C03F076FB054B8908E7
:10CCC00019603369B3E7C046C02800203829002026
:10CCD00018290020242900202229002014290020BE
:10CCE000082170B50C00244A82B013681C4009D09A
:10CCF0008B431360214B224A1B789B009B5898471B
:10CD000002B070BD1F4D2B789800C31898002A18E8
:10CD1000117904292AD010005369D2680C305600CA
:10CD2000B218194E920036680096184E9659002295
:10CD3000B04701212A7893009B189B00EB181C71C7
:10CD4000DC80D9601C615C611C816B780132013B25
:10CD5000D2B26B70042A06D02A7000220C4B1A70D3
:10CD6000FFF732FECCE700232B70F6E70122084BD9
:10CD70001A70FFF729FEC3E730290020232900207D
:10CD8000D4050200C02800202C29002038290020CA
:10CD900022290020802230B55205234B14691B68DC
:10CDA0002404013B240C5C43204B83B05869431C92
:10CDB00037D011690904090C03F070FA80235B0570
:10CDC00019691B4B09040138090C41431A682000FA
:10CDD000FFF7F6FD002806D0112806D10823154AD2
:10CDE00011680B43136003B030BD134D2B789C00CA
:10CDF000E3189C002A19140053691179D2680C3485
:10CE00005500AA180D4D92002D6800950C4D5559EE
:10CE100002002000A84704220A4B1A70FFF7D4FD35
:10CE2000E1E75069CAE7C04614290020001000104D
:10CE30002429002030290020C02800202C2900208F
:10CE4000382900202229002030B5244B83B05869AE
:10CE5000431C3FD080235B0519690904090C03F0CA
:10CE60001DFA8022520513691D4C116912690904CB
:10CE700024681B0492B2090C01381B0C9208614310
:10CE80005843FFF79DFD002806D0112806D108233E
:10CE9000144A11680B43136003B030BD124D2B7858
:10CEA0009C00E3189C002A19140053691179D26878
:10CEB0000C345500AA180D4D92002D6800950C4DAC
:10CEC000555902002000A84704220A4B1A70FFF7A8
:10CED0007BFDE1E780235B055869C2E70010001085
:10CEE0001429002030290020C02800202C290020EF
:10CEF0003829002022290020F0B58027284C7F0502
:10CF0000237839699A00D3189B00E3181A89DD88C1
:10CF10001B69AD18ED18090483B0090C280003F053
:10CF200043FA204B0E005869431C37D03969090475
:10CF3000090C03F0B3F980235B051B69411E1B0438
:10CF40001B0C5943184A891912682800FFF738FD4D
:10CF5000002806D0112806D10823144A11680B4373
:10CF6000136003B0F0BD2578AB005D19AD00621908
:10CF7000140053691179D2680C345500AA180C4D6D
:10CF800092002D6800950B4D555902002000A847CE
:10CF90000422094B1A70FFF717FDE2E77869CAE728
:10CFA000C02800200010001018290020302900207F
:10CFB0002C2900203829002022290020082330B500
:10CFC0001F4D83B02C68234214D1A30702D501233F
:10CFD0001C432C6002221B4B1A701B4B1868FFF776
:10CFE000F1FC002804D011280DD108231C432C602B
:10CFF00003B030BD9C43134B144A1B782C609B003C
:10D000009B589847F4E7124D2B789C00E3189C003E
:10D010002A19140053691179D2680C345500AA18E2
:10D020000C4D92002D6800950B4D555902002000C3
:10D03000A8470422094B1A70FFF7C6FCD8E7C04680
:10D04000302900202329002014290020D4050200C3
:10D05000C02800202C290020382900202229002067
:10D0600030B5224B83B05869431C3BD080235B050D
:10D0700019690904090C03F011F98022520513699A
:10D0800011691B041B0C013809045843090C03F0F7
:10D0900005F9FFF797FC002806D0112806D10823D0
:10D0A000134A11680B43136003B030BD114D2B7848
:10D0B0009C00E3189C002A19140053691179D26866
:10D0C0000C345500AA180C4D92002D6800950B4D9C
:10D0D000555902002000A8470422094B1A70FFF797
:10D0E00073FCE1E780235B055869C6E70010001078
:10D0F00030290020C02800202C29002038290020B9
:10D1000022290020082370B52B4D82B02C682342C1
:10D1100009D09C43294B2A4A1B782C609B009B58C2
:10D12000984702B070BD0122244B1A70254B5869F4
:10D13000431C3CD080235B0519690904090C03F0EA
:10D14000ADF88022520513691F4E11691269090456
:10D1500036681B0492B2090C01381B0C920871430B
:10D160005843FFF72DFC0028DBD0112803D10823FA
:10D170001C432C60D5E7154D2B789C00E3189C00D0
:10D180002A19140053691179D2680C345500AA1871
:10D190000F4D92002D6800950E4D5559020020004C
:10D1A000A84704220C4B1A70FFF70EFCB9E7802346
:10D1B0005B055869C5E7C0463029002023290020B7
:10D1C000D40502000010001014290020C0280020FF
:10D1D0002C2900203829002022290020F0B54D46B6
:10D1E00044465F465646F0B4644B85B01D68984689
:10D1F00008231A002A40914600D076E0604F3C7820
:10D20000A30003931B199B00FB181A69561EDA88AA
:10D210001B89B618F61880235B051969594B1B68E2
:10D220009A46002B44D1584B1B689B4680235B05D4
:10D23000196930000904090C03F030F8834566D3FE
:10D2400053465CD0002B5CD1039B9C466444A400F5
:10D250003A19117904296CD010005369D2680C3046
:10D260005400A218494C920024680094484C145968
:10D270000022A04751463A7893009B189B00FB1868
:10D2800019715146D9800121D960514619615961FE
:10D29000514619817B780132013BD2B27B70042A5E
:10D2A0004DD03A7000223B4B1A70FFF78DFB15E012
:10D2B000354B09041B68090C30009B4602F0EEFF59
:10D2C0005845B3D14A46344B1A6001231D434346A7
:10D2D0004A461D60314B1A70FFF7C2FE05B03CBCD8
:10D2E00090469946A246AB46F0BD9D4343461D601D
:10D2F0002A4B2B4A1B789B009B589847EEE7002B44
:10D3000005D00322254B1A70FFF7F6FDE6E7002251
:10D31000214B58461A60214B02321A70FFF752FB1C
:10D320000028DBD011280DD108231D4343461D6082
:10D33000D4E70122174B1A70FFF746FBCEE7002314
:10D340003B70AFE73B789A00D2189200BC182700D8
:10D35000E268636921795400A2180C4C0C372468E8
:10D36000920000940A4C145902003800A04704228D
:10D37000084B1A70FFF728FBB0E7C04630290020A1
:10D38000C028002018290020142900202C29002062
:10D3900038290020222900202429002023290020C8
:10D3A000D4050200F0B54F464646C0B48027444E2F
:10D3B0007F0534783969A5002B199B00F318DA88AA
:10D3C00089B283B08A421AD8188959691B699208B0
:10D3D000C018FFF7F5FA002806D011282FD108232E
:10D3E000384A11680B4313602C19A4003419E288E1
:10D3F000354B1A6003B00CBC90469946F0BD3D69B0
:10D4000059692D042D0C551B18893A691B6992B274
:10D41000C018920849194019FFF7D2FA002806D01F
:10D4200011282BD10823274A11680B43136080234E
:10D430005B051B69244A1B041B0C1360DAE7377871
:10D44000BB00DF19BF00F219536911791700D268C8
:10D45000994653009C461D4B62441B689200009302
:10D460001B4B0C37D3580200984638004B46C04738
:10D470000422184B1A70FFF7A7FAB5E73478A30017
:10D480001C19A4003219140053691179D2680C34A4
:10D490005500AA180D4D92002D6800950C4D555958
:10D4A00002002000A84704220A4B1A70FFF78CFAEA
:10D4B00080235B051B69044A1B041B0C136099E75E
:10D4C000C0280020302900201C2900202C29002001
:10D4D0003829002022290020F0B546464F4608236F
:10D4E000C0B4704E83B0346823426DD16E4B1A685D
:10D4F000571C1F606D4B1D68002D28D16C4B1D788B
:10D5000099468023A80045195B051969AB00984628
:10D510004D4645442B690904581EEB88090CC01878
:10D520002B89C01802F0BAFE874265D3614B60D0E8
:10D530001F68002F00D17BE001231A00224050D148
:10D540001C435D4B34601A70FFF78AFD44E00421F0
:10D55000594B197080235B051F693F043F0C5743EB
:10D56000564A5069421C42D019690904090C02F05C
:10D5700095FE80235B05196901380904090C4143B4
:10D580002A003800FFF71CFA002825D011284BD0BC
:10D59000474D2B789C00E3189C002A19140053690E
:10D5A0001179D2680C345500AA18454D92002D68A7
:10D5B0000095444D555902002000A8470422424BD3
:10D5C0001A70FFF701FA07E09C433B4B3F4A1B7878
:10D5D00034609B009B58984703B00CBC904699461A
:10D5E000F0BD0322344B1A70FFF786FCF4E758694C
:10D5F000BFE71B68002B9FD102222F4B38001A7007
:10D60000FFF7E0F90028E7D011280DD04B461B7832
:10D610009A00D2184B4692009D182A000C32140032
:10D620006B692979EA68BEE708231C433460D3E7B5
:10D63000297904292CD042464A440C321000EA6869
:10D640006B695400A2181E4C9200246800941D4C73
:10D6500014590022A0474B4601211A7893009B18C9
:10D660009B004B44D9601F71DF801F615F611F8188
:10D670004B4649465B780132013BD2B24B70042ADB
:10D680000CD00A700022104B1A70FFF79DF9A3E727
:10D6900001220D4B1A70FFF797F99DE700230B70DD
:10D6A000F0E7C0463029002014290020242900205A
:10D6B000C028002018290020232900200010001075
:10D6C0002C2900203829002022290020D40502001E
:10D6D00030B5154B83B01868FFF774F9002806D0F1
:10D6E000112806D10823114A11680B43136003B0B7
:10D6F00030BD0F4D2B789C00E3189C002A191400B4
:10D7000053691179D2680C345500AA18094D92005A
:10D710002D680095084D555902002000A8470422A5
:10D72000064B1A70E3E7C046142900203029002078
:10D73000C02800202C290020382900202229002080
:10D74000F0B557464E4645460424E0B4984608AB2B
:10D750001B8894469A461C4B5F781E00A7422DD02A
:10D760001B78FC18032C00DD043C142254433419AC
:10D7700020716046606120000C30914624C924C0AD
:10D7800041465246E18022810024104A0137117837
:10D790007770A14212D14D465D437319D8880C4968
:10D7A0001B790860032B07D0042B05D0012B05D172
:10D7B0001370FFF7F7FD01E0FFF7C8F920001CBC6C
:10D7C00090469946A246F0BDC0280020222900209C
:10D7D0002C290020F0B546464F46C0B4734D0426B0
:10D7E0002C7883B02300B3430ED0022811D0032835
:10D7F0000AD108216E4A136819425DD0022C54D018
:10D80000032C4DD0012C4BD003B00CBC9046994654
:10D81000F0BD022C49D0032C5DD0012CF4D108219D
:10D82000634A136819423BD1624E33789800C3189B
:10D830009800614B32181F68D388DF1BBFB2D780B6
:10D84000002F00D08AE0536911791000D268994600
:10D8500053009C46594B62441B6892000093584BFE
:10D860000C30D358002298464B46C047327893007C
:10D870009B189B00F3181F71DF80DC601F615F61E4
:10D880001F8173780132013BD2B273703270042A67
:10D8900001D10023337000232B70FFF795F8B3E715
:10D8A0008B431360FFF790F8AEE7464B464A1B7870
:10D8B0009B009B589847A7E7444A136801331360BD
:10D8C000032B4ED0022CEDD13E4B414A1B789B00DE
:10D8D0009B58984798E70821354A13681942DFD1C9
:10D8E0003C4B344E1A683478571C1F6080235B050C
:10D8F0001969A30098461B199B00F3181A690904BB
:10D90000501EDA881B898018C018090C02F0C6FC6A
:10D910008742C7D344D04444A40032191179042962
:10D9200039D0341920005369D2680C305400A21841
:10D93000224C920024680094214C14590022A047E4
:10D9400000210120327893009B189B00F318197175
:10D95000D980D86019615961198192E7FFF722FDDA
:10D9600052E7144803789A00D3189A0084182200CA
:10D970000C321000E268636921795400A2180F4C40
:10D980009200246800940E4C14590D22A0472E706A
:10D99000FFF71AF838E701232B70FFF715F833E784
:10D9A0000D4B1B68002BB6D17CE7C0462229002016
:10D9B00030290020C02800201C2900202C2900200C
:10D9C0003829002023290020E805020034290020FE
:10D9D000D4050200142900201829002010B50020C9
:10D9E0002C24264B01211855143400221855187682
:10D9F0004220D96019625963996443311A705A7090
:10DA00005A611A525A521A71DA801A611A815A836B
:10DA10005A629A629A83DA859A63DA631A86DA64BA
:10DA20001A65174B1A80174B5869431C22D0802364
:10DA30005B0519690904090C02F030FC80235B05C1
:10DA40001B6902381B041B0C58430F4B0021186044
:10DA500000230E4A002013600D4A13601381538186
:10DA60000C4A11700C4A13600C4A136004220C4BD0
:10DA70001A6010BD80235B055869DFE7C0280020CD
:10DA8000202900200010001028290020142900203F
:10DA90003829002022290020342900201C290020B8
:10DAA00030290020F8B54F464646C0B4314B04003B
:10DAB0001B680D0008205B0703D40CBC90469946F8
:10DAC000F8BD002C52D0002950D02368002B4DD037
:10DAD000802252051369A6889BB201389E42ECD879
:10DAE0000F2EEAD9E388002BE7D0734399462249E9
:10DAF000224B0F6858698846B944431C38D01169D5
:10DB00000904090C02F0CAFB80225205136901388E
:10DB10001B041B0C434307209945CED8B307CCD137
:10DB2000174B03381E889946012EC6D00C23C0C55A
:10DB3000734314482568C1184F601D50A5880136ED
:10DB40000D81E08848816843136911699BB2C01850
:10DB5000013889B2146902F02BFC4346A4B2604339
:10DB6000C7191F604B4600201E80A6E70E20A4E7C1
:10DB70005069C9E730290020282900200010001032
:10DB8000202900203829002030B5114B1C680823BB
:10DB9000640701D4180030BD002806D0002A04D044
:10DBA0000368002B03D00723F4E70E23F2E7094CA8
:10DBB0002568002DF7D025894068694309186089D8
:10DBC000454360682D18A942EDD213605160E1E72A
:10DBD0003029002038290020F0B5474680B41D4C7C
:10DBE0000500246882B00820640703D402B004BC96
:10DBF0009046F0BD00292BD0002D29D02C6801388B
:10DC0000002CF3D1144C2668002EEFD06E68678983
:10DC1000B04626897743B4466668BC19A045E5D26C
:10DC2000002AE3D09445E1D3D418A445DEDB0930C3
:10DC30008C07DBD103242342D8D146462642D5D1D6
:10DC400000930F3813000A002900FFF779FDCDE794
:10DC50000E20CBE73029002038290020F0B54746B8
:10DC600080B41D4C0500246882B00820640703D4EA
:10DC700002B004BC9046F0BD00292BD0002D29D065
:10DC80002C680138002CF3D1144C2668002EEFD0FC
:10DC90006E686789B04626897743B4466668BC19C2
:10DCA000A045E5D2002AE3D09445E1D3D418A44599
:10DCB000DEDB09308C07DBD103242342D8D1464672
:10DCC0002642D5D100930C3813000A002900FFF733
:10DCD00037FDCDE70E20CBE7302900203829002082
:10DCE000F0B54F464646C0B41700264A83B01268C6
:10DCF00006000D000824520705D4200003B00CBC18
:10DD000090469946F0BD002906D0002804D00C6842
:10DD1000002C03D00724F0E70E24EEE71A4A9046C1
:10DD20001268002AF6D04246108952894968424357
:10DD300091464246526894464A4662449142E9D22C
:10DD4000002FE7D0B842E5D3FA189042E2DBB207E1
:10DD500001D01024D1E703221342FAD10A409146A0
:10DD6000F7D159183A00300002F01DFC0C232A6844
:10DD70000097534342460221D758280033004A46B1
:10DD8000B847BAE73029002038290020F0B54646C8
:10DD90004F46C0B4224B83B01B6805000E00082418
:10DDA0005B0705D4200003B00CBC90469946F0BD3B
:10DDB000002833D00368013C002BF3D1194B1A68BB
:10DDC000002AEFD042685F8990461A895868574305
:10DDD0003F189146B845E5D2434609349B07E1D147
:10DDE00043461100181A02F0DFFA093C0029D9D184
:10DDF0004946300002F0D8FA89B20029D2D1002E6B
:10DE0000D0D04346F3189F42CCD300223300009277
:10DE100029000320FFF794FC0400C3E70E24C1E7A8
:10DE20003029002038290020074B1A6808235207A0
:10DE300001D418007047002804D0044B5B780360BD
:10DE40000023F6E70E23F4E730290020C028002045
:10DE500097DF704763DF70477422F0B5414E438807
:10DE6000B25A85B09A4200D16BE0F622B25A9A4279
:10DE700000D168E0BC225200B25A9A4200D164E05C
:10DE8000FD225200B25A9A4261D09F229200B25AA9
:10DE90009A425ED0344AB25A9A425CD0E022920052
:10DEA000B25A9A4259D0314A0824B25A9A4256D0AC
:10DEB0000378002B3CD1057A002D39D02C4B0E3045
:10DEC0001B7800229C462B4F002304E00133DAB27A
:10DED0000C3095422CD90188B942F7D1817861453F
:10DEE000F4D1A1010C1964003019010080310A70CD
:10DEF000022201274A70002569460F704D7001A962
:10DF00000F705F00FB189B001C193419A38A8D80C9
:10DF10004B806B468B60030074331888CA80FFF710
:10DF200097FF00280BD000220021FEF77BF906E0C6
:10DF3000A3011C190423640034198134237005B033
:10DF4000F0BD0024B4E70124B2E70224B0E70324C3
:10DF5000AEE70424ACE70524AAE70624A8E7013CC1
:10DF6000A6E7C04648290020FE0200000204000087
:10DF7000442900200A900000F0B50B7885B0152BDD
:10DF800001D1002A02D0002005B0F0BD4178144E26
:10DF90008B0159184B00F4182100022581310D70B6
:10DFA0000120694608704A7001A90870200080307D
:10DFB00000787434470038188000C318F3189B8A1F
:10DFC00020884B806B468A80CD808B60FFF740FFB6
:10DFD0000028D8D000220021FEF724F9D3E7C0465C
:10DFE000482900207421F0B5644B8288595A83B0C7
:10DFF0000400914200D16DE0F621595A914200D1BE
:10E00000A7E0BC214900595A914200D1A3E0FD216B
:10E010004900595A914200D19FE09F218900595AE5
:10E02000914200D19BE05649595A914200D198E063
:10E03000E0218900595A914200D194E05149595A3E
:10E04000914200D191E00388382B03D0392B03D0C3
:10E05000372B14D003B0F0BD037B0026002BF9D082
:10E06000002200210020FEF7DDF8002EF2D004226D
:10E070008123F2542100300000F018FDEAE7002669
:10E080000622E388FF32934216D01022FF329342D9
:10E0900012D0002EDED08122B35C022BEAD17E3377
:10E0A000F35C5900CB189B00F318A1899B8A994215
:10E0B0000DD00423B354DDE730007C3001F046FB83
:10E0C0000028E6D000220021FEF7ACF8E1E70323A8
:10E0D000B354CFE70025AA015219218852009E1897
:10E0E000382904D0392930D03729C3D1C8E73100C5
:10E0F000813109780329BDD1310080310978480088
:10E10000411889008A189B185B8AA2899A42B1D16A
:10E11000278A012FAED1032DACD804221A4901A8B9
:10E1200002F041FA6B4604335B5DF0229F403B00F6
:10E1300052041340A022A17CD205002917D1A120AE
:10E14000C0001350114BD15094E7237B002B8ED08D
:10E1500086E70125BFE70225BDE70325BBE70425C8
:10E16000B9E70525B7E70625B5E70725B3E707496A
:10E170005350A1230021DB00D1507BE74829002028
:10E18000FE02000002040000FC0502000C05000075
:10E1900010B5204986B00431102202A802F003FA1B
:10E1A0001D4C02A82100FFF755FE00282DD10023A9
:10E1B00081211A4A53540421FF3153548621FF31DF
:10E1C0005354174953541749535417495354174933
:10E1D000535417495354174A137000F0F7FB0028A3
:10E1E00003D000220021FEF71DF8237801A88370D8
:10E1F000114B1249038000F0F9FB002803D00022E4
:10E200000021FEF70FF806B010BD00220021FEF736
:10E2100009F8CCE7FC050200442900204829002029
:10E2200007020000890200000B0300008D030000BC
:10E230000F040000452900200190FFFF59DE010076
:10E2400070B5012406004378174D9A01D3185B007E
:10E25000EB1881331C7043789A01D3185B00134A82
:10E26000EB1874331980137831000133137043783D
:10E2700004229801C018400028187C3002F093F95D
:10E2800070788301181840002818030081331C702F
:10E290000D3B198800F0D4FB002803D00022002198
:10E2A000FDF7C0FF002070BD48290020452900204F
:10E2B000F0B585B06C46164A43781432E0CAE0C423
:10E2C0001268694622609A01D318124A5B00D3187B
:10E2D00081331C780822002C02D1100005B0F0BD5B
:10E2E0000D4C2278013A227000221A704378032BD9
:10E2F000F3D89B00595801238B40F02149040B406F
:10E30000A120A021C000C9050B50044BCA50E4E76E
:10E31000FC05020048290020452900200C050000CA
:10E3200048DF704786DF704787DF704788DF7047B8
:10E3300060DF7047F8B5040001F0BCFA2000FFF779
:10E3400051FE23881B2B21D12100A67B0F31F6081B
:10E350001CD0E07B277C0200092F2ED0002304E094
:10E36000CD186D78CA5C092D11D001329B18B342CB
:10E37000F6D3082F23D0002304E0CA185278C85CD3
:10E38000082A15D001301B18B342F6D3F8BD02336A
:10E39000013AC91892B20B4802F0F6F80028F5D1FC
:10E3A000FFF7C2FFA01D084A0849FFF7BFFFEDE7CE
:10E3B00002330138C91882B2EDE70223E8E70223ED
:10E3C000F7E7C046740602006C06020080060200F1
:10E3D00010B5040082B0023CFFF7FCF9012C03D811
:10E3E000104C2378002B01D102B010BD002301A8EE
:10E3F0002370FFF719FD00280FD1019B002B02D0DD
:10E4000001232370F0E70848FFF78CFF0028EBD0CA
:10E4100000220021FDF706FFE6E700220021FDF7BC
:10E4200001FFEAE7A22D002080060200F0B50B787C
:10E4300083B0113BDBB206000C001500122B1BD879
:10E440003F4A9B00D3589F464B681988FFF7F8FE58
:10E45000002841D13B4A13780133DBB21370072BFC
:10E460000AD86846FFF7E0FC002852D1009B002B39
:10E4700049D00122344B1A702A0021003000FFF7E6
:10E480007BFD002803D000220021FDF7CBFE0020F9
:10E4900003B0F0BD002DEFD0002200212800FDF7D1
:10E4A000C1FEE9E7FFF704FF00281AD1254F3B78AA
:10E4B000082B1BD0013B3B70DEE70100042201A8C2
:10E4C00002F071F801A801F041F90028D4D000222F
:10E4D0000021FDF7A7FECFE700220021FDF7A2FEF5
:10E4E000B8E700220021FDF79DFEDFE701A8FFF756
:10E4F0009BFC00281FD1019B002B0FD00122124B47
:10E500001A703B78D6E71148FFF70CFF0028B3D00C
:10E51000DDE700220021FDF785FEA7E70B48FFF7A6
:10E5200001FF002801D13B78C4E700220021FDF75C
:10E5300079FE3B78BEE700220021FDF773FEDAE7A3
:10E5400020060200A12D0020A22D0020800602003E
:10E5500010B50A0001000248FDF764FE10BDC04678
:10E56000EFBEADDE30B5A020F0250023012403214D
:10E5700085B06D04C0050133202B0BD02A001A4151
:10E580001442F8D01A00C132FF3292000133115008
:10E59000202BF3D1A023F021A122DB054904D200D6
:10E5A00099500021504A08209950E9224F49D20041
:10E5B0009950002348224E4901F0F2FD002803D073
:10E5C00000220021FDF72EFE01AC082200212000D0
:10E5D000FDF71EFE00230122636023782000934391
:10E5E0002370FFF7A5FE002803D000220021FDF7CD
:10E5F00019FE404801F0FAFD002803D00022002156
:10E60000FDF710FE3C4801F0FBFD002803D000227E
:10E610000021FDF707FEFFF7BBFDFFF7DFF900283C
:10E6200003D000220021FDF7FDFDA223A022DB0084
:10E63000D205D2580123920C93436A466846137060
:10E6400000F0C0FF002803D000220021FDF7EAFD02
:10E650000920052200216844FDF7DAFD274B01213E
:10E66000019302230222E320237163790B43DBB27F
:10E67000134303400C200343CF200340637107235F
:10E68000A3710933E371237A1D4819430A4321001A
:10E69000227201F02DF8002803D000220021FDF79E
:10E6A000C1FD2000FFF7C0FB002803D0002200219D
:10E6B000FDF7B8FD019B002B0BD00122114B1A7006
:10E6C000FFF72EFE0028FBD000220021FDF7AAFD57
:10E6D000F6E70D48FFF726FE0028F1D000220021C2
:10E6E000FDF7A0FDECE7C0460C0500000C000300A0
:10E6F000582D002035E30100D1E301002DE4010095
:10E70000A02D0020A22D00208006020090DF70477F
:10E7100092DF704793DF7047F0B54D465F4656462F
:10E7200044467823F0B4C25C364B83B01D68002D9C
:10E730000CD03A235343344CC3189F78A678BE427A
:10E740000BD0012D02D9A67ABE420DD003B03CBC3D
:10E7500090469946A246AB46F0BD2688B0461E8834
:10E76000B045EED1002304E027891B889F42EDD1FC
:10E770000123DB00E41863689A46002BE6D0234BA4
:10E780001C689846012CE1D87423C35A27019B4684
:10E790001F4B99463B199B009C46CC44019366460F
:10E7A0005B467380002927D000214B46019EF1541F
:10E7B00063463A315143043341183A22180001F0BC
:10E7C000F2FE53463F19BF004F443B6443460134B9
:10E7D0001C60A542BAD14846036C9847094B1B6898
:10E7E000012B05D9484684234A464430D3589847DC
:10E7F000002342461360A9E702224B460199CA54FE
:10E80000DFE7C046442E0020302E00202C2E0020B2
:10E81000A42D0020F0B546464F4678238C463A2179
:10E82000C0B4C45C013BC25C4C4353009B1801194B
:10E830009B001B190D79C318561C83B00A338846F8
:10E84000AE4239D06E1EA1467721AA422CD2964202
:10E850001AD001321F8953009B189B004B44C418E7
:10E86000248A0137A74219D001A9631E0F804B806B
:10E870000023624613707433C05AFFF74BFF03B096
:10E880000CBC90469946F0BD42461B8912899A42BB
:10E890000FD001A901330B804A80E9E7C3180A337E
:10E8A000D2B242549542D2D801236246002013705E
:10E8B000E5E70023721CF3E71B890A899342E8D13C
:10E8C000F2E7C0460023F0B54E4645465746984607
:10E8D000E0B43A264246782735007733C254374BA6
:10E8E000C15D99460131C9B24D43C1554519C900B1
:10E8F000040049440422280001F055FE43462B71D0
:10E9000074232A00E05A0121FFF700FF002804D1F8
:10E910001CBC90469946A246F0BD79234246E2547B
:10E92000274AE35D92461268002AF1D049465E43C9
:10E93000A619B378897899420CD0012AE8D94946BA
:10E94000897A9942E4D14B46198933889942DFD1BB
:10E95000012305E049460F8831888F42EDD100231D
:10E96000DB004B445B689C46002BD1D0154E3368CE
:10E97000012BCDD87421615A134C88461901C9184E
:10E9800089006718894641464D46798001216155C5
:10E99000614601337860396433609342B8D1236CA7
:10E9A0002000984753461B68012B04D9200084237C
:10E9B0004430E358984700233360A9E7302E002005
:10E9C000442E00202C2E0020A42D00200023012105
:10E9D000034A00201360034A1170034A1360704712
:10E9E000442E0020402E00202C2E0020F8B50C00D4
:10E9F000002808D0002906D00E4B1A780823002AD8
:10EA000003D11800F8BD0E23FBE70B4E023B35681F
:10EA1000022DF6D0023B012DF3D8084FEB00FF1872
:10EA2000010004223800013501F0BDFD7C60356035
:10EA30000023E6E7402E0020442E0020302E002048
:10EA400070B504000D00002825D0144B08201B7859
:10EA5000002B00D170BD124B1B68002BFAD0792619
:10EA6000A35D0930002BF5D10E4A200013607422FB
:10EA7000A1520632A354023AA3540B49743A01F04E
:10EA800092FD220001212800FFF740FE0028E1D17D
:10EA90000123A355DEE70E20DCE7C046402E002010
:10EAA000442E00202C2E0020302E0020F0B54D46A4
:10EAB00044465F465646F0B4040083B00D0000287B
:10EAC00000D180E0002900D17DE0674B1B78002B4E
:10EAD00000D178E00B88103B9BB2232B73D8634A9C
:10EAE0009B00D3589F46CB88002B00D0DDE13A260F
:10EAF0007833C35C0E315E4387190422380001F07D
:10EB000052FD2900B81D1231042201F04CFD77237B
:10EB1000E35C002B00D002E2FB8801A90B803B895B
:10EB20004B807423E05AFFF7F3FD00284BD00022FE
:10EB300079234F4EE2543168013BE25C002942D018
:10EB40003E3B53434B4AE3189D789778AF4200D140
:10EB5000D2E2012937D9977AAF4234D115891B887F
:10EB60009D4230D10123DB00D21853689C46002B14
:10EB700029D0414D2B68012B25D87422A25A3F4C35
:10EB800090461A01D21892009246A24491465746E6
:10EB900042467A8001224F46E25552465060624614
:10EBA0005046013302642B608B420CD1236C200051
:10EBB00098473368012B04D9200084234430E3585C
:10EBC000984700232B6003B03CBC90469946A24670
:10EBD000AB46F0BD7823C35C9C467723C75CCB88EB
:10EBE000002B14D18E89002E11D025480B8A834228
:10EBF00000D182E10A000023163205E00632911F9F
:10EC00000988814200D179E10133B342F6D3002370
:10EC100098463A2566466B4642466E43A6191A71D7
:10EC2000337901379F4200D160E1772301A9E7548E
:10EC30002000FFF7EFFD002800D0B6E16B461B79FE
:10EC4000002BC0D001212000FFF766FD7A22A35CD3
:10EC50000133DBB2A354064A1268934200D241E169
:10EC600000227923E254AEE7402E002090060200F5
:10EC7000442E0020302E00202C2E0020A42D002019
:10EC800002290000CB88002B00D0EFE03A27783330
:10EC9000C35C5F43C71998463E790B7BF318042B7E
:10ECA00000DD27E1DBB21A003B71964256D23A22D0
:10ECB00041465143894673009B199B004B449B4638
:10ECC000A34458462900303A0A300E3101F06BFC5B
:10ECD00000239A465B4652469A823B79721C9342C5
:10ECE00000D81AE153009A1892004A449346A3446C
:10ECF000584629000A220A30183101F054FC5B46BC
:10ED000052469A823B79B21C9A4200D305E15300E5
:10ED10009A1892004A449346A344584629000A226E
:10ED20000A30223101F03FFC5B4652469A823B7921
:10ED3000F21C934200D8F0E053009A1892004A4423
:10ED40009146A144484629000A220A302C3101F09C
:10ED50002AFC4B4652469A823B790436013E7200A9
:10ED6000961941463A224A43B600B618A619708A47
:10ED70003989884200D379E0042B77D07721635416
:10ED8000002B00D0A4E1FB8801A90B803B894B80BC
:10ED90007423E05AFFF7BCFC002800D113E70022DF
:10EDA0007923D14EE2543168013BE25C002900D165
:10EDB00009E73E3B5343CD4AE3189D789778AF422D
:10EDC00000D1B7E1012900D8FDE6977AAF4200D023
:10EDD000F9E615891B889D4200D0F4E60123DB008B
:10EDE000D21853689C46002B00D1ECE6C04D2B682E
:10EDF000012B00D9E7E67422A25ABE4F9146442265
:10EE000093465A439246BA444C46904652465480E2
:10EE10000124A14644464A463A555246506062464D
:10EE200050464B4402642B608B4200D0CBE600235B
:10EE30005C465A1C904632689A4200D8C1E6434666
:10EE400063431800043B4438FB583818984743463E
:10EE5000EFE77C220021FDF7DBF901227423524207
:10EE6000E252B0E674238A88C252ACE677230025CA
:10EE700001A9E5542000FFF7CDFC071E00D0DAE021
:10EE80006B461B79002B00D19DE601212000FFF786
:10EE900043FC7A22A35C0133DBB2A354924A12688A
:10EEA00093421FD37923E7548DE678238E4EC25CBC
:10EEB0003168002900D12FE13E3B53438B4AC318F0
:10EEC0009878957885426AD0012900D829E1957A09
:10EED00085422FD07A22A35C0133DBB2A3548B424C
:10EEE00000D3BDE62000FFF7EDFC6CE601236A4687
:10EEF0001371A7E604220423D6E600235A00D31890
:10EF00005B00ED187B00DB199A0060463A2343430F
:10EF1000E989D318E318998279E616001EE7013BC8
:10EF2000DBB25A00D3189B009B19E3185B8A0133AC
:10EF30009BB2F2E510891B889842CBD10123DB00FC
:10EF4000D21853689C46002BC4D0694D2B68012B06
:10EF5000C0D87422A25A674F90461A01D218920064
:10EF60009246BA4491465046424642800222484662
:10EF70003A5462465046013302642B609942A9D14B
:10EF800038003B6C98473168012905D93800842343
:10EF90004430FB589847316800232B609AE7178864
:10EFA0001D88AF4290D10023C9E7792342464E4ED7
:10EFB000E254013BE25C3368002B00D103E6554389
:10EFC0004A4A6519A97897788F4200D19CE0012BB5
:10EFD00000D8F8E5977A8F4200D0F4E517892988A0
:10EFE0008F4200D0EFE50121C900521852689446C3
:10EFF000002A00D1E7E53E4D2A68012A00D9E2E562
:10F000007421615A3B4C88461101891889008A464F
:10F01000A244894657464146798001214F46E15531
:10F020005146486061465046013201642A609A4266
:10F0300000D0C8E5BAE579232B4EE5543168013B91
:10F04000E25C002900D1BEE53E3B5343274AE3186A
:10F0500098789578854266D0012900D8B3E5957AED
:10F06000854200D0AFE510891B88984200D0AAE500
:10F070000123DB00D21853689C46002B00D1A2E587
:10F080001B4D2B68012B00D99DE57422A25A194C07
:10F0900090461A01D21892009246A24491465046D8
:10F0A00042464280012248469046225452465046EB
:10F0B00057606246013302642B608B4200D082E5C8
:10F0C000236C200098473368434500D974E578E500
:10F0D000013BDBB25900CB189B009A18A218538A47
:10F0E00001339BB250E6C046442E0020302E002053
:10F0F0002C2E0020A42D00201F88BC461788BC455C
:10F1000000D026E500232EE52F88BC461788BC4595
:10F1100000D05CE7002167E77A22835C01338354E7
:10F120009EE50121D6E61D88AC461588AC4593D1F5
:10F1300000239EE71788BC461F88BC4500D041E6E7
:10F1400000234CE67EDF70477FDF704781DF70472A
:10F15000A9DF7047AADF7047002070470020704782
:10F16000F8B54378114D5800C11889004A59002A52
:10F1700008D00F4C6618B67A77B2002F10DB002249
:10F18000002102E000220021094CC3189B00E31873
:10F1900018890323FFF7DCFF002800D00548F8BDDD
:10F1A0007606ECD46918043192B2EEE754300020B0
:10F1B0004C2E00204180000000207047F0B585B043
:10F1C00006236A46D3804B78274D5A00D3186A46E7
:10F1D0009B00EB1806000C0018890632032302A9D5
:10F1E000FFF7B8FF002802D0002005B0F0BD6B4645
:10F1F000DA8863781D4F5800C01880003818043032
:10F2000002A901F0C1F9637800281ED05900CA187C
:10F210009200D259002A25D1154D6A46CB18D288C2
:10F220009B00FA50637802A95800C0188000381873
:10F23000043001F0B8F963780C225900C91889002C
:10F24000791834233000A847CEE75800C3189B0034
:10F25000ED18AA7A9207C7D4F8180C220021FCF7FF
:10F26000D7FFC1E7034DD8E74C2E002054300020D3
:10F27000D9DB01005DDC010070B506004B780B4C5A
:10F280005800C3189B000D00E0180C2234233100F5
:10F29000FEF726FD002806D16B785A00D3189B0094
:10F2A0001A59013200D070BD1851FCE754300020CB
:10F2B000F0B557464E464546E0B4494E1F00336808
:10F2C00090B0824688469146002B48D0189B442B2C
:10F2D00045D8444B6A46019300231374189B099741
:10F2E00008930024404D02E00134082C11D0A1B253
:10F2F00002AA2800FEF748FC0028F5D1082202A93E
:10F30000504601F041F90028EED1E4B201ADAC70F5
:10F3100003E001ADAC78FF2C21D04346032B2FD066
:10F32000324BFB1ABF2B20D931481C21381A00F070
:10F33000B5FF07282FD80AAB0993182368700893E4
:10F3400008334246022A44D0022213436A46137409
:10F3500007AB05934A46336804A92800984710B0C4
:10F360001CBC90469946A246F0BD4B462149002B55
:10F370000BD00B680122A24093430B602023E0E7EF
:10F38000189B442B2AD04323E0E70122A2400B68BC
:10F390001342E4D0EEE7184C0C21381B00F07EFF3E
:10F3A0000728DCD830236A4613742F3BEB704300E8
:10F3B00068701818114B80001B189A7A3023920736
:10F3C000BFD420180C220021FCF722FF6B461B7CC7
:10F3D000B7E7012213436A461374B9E72323B5E75D
:10F3E000B830002000FFFFFF6C2F0020AC2E002063
:10F3F000742F0020B4300020543000204C2E002008
:10F4000000207047002070470020704700207047A0
:10F4100070B506004B780B4C5800C3189B000D00CC
:10F42000E0180C2234233100FEF75AFC002806D1E4
:10F430006B785A00D3189B001A59013200D070BD66
:10F440001851FCE754300020F8B54378114D5800AE
:10F45000C11889004A59002A08D00F4C6618B67A9C
:10F4600077B2002F10DB0022002102E000220021F1
:10F47000094CC3189B00E31818890323FFF768FEA3
:10F48000002800D00548F8BD7606ECD46918043190
:10F4900092B2EEE7543000204C2E00204180000054
:10F4A000F0B585B006236A46D3804B78274D5A00C5
:10F4B000D3186A469B00EB1806000C001889063228
:10F4C000032302A9FFF746FE002802D0002005B062
:10F4D000F0BD6B46DA8863781D4F5800C018800075
:10F4E0003818043002A901F04FF8637800281ED0C4
:10F4F0005900CA189200D259002A25D1154D6A46E2
:10F50000CB18D2889B00FA50637802A95800C01823
:10F5100080003818043001F046F863780C22590056
:10F52000C9188900791834233000A847CEE758005D
:10F53000C3189B00ED18AA7A9207C7D4F8180C22BA
:10F540000021FCF765FEC1E7034DD8E74C2E0020F3
:10F5500054300020D9DB01005DDC010070B5037878
:10F56000164D5900C9184378154E5A00D318890012
:10F570009B006918F318040004311889FFF7E2FDB5
:10F5800000281AD123785A00D3189B00ED180123C4
:10F590006A7A13436B7263785A00D31804229B0073
:10F5A000F318997A0A4320219A7263785A00D31883
:10F5B0009B00F3189A7A8A439A7270BDB830002083
:10F5C0004C2E0020F0B5454657464E46E0B48046E6
:10F5D00084B0002869D03D4C002227000125012677
:10F5E0003B4B60371A605A729A726D42A67225813F
:10F5F000E5722000072200210C34FCF709FEBC4212
:10F60000F4D1602200213348FCF702FE324B002582
:10F610009A461C000123FF269946304F20000622FF
:10F6200000211130FCF7F4FD102220000021FCF72E
:10F63000EFFD4B46AB403A6801359A432674E675B8
:10F640003A601834082DE9D144236A46244E938049
:10F65000244B31006846D5800093FEF723FA00283A
:10F660001DD10123204F3B7043461B78002B1ED138
:10F670000024A1B202AA3000FEF786FA0023051E7C
:10F680001FD1182202A95046FEF72AFB00281AD1E2
:10F6900018239C460134E244082CEAD1002004B02F
:10F6A0001CBC90469946A246F0BD1048F7E76B4651
:10F6B0006A469B88D1883000594389B2FEF766FBC1
:10F6C000EDE73B70EBE73D70E9E7C0464C2E0020CC
:10F6D000B830002054300020AC2E0020B430002080
:10F6E0006C2F0020B1F20100482E00200E80000097
:10F6F000F8B5114B05001B780C00002B01D10F4809
:10F70000F8BD00280AD0002908D00B68002B05D0CE
:10F710000B4E3768002F03D00A48F1E70A48EFE79D
:10F720003000053108C0052200F03DFF237900209C
:10F73000B3722F70E4E7C046482E00200880000016
:10F74000B8300020048000000E800000F8B5504B57
:10F750001B78002B01D14F48F8BD00280BD003784F
:10F76000002BF8D14C4A1368002BF4D04378072BB8
:10F7700003D94A48F0E74A48EEE75C00494EE118F1
:10F78000890071188D7A012DF3D0AD07E3D5857806
:10F79000C97AFF2D01D1FF290ED0DA008170D21A6B
:10F7A0004148910042181100E3189B00F3181231F0
:10F7B0001889FFF7CBFCCFE73C4CE17DFF291DD03A
:10F7C0002F21615CFF2960D04721615CFF295AD05D
:10F7D0005F21615CFF2954D07721615CFF294ED005
:10F7E0008F21615CFF2948D0A721615CFF2942D0AD
:10F7F000BF21615CFF293CD02D48ADE700210C25DD
:10F800006B43F55C022D32D018254D4365192F004E
:10F810001037BC46F3181F682F6167469D88BD806E
:10F82000FD259B79BB7118234B43E418E5750C2427
:10F830004378C9B26343F318D97203788170634384
:10F84000D3185B7ADB070FD5202543786343F31881
:10F85000997A294399720221037800205C43121996
:10F86000537A0B43537277E7FFF778FE74E7FE2570
:10F87000D9E7F839C3E70621C1E70521BFE704212D
:10F88000BDE70321BBE70221B9E70121B7E7C04685
:10F89000482E002008800000B830002010800000B2
:10F8A0000E8000004C2E0020742F0020AC2E002073
:10F8B00043800000F0B55F4656464D464446F0B4DE
:10F8C0009A4B8DB01B78002B66D0994E33689A46C0
:10F8D000002B61D0FF2302AA03AD53709370D37045
:10F8E000031D6B602A232B81002313700388102BC8
:10F8F00000D1A5E082888F4C94468F4A944500D170
:10F90000D4E2A27A920703D52289624500D1B3E2FC
:10F91000A27D920703D5A28A624500D1B8E22222D5
:10F92000A25C920703D5228C624500D1B4E22E225C
:10F93000A25C920703D5A28D624500D1AAE23A22C9
:10F94000A25C920703D5228F624500D1A8E246222D
:10F95000A25C920704D54422A25A624500D19DE2DE
:10F960005222A25C920704D55022A25A624500D1CD
:10F9700098E25E22A25C920715D4FF2200279146EE
:10F98000172B00D1E0E014D91C2B00D1D6E1522B6B
:10F9900000D1CCE1182B33D00DB03CBC9046994639
:10F9A000A246AB46F0BD5C22A25A6245E5D10727CC
:10F9B00063E2112B00D15AE1132BEDD10022FB00A1
:10F9C000DB1B5E499B00CB1806937B00DF19BF0051
:10F9D000E419E37A60465900CB185949DB00CB188B
:10F9E0000793002106AB09920A920B920892FFF747
:10F9F000ABFB0028D0D10423A27A1343A372CBE738
:10FA00008379112B00D119E27B009846DB199B000A
:10FA1000E3189A7A43468021DB199B004942E31898
:10FA20000A439A7215232B70B37A464A9B009B585F
:10FA300002A89847336800229A460023994682E13B
:10FA400001233C4CA27A134200D0BEE2A27D1342B5
:10FA500000D029E22222A25C134200D0BAE22E2278
:10FA6000A25C134200D0B7E23A22A25C134200D05B
:10FA7000B6E24622A25C134200D0AFE25222A25C60
:10FA8000134200D0AEE25D33E35CDB0700D483E7D2
:10FA9000072702227B009846DB199B00E3189A7225
:10FAA0000F322A7002AA577082881A81821D9346EB
:10FAB00018000722594600F076FD10229146204B8F
:10FAC000994400239A4607225946484600F05CFDB7
:10FAD000002800D11EE201239C461733E2449C46D5
:10FAE0005346E144082BEED133680022290002A8D6
:10FAF00098472B78122B00D04EE743460022DB19A3
:10FB00009B00E3189B7A9146012B00D144E7380013
:10FB100001234044800020188372023B0381C3729A
:10FB200007220021FCF774FB14E1C046482E002098
:10FB3000B83000204C2E0020FFFF0000742F002062
:10FB4000AC2E00202007020001220421737A934387
:10FB500073727B009846DB199B00E3189A7A8A43FC
:10FB60009A72944614222A708279002A00D025E1E4
:10FB7000C279114200D120E14A46FF2A00D11CE19E
:10FB80000822614611439972837A9B0709D54B4637
:10FB900001215B00D74A4B44DB00D318DA7D8A434E
:10FBA000DA754346DB199B00E218D17AFF2900D1B0
:10FBB00003E11B5D022B0FD04B465B00CD494B444C
:10FBC000DB00CB1802211068186190889882927926
:10FBD0009A75DA7D8A43DA7506AB6A469A464B46D1
:10FBE00093809188C4485246FDF7CEFF002838D153
:10FBF00002AB5B785A00D3189B00E3189B7A5B0634
:10FC000000D4E4E1BD4B984602AB9B781822590022
:10FC1000CB18B849DB00C91850460023C04700285C
:10FC200012D102AB597840304B005B189B00E318AF
:10FC30009A7A82439A72CB00591A8B00B0491C22DF
:10FC4000C91850461823C04702AB1B7802A95A00B6
:10FC5000D3189B00F3189B7AAA4A9B009B585046E6
:10FC60009847336800229A46012399466BE07B004F
:10FC70009846DB199B009A46A24453469A7A02237F
:10FC8000110099430B0051468B72120700D498E083
:10FC90005AB2002A00DBBBE006AB6A469A464B46E6
:10FCA0009380918894485246FDF76EFF002838D122
:10FCB00002AB5B785A00D3189B00E3189B7A5B0673
:10FCC00000D491E18D4B994602AB9B7818225900E4
:10FCD000CB188849DB00C91850460023C8470028C4
:10FCE00012D102AB597840304B005B189B00E318EF
:10FCF0009A7A82439A72CB00591A8B0080491C224F
:10FD0000C91850461823C84702AB1B7802A95A00ED
:10FD1000D3189B00F3189B7A7A4A9B009B58504655
:10FD200098474346DB199B00E3189B7A70E0B37A4F
:10FD3000754A9B009B5802A898472DE613232B7009
:10FD4000002300229946290002A8D0472B78122BC5
:10FD500000D130E14B46002B00D11DE6727A9307AB
:10FD600000D419E62023A17A0B4200D0FEE0A17D49
:10FD70000B4200D011E12221615C0B4200D00EE168
:10FD80002E21615C0B4200D00BE13A21615C0B42F9
:10FD900000D008E14621615C0B4200D005E1522110
:10FDA000615C0B4200D002E15E21615C0B4200D03D
:10FDB000FFE01E3B9A437272EEE500220123994652
:10FDC000C1E74A46FF2A23D04A4B00219B465300F5
:10FDD0004B44DB0018005844062211300193FCF715
:10FDE00017FA019A00219446E34410225846FCF782
:10FDF0000FFAFF235A4648461374D37501228240F6
:10FE000042490868904302AA937053469B7A08605F
:10FE1000002291465B0705D5737A013293437372D2
:10FE20000123994643461022DB199B00E3189A727E
:10FE300012232B70336800229A4684E77B00984691
:10FE4000DB199B00E2189146927A110700D4E1E594
:10FE50002F480622C318181D0021FCF7D9F91623D4
:10FE60002B704B469A7A602313434A4693720223BF
:10FE7000727A13437372F4E600277A00D219920063
:10FE8000A218D27A9146494602AA9170577077E536
:10FE90000127F2E70327F0E70227EEE70527ECE763
:10FEA0000427EAE70627E8E70127F2E50222A17A1C
:10FEB0000A42E1D1A17D0A42EAD12221615C0A42D3
:10FEC000EAD12E21615C0A42E4D13A21615C0A4206
:10FED000E6D14621615C0A42E0D15032A15C503A41
:10FEE0000A42DFD15E21615C0A4200D145E5072765
:10FEF000C3E7C046AC2E00206C2F00205DDC010063
:10FF0000742F00203007020020070200B4300020C8
:10FF1000543000206A465346137143461179082233
:10FF2000DB199B00E318987AD97202439A7202ABEC
:10FF30006A4699705346938091882D4806AAFDF72A
:10FF400023FE002800D075E5F800C01B8300294877
:10FF500006A9C0181C221823FDF7C2FEB37A264A50
:10FF60009B009B5802A906A8984763E500235A0006
:10FF7000D3189B00E418311D2089FFF7E3F800280F
:10FF800000D009E50123727A134320227372A37A09
:10FF9000934304221343A372FEE40123E7E7022301
:10FFA000E5E70323E3E70423E1E70523DFE706238F
:10FFB000DDE70723DBE77B009846DB199B00E318AE
:10FFC0009B7A012B00D1C5E6A1E5002761E50B4B2B
:10FFD000984619E602275CE503275AE5052758E508
:10FFE000042756E5062754E5054B99466CE6C046BE
:10FFF0006C2F0020742F002040070200D9DB010085
:020000022000DC
:1000000059F101001D4B1B78012B00D070471C4B90
:100010001B681B07FAD1F0221A4B1B68134018D13A
:10002000194B1B6813421CD0154B1B681B07EDD1E5
:10003000F022144B1B681340402BE7D1124B1B6876
:100040001342E3D1C12380220121DB00D205D1502C
:10005000DCE7102B01D0302BEAD10B4B1B6813428D
:10006000E6D10A4A0A4B1A6080220A4B12021A6031
:10007000024B1B78012BD7D0C8E7C046E00F00F039
:10008000E40F00F0E80F00F0EC0F00F0DFFF07C016
:1000900004050040186C00402EDF704751DF7047A8
:1000A00010DF704761DF704710B508001100FEF7E0
:1000B0004FFA10BDF0B557464E464546E0B4344BB6
:1000C000344E1D6899466B425D41334BEDB21C685E
:1000D000984663425C4182B0E4B2304FB246002D94
:1000E00013D0002C40D13C68338801A920000B803C
:1000F000FFF7D8FF052837D000282AD0002200219A
:10010000FCF790F80024002DEBD101A8FFF7C6FF03
:1001100005280DD0002822D000220021FCF782F80B
:10012000002C27D0012401A8FFF7B8FF0528F1D142
:10013000002C19D153466A461B8801A99380174B9E
:100140001C682000FFF7AEFF05280DD00125002810
:10015000D4D1434620001B6898470024D3E74B4680
:1001600001981B689847DBE702B01CBC9046994693
:10017000A246F0BD6A46074B01A91B889380074B36
:100180001C682000FFF78EFF0528B5D10124CAE7BF
:10019000CC300020C6300020D0300020C8300020F5
:1001A00070B504000720002901D08D0700D070BD74
:1001B00009480160094920000A80094A0949136079
:1001C000FFF76EFF0028F2D10122074B16301A709C
:1001D000FFF762FFEBE7C046C8300020C6300020C2
:1001E000D4300020A9000200C4300020002803D031
:1001F000024B1860002070470E20FCE7D030002032
:10020000002803D0024B1860002070470E20FCE746
:10021000CC30002010B50A4B1B68002B08D0984743
:10022000002800D110BD00220021FBF7FBFFF9E7F9
:10023000044B1B78002BF5D0FFF73CFFF2E7C046DC
:10024000D4300020C430002003210A4802680A4349
:100250000260094802680A4302600849084A094BDB
:100260009B1A03DD043BC858D050FBDC064880478E
:100270000648004724050040540500405807020086
:1002800000280020682800200500020021C101008C
:10029000FEE7FEE7FEE7FEE7FEE7FEE70022430893
:1002A0008B4274D303098B425FD3030A8B4244D33E
:1002B000030B8B4228D3030C8B420DD3FF22090280
:1002C00012BA030C8B4202D31212090265D0030B3F
:1002D0008B4219D300E0090AC30B8B4201D3CB0335
:1002E000C01A5241830B8B4201D38B03C01A524177
:1002F000430B8B4201D34B03C01A5241030B8B4279
:1003000001D30B03C01A5241C30A8B4201D3CB0263
:10031000C01A5241830A8B4201D38B02C01A524148
:10032000430A8B4201D34B02C01A5241030A8B424B
:1003300001D30B02C01A5241CDD2C3098B4201D363
:10034000CB01C01A524183098B4201D38B01C01AE1
:10035000524143098B4201D34B01C01A5241030958
:100360008B4201D30B01C01A5241C3088B4201D307
:10037000CB00C01A524183088B4201D38B00C01AB4
:10038000524143088B4201D34B00C01A5241411ADB
:1003900000D20146524110467047FFE701B50020E8
:1003A00000F0F0F802BDC0460029F7D076E77047AC
:1003B00003460B437FD4002243088B4274D30309C6
:1003C0008B425FD3030A8B4244D3030B8B4228D367
:1003D000030C8B420DD3FF22090212BA030C8B428D
:1003E00002D31212090265D0030B8B4219D300E02D
:1003F000090AC30B8B4201D3CB03C01A5241830BB2
:100400008B4201D38B03C01A5241430B8B4201D361
:100410004B03C01A5241030B8B4201D30B03C01A8A
:100420005241C30A8B4201D3CB02C01A5241830A04
:100430008B4201D38B02C01A5241430A8B4201D333
:100440004B02C01A5241030A8B4201D30B02C01A5D
:100450005241CDD2C3098B4201D3CB01C01A5241C4
:1004600083098B4201D38B01C01A524143098B424D
:1004700001D34B01C01A524103098B4201D30B0136
:10048000C01A5241C3088B4201D3CB00C01A52415B
:1004900083088B4201D38B00C01A524143088B4220
:1004A00001D34B00C01A5241411A00D201465241B9
:1004B000104670475DE0CA0F00D04942031000D3D8
:1004C0004042534000229C4603098B422DD3030A2D
:1004D0008B4212D3FC22890112BA030A8B420CD33D
:1004E000890192118B4208D3890192118B4204D366
:1004F00089013AD0921100E08909C3098B4201D3E6
:10050000CB01C01A524183098B4201D38B01C01A1F
:10051000524143098B4201D34B01C01A5241030996
:100520008B4201D30B01C01A5241C3088B4201D345
:10053000CB00C01A524183088B4201D38B00C01AF2
:100540005241D9D243088B4201D34B00C01A5241C9
:10055000411A00D20146634652415B10104601D356
:100560004042002B00D54942704763465B1000D3E0
:10057000404201B5002000F005F802BD0029F8D086
:1005800016E770477047C04630B50024A24208D035
:10059000035D651C0C5DA34201D0181B02E02C001A
:1005A000F4E7002030BD002310B59A4203D0CC5CA4
:1005B000C4540133F9E710BDF8B5C046F8BC08BC17
:1005C0009E467047F8B5C046F8BC08BC9E467047CA
:1005D0000028002061D0010049CE0100D1D60100E1
:1005E000F9CE010095CD010005D10100BDCF01007C
:1005F000D9D40100E1CC0100DDD101001516171896
:10060000B3585540506011E38F96080000009A6679
:100610001500000016000000170000001800000080
:1006200048E40100A4E40100BAE4010078E4010018
:1006300078E4010078E4010078E4010078E4010046
:1006400078E4010078E4010078E4010078E4010036
:1006500078E4010078E4010078E4010078E4010026
:1006600094E4010094E4010094E4010018003000D7
:10067000000090014D756C74696C696E6B00000030
:100680000000000000000000A0005000000000007A
:1006900064EE010052EE0100C6EB0100C6EB010062
:1006A000C6EB0100C6EB0100C6EB0100C6EB010082
:1006B000C6EB0100C6EB0100C6EB0100C6EB010072
:1006C000C6EB0100C6EB0100C6EB0100C6EB010062
:1006D000C6EB0100C6EB0100C6EB0100C6EB010052
:1006E000C6EB0100C6EB0100C6EB0100C6EB010042
:1006F000C6EB0100C6EB0100C6EB0100C6EB010032
:10070000C6EB0100C6EB0100C6EB0100C6EB010021
:10071000E6EA0100C6EB010084EC0100D4EB010025
:100720000DF4010061F10100B9F1010049F401008B
:1007300005F40100BDF1010009F40100A1F401007C
:1007400001F4010079F201005DF1010011F40100F2
:08075000D0B9FF7F0100000099
:100758000000000000000000000000000000000091
:100768000000000000000000000000000000000081
:100778000000000000000000000000000000000071
:100788000000000000000000000000000000000061
:100798000000000000000000000000000000000051
:1007A8000000000000000000000000000000000041
:0807B800E9C00100C1C001000D
:04000003200002498E
:00000001FF
