:020000021000EC
:10C00000008000205DE80100A5E80100A7E801002C
:10C010000000000000000000000000000000000020
:10C02000000000000000000000000000A9E801007E
:10C030000000000000000000ABE80100ADE80100D6
:10C04000AFE80100AFE80100B5D30100AFE801009F
:10C05000AFE80100000000000DD00100AFE80100D2
:10C06000AFE80100AFE80100AFE80100AFE8010070
:10C07000AFE80100AFE80100AFE80100AFE8010060
:10C08000AFE8010095C40100AFE80100AFE801008E
:10C0900075C50100AFE8010029E80100AFE8010023
:10C0A000AFE80100AFE80100000000000000000060
:10C0B0000000000000000000000000000000000080
:10C0C00010B5064C2378002B07D1054B002B02D06E
:10C0D000044800E000BF0123237010BD8028002029
:10C0E00000000000E8EA0100084B10B5002B03D067
:10C0F0000749084800E000BF07480368002B00D14B
:10C1000010BD064B002BFBD09847F9E7000000005C
:10C1100084280020E8EA01008028002000000000B8
:10C12000164B002B00D1144B9D46402292029A1AC6
:10C13000924600218B460F461348144A121A00F00B
:10C1400067F80F4B002B00D098470E4B002B00D008
:10C1500098470020002104000D000D48002802D05F
:10C160000C4800E000BF00F02DF82000290001F08D
:10C170004FFE00F011F8C0460000080000800020CB
:10C18000000000000000000080280020182C002083
:10C190000000000000000000084B10B50400002B58
:10C1A00002D0002100E000BF054B1868836A002B15
:10C1B00000D09847200000F033F8C046000000008F
:10C1C000F4E901000E4B70B500251E000D4CE41A79
:10C1D000A410A54204D0AB00F35898470135F8E706
:10C1E00002F0FCFB084B00251E00084CE41AA410CA
:10C1F000A54204D0AB00F35898470135F8E770BD6D
:10C200007828002078280020782800207C2800202A
:10C2100003008218934202D019700133FAE7704785
:10C22000FEE7C046F0B54E4657464546E0B4214BC2
:10C230001978994600292AD01F4B002598461F4B94
:10C240001F4F01269A4603E00135EDB28D421ED202
:10C2500043461B6832009C46EC00644420783B68EF
:10C2600082401342F0D093433B6000F0C5FE3300A0
:10C2700022785146934009680B40010091408B425F
:10C280000AD04B4601351978EDB28D42E0D31CBC83
:10C2900090469946A246F0BD6368002BF1D06178C4
:10C2A00001394C424C41211A4C424C411000E1B240
:10C2B0009847E6E7A4280020A0280020C8280020EE
:10C2C000CC280020F8B5124D0700280000F0B4FC7F
:10C2D000002807D10124BC400E4E3368234202D00F
:10C2E000A3433360F8BD380000F086FE0A4A1368A5
:10C2F00000280BD023431360336800221C43074BF4
:10C3000028001968346000F021FCEBE7A343F2E752
:10C31000A8280020CC280020C82800209C28002025
:10C32000F0B54F464646C0B41400070083B00E0077
:10C330000720042A04D803B00CBC90469946F0BDEF
:10C3400000F04EFD00282FD01A4B1B4A1F601B4BDC
:10C35000751E1E701A4BEDB21C6000231360194A43
:10C360001360002E1AD0184B01AC99460323002607
:10C37000984600E01D004246EB00FB182270A670B4
:10C38000E6709A781878627021004A4600F032FD13
:10C390000028D0D16B1EDBB2002DEBD10B4A00215F
:10C3A0000B4800F0B9FBC6E700F0E6FC0028CBD054
:10C3B000C1E7C046A0280020C8280020A4280020EB
:10C3C0009C280020CC280020C5C2010025C2010005
:10C3D000F8E9010070B5094D2B78002B0BD0002433
:10C3E000074E3268E300985C012100F0B1FD2B7824
:10C3F0000134A342F5D8002070BDC046A428002017
:10C40000A0280020BFF34F8F024A034BDA60BFF32E
:10C410004F8FFEE70400FA0500ED00E08021802345
:10C42000184A8902D1508022D221174B520289002A
:10C430005A5040395A5001222F205A600138C046C4
:10C44000C046C046C046C046C046C046C046C046BC
:10C45000C046C046C046F1D19A6000230B4A2F2047
:10C4600013600138C046C046C046C046C046C046FC
:10C47000C046C046C046C046C046C046F1D1044A88
:10C480001370704700E100E000100140D028002048
:10C49000F0280020A021F0B5002347462C4A49008F
:10C4A00080B453500431535004315350043153502D
:10C4B0004C39535004315350264B1B68002B37D056
:10C4C0002549002652582549254F0C68141B002287
:10C4D0002402240A904602E0002D1AD02B001A688C
:10C4E000A24216D8A41AB6181A7CDD69002AF3D025
:10C4F000424699691A745A693B68002B1BD0100098
:10C5000098470028E8D000220021FFF77BFF002D8C
:10C51000E4D1144B14491A780B789A420ED0134A7E
:10C520009B009E5080218023114A49035B00D1501B
:10C5300004BC9046F0BD08009047CDE70132D3B26D
:10C54000022B01D00B70EAE700230B70E7E7C0462F
:10C5500000100140D428002004050000D02800204D
:10C56000D8280020E4280020E5280020E828002022
:10C5700000E100E0F0B55F4656464D464446F0B453
:10C58000C24BC34A1B68C3498BB005930978137823
:10C59000994200D154E10133DBB2022B00D10023D8
:10C5A0001370BD4A9B009B58B84A9A46059B53445A
:10C5B0001B021B0A136001230193B84B00241B6864
:10C5C0009B46B74B5A461B78914619008846039301
:10C5D000B44B47461B68013F0493AC4B1B68089360
:10C5E000B14B1B7807930023099306931E00FBB2FF
:10C5F0009846FF2B32D04346D800049B9C4613003C
:10C6000060440178457800961A00A9421FD0466818
:10C610004A00B446521886780131D200C9B2624449
:10C620008E4200D1EBE01678022E00D1C5E0032E39
:10C63000EAD1002BE8D01C74DB69002BFBD101335D
:10C6400045780093002399461A00A942DFD1474656
:10C65000013FFBB2009E9846FF2BCCD10292002EE8
:10C6600000D0F1E0069B002B02D0884B089A1A609C
:10C67000099B002B03D06A468B4B127F1A70019BDB
:10C68000002B00D02AE15B46029A00259B1A5A1E15
:10C690009341DBB205937D4B00271B6802999C46B2
:10C6A0007E4B1B689B46804B1B78069300230193AF
:10C6B0007E4B994601230093039B013BDBB203931E
:10C6C000FF2B00D1F6E0049ADB0092460E009A445C
:10C6D000002D28D06A68A9682C00ED696346D31A3A
:10C6E0001B021B0A4B4552D86A4612785B1823601E
:10C6F0006760A7602274E761002E58D0316830006F
:10C70000994205D3B6E01168994200D3A0E0100029
:10C71000C2695B1A002AF6D1E26132002360C4616B
:10C720001600002DD6D153461A785B78310093421B
:10C73000C2D0514649685300884651469B18013281
:10C74000D2B20A708978DB004344914200D19AE06A
:10C75000197832000129E3D15C68227C9046414679
:10C7600032000029DCD19A686260D968A16018693A
:10C77000E0605B69A361069B002BAFD043460022BB
:10C7800063606346D31A1B021B0A4B45ACD9634650
:10C790009A1A1202120A8A4261D28B1A6A461278D7
:10C7A00023606760A7602274E761002EA6D1220093
:10C7B0000123A34601931600B3E75668002B30D03F
:10C7C0009E421ED0009A1F00944602E0964206D078
:10C7D0001700FA69002AF9D16246009214E765460B
:10C7E0000095BA420FD01568D269FA61002A16D0B6
:10C7F00013689C466544156045784B4604E7002164
:10C8000011E71A001F00DE69002E0CD001250095EB
:10C810001568D269B1463300FA61002AE8D145783B
:10C82000F2E60023F0E60125214B9D60099507956E
:10C830000695002500230895013599460095D2E715
:10C8400000239A460193B8E64A46144B1A6009E75A
:10C85000C91A1160E26123603200C46160E76B466F
:10C860001B7827606760A7602374E761002E9ED065
:10C8700000233168CB1A336022000123E661A3460E
:10C88000019316004DE75246157061E7D02800204D
:10C89000E4280020E5280020E8280020D4280020F3
:10C8A000DC280020E0280020E6280020FEFF7F0092
:10C8B00000100140019B002B00D09DE0029B99429B
:10C8C00036D1059B002B33D10023534A13700BB094
:10C8D0003CBC90469946A246AB46F0BD4F4B002467
:10C8E00018680025029B00210026574615E01A68AB
:10C8F000BA4200D984E0D868BF1A89181E60DC6982
:10C90000002807D0DD611D00059A986052181202B8
:10C91000120A5A6023002000019C002BE7D1002C52
:10C9200001D03E4B18600023029301330593B2E619
:10C93000002900D15DE00B6839489846394B3A4DE3
:10C94000C4583A4B2E781B68E11A0902090A0331D0
:10C95000002E2DD042468A4200D20A00A820D218CA
:10C9600012022F49130AC0002E4D0B504A591B1BAF
:10C97000121B1202120A1B0203321B0A9A42A3D98B
:10C980004B590B502F200138C046C046C046C04608
:10C99000C046C046C046C046C046C046C046C04667
:10C9A000F1D180218023224A89025B00D1508BE79C
:10C9B0008026D1277602BF00C651403FC651C02213
:10C9C00080271B4EBF025200B75037600126066019
:10C9D0002F200138C046C046C046C046C046C046AB
:10C9E000C046C046C046C046C046C046F1D12E70C3
:10C9F000B0E7FFF713FD67E75A46084B1A605DE79B
:10CA0000BA46002C01D0054908605146521A1A60F6
:10CA10000293012305933EE6E6280020D428002057
:10CA20000010014004050000F0280020D02800205C
:10CA300000E100E0F8B54F464646C0B40326350095
:10CA400080460F001400994615400720002D03D0A2
:10CA50000CBC90469946F8BD002A44D0FFF7DEFC96
:10CA60004A46224B80201A602200214B18321E7049
:10CA7000204B62601C607B00DB19DB00D218E26097
:10CA8000D318C022636125706570A7702572657226
:10CA9000A77225746574A774C524FF21164B400343
:10CAA0001D60164B52001D70154BA4001D70154BD8
:10CAB00098501A598A433F390A431A51A1221860E3
:10CAC00040461149D2008850C42080001C580F4AAB
:10CAD0002240C024240222431A500D4B0020CA5881
:10CAE0000C4B1A60B4E7034B1A60B1E7D82800205A
:10CAF000DC280020E0280020D4280020E4280020A2
:10CB0000E528002000E100E000100140FF00FFFFE9
:10CB100004050000D028002010B50B4B1B68002B2B
:10CB20000BD0002A07D0002805D0036808201C7C01
:10CB3000002C04D010BD0720FCE70820FAE7597448
:10CB40005A610020F6E7C046E0280020F0B5344BDB
:10CB50001C68002C06D0002804D00723042903D821
:10CB60001800F0BD0823FBE74369002BFAD0437C93
:10CB7000012B44D000262B4B10255B68DB05DB0D19
:10CB800025D164196378A5785F1CFFB2BD423AD005
:10CB90002578BD4235D05D00ED186368ED009C46F8
:10CBA00065440423002DDBD0033B2B7068601E4BD3
:10CBB0001E48C358E960AB60802180236A611C4A2B
:10CBC0005B0049032E616770D1500023C8E7103B1A
:10CBD0005DB2002D19DBAD08C035154FAD00ED5924
:10CBE00003273B40DB00DD40AB093B40DBB20025C7
:10CBF000012BC6D00835032BC3D00835C1E70E0082
:10CC0000B9E70423ACE70027C2E70F25094FDBB2E1
:10CC1000BC461D40083DAD08AD0065446D68DFE7CA
:10CC2000E028002000ED00E00405000000100140B5
:10CC300000E100E018ED00E010B52C4A0300116897
:10CC4000082000292AD0002B28D05A69002A25D094
:10CC500000221A74264A08305268D205D20D1ED11D
:10CC600009184A788878541CE4B2A04231D0087878
:10CC7000A0422CD0500082184868D20084466244FA
:10CC80000420002A0AD00238107053604C708023B0
:10CC900080210020174A49035B00D15010BD103A93
:10CCA00050B2002817DB8008C030124C80000059B9
:10CCB00003242240D200D04082092240D2B2002078
:10CCC000012ACDD00830032ACAD00830C8E7042092
:10CCD000E4E70024CBE70F20074CD2B2A446104073
:10CCE00008388008800060444068E1E7E0280020C0
:10CCF00000ED00E000E100E018ED00E0F0B50028F4
:10CD00001EDBFF261A4B37009C4603238208C025F2
:10CD1000C0B20340DB0089019F403140994092003E
:10CD20006244AD005459BC43214351511F23C021DB
:10CD300018401E3B83400E4A490053501360F0BD1B
:10CD4000FF250C4A2E00944603220F23C0B2024056
:10CD5000D20089019640294091400340083B9B083E
:10CD60009B006344DC69B4432143D961DEE7C046DC
:10CD700000E100E000ED00E070B54425164C08200D
:10CD8000635D002B00D070BD4022FF21013BA35406
:10CD90000132A1540132A354236201326362A362BF
:10CDA000E36223636363A363E363FC390238A35440
:10CDB00023606360A360E36023616361A361E36157
:10CDC000FFF79CFF8021C123044A9B000906D15034
:10CDD000012300206355D6E7F428002000600040BE
:10CDE0004423034AD05C431E9841C0B27047C046FA
:10CDF000F4280020F0B5474680B4524C082523188B
:10CE000020331E787F2E03D8280004BC9046F0BD46
:10CE1000CD78AC46002D36D02568013500D186E0AE
:10CE2000042300269846731C9D006759013733D0B0
:10CE3000B31C984525D99D00675901372CD0F31CA8
:10CE400098451ED99D006759013725D0331D984557
:10CE500017D99D00675901371ED0731D984510D909
:10CE60009D006759013717D0B31D984509D99D001A
:10CE70006759013710D00736B04502D9E36901334D
:10CE800008D00425C0E72569013555D008230426BC
:10CE90009846C8E707231C256251624627185EB2F0
:10CEA00020373E70002A02D1E3183C3318708B788B
:10CEB000002B14D10300A0254A78C133FF33920020
:10CEC0009B00ED055A51CB78002B14D1A4193C34AA
:10CED0000B7822789B0113432370002594E7A0224E
:10CEE000D2059446E025022783006344ED005A5999
:10CEF000BA435A51E7E7144A0B789446A221B60088
:10CF00006644C9007458114A000222407250F82247
:10CF1000520110400500C0221804030028009202AC
:10CF20007458134018432043705000256CE70025C7
:10CF300022601D700026BAE7042522611D702E00B4
:10CF40002B00B1E7F428002000600040FFE0FCFF68
:10CF50000023F0B5254C22182032D356032B18DDC0
:10CF6000E3183C331B789B09032B33D0012B3AD0B9
:10CF7000C0218902A023DB059C46E0238000604499
:10CF8000DB00C4581A4A2240C250C2580A43C25059
:10CF9000F0BDD8B20328FBD8164DA227AC46012617
:10CFA00098006044FF00C5593543C55118006546D7
:10CFB00000274030800080B247510029E8D0127825
:10CFC00052B292001259002AE2D09E40C1239B0027
:10CFD000EE50DDE7A223A022DB00D205D2580123C8
:10CFE00083401A42C4D180218902C3E7F42800207B
:10CFF000FFFFFCFF00600040A222A0210300D2003E
:10D00000C9058858D840012318407047F0B55746E5
:10D010004E464546E0B4D24A00241368012B00D1A5
:10D02000BDE0D04B1A68012A00D1C6E0CE4B1A6889
:10D03000012A00D1D1E0CD4B1A68012A00D1DCE0F1
:10D04000CB4B00251A68012A00D1E7E023070BD05B
:10D05000E30700D5F8E0A30700D504E1630700D596
:10D060000FE1230700D5E3E0002C04DB1CBC904655
:10D070009946A246F0BD4023BE4CE1564B1C1ED043
:10D08000C9B2C02308009843231820331B785BB231
:10D090009B001E59002E12D0A0230127DB059C46C1
:10D0A000E023874082006244DB00D35889099B0358
:10D0B0009B0F3D4200D10CE1022B00D170E14123D6
:10D0C000E1564B1C1ED0C9B2C02308009843231858
:10D0D00020331B785BB29B001E59002E12D0A02378
:10D0E0000127DB059C46E023874082006244DB0089
:10D0F000D35889099B039B0F3D4200D1D1E0022BFD
:10D1000000D141E14223E1564B1C1ED0C9B2C023DD
:10D1100008009843231820331B785BB29B001E59EC
:10D12000002E12D0A0230127DB059C46E023874078
:10D1300082006244DB00D35889099B039B0F3D4268
:10D1400000D1F5E0022B00D124E14323E1564B1C32
:10D1500000D18BE7C9B2C0230800984323182033BD
:10D160001B785BB29B001E59002E00D17EE7A023E6
:10D170000124DB059C46E023844082006244DB00FE
:10D18000D35889099B039B0F254200D1BDE0022B98
:10D1900000D06BE7032900D108E1B04766E7C12161
:10D1A0007548890041580B4200D13AE76D4B146035
:10D1B0001A680134012A00D038E7C1226E49920072
:10D1C000895802220A4200D130E700211960664BDB
:10D1D00014431A68012A00D02DE7C1226649920043
:10D1E000895804220A4200D125E7002119605F4BCB
:10D1F00014431A68012A00D022E7C1225E49920036
:10D20000895808220A4200D11AE700211960584BB8
:10D2100014431A680025012A00D017E71D608023F7
:10D220001B061C43A022A223D205DB00D5580DE724
:10D23000514A524BD058D1584E4B8903C004890FE4
:10D24000C00EDB6898470FE7A2234B4ADB00D0589B
:10D25000D158484B8903C0041B68890FC00E9847FA
:10D26000A30700D4FAE6464B434AD058D158414B65
:10D270008903C0045B68890FC00E9847630700D418
:10D28000EFE6A3233C4ADB00D058D158394B890341
:10D29000C0049B68890FC00E9847230700D4E3E6BB
:10D2A000C6E7032B00D02DE7032910D180239B0272
:10D2B0009C46E023DB009946324FD3581F404B4633
:10D2C000D750D75863463B431F004B46D750B04713
:10D2D00018E7032B00D0F2E6032914D180239B0228
:10D2E0009A46E023DB00D7589946B846254FBC46FE
:10D2F000474663461F403B004F46D351D3595746DC
:10D300001F434B46D750B047D9E6032B00D0ADE6BC
:10D31000032900D041E78027BF02E023DB00D45877
:10D32000184D2540D550D4583C43D450B0479DE6C5
:10D33000032B00D009E7032910D180239B029C46D0
:10D34000E023DB0099460F4FD3581F404B46D75080
:10D35000D75863463B431F004B46D750B047F4E6CF
:10D360000061004004610040086100400C61004021
:10D370007C610040F4280020006000401C05000093
:10D3800014050000FFFFFCFF0329A0D1C0239B026E
:10D390009C468EE70329E1D1C0239B029C46CFE740
:10D3A0000329B0D1C0239B029A469AE7C027BF0247
:10D3B000B3E7C046C12210B5514B92009A5884B0D1
:10D3C00092054CD54F4A1168002948D000211160C0
:10D3D0008121C2228900920099504B4B5A7D002A2C
:10D3E00002D10121494A1160022269460A70902146
:10D3F0004348C9004258425069460392DA7C684665
:10D400000A72DA68196801920022DA745B68984738
:10D410003F4A1368002B10D03B4B188A997C8142FD
:10D4200051D9002111601A8A9968895C1A8A0132DF
:10D4300092B21A82374B324AD150374B1A68002ABF
:10D440000BD000221A60304B5A7D002A02D00121F5
:10D450002B4A1160DA7C002A44D104B010BDC123EC
:10D46000274A9B00D3585B07D2D52C4B196800295B
:10D47000CED00021A3241960234BE400187DD96885
:10D4800012590A541A7DD87C0132D2B21A751A7D0B
:10D490009042BDD15A7D002A02D101201B4A106062
:10D4A0008124C2221648A400920084506C461A7D42
:10D4B00001202272002220700191DA7419686846F6
:10D4C0005B689847A4E7002010600029B5D06A4641
:10D4D000107011729A689874196801925B686846B6
:10D4E0009847AAE768461A7D01210272DA6801703E
:10D4F000019200221968DA745B689847ADE7C0466C
:10D5000000200040242100403C290020042000404D
:10D510001C2100401C05000044210040082100405F
:10D52000A02210B5064BD205D15880231B041C0045
:10D53000A1208C430B400349C0001450535010BD30
:10D54000040500000C050000F8B54F4646460400EF
:10D55000C0B4112809D0122839D0132839D0142882
:10D5600039D00CBC90469946F8BD0025012911D050
:10D5700000291FD00229F4D16B005D191F4B5D19E2
:10D580006E78002EEDD01E4B1B68002BE9D03000CA
:10D590009847E6E7194B6F00984642467B19D65CE0
:10D5A00043445B78002B18D17F194744BA78154B58
:10D5B0005A55E6E71448FFF73FFB104A6B005B192A
:10D5C000D318104A9B78565D9E42CAD1D9E70125EF
:10D5D000CCE70225CAE70325C8E70C4B0A48994661
:10D5E0000B4B4A461B689900C9184900FFF7AEFA71
:10D5F0000028D9D14B461C70D6E7C046D029002060
:10D6000088290020842900208C2900207C290020E2
:10D6100080290020F8B5C64B1B68DB0700D4F8BD95
:10D62000C44A1478172CFAD8C349A300CB589F4694
:10D63000A022C24BD205D1588023DB031C00A120BD
:10D640008C430B40BE49C00014505350BD4B0022C8
:10D650001B68BD489900C918FFF778FADFE7A023D7
:10D66000F021B74ADB05490499500021043A99504A
:10D67000D5E7A022B14BD205D1588023DB031C0093
:10D68000A1208C430B40AE49C00014505350AD4B09
:10D6900000221968AC48FFF759FAC0E7AB4BA1204C
:10D6A0001968E0235B048B43A0210026F025C905FF
:10D6B000C000A34C0B50A14B0E51CB586D046B40D6
:10D6C0008025AD032B4000D129E10D5003230E51DD
:10D6D000082113709B4B00221B689B485943FFF79E
:10D6E00035FA9CE7994BA1201968E0235B048B4332
:10D6F000A0210026F025C905C000914C0B508F4B8E
:10D700000E51CB586D046B408025AD032B4000D1EA
:10D7100000E10D5004230E512821DAE7A023A122B5
:10D72000E021DB05D200490480249950002184487F
:10D73000A40319501C50995071E7854D2800FFF73C
:10D740007BFA11231C1B00D1C9E0002800D0C6E0E1
:10D7500080237E4E1B043360012C10D0C83064211E
:10D76000604301F0A5F8774B00221B684343280073
:10D770001900FFF7EBF9F02332685B041340A02295
:10D780006F49D2055350A1230021DB00D15046E759
:10D790006E4BA1211A68F0235B049343A022C900B9
:10D7A000D20553500021664BD15038E7674BA1207A
:10D7B0001968E0235B048B43A0210027F026C905EC
:10D7C000C0005F4D0B505D4B4F51CB5876047340FA
:10D7D0008026B603334000D190E00E504F512821EF
:10D7E000022C79D0147075E7A023A122C021DB059B
:10D7F000D2004904C024995000215148E403195033
:10D800001C5099500BE7A023A122D021DB05D200A8
:10D8100049048024995000214948E40319501C50C0
:10D820009950FCE6A023F021A122DB054904D20097
:10D8300099500021424A9950F1E6E022434B5204AC
:10D840001B68A1219A43A023C900DB0580245A50FC
:10D8500000223B48A4031A501C505A50DFE63B4BB1
:10D86000A1201968E0235B048B43A0210026F0254A
:10D87000C905C000324C0B50304B0E51CB586D04D3
:10D880006B408025AD032B4041D00D500E51052338
:10D8900013702C4B002219682B484900FFF756F9EA
:10D8A000BDE62A4BA1201968E0235B048B43A0212D
:10D8B0000026F025C905C000214C0B501F4B0E510E
:10D8C000CB586D046B408025AD032B402CD00D5000
:10D8D0000E5106231370DAE616391470FAE6F023B7
:10D8E0001A4A5B041168A1200B40A021C000C905A1
:10D8F0000B50002312480B50136090E64E510B5012
:10D900000421022C00D06DE702391470E2E60D51BB
:10D910000B50BCE70D510B5004210423D9E60D51E7
:10D920000B5002210323D4E60D510B50D1E7C04622
:10D9300074290020AC290020FCE901000405000046
:10D940000C0500008029002054290020782900209F
:10D95000B029002010B50378112B06D0122B12D05D
:10D96000132B12D0142B12D010BD00235A00D31841
:10D97000084AD31858780028F6D0074B1B68002BAC
:10D98000F2D09847F0E70123F0E70223EEE7113BDE
:10D99000ECE7C046D02900208829002070B5DB4B79
:10D9A00004001B680020DB0700D470BD172CFCD8D6
:10D9B000D74AA300D3589F46A022D64BD205D158B0
:10D9C0008023DB031C00A1208C430B40D249C00004
:10D9D00014505350D14B00221B68D1489900C918EC
:10D9E000FFF7B4F8E1E7A022CA4BD205D158802353
:10D9F000DB031C00A1208C430B40C749C00014501E
:10DA00005350C64B00221968C548FFF79FF8CCE772
:10DA1000C44D2800FFF710F911231C1B00D14CE165
:10DA2000002800D049E18023BF4E1B043360012C45
:10DA300010D0C8306421604300F03AFFB74B002299
:10DA40001B68434328001900FFF780F8F023326871
:10DA50005B041340A022B049D2055350A1230021FA
:10DA6000DB00D150A1E7A023F021A122DB0549046E
:10DA7000D20099500021A84A002099501222AB4BA5
:10DA80001A7092E7A023A122E021DB05D20049040D
:10DA9000802499500021A048A40319501C5099508B
:10DAA0001322A24B00201A707FE7A023F0219A4A8C
:10DAB000DB05490499500021043A99509B4B002002
:10DAC0001C7072E7984BA1211A68F0235B04934302
:10DAD000A022C900D205535000238F490020535083
:10DAE000924A137061E7904BA1211A68E0235B040E
:10DAF0009343A0220026F025D205C9008648535042
:10DB0000844B1650D3586D046B408025AD032B40D9
:10DB100000D1E9E0555016502821022C00D1F2E046
:10DB2000824B1C707D4B00221B687D485943FFF7D8
:10DB30000DF83AE7A023F021774ADB054904995014
:10DB40000021043A99500C22784B00201A702CE7DF
:10DB5000A023A122D021DB05D200490480249950C2
:10DB600000216D48E40319501C50995014226F4B4A
:10DB700000201A7019E76C4BA1211A68E0235B049E
:10DB80009343A0220025F024D205C90062485350D7
:10DB9000604B1550D358640463408024A403234091
:10DBA00000D199E054501550082103221AE05E4B31
:10DBB000A1211A68E0235B049343A0220025F024EE
:10DBC000D205C90054485350524B1550D3586404E1
:10DBD00063408024A403234000D18DE054502821C9
:10DBE00015500422514B1A709CE7E0224E4B520410
:10DBF0001B68A1219A43A023C900DB0580245A5049
:10DC000000224548A4031A501C505A50474B073273
:10DC10001A700020C9E6A023A122C021DB05D20092
:10DC20004904C024995000213B48E40319501C507A
:10DC3000995015223D4B00201A70B6E63A4BA121AF
:10DC40001A68E0235B049343A0220025F024D20548
:10DC5000C900314853502F4B1550D35864046340CA
:10DC60008024A40323403CD05450155005222F4B50
:10DC70002B481A70294B002219684900FEF766FFED
:10DC800093E6294BA1211A68E0235B049343A02269
:10DC90000025F024D205C9001F4853501D4B1550D4
:10DCA000D358640463408024A403234028D05450F4
:10DCB000155006221D4B1A70A3E6F0231A4A5B0486
:10DCC0001168A1240B40A021E400C9050B510023D9
:10DCD000114C0B51136068E614505350022103227B
:10DCE00080E714505350C1E7155053500421022CC3
:10DCF00000D015E7023913E714505350042170E7A0
:10DD000014505350D5E716390AE7C046742900204D
:10DD10005CEA0100040500000C05000080290020D9
:10DD200054290020B029002078290020AC290020A7
:10DD3000234B10B51960234B04001860224B1A6066
:10DD4000830712D50D22214B21481A700132DA7057
:10DD500001329A7101325A724A080421FEF7E0FA40
:10DD6000002820D0E30703D410BD0020E3070DD521
:10DD7000A023F022A1210024DB055204C9005A503F
:10DD800014495C500C315A500028EDD1124A002140
:10DD90001248FEF7C1FE0028E6D1114A01211148C0
:10DDA000FEF7BAFEE0E7FEF715FB0028DAD10E4ACF
:10DDB00000210E48FEF7B0FEE307D9D4E4E7C046E1
:10DDC000802900207429002088290020D0290020E3
:10DDD000C4EA01000C05000015D60100C0EA0100EC
:10DDE00021D50100E4EA010055D90100BCEA010097
:10DDF00073DF704760DF704748DF704710B50A0077
:10DE000001000248FEF7FEFA10BDC046EFBEADDECF
:10DE100030B5002393B03A4A05210020FEF70AFEF0
:10DE2000002803D000220021FEF7ECFA0022354939
:10DE30000120FFF77DFF002803D000220021FEF71C
:10DE4000E1FA002348223049082000F0C7FC0028EE
:10DE500003D000220021FEF7D5FA04AC08220021ED
:10DE60002000FEF7D5F90122237820009343237088
:10DE7000FFF7C0FF002803D000220021FEF7C2FAFE
:10DE8000592301AD2B80214B002103931723382206
:10DE90002000AB80FEF7BCF9002300212370200096
:10DEA0000433E370656200F097FB002803D0002282
:10DEB0000021FEF7A7FA164C182200212000FEF7D9
:10DEC000A7F90323A022237000232000636023729C
:10DED00022826382FFF78CFF002803D000220021FA
:10DEE000FEF790FA0220FFF759FD002803D1FFF753
:10DEF00083FF0028FBD000220021FEF783FAF6E71B
:10DF0000DC290020CD0C0000A42B0020602800207C
:10DF1000EC2B002071DF704772DF704779DF7047AC
:10DF20007DDF704765DF7047F0B55F4656464D466A
:10DF30004446F0B485B09A460EAB80CB06001B88F1
:10DF400000919B463B8801930388002B63D00023FC
:10DF5000994602ABDD1C3B0000241700984603E005
:10DF600033880134A3422CDD7368A1009C4604224F
:10DF7000614403A800F028FD0022290003A8FFF750
:10DF8000D1FF002829D12B78BB42E9D14B46002B89
:10DF90002AD043461A88D3195B453EDC52442900F7
:10DFA00003A8FFF7BFFF002817D143462A781B8834
:10DFB0000134D31842461380012399463388A34283
:10DFC000D2DC4B464746002B25D03B88019A013BCB
:10DFD0009B1A9BB20C20FF2B1AD905B03CBC904673
:10DFE0009946A246AB46F0BD43461B88DA19023279
:10DFF0005A4512DC4246013369469BB213805246B1
:10E000000978D15443461A88013292B21A80C5E782
:10E010001100524653540020DFE70C20DDE7C046D4
:10E02000F0B55F4656464D4644460023F0B4178887
:10E030001380436B87B006000D001400002B00D145
:10E040009CE1022F00D891E11A7802230B70112174
:10E05000238801339BB22380E954238801339BB288
:10E060002380EA54238801339BB22380326B002A39
:10E0700000D170E019001231B94200D976E11121C6
:10E08000E9542388013901339BB22380E954238862
:10E0900001339BB22380D17BE954238801339BB2A7
:10E0A0002380917BE954238801339BB22380517BE9
:10E0B000E954238801339BB22380117BE9542388E0
:10E0C00001339BB22380D17AE954238801339BB278
:10E0D0002380917AE954238801339BB22380517ABB
:10E0E000E954238801339BB22380117AE9542388B1
:10E0F00001339BB22380D179E954238801339BB249
:10E1000023809179E954238801339BB2238051798C
:10E11000E954238801339BB223801179E954238881
:10E1200001339BB22380D178E954238801339BB219
:10E1300023809178E954238801339BB2238051785E
:10E14000E954238801339BB223801278EA54238850
:10E1500001339BB223802E22B25C002A00D00FE153
:10E160002D22B25C002A00D02CE1B278002A00D027
:10E1700055E1F278002A14D0D91CB94200D9F5E053
:10E180000221E9542388013901339BB22380E954E9
:10E19000238801339BB22380EA54238801339BB246
:10E1A00023807268002A15D0D91CB94200D9DDE05D
:10E1B00002211278E9542388083101339BB223806D
:10E1C000E954238852B201339BB22380EA54238856
:10E1D000013323803389002B00D09BE1338A002B4D
:10E1E00000D0B1E1338B002B00D0C7E1336A002BA4
:10E1F0004BD022880C20911D9346B94200D9B6E03D
:10E20000198805388A46052900D8B0E0BB496A4616
:10E210008C46D4446146D181D1898C46B849884620
:10E220008C4500D8A3E059888C46052900D89EE08B
:10E23000B2496144D18189B2414500D897E0B149E2
:10E240008A4504D08C4502D0E24500D98FE00521F3
:10E250005A46A95422880D31013292B22280A95423
:10E260002288013292B222801988AA181170090AF4
:10E2700051702288023292B222805988AB181970EC
:10E28000090A5970238802332380736A9846002B49
:10E2900030D09A882188131D5B180C20BB4266D8A9
:10E2A000931CFE2B63D803326A54FF222388013368
:10E2B0009BB22380EA544246238801339BB22380D9
:10E2C0001288EB181A70120A5A70424623880233D9
:10E2D0009BB223809288002A0CD041468968053879
:10E2E000002944D0E81800F06FFB434622889B8841
:10E2F000D31823802C23F35C002B00D0B0E03378BC
:10E300000020002B33D032880720012A2FD022880A
:10E31000901CB8422AD8012B04D1737802339B1881
:10E320009F4223D3023FBA1A04AF93B22818390090
:10E3300098463B80FFF7F4FD002818D13378022B74
:10E3400000D141E1012B00D1DEE043460821FE2B44
:10E350000CD822885E1CAE542288013292B22280F0
:10E36000A954228801329B18238000E00C2007B0BA
:10E370003CBC90469946A246AB46F0BD002375E6EC
:10E38000D91C0C20B942F2D80221E954238810305C
:10E3900001339BB22380E854238801339BB223804E
:10E3A000022A00D10BE100D804E1032A00D109E1DF
:10E3B000042A00D0FCE00322EA54238801339BB2F4
:10E3C0002380CDE609330C20BB42D0D804A8FFF748
:10E3D000A1FD0028CBD1082223880921EA542388F3
:10E3E000133201339BB22380EA5402AB9C4620884F
:10E3F000153A013080B220806144281800F0E4FA18
:10E40000238802AA0633127A9BB22380002A00D006
:10E410000122EA54238801339BB22380A5E604330A
:10E420000C20BB42A3D804A8FFF778FD00289ED19A
:10E4300003222388EA542388163201339BB22380B7
:10E44000EA54238802AA01339BB212892380EB1875
:10E450001A70120A5A70238802339BB2238088E60E
:10E46000B36A9846002B00D1A2E09B880233FE2BB2
:10E4700000D97BE700229146163292461632208858
:10E4800093460CE04B46B26A5B0090464B449B00BF
:10E49000984443469B880233FE2B00D966E75246D8
:10E4A00001332B54238801339BB22380EA54424624
:10E4B000238801339BB223801288EB181A70120A4A
:10E4C0005A7043462088023080B220809A88002A01
:10E4D0000BD0996800296BD0281800F075FA4346D4
:10E4E00020889B88C01880B220804B460133DBB265
:10E4F00099465B46F35C4B45C4D800E77FF3FFFFCA
:10E500007DF30000FFFF00007378984500D31DE7FE
:10E5100043461BE708239846B044019700942B001C
:10E52000022202214046FFF7FFFC002800D01EE730
:10E53000019700942B00102206214046FFF7F4FCBF
:10E54000002800D013E749E610239846B04401970D
:10E5500000942B00022203214046FFF7E5FC00282F
:10E5600000D004E7019700942B00102207214046B9
:10E57000FFF7DAFC002800D0F9E633E618239846C6
:10E58000B044019700942B00022214214046FFF76B
:10E59000CBFC002800D0EAE6019700942B00102263
:10E5A00015214046FFF7C0FC002800D0DFE61DE63D
:10E5B0000720DCE6012AFBD10022EA54FDE6012215
:10E5C000EA54FAE6E954F8E63B880921984500D375
:10E5D000BDE64346BAE6C04630B593B01F236A464F
:10E5E0000C009380D380002822D0C3785B071CD511
:10E5F00001AA02A9FFF714FD02AD002816D1002CD4
:10E6000019D0E378002B10D16B460AA99A1D20007F
:10E61000FFF706FD002809D16B469B790AAA6946D7
:10E6200028000979FFF778FC00E0072013B030BD1F
:10E6300090800025E3E76B460022DC800023EEE7B4
:10E640001D4B1B78012B00D070471C4B1B681B0710
:10E65000FAD1F0221A4B1B68134018D1194B1B68D2
:10E6600013421CD0154B1B681B07EDD1F022144B35
:10E670001B681340402BE7D1124B1B681342E3D1B8
:10E68000C12380220121DB00D205D150DCE7102B11
:10E6900001D0302BEAD10B4B1B681342E6D10A4A5A
:10E6A0000A4B1A6080220A4B12021A60024B1B7836
:10E6B000012BD7D0C8E7C046E00F00F0E40F00F010
:10E6C000E80F00F0EC0F00F0DFFF07C0040500408A
:10E6D000186C00402EDF704751DF704710DF704725
:10E6E00061DF704710B508001100FFF787FB10BD10
:10E6F000F0B557464E464546E0B4344B344E1D689F
:10E7000099466B425D41334BEDB21C6898466342BB
:10E710005C4182B0E4B2304FB246002D13D0002CE1
:10E7200040D13C68338801A920000B80FFF7D8FF57
:10E73000052837D000282AD000220021FDF762FEEC
:10E740000024002DEBD101A8FFF7C6FF05280DD04E
:10E75000002822D000220021FDF754FE002C27D0F3
:10E76000012401A8FFF7B8FF0528F1D1002C19D129
:10E7700053466A461B8801A99380174B1C682000EA
:10E78000FFF7AEFF05280DD001250028D4D1434660
:10E7900020001B6898470024D3E74B4601981B686C
:10E7A0009847DBE702B01CBC90469946A246F0BDF4
:10E7B0006A46074B01A91B889380074B1C68200001
:10E7C000FFF78EFF0528B5D10124CAE70C2C0020E5
:10E7D000062C0020102C0020082C002070B504000E
:10E7E0000720002901D08D0700D070BD09480160C5
:10E7F000094920000A80094A09491360FFF76EFFA2
:10E800000028F2D10122074B16301A70FFF762FF81
:10E81000EBE7C046082C0020062C0020142C00201A
:10E82000E5E60100042C002010B50A4B1B68002B04
:10E8300008D09847002800D110BD00220021FDF724
:10E84000E1FDF9E7044B1B78002BF5D0FFF750FFF3
:10E85000F2E7C046142C0020042C002003210A48B3
:10E8600002680A430260094802680A4302600849D4
:10E87000084A094B9B1A03DD043BC858D050FBDC07
:10E8800006488047064800472405004054050040DC
:10E89000F0EA0100002800208028002041E6010065
:10E8A00021C10100FEE7FEE7FEE7FEE7FEE7FEE727
:10E8B000002243088B4274D303098B425FD3030ABF
:10E8C0008B4244D3030B8B4228D3030C8B420DD3D2
:10E8D000FF22090212BA030C8B4202D31212090260
:10E8E00065D0030B8B4219D300E0090AC30B8B429E
:10E8F00001D3CB03C01A5241830B8B4201D38B034C
:10E90000C01A5241430B8B4201D34B03C01A5241F0
:10E91000030B8B4201D30B03C01A5241C30A8B4233
:10E9200001D3CB02C01A5241830A8B4201D38B021E
:10E93000C01A5241430A8B4201D34B02C01A5241C2
:10E94000030A8B4201D30B02C01A5241CDD2C30934
:10E950008B4201D3CB01C01A524183098B4201D3B0
:10E960008B01C01A524143098B4201D34B01C01A9B
:10E97000524103098B4201D30B01C01A5241C30813
:10E980008B4201D3CB00C01A524183088B4201D382
:10E990008B00C01A524143088B4201D34B00C01A6E
:10E9A0005241411A00D20146524110467047FFE7DA
:10E9B00001B5002000F006F802BDC0460029F7D0DE
:10E9C00076E770477047C046002310B59A4203D0DF
:10E9D000CC5CC4540133F9E710BD0000F8B5C04663
:10E9E000F8BC08BC9E467047F8B5C046F8BC08BCE9
:10E9F0009E46704700280020A828002090D70100DC
:10EA0000ACD70100ACD701009CD60100E4D60100D0
:10EA10005ED80100A2D801003AD8010072D60100E8
:10EA200030D6010072D6010030D601005ED601005A
:10EA30003AD701003AD701003AD701003AD701008E
:10EA40003AD7010024D801001CD7010006D80100E4
:10EA5000E8D701005ED601005ED60100C4DA0100ED
:10EA6000E6DA0100E6DA010076DB0100AEDB010048
:10EA70003CDC010082DC0100EADB0100E6D9010098
:10EA8000B8D90100E6D90100B8D9010034DB010092
:10EA900010DA010010DA010010DA010010DA0100CA
:10EAA00010DA010066DA010084DA010050DB0100AF
:10EAB00016DC0100AADA0100AADA01008C29002084
:10EAC000542900201100030049D501001200030061
:10EAD00049D501001300030049D5010014000300CB
:08EAE00049D50100B029002016
:08EAE80038D6FF7F0100000099
:10EAF0000000000000000000000000000000000016
:10EB00000000000000000000000000000000000005
:10EB100000000000000000000000000000000000F5
:10EB200000000000000000000000000000000000E5
:10EB300000000000000000000000000000000000D5
:10EB400000000000000000000000000000000000C5
:10EB500002150112233445566778899AABBCCDDE85
:10EB6000EFF001020304C300E9C00100C1C00100CD
:040000031000E85DA4
:00000001FF
