:020000021000EC
:10F00000000001204D2204007D2204007F22040024
:10F0100081220400832204008522040000000000F5
:10F020000000000000000000000000008722040033
:10F030000000000000000000892204008B22040070
:10F040008D2204008D22040025B302008D220400CD
:10F050008D2204008D220400E5A902008D22040007
:10F060008D2204008D2204008D2204008D220400D4
:10F070008D2204008D2204008D2204008D220400C4
:10F080008D22040085F901008D2204008D220400E8
:10F090004DFA01008D220400192204008D22040083
:10F0A0008D2204008D2204008D2204008D22040094
:10F0B0008D2204008D2204000000000000000000EA
:10F0C0008D2204008D2204008D2204008D22040074
:10F0D0008D2204008D2204000000000000000000CA
:10F0E0000000000000000000000000000000000020
:10F0F0000000000000000000000000000000000010
:10F1000000000000000000000000000000000000FF
:10F1100000000000000000000000000000000000EF
:10F4000010B5054C237833B9044B13B10448AFF35E
:10F4100000800123237010BDE428002000000000BC
:10F42000DC950400084B10B51BB108490848AFF340
:10F4300000800848036803B910BD074B002BFBD0C0
:10F44000BDE81040184700BF00000000E828002079
:10F45000DC950400E428002000000000154B002B80
:10F4600008BF134B9D46A3F5803A00218B460F46FB
:10F470001348144A121A00F065F80F4B002B00D005
:10F4800098470E4B002B00D0984700200021040025
:10F490000D000D48002802D00C48AFF3008000F0AA
:10F4A0002BF8200029000CF05DFA00F011F800BFE5
:10F4B0000000080000000120000000000000000023
:10F4C000E4280020E0E1002000000000000000002F
:10F4D00008B5074B044613B10021AFF30080054B7C
:10F4E0001868836A03B19847204600F033F800BFDC
:10F4F00000000000D84A040070B50E4B0E4CE41A10
:10F50000A41000251E46A54204D056F82530984781
:10F510000135F8E725F0D4FA084C094BE41AA41099
:10F5200000251E46A54204D056F8253098470135DF
:10F53000F8E770BDDC280020DC280020E02800204F
:10F54000DC28002002440346934202D003F8011B4A
:10F55000FAE77047FEE700BF2DE9F84F244B1A7811
:10F560008AB3DFF890B0DFF89090DFF890A0002425
:10F57000012703E00134E4B2944224D226B2D9F840
:10F580000050DBF8003015F8360007FA00FE1EEADE
:10F59000030F05EBC608EDD0164A23EA0E031360ED
:10F5A0000BF016FA15F83650DAF8003007FA05F6BF
:10F5B000334000FA05F6B34207D00D4B01341A78F8
:10F5C000E4B29442DAD3BDE8F88FD8F80430002BC7
:10F5D000F3D098F80110A1F10101B1FA81F14909C4
:10F5E000091AB1FA81F1490928469847E5E700BFB1
:10F5F0000829002030290020042900202C2900207F
:10F6000070B50646114800F09BFD40B9104D01242D
:10F610002B68B4401C4203D023EA04042C6070BD64
:10F6200030460BF0D5F90B4A136860B123432E68BE
:10F630000949136034432C60044809680022BDE87E
:10F64000704000F011BD23EA0403F0E70C2900200C
:10F65000302900202C29002000290020042A01D86C
:10F66000072070472DE9F04182B0884605461746CD
:10F670000BF07AF8002834D01C4C1D481D491E4A56
:10F680001E4B2560002608F1FF340F6080F80080D3
:10F6900016601E60E4B20327B8F1000F03D11AE030
:10F6A000DBB2C4B11C4623B205EBC30215F833002C
:10F6B0009378134A8DF8053001A98DF804708DF800
:10F6C00006608DF807600BF059F8631E0028E7D03C
:10F6D00002B0BDE8F0810B4A0B48002100F0B2FCFB
:10F6E000F6E70BF009F80028C6D0F1E7042900205E
:10F6F00008290020002900202C2900203029002082
:10F7000001F6010059F50100DC4A040070B5084D0E
:10F710002B785BB1074E00243368012113F83400C5
:10F720000BF0F4F82B780134A342F5D8002070BD1B
:10F73000082900200429002059B10AB9092070477E
:10F74000531E1A40FAD1826001608380C260104665
:10F7500070470E20704700BF10B48468C26803462B
:10F760008088121B904203D204205DF8044B70473E
:10F77000DA681C6802400020A154DA680132DA60BD
:10F780005DF8044B704700BF03468068DA6890421A
:10F7900001D10520704710B49A6898881C6802400F
:10F7A0000020A25C0A709A6801329A605DF8044BEE
:10F7B000704700BF50B14AB1F0B48468C36815689F
:10F7C0001B1B136023B90520F0BC70470E20704747
:10F7D000A1B19D4228BF1D460C46836887880668F4
:10F7E0003B40F35C04F8013B8368661A0133B54281
:10F7F0008360F2D815600020F0BC70470846E3E74C
:10F8000060B15AB1F0B586688488C36815689B1BDF
:10F810000134E31A13601BB90420F0BD0E207047B9
:10F82000A1B1AB4228BF2B469E460C46C3688588D3
:10F83000066814F8017B2B40651AF754C3687545B8
:10F8400003F10103C360F1D3C2F800E00020F0BD72
:10F85000484B494830B401214FF480344FF400350F
:10F860002F22C0F88050C3F848431046C3F808431D
:10F870005960013800BF00BF00BF00BF00BF00BF1C
:10F8800000BF00BF00BF00BF00BF00BF00BF00BF80
:10F8900000BF00BF00BF00BF00BF00BF00BF00BF70
:10F8A00000BF00BF00BF00BF00BF00BF00BF00BF60
:10F8B00000BF00BF00BF00BF00BF00BF00BF00BF50
:10F8C00000BF00BF00BF00BF00BF00BF00BF00BF40
:10F8D00000BF00BF00BF00BF00BF00BF00BF00BF30
:10F8E00000BF00BF00BF00BFC3D1244C99600023FC
:10F8F00010462360013800BF00BF00BF00BF00BF3B
:10F9000000BF00BF00BF00BF00BF00BF00BF00BFFF
:10F9100000BF00BF00BF00BF00BF00BF00BF00BFEF
:10F9200000BF00BF00BF00BF00BF00BF00BF00BFDF
:10F9300000BF00BF00BF00BF00BF00BF00BF00BFCF
:10F9400000BF00BF00BF00BF00BF00BF00BF00BFBF
:10F9500000BF00BF00BF00BF00BF00BF00BF00BFAF
:10F9600000BF00BF00BF00BF00BFC3D1044A137077
:10F9700030BC70470010014000E100E03429002055
:10F98000542900202DE9F843284A294B0025C2F8C4
:10F990004051C2F84451C2F84851C2F84C51C2F823
:10F9A0000051C2F804511B681BB32249D2F8042548
:10F9B0000C68214F141B1A6824F07F44A242A84609
:10F9C00009D8197CDE69A41A1544A1B91EB13346C1
:10F9D0001A68A242F5D9194B19491A780B789A423C
:10F9E0001DD01849184A41F823504FF48013C2F82B
:10F9F0000031BDE8F883D3F8149083F810803A689A
:10FA00009B69484619463AB190470028DED000224B
:10FA100011460BF017FFD9E71846C847D6E7531C25
:10FA2000DBB2022B08BF00230B70DAE700100140A5
:10FA300038290020342900203C29002048290020B2
:10FA4000492900204C29002000E100E02DE9F04F79
:10FA5000AB4AAC4913780978AB488BB00068059085
:10FA6000994200F021810133DBB2022B08BF002351
:10FA70001370A64A52F823B0059BA34A5B4423F0B7
:10FA80007F43136001230193A14BA24A1B78029389
:10FA90001946A14B12681B680493A04B09921B786E
:10FAA00007938E46984B0EF1FF3E5FFA8EFE4FF0A5
:10FAB00000081B680893BEF1FF0F1046CDF81880B0
:10FAC000C446454638D0049C0FFA8EF104EBC106BB
:10FAD0000346184614F8311096F801A01346024662
:10FAE0005145104620D001EB4104706896F8029011
:10FAF00010F834700131C9B2894508BF0021022FC6
:10FB000000EBC40000F09880032FE9D1002AE7D071
:10FB1000D36915741A46002BFAD196F801A0514505
:10FB20004FF0010C1046DED10EF1FF3E5FFA8EFE63
:10FB3000BEF1FF0F1A46C6D10390BCF1000F40F092
:10FB4000B880069B13B1704B089A1A60B8F1000F89
:10FB500003D0724B9DF81C201A70019B002B40F0C3
:10FB60000E81099A0399521A18BF012205921D4667
:10FB7000654BDFF8B081D3F800E0664BD3F8009016
:10FB8000664B4FF0000B1B7806935F464FF0010C5D
:10FB9000029B013BDBB2FF2B029300F0E0801A4690
:10FBA000049B0E4603EBC20A45B36A68A9682B465C
:10FBB000ED69CEEB020020F07F4040457CD8014447
:10FBC00019605F609F6083F810C0DF61002E00F055
:10FBD000C0803068884280F08980344603E0106835
:10FBE000884272D21446E269091A002AF7D1DA6112
:10FBF00019603246E3611646002DD6D19AF80030DE
:10FC00009AF801209A423146C2D05A1C9AF8024012
:10FC1000DAF80410D2B203EB430394428AF80020CE
:10FC200008BF8AF8005001EBC30011F83330012BF4
:10FC30007AD032461646DFE74768002A3FF450AFD5
:10FC4000974215D0144600E00446E06900283FF4CE
:10FC500047AF8742F8D1A0420CD0C7690068E7617E
:10FC600097B13A6802443A6096F801A01A4637E71D
:10FC700010461446D36953B1C7690068E7611A4654
:10FC80004FF0010C002FECD196F801A028E7244A90
:10FC90004FF00108C2F80880C4461A460893CDF810
:10FCA0001C80CDF81880D8E74FF0000BCDF804B0D9
:10FCB000EAE6184B1A6044E7C2EB0E0222F07F42DC
:10FCC0008A4209D2891A19607BE7401A1060DA610A
:10FCD00019603246E3618EE71F605F609F6083F8C2
:10FCE00010C0DF61002E34D030680021411A1A465E
:10FCF00031609946DE614FF0010B16467CE700BF8C
:10FD00004829002049290020342900204C290020BE
:10FD10004029002038290020442900204A290020B9
:10FD200000100140FEFF7F0043681A7C0192002A08
:10FD30007FF47FAF82685A60C16899600469DC60B3
:10FD400040699861069800283FF433AF019A5A60E1
:10FD50002FE71A4699464FF0010B16464CE7BBF1C8
:10FD6000000F40F0A380039B994231D1059B002BEB
:10FD70002ED17E4A002313700BB0BDE8F08F7C4972
:10FD8000039B08680022154614461646BBB1196845
:10FD9000594500F2DF80D8681E60C1EB0B0B0C44A4
:10FDA000D96938B1059ADD61224422F07F4298601A
:10FDB0005A601D460B460846019A002BE7D10AB14E
:10FDC0006B4B186000230393012305930399CFE63F
:10FDD000002900F0BC80674C674BD4F804551B68C1
:10FDE000664ED1F800E03178EA1A22F07F42033201
:10FDF00000295FD096452CBF03EB0E029A185D498F
:10FE000022F07F43C1F84035D1F80425521B5B1B1B
:10FE100022F07F4223F07F4303329A42A9D9D1F8DE
:10FE20000435C1F840352F20013800BF00BF00BFA6
:10FE300000BF00BF00BF00BF00BF00BF00BF00BFCA
:10FE400000BF00BF00BF00BF00BF00BF00BF00BFBA
:10FE500000BF00BF00BF00BF00BF00BF00BF00BFAA
:10FE600000BF00BF00BF00BF00BF00BF00BF00BF9A
:10FE700000BF00BF00BF00BF00BF00BF00BF00BF8A
:10FE800000BF00BF00BF00BF00BF00BF00BF00BF7A
:10FE900000BF00BF00BF00BF00BF00BF00BFC3D195
:10FEA000374B4FF40032C3F8002162E7304BC3F800
:10FEB000009058E732484FF48031C4F844134FF4AF
:10FEC0000037C4F804130121C0F8807107602F20A7
:10FED0002160013800BF00BF00BF00BF00BF00BFEE
:10FEE00000BF00BF00BF00BF00BF00BF00BF00BF1A
:10FEF00000BF00BF00BF00BF00BF00BF00BF00BF0A
:10FF000000BF00BF00BF00BF00BF00BF00BF00BFF9
:10FF100000BF00BF00BF00BF00BF00BF00BF00BFE9
:10FF200000BF00BF00BF00BF00BF00BF00BF00BFD9
:10FF300000BF00BF00BF00BF00BF00BF00BF00BFC9
:10FF400000BF00BF00BF00BFC3D1317052E7FFF751
:10FF50007FFC0EE70AB1064A1060CBEB0101196085
:10FF6000039301230593039902E600BF4A29002069
:10FF70003829002000100140342900205429002095
:10FF800000E100E02DE9F04112F0030502D0072066
:10FF9000BDE8F081002A3DD00E461446984607463B
:10FFA000FFF756FC06EB460304F11801DB00CA1804
:10FFB0001344A670A672A6746361194E194B1A48B1
:10FFC00061601A49E260C6F8008005601C60184A4A
:10FFD000184BDFF86CE0184E2570032008704FF4C2
:10FFE00080106021657025726572257465748EF8C5
:10FFF00000503570114CC3F8800183F81413186059
:020000022000DC
:10000000C2F8087583F81113D2F804352360284626
:10001000BDE8F081034B1A600720BDE8F08100BF06
:100020003C290020442900203829002040290020B4
:100030000010014000E100E049290020342900209F
:1000400048290020074B1B6823B12AB120B103685F
:10005000187C18B1082070470720704759745A61FE
:10006000704700BF44290020304B1B6823B118B1F2
:10007000042903D80720704708207047F0B5446969
:10008000002C4DD02A4C457C6468012DC4F3080433
:100090000CBF0F46002794B1103C65B2002D38DB31
:1000A00005F1604404F5614494F800436409E4B246
:1000B000012C39D0032C0CBF0824102400E010249C
:1000C00023445C7893F802E01E78651CEDB2AE45DF
:1000D00008BF0025AE4225D004EB4404D3F804E069
:1000E000E4001EEB04061DD04FF0010C0EF804C016
:1000F000DFF848E070600F4CDEF80405B0604FF4A4
:10010000801EF160376172615D70C4F800E100200B
:10011000F0BD094D04F00F0425442C7E6409C6E7A8
:100120000820F0BD0420F0BD0024C9E744290020C8
:1001300000ED00E000E100E0FCEC00E00010014018
:10014000254B1B6843B338B342692AB3F0B400218E
:10015000224A01745268C2F30802FAB91022134409
:100160005A789D781C78511CC9B28D4208BF002175
:100170008C4226D002EB42025C68D200A71820D045
:10018000174D0226A6544FF4801278605970002053
:10019000C5F80021F0BC704708207047103A51B2F2
:1001A000002912DB01F1604202F5614292F800235E
:1001B0005209D2B2012A06D0032A0CBF082210220B
:1001C000CDE70420E6E70022C9E7064902F00F0266
:1001D00011440A7E5209ECE74429002000ED00E0BA
:1001E00000E100E0FCEC00E0024BD3F804350360D2
:1001F00000207047001001400378012B00D07047A9
:100200000022406811460BF01DBB00BF70B50C4BBF
:100210000C4A0D4E88B001AC049293E8070001250A
:1002200084E807002B462046084A05954FF4807461
:1002300004A9069607940AF0A5F908B070BD00BF9E
:10024000E04A0400582A002058290020F901020041
:100250002DE9F0430B68884640F67352591E9142CF
:1002600003D948F20710BDE8F083202B02D8002202
:10027000134619E0402B02D80122642314E0802B9E
:1002800002D8022288230FE0B3F5037F02D80322AD
:10029000952309E0B3F5A06F2ED9B3F5A56F8BBFF9
:1002A00006220522B323B0232449DFF894C051F875
:1002B000224040F674591BE0872B34D9942B34D953
:1002C000AC2B34D9AF2B35D9B22B8CBF4F464FF462
:1002D000A5675A09A3EB42165CF82250184925FA83
:1002E00006FE1EF0010F0AD10133B52B3C4416D097
:1002F000632BE1D82027ECE70422AD23D4E70123C8
:10030000DFF840E003FA06F625EA0605744441F8F2
:1003100022500460C8F800700020BDE8F08348F265
:100320000410BDE8F0834027D3E78027D1E74FF4DE
:100330000377CEE74FF4A067CBE700BFEC4A040099
:10034000E0B000205C2A002030B40B4C00230125D3
:100350005A09A3EB421054F8221005FA00F00133B9
:100360000143B52B44F822104FF00102F0D1034BAA
:100370001A70002030BC7047E0B00020DCB00020D4
:100380000A4B1B7813B948F20810704750B110B4EB
:1003900019B15DF8044BFFF75BBF48F20E105DF832
:1003A000044B704748F20E10704700BFDCB00020CD
:1003B00000B50A4B83B01B780190002200921BB954
:1003C000002003B05DF804FB01A96846FFF740FF79
:1003D0000028F5D1009803B05DF804FBDCB00020E4
:1003E00000B50E4B83B01B7800FB01F10022019198
:1003F00000921BB9002003B05DF804FB01A9684618
:10040000FFF726FF0028F5D101469DE80500FFF71C
:1004100099F8009803B05DF804FB00BFDCB0002041
:100420001D4B1B7853B348B3002230B413461B4C0A
:1004300040F6745512E0632B21D9872B21D9942BD8
:1004400021D9AC2B21D9AF2B22D9B22B8CBF294675
:100450004FF4A5610133B52B0A440ED0A118884290
:10046000E9D15A090E4CA3EB421354F82210012093
:1004700000FA03F3194344F8221030BC70472021DE
:10048000E8E74021E6E78021E4E74FF40371E1E784
:100490004FF4A061DEE700BFDCB000205C2A002042
:1004A000E0B0002070B5161E07DD0C468D1914F85B
:1004B000010B0AF0E3F8A542F9D1304670BD00BF48
:1004C00010B50C4620460AF0BDF80528FAD00120E8
:1004D00010BD00BF40BA80B2704700BF40BA80B2C2
:1004E000704700BF00BA704700BA70472DE9F0416D
:1004F000002284B007460D460120242105F0CAF8E9
:1005000040B34468D7F80480657003230025237046
:1005100025716571A571E5710646406879681C22F0
:10052000083023F0F0FAA570E5707189204600F0DC
:100530006BFB04AA6080D8F80C3042F8043D01231C
:10054000019300952946FF23304600F089FC304690
:1005500005F002FA04B0BDE8F08100BF2DE9F047D4
:100560004389072B84B0044647D9324D0289D0F81D
:10057000048005F110060F4600962B463A2100F044
:1005800041FAD0BB98F80030842B3CD8822B44D25F
:10059000022B3BD0802B30D12B7CFF2B2DD0024661
:1005A0002189012005F076F8804630B3214605F018
:1005B00027FA8146C0BBD8F8043081221A70D8F8D7
:1005C00004309870D870B8F80820D8F804A00095C6
:1005D00033463A21404600F015FA3A23AAF80200C1
:1005E0002A4601930297CDF800903146FF234046FA
:1005F00001F0DEF8404605F0AFF9204604B0BDE852
:10060000F04705F0A9B9863B032BF6D839462046BA
:1006100004B0BDE8F04702F015BC3946204604B0EE
:10062000BDE8F04701F05ABB204605F095F9404679
:10063000E4E700BF38DD00202DE9F04300228DB053
:1006400080460F460120382105F024F8B8B34468ED
:100650002B4E677000230122227023716371A371F6
:10066000E37105464068D8F804100830302223F0C2
:100670004AFA376837B306F11401384600F0AEFD88
:1006800014368046C0B14FF0000984F8029084F817
:1006900003902A89009643463A21284600F0B2F991
:1006A0003A23608032460193CDF80090029741468C
:1006B000FF23284601F07CF8284605F04DF90DB0DF
:1006C000BDE8F083D8F804309A680892DA68099295
:1006D0001A690A925A690B929A690492DA69059228
:1006E0001A6A06925B6A079308A904A800F05CFCEA
:1006F00007460028E0D008AE0DF11008C3E700BFA0
:1007000024DD00202DE9F04380468DB08946174650
:1007100038210022012004F0BDFFA0B345682A4E15
:100720006F60042385F801902B7004464068D8F868
:1007300004100830302223F0E6F9376837B306F1A9
:100740001401384600F04AFD14368046C0B14FF01F
:10075000000985F8029085F80390228900964346A7
:100760003A21204600F04EF93A2368803246019340
:10077000CDF8009002974146FF23204601F018F87B
:10078000204605F0E9F80DB0BDE8F083D8F8043054
:100790009A680892DA6809921A690A925A690B9261
:1007A0009A690492DA6905921A6A06925B6A07935B
:1007B00008A904A800F0F8FB07460028E0D008AE1E
:1007C0000DF11008C3E700BF24DD00202DE9F04F34
:1007D00085B08DE806000E9C00286BD0002B69D0F8
:1007E0004FF00009CB460746B7F80AE0D7F804A057
:1007F000ADF80EB09E45764628BF1E461AF0010C95
:10080000B04609D0002E69D09AF800208DF80F204C
:100810000AF1010A06F1FF38B8F1010F60DD424626
:100820005046002130F8025B023A012A2944F9DCE3
:10083000A8F102084FEA5802501CA8EB42080AEB44
:10084000400AB8F1010F04BF9AF800208DF80E207D
:10085000BDF80E2011448AB202EB11418AB202EBBC
:100860001142BCF1000F05D011460A0290B2C1F34B
:100870000722024314FA82F19B1B8CB21EF0010F77
:100880009BB204EB114409D02202C9F1010992B2D2
:10089000C4F307215FFA89F942EA01043F680FB106
:1008A000002BA1D1B9F1000F04D023029BB2C4F3F5
:1008B00007241C430098FFF70DFE05460198FFF73B
:1008C00009FE28440444A0B200EB144083B203EBB9
:1008D0001040C04380B205B0BDE8F08F3146C4E798
:1008E0000021AEE72DE9F04F83B01C680C9D230C6E
:1008F0002D6813FA84F313FA85F303EB15439FB2C3
:1009000007EB13439CB2904604EB1347002860D0DA
:100910004FF0000EF446D0F804B04289ADF806C09E
:100920001BF00109924609D0002A66D09BF80030DE
:100930008DF807300BF1010B02F1FF3ABAF1010F0C
:100940005DDD53465D46002435F8026B023B012B0A
:100950003444F9DCAAF1020A4FEA5A035D1CAAEBFF
:10096000430A0BEB450BBAF1010F04BF9BF80030B3
:100970008DF80630BDF806301C44A3B203EB1444D6
:10098000A3B203EB1443B9F1000F05D01C462302B8
:100990009DB2C4F307232B4317FA83F4A7B2D307FE
:1009A00007EB144709D53B02CEF1010E9BB2C7F30A
:1009B00007245FFA8EFE43EA040700680028AAD1E4
:1009C000BEF1000F05D03B029BB2C7F3072443EAF8
:1009D00004070846FFF77EFD04464046FFF77AFD10
:1009E0002044C419A0B200EB144083B203EB1040C2
:1009F000C04380B203B0BDE8F08F1446C7E70024BF
:100A0000B1E700BF2DE9F04F83B05D680C9ED3F8CD
:100A100000E07768ACB204EB154414FA87F59C68E3
:100A200005EB174515FA84F5B76805EB144414FA7D
:100A300087F4DD6804EB174414FA85F4F768366828
:100A400004EB15431FFA8EF505EB1E4413FA87F3EA
:100A500014FA86F403EB174304EB164423449FB2C5
:100A600007EB13439CB2904604EB1347002860D079
:100A70004FF0000EF446D0F804B04289ADF806C03D
:100A80001BF00109924609D0002A66D09BF800307D
:100A90008DF807300BF1010B02F1FF3ABAF1010FAB
:100AA0005DDD53465D46002435F8026B023B012BA9
:100AB0003444F9DCAAF1020A4FEA5A035D1CAAEB9E
:100AC000430A0BEB450BBAF1010F04BF9BF8003052
:100AD0008DF80630BDF806301C44A3B203EB144475
:100AE000A3B203EB1443B9F1000F05D01C46230257
:100AF0009DB2C4F307232B4317FA83F4A7B2D3079D
:100B000007EB144709D53B02CEF1010E9BB2C7F3A8
:100B100007245FFA8EFE43EA040700680028AAD182
:100B2000BEF1000F05D03B029BB2C7F3072443EA96
:100B300004070846FFF7CEFC04464046FFF7CAFC10
:100B40002044C419A0B200EB144083B203EB104060
:100B5000C04380B203B0BDE8F08F1446C7E700245D
:100B6000B1E700BF70B4039D049C2D6824682E0C6F
:100B700016FA85F515FA84F505EB1444A5B205EBD4
:100B80001444A5B205EB1444039470BCFFF71EBED9
:100B9000F0B5DDF814E0069FDEF80440D7F804C095
:100BA000DEF80860A5B205EB144414FA8CF404EBEB
:100BB0001C44BD68DEF80CC0DEF800E014FA86F4D0
:100BC00004EB164616FA85F606EB1545FC683F68F9
:100BD0001FFA8EF615FA8CF506EB1E4605EB1C4542
:100BE00015FA84F516FA87F605EB144406EB17455B
:100BF0002C44A5B205EB1444A5B205EB14440594AE
:100C0000BDE8F040FFF7E2BD70B483B0002310F000
:100C10000106ADF8063005D029B303788DF807300A
:100C200001390130012928DD0B460446002234F841
:100C3000025B023B012B2A44F9DC02394B085C1CA5
:100C4000A1EB430100EB4400012904BF03788DF8B8
:100C50000630BDF806301A4491B201EB124293B24D
:100C600003EB124126B10A0292B2C1F307211143EC
:100C7000C84380B203B070BC70470022E4E700BFF5
:100C8000F0B5064683B0144622F03DFF002316F06F
:100C900001072546ADF8063005D06CB333788DF8E2
:100CA0000730651E0136012D34DD2B46314600220A
:100CB00031F8020B023B012B0244F9DC023D6B08C8
:100CC000591CA5EB430506EB4106012D16D13378DF
:100CD0008DF80630BDF80600024490B200EB1242D7
:100CE00093B203EB124027B1020292B2C0F3072085
:100CF000104380B203B0F0BD2046F5E7BDF80630E2
:100D00001A4490B200EB124293B203EB1240002F50
:100D1000EAD1EEE70022D8E708B504F0C7FA09F0F7
:100D200063FA04F005FFBDE8084009F0CFB900BF41
:100D300010B4144B1B688BB193F86B2002F00502C2
:100D4000052AF7D15A68002AF4D001689C684A4005
:100D50002242EFD118465DF8044B70470A4B1868E1
:100D600048B190F86B3003F00503052B06D14368BA
:100D7000002B08BF00205DF8044B704700205DF891
:100D8000044B704728E100202CE100202DE9F04FB2
:100D900085B01C469DF83C309DF8386001930746AD
:100DA000002A4CD089461421924604F065FD804605
:100DB00000284ED17D68019B2C726B72DAF800100E
:100DC0006E7044EA032345200C0C3602296128701A
:100DD00014FA81F146F045068C193889DFF87CB0A9
:100DE0001C44FFF777FB85F806800346688085F88A
:100DF0000780BBF800001C44FFF76CFBBBF8003019
:100E0000A88001330444ABF80030B9F1000F1DD0C5
:100E1000D9F80000E86014FA80F404EB104083B2C3
:100E200003EB104000EB1040C0436881109B10980A
:100E30009B6C52463946984705B0BDE8F08F436831
:100E40000DF1100A1B694AF8043DEFE7024B1868E0
:100E5000E0E76FF00100EFE7084B0400F8B0002076
:100E6000F0B51D4C85B024689DF828609DF82C7065
:100E70009E4614B91AE02468C4B194F86B5005F08A
:100E80000505052DF7D16568002DF4D013685D4088
:100E9000A3681D42EFD1C1B10D68B5B102948DE8D0
:100EA000C0007346FFF772FF05B0F0BD0B4C24681D
:100EB0006CB194F86B5005F00505052D07D16568F8
:100EC0002DB1002AEAD00029E6D1211DE6E76FF016
:100ED000030005B0F0BD00BF28E100202CE1002098
:100EE000F0B5204C85B024689DF828609DF82C70E2
:100EF0009E4614B91EE02468E4B194F86B5005F0E6
:100F00000505052DF7D16568002DF4D013685D4007
:100F1000A3681D42EFD10C9B6367E1B10D68D5B1A9
:100F2000734602948DE8C000FFF730FF002363672B
:100F300005B0F0BD0C4C24687CB194F86B5005F002
:100F40000505052D09D165683DB10C9B6367002A35
:100F5000E6D00029E2D1211DE2E76FF0030005B0E1
:100F6000F0BD00BF28E100202CE10020431E033328
:100F7000024616D891F86B3003F0020303F0FF002D
:100F800073B14B689A420AD0896853400B4206D12C
:100F9000C94331EA02030CBF012000207047002042
:100FA00070470120704700BF70B5894D2B687BB337
:100FB0001A68002A00F0E9800C684CF2FF02224017
:100FC00048F2FE06B24202D1A5E01B6843B393F893
:100FD0006B2002F00502052AF7D193F84020D606CF
:100FE00002D51A69A24272D093F84120D20602D5E6
:100FF0001A6A944270D093F84220D606E5D51A6B4F
:101000009442E2D14E685A6B9642DED1184670BDCA
:101010000C684CF2FF02224048F2FE04A2427AD051
:1010200004460846002103F0C1FE00280DDB00EB5A
:101030004000684B53F820303BB1186928B190F854
:101040006B3003F00503052B40D0002C36D021680F
:1010500009B9636863B32B6813B92FE01B686BB3DE
:1010600093F86B2002F00502052AF7D193F840208F
:10107000D50602D51A69914233D093F84120D006A3
:1010800002D51A6A914239D093F84220D206E5D5AA
:101090001A6B9142E2D160685A6B9042DED1A0682F
:1010A0009A6B9042DAD1E068DA6B9042D6D1ADE724
:1010B000A368002BCFD1E368002BCCD1464B186836
:1010C00090F86B3003F00503052B65D170BD4E68B9
:1010D0005A69964288D199E74E685A6A96428AD1EF
:1010E00094E760685A699042C7D1A0689A699042B3
:1010F000C3D1E068DA699042BFD187E760685A6A75
:101100009042C1D1A0689A6A9042BDD1E068DA6A83
:101110009042B9D17AE70028D0D0016859B3002BAA
:10112000CCD093F86B2002F00502052A01D01B6891
:10113000F5E793F84020D50602D51A6991422DD0E3
:1011400093F84120D40602D51A6A914233D093F81D
:101150004220D206EBD51A6B9142E8D144685A6B13
:101160009442E4D184689A6B9442E0D1C468DA6B0B
:101170009442DCD14AE74268002AD0D18268002A32
:10118000CDD1C268002ACAD198E793F86B2002F04B
:101190000502052A3FF43AAF002070BD44685A6941
:1011A0009442CDD184689A699442C9D1C468DA69FD
:1011B0009442C5D12AE744685A6A9442C7D18468E8
:1011C0009A6A9442C3D1C468DA6A9442BFD11DE7D7
:1011D00028E1002004E100202CE10020F0B40B689D
:1011E0004CF2FF0248F2FE041A40A2424DD048F6EB
:1011F000FF741C4040F2FF25AC4246D040F2FF1580
:10120000AC4242D090F840404CF2FE05AA4267D072
:1012100048F6FF721A4040F2FF55AA4260D003F030
:10122000FE02FC2A00F0B78048F6FF721A4040F632
:10123000FF05AA4200F0AF8003F0E002202A7DD033
:1012400048F6FF721A4040F6FF65AA4276D0E706DC
:1012500003D50269934200F0E18090F84120D60660
:1012600003D5026A934200F0DF8090F8424004F018
:10127000100404F0FF02002C00F08A80026B9342FD
:1012800000F0FA800020F0BC704790F84040E7067C
:1012900008D506694CF2FF05354048F2FE06B54216
:1012A00000F0D08090F84150EE0608D5066A4CF266
:1012B000FF05354048F2FE06B54200F0DB8090F8AD
:1012C0004250ED06A0D5066B4CF2FF05354048F2C2
:1012D000FE06B54200F082804CF2FE05AA4297D18C
:1012E000E20608D505694CF2FF022A404CF2FE06E0
:1012F000B24200F09F8090F84120D70608D5056AD9
:101300004CF2FF022A404CF2FE06B24200F0A380EB
:1013100090F84220D60682D5056B4CF2FF022A4097
:101320004CF2FE06B2427FF47AAFAB427FF477AF65
:101330004D68426B95427FF472AF4FE004F01005A8
:1013400005F0FF023DB1026902F0E002202A0CBF65
:1013500000F11002002290F84150EE0649D5056ACE
:1013600005F0E006202E44D1002A40D01668B34292
:1013700000F08D80AB4236D090F84250ED0607D594
:10138000056B05F0E006202E3DD0002A3FF45FAF4C
:101390001046F0BC7047E50604D5026902F0FE0570
:1013A000FC2D51D090F84120D20604D5026A02F0FB
:1013B000FE05FC2D58D090F84220D7067FF53CAFB3
:1013C000026B02F0FE05FC2D7FF436AF93427FF4F2
:1013D00033AF4D68426B95427FF42EAF0223013349
:1013E00000EB0310D5E7466A4D68AE42C4D100F168
:1013F000200290F84250ED06C7D5056B05F0E006D7
:10140000202EC2D142B11468A3423BD0AB42BFD11F
:101410004B68416B9942BBD13030BAE744694A68A6
:1014200094427FF41AAF0DE04C68426A94427FF414
:101430001CAF1FE0AB427FF45EAF4D68426995423E
:101440007FF459AF0023CAE79342ABD14D6842699C
:101450009542A7D1F6E7AB427FF45AAF4D68426A96
:1014600095427FF455AF05E09342A4D14D68426A9E
:101470009542A0D10123B2E74A68436B9A427FF4B8
:1014800001AFABE756684C68A642BFD180E757680A
:101490004E68B7427FF46EAF6EE700BF2DE9F04FA4
:1014A000466883B0044630680F46FFF71DF8000F0A
:1014B00006280CD16389272B06D9B088FFF70EF8D0
:1014C00023892730984209DBB088FFF707F82046C8
:1014D00004F042FA002003B0BDE8F08FB088B14DAF
:1014E000FEF7FCFF00F1280189B2204604F08AF9DA
:1014F000D6F818E0C5F824E0D6F81C90C5F8289076
:10150000D6F820B0C5F82CB0736A01932B63D6F8D7
:1015100008A0C5F814A0F368AB613369EB61736987
:101520002B625FFA8EF3FF2BEE602F606F6000F08E
:10153000EF809D4B00944CF2FF01D3F800800EEA3F
:1015400001013B46012248F2FE0C07E01B68BB424A
:1015500008BF1B680022002B00F0888093F86B0006
:10156000C40714D593F84000C00602D51869864513
:101570001ED093F84100C40602D5186A86450CD0E7
:1015800093F84200C00602D5186B86451BD0614512
:101590006CD0002ADAD04346D9E7586A8145EFD1AA
:1015A000986A8345ECD1DC6A0198A042E8D114E046
:1015B00058698145DDD198698345DAD1DC690198A4
:1015C000A042D6D109E0586B8145E0D1986B8345A4
:1015D000DDD1DC6B0198A042D9D1009CBAF1000F9B
:1015E00000F0CB804FF028086FF02701204696F8D6
:1015F00006902B60A5F8108004F03EF9B9F13B0F7E
:1016000020D0B9F12B0F06D050D9B9F12C0F69D0E9
:10161000B9F13C0F4DD162682B8A92F8018092F8A3
:1016200000904FEAC80808F1080843442B826389F8
:10163000434507D3C8F10001204604F01DF9B9F174
:101640003B0FDED1204604F087F9002300202B60F9
:101650006B60EB602B826B61AB61EB612B626B6249
:10166000AB62EB622B6303B0BDE8F08F009CBAF174
:10167000000FE7D1AA694B4B002AE3D1DA69002AAF
:10168000E0D11B6A002BDDD15346686A454A40F21F
:10169000FF218842D6D1D16AB1F1807FD2D192F8B0
:1016A0003020FF2ACED1002B9CD1CBE7B9F1000F1F
:1016B000B1D0B9F1110F4DD0B9F13A0F45D0B9F110
:1016C000060F3DD095F82430364AFF2BBAD0B379B7
:1016D0003A2BB7D0128A0121C8EB02022046FFF74D
:1016E00011F8AFE72B8A6268083392F800902B82DA
:1016F0006389072BA6D9538823F4C063002BA1D19B
:101700006FF00701204604F0B7F84FF0080875E7BE
:1017100040F2FF139E4522D040F2FF239E451ED08B
:101720002249384600F0B8FAD5F814A000289ED017
:10173000BAF1000F31D03B46002B7FF453AF81E765
:101740003946204606F0A0FB7FE739462046FEF7E3
:1017500005FF7AE73946204608F048FD75E7B9F1FC
:10176000000FDDD1BBF1000FDAD1019BB3F1807F17
:10177000D6D1BAF1000FDED10FE0AA69002A7FF4BA
:1017800031AFE969074A00298DD1126A002A3FF476
:101790007CAF002B7FF426AF54E7AB69002BCAD196
:1017A0003B46EEE724DD002028E1002048DD002054
:1017B0002DE9F04F85B007469DF838909DF83CA084
:1017C000DDF84080002A58D00D469B46164611B1E0
:1017D0000B68002B34D02821384604F04DF800283F
:1017E00056D17C6884F807B084F806A03368A361FA
:1017F0007368E361B3682362F36863624FEA095078
:1018000040F0C040FEF76EFE20603889283880B274
:10181000FEF760FE204BA080002D08BF1D462B6800
:10182000A3606B68E360AB682361EB686361324679
:101830003946D8F850304046984705B0BDE8F08F9B
:101840004B68002BC7D18B68002BC4D1CB68002B11
:10185000C1D111464046FFF7C1FC58B10368002BC7
:10186000B9D14368002BB6D18368002BB3D1C368CC
:10187000002BB0D16FF00300DFE743689A69009254
:10188000DA6901921A6A02925B6A03936E46CEE7A6
:101890006FF00100D1E700BF0C4B04002DE9F04FC1
:1018A0008DB007469DF858909DF85CA0002A5CD04A
:1018B0000C46204611469B461646FFF775FB8046B0
:1018C000002869D014B12368002B34D02821384671
:1018D00003F0D2FF00286DD17D6885F807B085F848
:1018E00006A03368AB617368EB61B3682B62F36881
:1018F0006B624FEA095040F0C040FEF7F3FD2860EC
:101900003889283880B2FEF7E5FD2C4BA880002CE2
:1019100008BF1C462368AB606368EB60A3682B615B
:10192000E3686B6132463946D8F8503040469847F4
:101930000DB0BDE8F08F6368002BC7D1A368002B02
:10194000C4D1E368002BC1D13146FFF747FC18B37F
:101950000368002BBAD14368002BB7D18368002BF2
:10196000B4D1C368002BB1D116E043689A680092E5
:10197000DA6801921A6902925A6903929A6904928A
:10198000DA6905921A6A06925B6A079304A96846A7
:10199000FFF70AFB804610B96FF00300C8E77B68C9
:1019A0009A690892DA6909921A6A0A925B6A0B9339
:1019B00008AEB7E76FF00100BAE700BF0C4B0400B8
:1019C0002DE9F04F8DB007469DF858809DF85CA03A
:1019D000189D002A62D00C462046114699461646AC
:1019E000FFF7E2FA834600286FD0456714B12368F9
:1019F000002B37D02821384603F03EFF002873D152
:101A00007D6885F8079085F806A03368AB61736838
:101A1000EB61B3682B62F3686B624FEA085040F0E9
:101A2000C040FEF75FFD28603889283880B2FEF795
:101A300051FD2F4BA880002C08BF1C462368AB60CB
:101A40006368EB60A3682B61E3686B6132463946DB
:101A5000DBF85030584698470023CBF874300DB06F
:101A6000BDE8F08F6368002BC4D1A368002BC1D1FF
:101A7000E368002BBED13146FFF7B0FB58B10368D5
:101A8000002BB7D14368002BB4D18368002BB1D1B0
:101A9000C368002BAED16FF00300DDE743689A689E
:101AA0000092DA6801921A6902925A6903929A695D
:101AB0000492DA6905921A6A06925B6A079304A98E
:101AC0006846FFF771FA834610B96FF00300C6E766
:101AD00045677B689A690892DA6909921A6A0A92DC
:101AE0005B6A0B9308AEB1E76FF00100B4E700BF8B
:101AF0000C4B040070B50D4608211446064603F051
:101B0000BBFE58B973680221052601221D7058706A
:101B10009C80D8719E70D9709A7170BD6FF0010071
:101B200070BD00BF2DE9F043002285B0064689460E
:101B30000120202103F0AEFD002857D043891F2B40
:101B4000044604D805B0BDE8F04303F005BF6FF0CC
:101B5000070103F091FE002842D17168656891F891
:101B6000403085F800904FF0000885F8018085F836
:101B7000028085F8038085F8048085F8058085F863
:101B8000068085F80780DB06B368AB60F368EB601E
:101B900033692B6158BF1B4F73696B6148BF01F1FB
:101BA000100706F108096289CDF800903B463A21FA
:101BB0002046FEF727FF424668803A212046FFF77D
:101BC00099FF3B680BB97B689BB1394673680293F8
:101BD0000023019300934A4601232046FFF7E8FDC6
:101BE000204605B0BDE8F04303F0B6BE05B0BDE841
:101BF000F083BB68002BE8D1FB68434514BF39462E
:101C00004146E3E70C4B04002DE9F843DFF8508030
:101C1000D8F8004004B306460027C14602E0274634
:101C20002C46CDB163682568B342F8D1D8F80030AE
:101C3000A3424FF0000204F10801304608BFC9F882
:101C4000005007B13D60336F03B198472046FEF75F
:101C5000E7FB2C46002DE5D10020BDE8F88300BF4E
:101C6000FCB000200B4B1B689BB1012101E01B68FD
:101C70007BB15A688242FAD15A7E022A04D0012AE4
:101C8000F5D15A8B012AF2D0598359761B68002B63
:101C9000EFD17047FCB000200F4B1B68D3B110B4DC
:101CA00001E01B6893B15A688242FAD19C680A68C5
:101CB0009442F6D1DC684A689442F2D11C698A6881
:101CC0009442EED15C69CA689442EAD118465DF844
:101CD000044B704718467047FCB000204389172B0F
:101CE0002BD9F0B5044640680378822B27D0832B8C
:101CF00020D1634B1B68EBB1624A02F12400E1C8BA
:101D000001E01B68B3B15A689142FAD19A688242E5
:101D1000F7D1DA68AA42F4D11A69B242F1D15A690C
:101D2000BA42EED15A7E012A04D1002202215A83FE
:101D30001A7659762046BDE8F04003F00DBE514AB0
:101D4000556A40F2FF239D422ED04D4B1B68002B5D
:101D5000F0D002F1280696E8C04002E01B68002B94
:101D6000E8D05A689142F9D19A689542F6D1DA687A
:101D7000B242F3D11A69BA42F0D15A697245EDD133
:101D800082884149A1FB0212520960D10122597E89
:101D9000022905D00129CDD1598B09B19142C9D968
:101DA00001215A835976C5E7936A002BCDD1D36AB6
:101DB000002BCAD1136BB3F1807FC6D18368002B8F
:101DC000C3D1C368002BC0D10369002BBDD14369C7
:101DD000002BBAD12A4B1B68002BABD0DFF8A8E050
:101DE00040F2FF1740F2FF26012502E01B68002B9E
:101DF000A0D05A688A42F9D1D3F808C048F6FF72D9
:101E00000CEA0202BA42F1D0B4452ED08288AEFB71
:101E100002C2520927D095FBF2FC02FB0CF2C2F180
:101E20000102002A92B208BF012293F819C0BCF146
:101E3000020F09D0BCF1010FD8D1B3F81AC0BCF120
:101E4000000F01D09445D1D95A835D76CEE70121A8
:101E500091FBF2F102FB01F2C2F10102002A92B2FF
:101E600008BF012293E70122DFE7DA68002ACDD11B
:101E70001A69002ACAD15A69B2F1807FC6D1B5E782
:101E8000FCB0002024DD00201F85EB512DE9F04738
:101E9000634B1C6882B0002C00F0BE80614FDFF8FD
:101EA000888105460E466FF005004FF000095DB1D0
:101EB0002B68002B60D16A68002A5DD1AA68002ACD
:101EC0005AD1EA68002A57D13B6813B917E01B685A
:101ED000ABB15A689442FAD1996832689142F6D10E
:101EE000D96872689142F2D11969B2689142EED113
:101EF0005969F268914235D01B68002BE9D1B8F8D6
:101F00000A00FEF755FA0346002874D05C60002EE4
:101F100076D032689A607268DA60B2681A61F268E4
:101F200039685A610222A3F81A9083F8189083F84E
:101F30001C905A761960D4F870A03B60BAF1000F7B
:101F400005D00122314620460193D047019B0193E1
:101F500018468321FFF7E6FD019B5A7E022A57D0DF
:101F6000012A52D01A7F01321A7724680020002CEF
:101F70009DD102B0BDE8F08794F8402012B12269EB
:101F8000934211D094F8412012B1226A934218D0A2
:101F900094F8422012B1226B93421FD02468002C87
:101FA00085D102B0BDE8F087696862699142E9D1E4
:101FB000A968A2699142E5D1E968E2699142E1D15B
:101FC00082E76968626A9142E2D1A968A26A914295
:101FD000DED1E968E26A9142DAD175E76A68636B3B
:101FE0009A42DBD1AA68A36B9A42D7D1EA68E36B25
:101FF0009A42D3D168E74FF0FF3002B0BDE8F087D6
:102000009E60DE601E6132468AE75A8B012AA9D0A3
:1020100001225A835A76A5E76FF00500A9E700BFB1
:1020200028E10020FCB000201C4B04002DE9F04109
:10203000534B1D68002D00F09A80DFF8488106465A
:102040000F466FF005003EB133684BBB72683ABB78
:10205000B2682ABBF2681ABBD8F8004014B91AE07B
:102060002468C4B16368AB42FAD1A2683B689A4263
:10207000F6D1E2687B689A42F2D12269BB689A4243
:10208000EED16269FB689A42EAD1237F012B41D9E4
:10209000013B237700202D68002DD4D1BDE8F081CD
:1020A00095F8402012B12A69934219D095F8412041
:1020B00012B12A6A934220D095F84220002AEAD031
:1020C0002A6B9342E7D172686B6B9A42E3D1B26894
:1020D000AB6B9A42DFD1F268EB6B9A42DBD1BBE784
:1020E00071686A699142E1D1B168AA699142DDD112
:1020F000F168EA699142D9D1AEE771686A6A9142A2
:10210000DAD1B168AA6A9142D6D1F168EA6A9142FD
:10211000D2D1A1E7237E2BBB2B6F1BB10022394606
:1021200028469847D8F80020A24224D04AB1136824
:102130009C420FD02BB11A68A2420CD01346002B40
:10214000F9D12046FEF76CF900202D68002D7FF4B0
:102150007AAFA3E7134622681A602046FEF760F9BB
:102160000020F2E784212046FFF7DCFCD4E76FF083
:102170000500BDE8F0812368C8F80030E1E700BF42
:1021800028E10020FCB0002038B50B4B1C6864B17E
:102190000225628B531E9BB222B1638313B9637E07
:1021A000012B03D02468002CF3D138BD83212046B5
:1021B000FFF7B8FC6576F5E7FCB000202DE9F043A9
:1021C00090F864309C1C14F0070318BF012303EB44
:1021D000E4039CB2E500183585B007460E469146EB
:1021E000A9B20022012003F055FA00285ED04389ED
:1021F000AB42804646D34568882329F00F022B70F6
:1022000000232A716B70AB70EB706B71AB71EB716B
:10221000002E4ED03368AB607368EB60B3682B61FF
:10222000F3686B6102232B766C7697F8642007F1D4
:10223000650105F11A0021F066FC19F0010326D0B2
:10224000234C4FF0807340F2FF21002284E80E00FF
:10225000F36843F0FF03E360B8F80A2000943346C4
:102260003A214046FEF7CEFB4FF03A0E002368803D
:1022700022468DE8084002973146FF234046FFF78B
:1022800097FA404605B0BDE8F04303F065BB19F08E
:10229000020F09D00E4C40F2FF214FF080726360B4
:1022A000A3602160E260D7E70A4CD5E705B0BDE83E
:1022B000F0832E726E72AE72EE722E736E73AE7308
:1022C000EE732E746E74AE74EE743346A9E700BFDD
:1022D00020B1002038DD00202DE9F04790F8403093
:1022E00003F0100384B00646002B66D0DFF8188197
:1022F000444D00F11007002440F2FF224FF000731C
:1023000047452A60EB606C60AC6078D090F8644020
:10231000023414F0070318BF012303EBE404A4B252
:10232000E100083189B20022012003F0B3F98146AF
:10233000002858D0E300428908339A4258D3D0F895
:1023400004A00023852247458AF800208AF801303E
:102350008AF802308AF803308AF804308AF80530A7
:102360008AF806308AF807300AD0406801234472A0
:10237000037296F864200A3006F1650121F0C3FB70
:10238000B9F80A2000953B463A214846FEF73AFB49
:102390003A220023AAF80200394601920093194A12
:1023A0000296FF234846FFF703FA0446484603F027
:1023B000D3FA204604B0BDE8F087124DDFF848801C
:1023C00040F2FF2203F0FF042A604FF0007308215F
:1023D000002201206C60AC60EB6003F05BF94746C3
:1023E00081460028A6D16FF0010004B0BDE8F08757
:1023F00003F0B2FA6FF0010004B0BDE8F0870821E5
:1024000091E700BF20B100200C4B04002DE9F047FC
:1024100090F84030DB0690F8643058BFDFF8008158
:1024200003F1020548BF00F1100815F0070318BFBB
:10243000012303EBE5039DB2EC00183484B007469A
:102440000E469146A1B20022012003F023F98246F4
:10245000002851D04389A34249D3446800238722EE
:1024600022706370A370E37023716371A371E371D1
:10247000002E44D03368A3607368E360B3682361BF
:10248000F368636101236576237697F8642007F18A
:10249000650104F11A0021F036FB19F0010F0DD08F
:1024A0001E4B40F2FF221A6000214FF080725960EB
:1024B0009A60F26842F0FF02DA601E46BAF80A201B
:1024C000009643463A215046FEF79CFA1449608034
:1024D00000233A20884514BF4146194601900093D5
:1024E00002973246FF235046FFF762F9504604B088
:1024F000BDE8F04703F030BA04B0BDE8F0872672BB
:102500006672A672E67226736673A673E673267405
:102510006674A674E6743346B3E700BF20B10020AA
:102520000C4B04002DE9F04FD94C94F8203083B0C7
:10253000002B00F02C8394F84820002A00F0298317
:1025400094F87010002900F0268394F89800002871
:1025500000F0238394F8C050002D00F0208394F8FD
:10256000E860002E00F01D8394F810E1BEF1000F2A
:1025700000F0198394F838C1BCF1000F00F0158306
:1025800094F86081B8F1000F00F0118394F88891FD
:10259000B9F1000F00F00D83032B00F0EE80032A49
:1025A00000F00E81032900F01381032800F0188148
:1025B000032D00F01D81032E00F02281BEF1030FD8
:1025C00000F02681BCF1030F00F02A81B8F1030F5F
:1025D00000F02E81B9F1030F00F03181052B00F0DE
:1025E0003681052A00F03B81052900F0408105284D
:1025F00000F04581052D00F04D81052E00F052813F
:10260000BEF1050F00F06781BCF1050F00F06B8192
:10261000B8F1050F00F06F81B9F1050F00F072817C
:10262000042B00F07781042A00F07C81042900F05B
:102630008181042800F08681042D00F08B81042E16
:1026400000F0A181BEF1040F00F0A581BCF1040FE0
:1026500000F0A981B8F1040F00F0AD81B9F1040FC9
:1026600000F0C181022B00F0AD814FF0FF370097E1
:10267000BB46022A00F06382022900F05082022841
:1026800000F03C82022D00F02882022E00F014821D
:10269000BEF1020F00F0FF81BCF1020F00F0EA81F1
:1026A000B8F1020F00F0D581B9F1020F00F0A3815B
:1026B000BBF1FF3F40F0AE81E7690097DFF8D0A1A2
:1026C000002F00F04D8200270097676C002F00F06C
:1026D0007282E76E002F00F0BC82D4F89470002F55
:1026E00000F0A382D4F8BC70002F00F00483D4F86B
:1026F000E470002F00F0EB82D4F80C71002F00F092
:10270000D182D4F83471002F00F0B782D4F85C7114
:10271000002F00F07582D4F88471002F00F05E82E3
:10272000BBF1FF3F40F07681012B00F027820023B0
:10273000012A00F07883012900F06883012800F065
:102740005783012D00F04683012E00F03583BEF142
:10275000010F00F02383BCF1010F00F01183B8F1E9
:10276000010F00F0FF82B9F1010F00F0DB82BBF135
:10277000FF3F40F0E482584668E194F82170002F52
:102780007FF40DAF3D464FEA850808EB050604EBE4
:10279000C606F06918B103F0DFF80023F36108EB17
:1027A0000503DB00E11800223846E25081F82020C2
:1027B00081F821200A614A624A608A60CA6045E164
:1027C00094F84970002F7FF4EDAE01273D46DAE71B
:1027D00094F87170002F7FF4E8AE02273D46D2E7EF
:1027E00094F89970002F7FF4E3AE07460546CAE7D8
:1027F00094F8C170002F7FF4DEAE04273D46C2E797
:1028000094F8E970002F7FF4D9AE05273D46BAE76A
:1028100094F81171002F7FF4D5AE06273D46B2E73C
:1028200094F83971002F7FF4D1AE07273D46AAE70F
:1028300094F86171002F7FF4CDAE0827A2E794F8D9
:102840008971002F7FF4CAAE09273D469BE794F8B3
:102850002170002F7FF4C5AE3E463D4628E094F837
:102860004970002F7FF4C0AE0126354620E094F871
:102870007170002F7FF4BBAE0226354618E094F845
:102880009970002F7FF4B6AE0326354610E000BFE6
:1028900058DD002094F8C170002F7FF4AEAE0426FE
:1028A000354605E094F8E970002F7FF4A9AE35466F
:1028B0004FEA850808EB050704EBC707F86918B16C
:1028C00003F04AF80023FB6108EB0503DB00E11885
:1028D0000022304669E794F81171002F7FF494AE1E
:1028E00006263546E4E794F83971002F7FF490AE60
:1028F00007263546DCE794F86171002F7FF48CAE33
:102900000826D4E794F88971002F7FF489AE092650
:102910003546CDE794F82170002F7FF484AE3D4614
:102920003E461DE094F84970002F7FF47FAE0125EC
:102930002E4615E094F87170002F7FF47AAE0225D0
:102940002E460DE094F89970002F7FF475AE0325A4
:102950002E4605E094F8C170002F7FF470AE2E462D
:102960004FEA860808EB060704EBC707F86918B1B9
:1029700002F0F2FF0023FB6108EB0603DB00E11825
:102980000022284611E794F8E970002F7FF45AAE30
:1029900005252E46E4E794F81171002F7FF456AE1A
:1029A00006252E46DCE794F83971002F7FF452AEED
:1029B00007252E46D4E794F86171002F7FF44EAEC0
:1029C0000825CCE794F82170DFF854A3002F7FF49A
:1029D0004CAEDAF82470009701374FF0FF3B18BF78
:1029E0004FF0000B45E694F88971002F7FF43AAE62
:1029F00009252E46B4E794F889A1BAF1000F7FF4B7
:102A000057AEC74FD7F88CA1009FBA45BFF450AE60
:102A10004FF0090B4FEA8B0505EB0B0604EBC606DE
:102A2000F06918B102F098FF0023F36105EB0B0188
:102A3000C900621800236350584682F8203082F89B
:102A400021301361536253609360D36003B0BDE8DB
:102A5000F08F94F861A1BAF1000F7FF425AEB04F6A
:102A6000D7F864A1009F574584BFCDF800A04FF070
:102A7000080B19E694F839A1BAF1000F7FF410AEF3
:102A8000A74FD7F83CA1009F574584BFCDF800A0C1
:102A90004FF0070B04E694F811A1BAF1000F7FF490
:102AA000FBAD9F4FD7F814A1009F574584BFCDF8C9
:102AB00000A04FF0060BEFE594F8E9A0BAF1000F83
:102AC0007FF4E6AD964FD7F8ECA0009F574584BF42
:102AD000CDF800A04FF0050BDAE594F8C1A0BAF1EB
:102AE000000F7FF4D2AD8E4FD7F8C4A0009F57459A
:102AF00084BFCDF800A04FF0040BC6E594F899A070
:102B0000BAF1000F7FF4BEAD854FD7F89CA0009FAF
:102B1000574584BFCDF800A04FF0030BB2E594F801
:102B200071A0BAF1000F7FF4AAAD7D4FD7F874A061
:102B3000009F574584BFCDF800A08B469FE594F8D1
:102B400049A0BAF1000F7FF497AD754FD7F84CA0AC
:102B5000009F574584BFCDF800A04FF0010B8BE5D7
:102B6000012B7FF4B2AD9AF821700197002F7FF40A
:102B7000ACADBB46DAF824700097A6E594F8217056
:102B8000674B002F7FF4D3AD5B6ABB46D0E5184698
:102B90005CE701205AE7022058E7032056E70420AB
:102BA00054E7052052E7062050E707204EE70820AB
:102BB0004CE709204AE7012A7FF48BAD584F97F87C
:102BC00049A0BAF1000F7FF484ADD7F84CA0009F64
:102BD00057459CBFCDF800A093467AE5B9F1010FA7
:102BE0007FF49EAD4E4F97F889A1BAF1000F7FF4A4
:102BF00097ADD7F88CA1009FBA45FFF491AD07E7D8
:102C0000B8F1010F7FF487AD454F97F861A1BAF194
:102C1000000F7FF480ADD7F864A1009F57459CBF9B
:102C2000CDF800A04FF0080B75E501287FF45AADF0
:102C30003B4F97F899A0BAF1000F7FF453ADD7F846
:102C40009CA0009F57459CBFCDF800A04FF0030B00
:102C500048E501297FF441AD314F97F871A0BAF1F1
:102C6000000F7FF43AADD7F874A0009F57459CBF82
:102C7000CDF800A04FF0020B2FE5BCF1010F7FF45F
:102C800045AD274F97F839A1BAF1000F7FF43EAD5B
:102C9000D7F83CA1009F57459CBFCDF800A04FF04E
:102CA000070B33E5BEF1010F7FF42BAD1C4F97F8F6
:102CB00011A1BAF1000F7FF424ADD7F814A1009F41
:102CC00057459CBFCDF800A04FF0060B19E5012E2B
:102CD0007FF412AD124F97F8E9A0BAF1000F7FF41C
:102CE0000BADD7F8ECA0009F57459CBFCDF800A0D6
:102CF0004FF0050B00E5012D7FF4F9AC084F97F874
:102D0000C1A0BAF1000F7FF4F2ACD7F8C4A0009FC5
:102D100057459CBFCDF800A04FF0040BE7E400BF7F
:102D200058DD002094F88911454A00297FF41FAD31
:102D3000D2F88C219A42FFF41AAD4FF0090B4FEAFA
:102D40008B0505EB0B0604EBC606F06918B102F023
:102D500003FE0023F36105EB0B03DB00E118002207
:102D6000584622E594F86111354A00297FF4FBACFE
:102D7000D2F8642193429CBF13464FF0080BF2E453
:102D800094F839112E4A00297FF4E9ACD2F83C219D
:102D900093429CBF13464FF0070BE0E494F81111E7
:102DA000274A00297FF4D7ACD2F8142193429CBF64
:102DB00013464FF0060BCEE494F8E910204A0029A0
:102DC0007FF4C5ACD2F8EC2093429CBF13464FF081
:102DD000050BBCE494F8C110194A00297FF4B4AC87
:102DE000D2F8C42093429CBF13464FF0040BABE4CF
:102DF00094F89910124A00297FF4A3ACD2F89C20D1
:102E000093429CBF13464FF0030B9AE494F8711061
:102E10000B4A00297FF492AC526F93429CBF134639
:102E20004FF0020B8AE494F849A0054FBAF1000F65
:102E30007FF481ACFF6C9F4224BF3B4693467AE40B
:102E400058DD00202DE9F04F44682378872B83B0AC
:102E500080468B4600F0948200F2A480022B00F0A2
:102E60002282862B40F0988043890F2B40F2948079
:102E700091F86130002B40F0438400238BF86130DF
:102E8000B84EDFF8ECA23568DAF81430DAF818201A
:102E9000DAF81C00DAF820E01DB129698B4500F052
:102EA000C586F5681DB129698B4501F00080B569BB
:102EB0001DB129698B4500F0E687AB4D2968994221
:102EC00000F08B85AF6AA849BB4200F077852F6D73
:102ED000A549BB4200F09085AF6FA349BB4200F00B
:102EE0005C85D5F8A070A049BB4200F0A685D5F856
:102EF000C8709D49BB4200F08E85D5F8F0709A49A4
:102F0000BB4200F0BE85D5F818719749BB4200F06E
:102F1000A685D5F840719449BB4200F0D785D5F815
:102F2000687191499F4200F0BE85FFF7FBFA0028C7
:102F300032DB00EB8002D200A918DAF81430AB5073
:102F4000DAF81830DAF81C204B60DAF820308A60A2
:102F5000CB6001220023C1F810B081F82020CB61A2
:102F60004B624FEA800E0EEB000105EBC1013268A7
:102F70007C4F012381F82130002A01F03484FA6863
:102F8000002A01F08083BB694FF00209002B01F099
:102F90007B83002381F82130404603B0BDE8F04F29
:102FA00002F0DABC882B00F0E580892BF4D143894C
:102FB000272BF1D9292B06D994F82920D2002832C1
:102FC000934280F083830026DFF8A4A1A369CAF8A6
:102FD0001430E269654DCAF81820206A2968CAF8D9
:102FE0001C00D4F824E0CAF820E08B4200F0F683FD
:102FF000AF6A5E49BB4200F0E3832F6D5B49BB4281
:1030000000F0C983AF6F5949BB4200F0B483D5F8D3
:10301000A0705649BB4200F09D83D5F8C870534953
:10302000BB4200F08683D5F8F0705049BB4200F0F7
:10303000B785D5F818714D49BB4200F09F85D5F88A
:1030400040714A49BB4200F08785D5F8687147490D
:10305000BB42A1D1D1F86C319A429DD1D1F87031E7
:10306000984299D1D1F874319E4595D1092303EB4B
:10307000830305EBC305A3682B61E3686B612369D8
:10308000AB616369EB61002E86D03378022B83D16C
:10309000A368CAF81430E168334DCAF818102069E3
:1030A0002A68CAF81C006469CAF82040934201F0FB
:1030B0004181AA6A2C4F934201F02E812A6D2A4F3A
:1030C000934201F01B81AA6F274F934201F00681C2
:1030D000D5F8A020244F934201F0EF80D5F8C82006
:1030E000214F934201F0D880D5F8F0201E4F934233
:1030F00001F0C180D5F818211B4F934201F0928056
:10310000D5F84021184F934201F03381D5F868215A
:10311000154F934201F01C81FFF704FA0028FFF6D7
:103120003BAF00EB8000C4002F193846C7F810B041
:10313000B11C9BF86420143020F0E5FCDAF8143060
:103140002B51DAF81860DAF81C00DAF820107E60EB
:10315000042241F28833B860F96087F820207B624E
:103160001AE700BF04E1002058DD002074DF0020D2
:1031700024DD00204389172B7FF60EAFDFF8F8A17E
:103180009AF82420FF2A00F08283A368CAF824302A
:10319000E268764DCAF8282021692868CAF82C1000
:1031A0006669CAF83060834200F09F86A86A6F4F54
:1031B000834200F0B886286D6C4F834200F0A486ED
:1031C000A86F6A4F834200F0CF86D5F8A000674F02
:1031D000834200F0B786D5F8C800644F834200F000
:1031E000EF86D5F8F000614F834200F0CE86D5F827
:1031F00018015E4F834200F00787D5F840015B4F0E
:10320000834200F0EF86D5F86801584F83427FF47F
:10321000C3AED7F86C319A427FF4BEAED7F87031A6
:1032200099427FF4B9AED7F874319E427FF4B4AEC0
:103230000926B700BB194E4A05EBC3031268C3F851
:1032400010B05A622279920600F1438293F820303E
:10325000012B00F03E82BB1905EBC3030222D969A2
:1032600083F8202000293FF497AE4B6813F1180231
:1032700001F015829A69CAF82420DA69CAF8282070
:103280001A6ACAF82C205B6ACAF830303E4405EB53
:10329000C605384A2869036D9847E86902F05CFB67
:1032A0000023EB6178E643892F2B7FF675AE324A17
:1032B000236A5361616A314D9161A06A2E68D061C1
:1032C000E76A1762B34200F09782AA6A2B4E9342D4
:1032D00000F0CF822A6D294E934200F0BC82AA6F83
:1032E000264E934200F0A782D5F8A020234E9342A9
:1032F00000F09082D5F8C820204E934200F008825A
:10330000D5F8F0201D4E934200F0F283D5F8182135
:103310001A4E934200F00E84D5F84021174E934286
:1033200000F0F783D5F86821144E93427FF434AE51
:10333000D6F86C3199427FF42FAED6F870319842AE
:103340007FF42AAED6F874319F427FF425AE092669
:103350006068FDF7C7F806EB860605EBC605286230
:10336000404603B0BDE8F04F02F0F6BA58DD002049
:103370006828002048DD002024DD002074DF0020C4
:103380004389172B7FF608AE192B05D9627ED20030
:103390001832934280F058814FF00009DFF81CA4E6
:1033A000DAF81460DAF81830DAF81C10DAF820507D
:1033B000002E00F0C6809BF84030DB0613D5A768CE
:1033C000DBF810309F420ED1E268DBF814309A42ED
:1033D00009D12269DBF818309A4204D16269DBF81E
:1033E0001C309A4234D09BF84130DF0613D5A768D1
:1033F000DBF820309F420ED1E268DBF824309A429D
:1034000009D12269DBF828309A4204D16269DBF8DD
:103410002C309A421CD09BF84230DD067FF5BCADC3
:10342000A768DBF830309F427FF4B6ADE268DBF886
:10343000343093427FF4B0AD2269DBF838309A42E1
:103440007FF4AAAD6269DBF83C309A427FF4A4AD08
:10345000B9F1000F3FF4A0ADD64DDAF818302A6864
:10346000DAF81C10DAF820E0964200F04986A86AE3
:10347000D04A864200F03686286DCE4A864200F059
:103480002386A86FCB4A864200F00E86D5F8A000AE
:10349000C84A864200F0F785D5F8C800C54A86427A
:1034A00000F0C485D5F8F000C24A864200F0478695
:1034B000D5F81801BF4A864200F03086D5F84001A1
:1034C000BC4A864200F05D86D5F86801B94A86425A
:1034D00000F04686FFF726F80028FFF65DAD00EB0A
:1034E0008000C600AF193846C7F810B009F10201D4
:1034F0009BF86420143020F006FBDAF81430AB514E
:10350000DAF818307B60DAF81C10DAF82020B9609D
:10351000042041F28833FA6087F820007B62A768B4
:10352000CAF82470E368CAF828302369CAF82C3036
:103530006369A149CAF8303058466022FEF73EFE62
:103540002AE5002D40F08380002900F02B86002B17
:1035500040F038839BF840300093DB0606D5A06826
:10356000DBF810309842074601F059809BF8413053
:10357000DF0606D5A068DBF820309842074601F048
:1035800068809BF84230D8067FF506ADA068DBF86E
:103590003030834207467FF4FFACD4F80CE0DBF810
:1035A000343073457FF4F8ACD4F810C0DBF8383011
:1035B00063457FF4F1AC6269DBF83C3001929342E1
:1035C0007FF4EAAC00297FF443AF002D7FF440AFD5
:1035D000009B23B1DBF81020904201F0C5809BF8DE
:1035E00041302BB1A268DBF820309A4201F0DA803A
:1035F0009BF84230002B3FF4CFACA268DBF83030B0
:103600009A427FF4C9ACE268DBF834309A427FF426
:10361000C3AC2269DBF838309A427FF4BDAC6269F2
:10362000DBF83C309A427FF4B7AC584622220BF1CB
:103630003001FEF7C3FD9BF8423018077FF5ACACB4
:1036400000238BF84230A7E404F11809A6E6002B0A
:1036500040F0B8829BF84030009300297FF47DAFA2
:10366000D80606D5A068DBF810309842074601F06E
:103670004D809BF84130D90606D5A068DBF8203094
:103680009842074601F059809BF84230DA067FF5F0
:1036900083ACA068DBF83030834207467FF47CAC13
:1036A000D4F80CE0DBF8343073457FF475ACD4F813
:1036B00010C0DBF8383063457FF46EAC6369DBF82B
:1036C0003C10019399427FF467AC7EE704F1280631
:1036D0007AE4B8F80A20192A7FF65EACD8F804100C
:1036E0004B7EDB0018339A42FFF456ACB81905EB59
:1036F000C0009BF864201A31143020F004FAAAE5C7
:103700000846FEF7E9FD00283FF4B7ABFFF7B8BB6A
:10371000D6F8CC2091427FF4F3ADD6F8D020904279
:103720007FF4EEADD6F8D42097427FF4E9AD0526BC
:103730000EE6D1F8CC70BA427FF475ACD1F8D070F7
:10374000B8427FF470ACD1F8D4108E457FF46BACE6
:1037500005238CE4D1F8A470BA427FF45EACD1F8B2
:10376000A870B8427FF459ACD1F8AC108E457FF404
:1037700054AC04237BE4CF6FBA427FF448ACD1F859
:103780008070B8427FF443ACD1F884108E457FF44A
:103790003EAC03236BE44F6DBA427FF433AC8F6DC4
:1037A000B8427FF42FACC96D8E457FF42BAC022359
:1037B0005DE400BF58DD002048DD002024DD00204E
:1037C000CF6ABA427FF419AC0F6BB8427FF415ACE4
:1037D000496B8E457FF411AC012348E469688A4245
:1037E0007FF406ACA96888427FF402ACE9688E4594
:1037F0007FF4FEAB00233AE46A6891427FF465AD42
:10380000AA6882427FF461ADEA6897427FF45DADB9
:1038100000269DE5D6F8A42091427FF46BADD6F842
:10382000A82090427FF466ADD6F8AC2097427FF492
:1038300061AD04268CE5F26F91427FF455ADD6F868
:10384000802090427FF450ADD6F8842097427FF4D8
:103850004BAD03267CE5726D91427FF440ADB26DB5
:1038600090427FF43CADF26D97427FF438AD022672
:103870006EE5F26A8A427FF42DAD326B90427FF49E
:1038800029AD726B97427FF425AD012660E5192BB7
:103890007FF682AB627ED20018329342FFF47CAB9B
:1038A000A368CAF82430E268CAF828202669CAF852
:1038B0002C6091F840006169CAF8301020B1DBF843
:1038C0001000834200F089869BF8410020B1DBF8AC
:1038D0002000834200F092869BF8420020B1DBF882
:1038E0003000834200F02986CF4D2868834200F0E3
:1038F000B885A86ACC4F834200F0A485286DCA4FD2
:10390000834200F09085A86FC74F834200F07A850C
:10391000D5F8A000C44F834200F06285D5F8C800F6
:10392000C14F834200F04885D5F8F000BE4F834276
:1039300000F03085D5F81801BB4F834200F0A08518
:10394000D5F84001B84F834200F0AC85D5F8680146
:10395000B54F83427FF420ABD7F86C319A427FF4A5
:103960001BABD7F870319E427FF416ABD7F8743199
:1039700099427FF411AB0923227991067FF50CABB4
:1039800003EB830305EBC3009BF8642004F11A01E9
:10399000143020F0B8F8FFF7FFBACF6FBA427FF4C7
:1039A000A0AAD1F88070B8427FF49BAAD1F8841005
:1039B0008E457FF496AA0320FFF7D3BACF6ABA42A6
:1039C0007FF485AA0F6BB8427FF481AA496B8E45BC
:1039D0007FF47DAA0120FFF7C4BA69688A427FF4A8
:1039E00071AAA96888427FF46DAAE9688E457FF4C0
:1039F00069AA0020FFF7B5BA4F6DBA427FF46CAAEE
:103A00008F6DB8427FF468AAC96D8E457FF464AAB1
:103A10000220FFF7A6BAD1F8CC70BA427FF46DAAA3
:103A2000D1F8D070B8427FF468AAD1F8D4108E458E
:103A30007FF463AA0520FFF794BAD1F8A470BA42C4
:103A40007FF455AAD1F8A870B8427FF450AAD1F8F3
:103A5000AC108E457FF44BAA0420FFF782BAD1F850
:103A60001C71BA427FF455AAD1F82071B8427FF494
:103A700050AAD1F824118E457FF44BAA0720FFF7F6
:103A800070BAD1F8F470BA427FF43DAAD1F8F87058
:103A9000B8427FF438AAD1F8FC108E457FF433AADF
:103AA0000620FFF75EBAD1F86C319A427FF43DAA46
:103AB000D1F8703198427FF438AAD1F874319E451C
:103AC00008BF09207FF431AAFFF74BBAD1F844713F
:103AD000BA427FF424AAD1F84871B8427FF41FAAF1
:103AE000D1F84C118E457FF41AAA0820FFF739BA95
:103AF000D6F8F4208A427FF409ACD6F8F820904238
:103B00007FF404ACD6F8FC2097427FF4FFAB062686
:103B10001EE4D6F8442191427FF404ACD6F8482143
:103B200090427FF4FFABD6F84C2197427FF4FAAB7A
:103B300008260DE4D6F81C2191427FF4EDABD6F8AF
:103B4000202190427FF4E8ABD6F8242197427FF4FD
:103B5000E3AB0726FFF7FCBBD1F84471BA427FF410
:103B600074AAD1F84871B8427FF46FAAD1F84C1109
:103B70008E457FF46AAA0823FFF779BAD1F81C7141
:103B8000BA427FF45CAAD1F82071B8427FF457AAF8
:103B9000D1F824118E457FF452AA0723FFF767BAA4
:103BA000D1F8F470BA427FF444AAD1F8F870B84260
:103BB0007FF43FAAD1F8FC108E457FF43AAA062381
:103BC000FFF755BA9BF84030D90605D5A768DBF852
:103BD00010309F4200F08C849BF84130DA0605D506
:103BE000A768DBF820309F4200F06E849BF84230DB
:103BF000DB067FF5D1A9A768DBF83030BB427FF444
:103C0000CBA9E268DBF8343093427FF4C5A922697E
:103C1000DBF8383093427FF4BFA96269DBF83C30AF
:103C200093427FF4B9A913E458DD002029688B4240
:103C30007FF437A969688A427FF433A9A96888426A
:103C40007FF42FA9E9688E457FF42BA94FF0000976
:103C50004F46E088FCF73EFC07EB090306EB8303C5
:103C60005860E068002840F03681A068002840F0E5
:103C7000378107EB090306EB830362791A72B8F800
:103C80000820102A7FF788A9C94E9946102415E00C
:103C9000D8F8045025442B78032B1DD0052B00F0B9
:103CA0008680012B00F090806B78B8F8082004EB38
:103CB000C304A4B2131B002B7FF76EA9B8F80A3017
:103CC0009342E5D0BB490D4623462022404601F0F1
:103CD000F5FE2B78032BE1D12B69CAF824306A69F1
:103CE000CAF82820AF693068CAF82C70E969CAF8A8
:103CF0003010834200F08380F069834200F08D80B1
:103D0000B06B834200F09780706D834200F0A0801A
:103D1000306F834200F0A9803069002800F0808273
:103D20007069002800F07C82F06A002800F0FC83B3
:103D3000306B002800F0F883B06C002800F0F783A7
:103D4000F06C002800F0F383706E002800F0F2831E
:103D5000B06E002800F0EE83D6F8800018B1D6F8D7
:103D600084000028A0D104200090C0008646019065
:103D70000098C0EB0E0E06EB8E0046F82E300023A6
:103D8000C0F810B042608760C16003766868FCF7D5
:103D9000A9FB9DE80C009B1A06EB83035861EA78A7
:103DA000520681D51A7E42F001021A767CE76868D5
:103DB000FCF798FBB0F5A06FFFF476AF6868FCF7EE
:103DC00091FBABF862006FE7D9F8000000283FF4E0
:103DD0006BAF90F82030012B7FF466AF9BF8642026
:103DE000A91C14301FF08FFED9F80030724A02214E
:103DF00083F82010D9F8003012685A6254E76C48F2
:103E0000406882427FF478AF6948006983457FF457
:103E100073AF002300930193B8E7306A82427FF4C6
:103E20006FAFF06A83457FF46BAF01234FF0080E4C
:103E30008DE80840AAE7F06B82427FF465AFB06C72
:103E400083457FF461AF022310278DE888009DE74A
:103E5000B06D82427FF45CAF706E83457FF458AFE3
:103E6000032018238DE8090090E7706F82427FF4E9
:103E700053AFD6F8800083457FF44EAF0421202352
:103E80008DE80A0082E7296899427FF416A86968DC
:103E90008A427FF412A8A96888427FF40EA8E968D4
:103EA0008E457FF40AA84FF002090427D1E629685D
:103EB0008B427EF4FCAF69688A427EF4F8AFA96851
:103EC00088427EF4F4AFE9688E457EF4F0AF4FF09F
:103ED00001090227BDE6FCF705FB384B1860C4E674
:103EE000FCF700FB344B1860C3E6686882427FF43D
:103EF0005DA9A86881427FF459A9E86886427FF4E9
:103F000055A90026FFF795B9786D82427FF458A92C
:103F1000B86D81427FF454A9F86D86427FF450A9B0
:103F20000226FFF786B9F86A82427FF444A9386B0B
:103F300081427FF440A9786B86427FF43CA9012638
:103F4000FFF777B9D7F8A40082427FF444A9D7F8E5
:103F5000A80081427FF43FA9D7F8AC0086427FF4E5
:103F60003AA90426FFF765B9F86F82427FF42DA9BC
:103F7000D7F8800081427FF428A9D7F884008642D0
:103F80007FF423A90326FFF754B9D7F8F40082423F
:103F90007FF42DA9D7F8F80081427FF428A9D7F83B
:103FA000FC0086427FF423A90626FFF742B900BF32
:103FB000E8DE002000B100206828002064280020EE
:103FC000D7F8CC0082427FF40CA9D7F8D000814208
:103FD0007FF407A9D7F8D40086427FF402A905260A
:103FE000FFF727B9D7F8440182427FF40CA9D7F82C
:103FF000480181427FF407A9D7F84C0186427FF43B
:1040000002A90826FFF715B9D7F81C0182427FF4F0
:10401000F4A8D7F8200181427FF4EFA8D7F8240153
:1040200086427FF4EAA80726FFF703B9D2F8CC004E
:1040300083427FF437AAD2F8D00081427FF432AABB
:10404000D2F8D42096457FF42DAA052303EB8303F1
:10405000DB001D44E14995F82020012A7FF460AA85
:10406000C818C5F810B09BF86420143009F102019B
:104070001FF049FD042241F2883385F820206B624D
:10408000A768FFF74DBAD2F8A40083427FF404AAD0
:10409000D2F8A80081427FF4FFA9D2F8AC2096455F
:1040A0007FF4FAA90423D1E7D06F83427FF4EEA90D
:1040B000D2F8800081427FF4E9A9D2F884209645A5
:1040C0007FF4E4A90323C1E7506D83427FF4D9A9AB
:1040D000906D81427FF4D5A9D26D96457FF4D1A928
:1040E0000223B3E7D06A83427FF4C6A9106B8142F2
:1040F0007FF4C2A9526B96457FF4BEA90123A5E7C0
:104100006A6893427FF4B3A9AA6891427FF4AFA989
:10411000EA6896457FF4ABA9002397E7D2F81C0123
:1041200083427FF4CBA9D2F8200181427FF4C6A953
:10413000D2F8242196457FF4C1A9072386E7D2F857
:10414000F40083427FF4B4A9D2F8F80081427FF4EE
:10415000AFA9D2F8FC2096457FF4AAA9062375E7FB
:10416000D2F86C61B3427FF4B5A9D2F870319942AC
:104170007FF4B0A9D2F874319E457FF4ABA909232E
:1041800064E7D2F8440183427FF49EA9D2F8480143
:1041900081427FF499A9D2F84C2196457FF494A9E5
:1041A000082353E7002B7FF40DAD9BF840300093BC
:1041B000DF0640F1B581A068DBF81030984200F0CE
:1041C0008E829BF84130D80640F1A681A068DBF8CA
:1041D0002030984200F06C829BF84230DA0602D41C
:1041E0001F077EF5D9AEA068DBF8303098427EF428
:1041F000D3AED4F80CE0DBF834309E457EF4CCAE80
:10420000D4F810C0DBF838309C457EF4C5AE636945
:10421000DBF83C1001938B427EF4BEAEFFF7D8B9B9
:104220000090A2E5D7F81C2191427EF469AFD7F83F
:10423000202190427EF464AFD7F8242194427EF48A
:104240005FAF072303EB8303DB001D44634995F84D
:104250002020012A7EF4A0AEC8189BF864201430F8
:10426000B11C1FF050FC042241F2883385F8202055
:104270006B62FEF791BED7F8F42091427EF43AAF1C
:10428000D7F8F82090427EF435AFD7F8FC2094425E
:104290007EF430AF0623D5E7D7F8CC2091427EF4E8
:1042A00023AFD7F8D02090427EF41EAFD7F8D420A9
:1042B00094427EF419AF0523C4E7D7F8A4209142B5
:1042C0007EF40CAFD7F8A82090427EF407AFD7F861
:1042D000AC2094427EF402AF0423B3E7FA6F91421C
:1042E0007EF4F6AED7F8802090427EF4F1AED7F897
:1042F000842094427EF4ECAE0323A3E77A6D9142CE
:104300007EF4E1AEBA6D90427EF4DDAEFA6D944279
:104310007EF4D9AE022395E7FA6A91427EF4CEAEDE
:104320003A6B90427EF4CAAE7A6B94427EF4C6AE8B
:10433000012387E76A6891427EF4BBAEAA68904287
:104340007EF4B7AEEA6894427EF4B3AE002379E718
:10435000D7F86C3199427EF4DFAED7F870319842CD
:104360007EF4DAAED7F874319C427EF4D5AE0923E0
:1043700068E7D7F8442191427EF4C8AED7F84821C7
:1043800090427EF4C3AED7F84C2194427EF4BEAE88
:10439000082357E7D7F8F40082427FF4CBAAD7F876
:1043A000F80086427FF4C6AAD7F8FC0081427FF469
:1043B000C1AA0623FFF7E0BAD7F8CC0082427FF407
:1043C000B3AAD7F8D00086427FF4AEAAD7F8D400BB
:1043D00081427FF4A9AA0523FFF7CEBA58DD002059
:1043E000D7F8A40082427FF499AAD7F8A8008642A1
:1043F0007FF494AAD7F8AC0081427FF48FAA0423FB
:10440000FFF7BABAF86F82427FF482AAD7F8800029
:1044100086427FF47DAAD7F8840081427FF478AA8F
:104420000323FFF7A9BA786D82427FF46CAAB86DB6
:1044300086427FF468AAF86D81427FF464AA022361
:10444000FFF79ABAF86A82427FF458AA386B86421C
:104450007FF454AA786B81427FF450AA0123FFF7BE
:104460008BBA686882427FF444AAA86886427FF4C7
:1044700040AAE86881427FF43CAA0023FFF77CBA97
:10448000D7F81C0182427FF45BAAD7F8200186424C
:104490007FF456AAD7F8240181427FF451AA07235A
:1044A000FFF76ABAD7F8440182427FF44FAAD7F8DF
:1044B000480186427FF44AAAD7F84C0181427FF432
:1044C00045AA0823FFF758BAE268DBF824309A427D
:1044D0007FF48CAB2269DBF828309A427FF486ABFC
:1044E0006269DBF82C309A427FF480ABFEF7B0BFF4
:1044F000E268DBF814309A427FF46EAB2269DBF895
:1045000018309A427FF468AB6269DBF81C309A423B
:104510007FF462ABFEF79CBF19073FF557AE5BE631
:104520001E073FF548AE4CE6012000901DE4022036
:1045300000901AE40320009017E4DBF83400824274
:104540007FF4D2A9DBF8380086427FF4CDA9DBF8EE
:104550003C00814208BF02237FF4C6A9A34A0BEBAB
:1045600003000024013341F0FF01D16080F8404096
:1045700011460BEB031040F2FF254FF08073936060
:1045800015605460FDF752FDDAF82410984A4CF299
:10459000FF030B4048F2FE0083423EF4FDAC906AFC
:1045A000944A234605E00133052B02F11C023EF438
:1045B000F3AC52F8044CA142F5D11468A042F2D1F8
:1045C000D468A345EFD18C4A1C2101FB03231A7E3A
:1045D00042F004021A76FEF7DFBCDBF814008242D8
:1045E0007FF472A9DBF8180086427FF46DA9DBF82E
:1045F0001C0081427FF468A90023AFE7DBF82400A8
:1046000082427FF469A9DBF8280086427FF464A91E
:10461000DBF82C0081427FF45FA901239EE7D4F8E8
:104620000CE0DBF814309E457EF4A0AFD4F810C047
:10463000DBF818309C457EF499AF6269DBF81C30DA
:1046400001929A427EF492AF00293EF4BEAFFEF78B
:10465000FFBED4F80CE0DBF824309E457EF491AF29
:10466000D4F810C0DBF828309C457EF48AAF62692C
:10467000DBF82C3001929A427EF483AF00293EF49D
:10468000A4AFFEF7E5BE99464FEA4907704407EB31
:10469000090305EBC00546F82350FFF7DABACAF85C
:1046A0002420CAF82820CAF82C201346FEF7ECBDB7
:1046B000D4F80CE0DBF824309E457FF48DADD4F8BF
:1046C00010C0DBF828309C457FF486AD6369DBF8C9
:1046D0002C1001938B427FF47FADFEF779BFD4F8A5
:1046E0000CE0DBF814309E457FF46BADD4F810C0BD
:1046F000DBF818309C457FF464AD6369DBF81C106F
:1047000001938B427FF45DADFEF762BFD4F80CE0FD
:10471000DBF814309E457EF4ACAFD4F810C0DBF863
:1047200018309C457EF4A5AF6369DBF81C1001933B
:104730008B427EF49EAFFEF748BFD4F80CE0DBF866
:1047400024309E457EF4A0AFD4F810C0DBF82830AA
:104750009C457EF499AF6369DBF82C1001938B4282
:104760007EF492AFFEF731BFDBF8142096457EF45D
:1047700036AFDBF8182094457EF431AFDBF81C200F
:10478000019B93427EF42BAF22220BF1100158467D
:10479000FDF714FD9BF840301E0748BF8BF84050D2
:1047A000FEF71DBFE268DBF824309A427EF420AFAA
:1047B0002269DBF828309A427EF41AAF6269DBF88E
:1047C0002C309A427EF414AF22220BF1200158467D
:1047D000FDF7F4FC9BF841301D0744BF00238BF824
:1047E0004130FEF705BF91464EE700BF20B10020E3
:1047F00024DD0020ECDE0020E8DE00202DE9F84377
:10480000A64DA74FA5F1200404F5C8764FF0010886
:1048100094F82030013B042B1CD8DFE813F033015F
:104820004D012E0124010500626A002A00F0F0818A
:10483000E06918B101F090F80023E361002384F8E7
:10484000203084F821302361636245F8203C6360A6
:10485000A360E3602834B44205F12805D8D1DFF81D
:1048600054E2DFF840C2DEF87450DEF83C31DEF886
:10487000C400DEF82470DEF84C60DEF89C40DEF800
:10488000EC10DEF814210135013003F10108CEF8F7
:104890007450DEF86431DEF88C51CEF8C400DCF8D8
:1048A0000000CEF83C81013701360134013101327C
:1048B00001330135CEF82470CEF84C60CEF89C4020
:1048C000CEF8EC10CEF81421CEF86431CEF88C512D
:1048D00050B1DCF80430002B00F09081013BCCF8A3
:1048E0000430002B00F08A81DCF80C206D4942B1C5
:1048F0000B69002B00F07881013B0B61002B00F06D
:104900007381DCF81820674942B1CB69002B00F0B5
:104910006181013BCB61002B00F05C81624B5A69E5
:1049200062B1196951B191F86000013A5A6128B138
:104930001A7E02F00302012A00F071811A6B5A49B3
:104940006AB1C86A58B190F86040013A0A6334B15C
:1049500091F8342002F00302012A00F07F81DA6C22
:1049600051496AB1886C58B190F86040013ACA6404
:1049700034B191F8502002F00302012A00F0948132
:104980009A6E49496AB1486E58B1013A8A6690F800
:10499000602032B191F86C2002F00302012A00F08D
:1049A000A981D3F8842040497AB1D1F8800060B160
:1049B000013AC1F8842090F8602032B191F8882043
:1049C00002F00302012A00F0BB81384E3468002C4B
:1049D00000F0FE80DFF8D880302540F2FF2719E094
:1049E00084F8405094F841301A0705D513F00703B6
:1049F00000F0898084F8415094F84230190705D5B9
:104A000013F0070300F0A28084F842502468002CC1
:104A100000F0C28094F840301807E3D513F0070384
:104A2000DED194F86B20D107DCD5E269C8F80430F8
:104A300004F110094FF0807342F0FF021C49C8F8DE
:104A400008304846C8F80C20C8F80070FDF71EFA78
:104A5000494601222046FDF7D9FC94F84030013345
:104A600084F84030BEE7636AB3F57A7F47D8052201
:104A7000002384F820206362ECE6636A03F57A730E
:104A80006362E7E6636A002B7FF4D2AE012221461F
:104A90002069C4F82480FDF7B9FCDBE678DD00204E
:104AA00024DD002004E10020E8DE002028E10020D1
:104AB00020B1002074DF0020E169B1B14B6813F12F
:104AC000180200F067819A697A62DA69BA621A6A32
:104AD000FA625B6AB24A20691363036DB14A984770
:104AE000E06900F039FF0023E361636AB3F57A7F80
:104AF00005D80322002384F820206362AAE6A3F5E8
:104B00007A736362A6E694F86B20D0077FF574AFE2
:104B1000E26AC8F8043004F120094FF0807342F0D3
:104B2000FF02A149C8F808304846C8F80C20C8F868
:104B30000070FDF7ABF9494601222046FDF766FCFF
:104B400094F84130013384F8413055E794F86B20F4
:104B5000D2077FF55BAFE26BC8F8043004F130098F
:104B60004FF0807342F0FF028F49C8F80830484682
:104B7000C8F80C20C8F80070FDF788F920464946AF
:104B80000122FDF743FC94F84230013384F84230AF
:104B90002468002C7FF43EAF346814B918E0246810
:104BA000A4B194F86130002BF9D094F86B30DB0796
:104BB000F5D52046FDF790FB0028F0D194F8613040
:104BC000013B84F861302468002CEAD1BDE8F88309
:104BD000BDE8F883002382F82130CCF81830CCF8F7
:104BE0001C308CF8203099E6002382F82130CCF874
:104BF0000C30CCF810308CF8143082E6002380F8AA
:104C00002130CCF80030CCF804308CF808306BE65A
:104C100021462069C4F82480FDF7F8FB1AE691F8D4
:104C2000410028B191F84220002A7FF487AE022289
:104C300001EB0211186808611969586801EB021448
:104C40000A4460618869A061187EC969E16108242D
:104C500040F0020182F8404019766FE690F841106A
:104C600029B190F84220002A7FF479AE022200EBAD
:104C70000210D9690161D86A1D6A1101084408242B
:104C80004561D86A45188069A861D86A0144C0693D
:104C9000C861D86A93F83410024441F0020182F8E6
:104CA000404083F834105AE690F8411029B190F84A
:104CB0004220002A7FF464AE022200EB0210996BBE
:104CC0000161986CDD6B1101084408244561986C02
:104CD00045188069A861986C0144C069C861996CE5
:104CE0000A4482F8404093F8502042F0020283F8D0
:104CF000502045E690F8411029B190F84220002A52
:104D00007FF44FAE022200EB0210596D0161586E24
:104D10009D6D1101084408244561586E451880694D
:104D2000A861586E0144C069C861596E0A4482F88E
:104D3000404093F86C2042F0020283F86C2030E689
:104D400090F8411029B190F84220002A7FF43DAE3E
:104D5000022200EB0210196F0161D3F880005D6F31
:104D60001101084408244561D3F880004518806982
:104D7000A861D3F880000144C069C861D3F88010ED
:104D80000A4482F8404093F8882042F0020283F8F7
:104D900088201AE67A62BA62FA621346004A9AE6F4
:104DA00024DD002048DD002020B1002070B4944CA8
