:020000021000EC
:1080000000800020D9A1010021A2010023A20100CB
:108010000000000000000000000000000000000060
:1080200000000000000000000000000025A2010088
:10803000000000000000000027A2010029A20100AA
:108040002BA201002BA20100FD8201002BA2010046
:108050002BA2010000000000C98A01002BA2010030
:108060002BA201002BA201002BA201002BA20100D8
:108070002BA201002BA201002BA201002BA20100C8
:108080002BA201002BA201002BA201002BA20100B8
:108090003D9801002BA20100A59601002BA2010032
:1080A0002BA201002BA20100000000000000000034
:1080B00000000000000000000000000000000000C0
:1080C000164B002B00D1144B9D46402292029A1A67
:1080D000924600218B460F461348144A121A00F0AC
:1080E00067F80F4B002B00D098470E4B002B00D0A9
:1080F00098470020002104000D000D48002802D000
:108100000C4800E000BF00F02DF82000290001F02D
:10811000E7FA00F011F8C0460000080000800020D7
:108120000000000000000000D8200020BC26002035
:108130000000000000000000084B10B50400002BF8
:1081400002D0002100E000BF054B1868836A002BB5
:1081500000D09847200000F033F8C046000000002F
:10816000BCAE01000E4B70B500251E000D4CE41A8C
:10817000A410A54204D0AB00F35898470135F8E7A6
:1081800002F090FE084B00251E00084CE41AA410D3
:10819000A54204D0AB00F35898470135F8E770BD0D
:1081A000D8200020D8200020D8200020D82000206F
:1081B00003008218934202D019700133FAE7704726
:1081C000FEE7C04610B500290DD00923002A01D1D1
:1081D000180010BD541E2240FAD1826001608480D4
:1081E000C2600023F4E70E23F2E7C046030010B597
:1081F0009C888068DA68121A0420944200D210BD6C
:10820000DA68002014401A681155DA680132DA6021
:10821000F5E7C04610B58468C268030005209442A3
:1082200000D110BD98689A8802401868825C0020CE
:108230000A709A6801329A60F3E7C04630B585B09B
:1082400000F038FC002818D1274C2378DBB2002B33
:1082500005D0032B01D10223237005B030BDA0222D
:108260000421224BD2009950012221481A608568CE
:10827000C1688D420BD12270EFE71B4A1378DBB245
:10828000012B1DD0022BE8D103231370E5E72178E1
:10829000022900D09A606B46D91DFFF7BBFF00286A
:1082A00017D1C2218022114B89005A506946C879E2
:1082B0001049585002212170C12189005A50CCE741
:1082C00000211170094AD3605360A023DB00D15014
:1082D000C3E70123054A02A8D36023700233037069
:1082E000054B1B689847B8E7EC20002000200040B1
:1082F000DC2000201C050000D8200020842210B5BE
:10830000414B5200995884B000292DD18E223E4B0A
:1083100052009958002914D192223B4B520099588F
:1083200000290CD0002199509021C9005A5802A868
:108330005A5002230370354B42601B68984704B0C3
:1083400010BD0021324C99502278D2B2002AE3D0DD
:10835000022A21D9032ADFD1023A2170DA605A6059
:10836000A022D2009950D7E700219950A322D20031
:108370009958284CC9B22000FFF738FF00281AD1BD
:10838000A268E3689B1A012BC0D1204A02AB187087
:10839000126818009047B9E71F488168C268914287
:1083A00012D10122DA602270032302A80370174B56
:1083B0001B689847B0E7012202AB1A70134A03907A
:1083C000126818009047A1E72278022A01D0012202
:1083D0009A606B46D91DFFF71DFF00280ED1C22100
:1083E0008022094B89005A506946C8790B49585078
:1083F00002212170C12189005A508DE70123024AD0
:10840000D3602370D0E7C04600200040D820002071
:10841000EC200020F0200020DC2000201C050000C3
:10842000F0B55F4656464D464446F0B489B00193D8
:108430000023994C994D06000F0023702A600720F5
:10844000002906D08A8896480968FFF7BBFE0028F5
:1084500006D009B03CBC90469946A246AB46F0BD5A
:10846000904BBA89B96818009846FFF7ABFE021E18
:10847000EFD1A02103207378C905C133FF339B00DE
:1084800058503378C133FF339B005A507178864B74
:10849000864A99503178864A9950B168854A9950F0
:1084A0007279002A48D00E21834A99503379022BE1
:1084B0005FD0012B43D0A02204217B4BD2009950E6
:1084C00000220531FF315A507B4814315A50195857
:1084D0000132914319500121643849421950083042
:1084E00019509A601A602270129B1B88002B05D1CC
:1084F000724A1378591C1170129A13800121C222FA
:10850000694B494292009950A121043A890099503F
:10851000C0230420C024FF21694A5B00D050019B86
:10852000A40015599F05674B09040F402B401F43BA
:108530001751106000208CE75F495A50B6E7A02120
:108540000420594AC900505000210530FF30115015
:10855000143011505848115819431150A221F07885
:10856000C9005050B07808395050936013602370A0
:10857000BAE700F05DF9002804D100F02FF90028D7
:1085800000D066E704AB9A4603230322002150463D
:108590009B46FFF70DFE0123994653464A465A7003
:1085A000B078514600F04EF9031E00D051E73E4A24
:1085B00001219246A22250464942D2008150B17810
:1085C000083A81503C49425848460243504642507E
:1085D0005A4605A90A704B708B70CB70F0783A4AF6
:1085E00000F098F9071E00D033E7F078012100F081
:1085F0000DFAF07800F05EFA2378DBB2002807D09D
:10860000012B0DD0022B00D06EE75B4623706BE789
:10861000002B0DD0032B00D066E70223237063E705
:1086200052462770D3605360A023DB00D7505BE72E
:10863000A02304225146DB00CA504A4643460A6042
:108640009A68DB689A4202D14B4623704CE7237844
:10865000022B01D04A468A6002ABDE1D3100404643
:10866000FFF7D8FD00280DD1C22180220E4B8900D2
:108670005A5030781549585002212170C121890083
:108680005A5031E70123084A06A8D3602370023309
:1086900003702B68984727E7EC200020D8200020A3
:1086A000F0200020DC200020002000400C0500000D
:1086B00014050000240500006C0500006420002063
:1086C00000E100E0FFFF00FF3D8201001C0500000B
:1086D00010B501000148FFF79DFD10BDF0200020FE
:1086E00070B51A4D010084B02800FFF77FFD184CCB
:1086F00006002378DBB2012B02D0300004B070BD3D
:108700002278022A01D0134A93606B462800D91DB3
:10871000FFF780FD00280ED1C22180220D4B890079
:108720005A506946C8790C49585002212170C1211C
:1087300089005A50E1E70123064A02A8D36023705A
:1087400002330370054B1B689847D6E7DC200020F6
:10875000EC200020002000401C050000D820002054
:10876000F0B500281EDBFF261A4B37009C4603237A
:108770008208C025C0B20340DB0089019F40314020
:10878000994092006244AD005459BC432143515179
:108790001F23C02118401E3B83400E4A49005350FE
:1087A0001360F0BDFF250C4A2E00944603220F23D0
:1087B000C0B20240D2008901964029409140034056
:1087C000083B9B089B006344DC69B4432143D961A7
:1087D000DEE7C04600E100E000ED00E070B53525C1
:1087E000114C0820635D002B00D070BD3422013B8A
:1087F0006361A361E36123626362A362E362236353
:1088000003210238A35423606360A360E360236103
:10881000FFF7A6FF8021C123044A9B000906D1501F
:10882000012300206355E0E70021002000600040A4
:108830003523034AD05C431E9841C0B27047C046FE
:1088400000210020F0B514252E4B02001C1865579E
:108850000820013500D0F0BD8878002843D0186882
:10886000013049D05868013048D09868013047D06D
:10887000DC68042003260134EDD198180675002029
:10888000A227B6009851204BFF00F318DE591F4D68
:108890004C783540C0260878DD51DD59B602000419
:1088A000AC463040250580262C007603344020431A
:1088B000F8240500640110020440280020436446A7
:1088C0002043D8511300A0200324C133FF339B0061
:1088D000C0051C504B78012B08D0012393400C4A53
:1088E00083500020B7E7FE232375EBE79340A122D6
:1088F000D20083500020AEE70026BEE70126BCE789
:108900000226BAE70021002000600040FFE0ECFFF3
:108910000C050000F0B53A4B08241D182E7D7F2E63
:1089200001D82000F0BDCE78002E0DD01C68013497
:108930005DD05C68013460D09C6801345BD0DC6839
:10894000013409D00424ECE71C690134FAD1042471
:108950001A612C75250007E003251F186CB23C75C1
:10896000AF00DA51002E02D15D19303528708A78B7
:10897000002A16D0A025ED05AC46E026022782008D
:108980006244F6009559BD439551CA78002A12D128
:108990001B190A783033197892010A431A7000249F
:1089A000BFE70200A0264D78C132FF32AD00920031
:1089B000F6059551E9E7134A0B789446A221A400E5
:1089C0006444C9006558104A00022A406250F822E7
:1089D000520110400600C022180403003000920229
:1089E00065581340184328436050002499E7002439
:1089F0001A602C75BBE70225AFE70125ADE7C0463D
:108A00000021002000600040FFE0FCFF1423F0B5CF
:108A1000254A1418E356032B18DDD31830331B787E
:108A20009B09032B33D0012B3AD0C0218902A0230C
:108A3000DB059C46E02380006044DB00C4581B4AF1
:108A40002240C250C2580A43C250F0BDD8B20328D7
:108A5000FBD8174DA227AC46012698006044FF00C2
:108A6000C5593543C5511800654600274030800080
:108A700080B247510029E8D01421615689008A58F4
:108A8000002AE2D09E40C1239B00EE50DDE7A223E6
:108A9000A022DB00D205D258012383401A42C4D160
:108AA00080218902C3E7C04600210020FFFFFCFFB0
:108AB00000600040A222A0210300D200C90588580E
:108AC000D840012318407047F8B5704A0024136855
:108AD000012B49D06E4B1A68012A51D06D4B1A6890
:108AE000012A5BD06C4B1A68012A65D06B4B0025BC
:108AF0001A68012A00D170E023070BD0E30700D5E4
:108B000081E0A30700D58DE0630700D598E0230737
:108B100000D56CE0002C00DBF8BD3422604B995688
:108B20004A1CF9D0C9B2C022080090431A18127D1D
:108B300052B29200D658002EEED0A0230124DB05BD
:108B40009C46E023844082006244DB00D3588909BC
:108B50009B039B0F254200D182E0022BDCD103292D
:108B600000D190E0B047D7E7C1214E488900415875
:108B70000B42AFD0464B14601A680134012AADD1C4
:108B8000C12248499200895802220A42A6D00021F7
:108B90001960404B14431A68012AA3D1C1224149EC
:108BA0009200895804220A429CD0002119603A4B55
:108BB00014431A68012A99D1C1223A49920089586E
:108BC00008220A4200D191E700211960334B144377
:108BD0001A680025012A00D08EE71D6080231B063D
:108BE0001C43A022A223D205DB00D55884E72D4ADE
:108BF0002D4BD058D1582A4B8903C004890FC00E81
:108C0000DB68984786E7A223264ADB00D058D15874
:108C1000234B8903C0041B68890FC00E9847A30724
:108C200000D471E7214B1F4AD058D1581C4B8903FF
:108C3000C0045B68890FC00E9847630700D466E7DD
:108C4000A323184ADB00D058D158154B8903C00420
:108C50009B68890FC00E9847230700D45AE7C6E7E0
:108C6000032B00D058E7032900D07BE78024A4021F
:108C7000E023DB00D7580E4D3D40D550D5582C434E
:108C8000D450B04748E7C024A402F1E70061004097
:108C900004610040086100400C6100407C610040BC
:108CA00000210020006000401C05000014050000A9
:108CB000FFFFFCFF72DF704779DF70477DDF704791
:108CC00065DF7047F0B55F46564644464D46F0B402
:108CD00085B09A460E9B060098461B788B460193FA
:108CE00003881700002B40D00023994602AB0024D4
:108CF000DD1C03E033880134A3422CDD7368A1003E
:108D00009C460422614403A801F015FC00222900BE
:108D100003A8FFF7D5FF002828D12B78BB42E9D163
:108D20004B46002B29D043461A78D3191F2B34DC2D
:108D30005244290003A8FFF7C3FF002816D1434679
:108D40001A782B780134D3184246137001239946C0
:108D50003388A342D2DC4B46002B06D04346514613
:108D60001B78019A013B9B1A8B54002005B03CBC38
:108D700090469946A246AB46F0BD43461B78DA19A9
:108D80001D2A0ADC41469A1C0A7052465946013394
:108D9000DBB2D15443461A78CAE70C20E6E7C04656
:108DA000F0B55F464D46444656460023F0B497B0B2
:108DB00005AD02AA04000F002B705373002800D1E8
:108DC000C6E0C278530700D4BAE00378002B00D085
:108DD00071E28378002B00D0C3E2002306AE0221AB
:108DE000F154991CC9B288460121581CC0B23154B3
:108DF00041460333DBB22B7072546268002A10D0F4
:108E00000C201C2B00DD9CE00021515602220A2080
:108E1000F2545A1CD2B2B054DA1C0233DBB22A70BC
:108E2000F1542389002B00D03BE1238A002B00D092
:108E300011E2238B002B00D025E2226A002A49D0C0
:108E40002B780C20991D8A461F2900D979E01188BA
:108E50008B46052974D9C14968468C46DC44614675
:108E6000818181898C46BE4988468C4568D9518864
:108E70008C46052964D9B94961448181818941457C
:108E80005ED9B8498B4503D08C4501D0E34557D80E
:108E90000520F054981CC1B2684629708946591CB7
:108EA0000173017B04338C4612218846614640469B
:108EB00070541188DBB28C464946701861460170C7
:108EC0006146090A41705288F3181A70120A5A70E2
:108ED00053462B70636A9846002B2AD01B792A7858
:108EE0009C460233911CDBB2CB180C201F2B28DCD4
:108EF00063460333B354531CDBB2F330F0544346A0
:108F0000C9B229701B8871180B701B0A4B7043463D
:108F10000432D0B228709A88002A0AD099680029B1
:108F20000ED0301801F007FB43469A882B78D318EF
:108F30002B702C23E15C002900D0CAE0B14609E087
:108F4000072017B03CBC90469946A246AB46F0BD00
:108F500000239946002F00D1FFE1FB78002BEFD1D1
:108F600002AA53733B78002B00D0FDE1BB78002BA5
:108F700000D0AFE27A68002A00D058E13B89002B8C
:108F800000D0F1E03B8A002B00D00EE13B8B002BA0
:108F900000D02BE13A6A002A41D002AB5B7B0C2067
:108FA000991D1F29CDD810880528C9D96B4C6C4E46
:108FB0000419A4B2B046B442C2D95488A246052CC2
:108FC000BED9664E6C46B446D4446646A681A68990
:108FD0004645B5D9634EB04203D0B24501D05045A5
:108FE000AED80EA8804605204446E054981CC0B276
:108FF00002AC60738446122640465C1CE4B20655FF
:109000006046148840440470240A447050881A1D35
:10901000D2B24244107002AB000A507059737C6A9D
:10902000002C2FD002AB26795A7BB31C911CDBB2EB
:10903000CB180C201F2B00DD83E70EAB98460336C0
:109040009E544646C9B202AB5973531CDBB2F3308F
:10905000F054238841440B7004321B0A4B70D0B289
:1090600002AB5873A288002A0CD0A168002900D155
:1090700066E7404401F05FFA02ABA2885B7BD3183D
:1090800002AA53732C23F95C002900D0DAE10EAA5E
:10909000904602AB5B7B424629784846FFF70AFEC2
:1090A0004FE708239846A04400953300022202218E
:1090B0004046FFF707FE002800D042E70095330046
:1090C000102206214046FFF7FDFD002800D038E7BA
:1090D000ABE6A36A002B00D132E70022914616329C
:1090E0009246163228788C46934600E0A36A4A4698
:1090F000984652004A4492009044434651469B8809
:10910000421C0333D2B23354B1544246831CDBB207
:109110002B701288F3181A70120A5A7043460430E2
:10912000C0B228709A88002A0FD09968002900D10F
:1091300006E7301801F0FFF9434698882B78C018ED
:109140005B46E35CC0B29C4628704B460133DBB201
:1091500099466345CAD3B146FCE6C0467FF3FFFF9C
:109160007DF30000FFFF00000EAB02AA9846944674
:109170003C000D230834634400930222434602213D
:109180002000FFF79FFD002800D0DAE602AA9446EF
:109190000D23634400931022434606212000FFF76D
:1091A00091FD002800D0CCE6ECE60EAB02AA984672
:1091B00094463C000D23103463440093022243463E
:1091C00003212000FFF77EFD002800D0B9E602AAA7
:1091D00094460D2363440093102243460721200048
:1091E000FFF770FD002800D0ABE6CFE60EAB02AA79
:1091F000984694463C000D231834634400930222A1
:10920000434614212000FFF75DFD002800D098E6BA
:1092100002AA94460D23634400931022434615216D
:109220002000FFF74FFD002800D08AE6B2E60EA925
:109230000023884600214046515602224446C2542B
:109240000A205A1CD2B2A054DA1C023302A8DBB2A4
:109250004273E15492E610239846A04400953300EF
:10926000022203214046FFF72DFD002800D068E6CA
:1092700000953300102207214046FFF723FD002808
:1092800000D05EE6D5E518239846A044009533004B
:10929000022214214046FFF715FD002800D050E6B9
:1092A00000953300102215214046FFF70BFD0028E2
:1092B00000D046E6C1E563780C201D2B00DD40E6BA
:1092C0000EAB98461D234246138002AB9C460630E7
:1092D00041466044FFF7F2FC002800D031E62378D5
:1092E000022B00D1FBE06378002B03D09BB2082255
:1092F0001D2B02D9434608221B8806AE72702A78BD
:10930000DBB20232591C9B18DBB231702B70A27891
:10931000002A04D1E278002A00D16EE55FE50C2036
:109320001B2B00D90DE64046FFF7C6FC002800D0F5
:1093300007E6032219212B7806AEF2545A1CD2B24A
:10934000B154424611889A1CD2B2B218043311703B
:10935000DBB2090A51702B70DCE702AB5B7B0022A9
:109360009AE60EAB9846DEE77B780C201D2B00DDDD
:10937000E7E502AB9C460E241D2364442630210001
:1093800060442380FFF79AFC002800D0D9E53B78A1
:10939000022B00D1AAE07B78002B03D09BB20822DD
:1093A0001D2B01D9082223880EA988464046427009
:1093B00002AA527BDBB20232591C9B18DBB202AA12
:1093C00001705373BA78002A1AD1FC78002C0ED0A1
:1093D0000222414646460120CA54591C9A1CC9B271
:1093E00003337054D2B2DBB202A94B73B4547A681F
:1093F000002A00D1C2E50C201C2B00DDA1E519E7F5
:109400000C201B2B00D99CE52000FFF755FC002801
:1094100000D096E50EAA90460322414602AB5B7B44
:109420004046CA5419215A1CD2B281549A1C218830
:10943000D2B2424411700433090A5170DBB202AA5D
:109440005373C2E7BC6A002C00D179E503910EA9E1
:109450008846162102AB8A4616315B7B2200002625
:109460008B4600E0BA6A40467400A419A40014199F
:10947000A28841460332C2549A1CD2B202A8427357
:1094800094465246581CC0B20A5462462088424450
:1094900010700433000A5070DBB202AA5373A28822
:1094A000002A11D0A168002900D149E543441800E1
:1094B00001F041F802ABA0885B7B02AAC318DBB2C3
:1094C00053735A46BA5C03920136039AF6B2964237
:1094D000C8D3E0E502AB0E249C46644494E74346BF
:1094E0001B8809221D2B00D807E7FCE623880922E8
:1094F0001D2B00D858E74EE71D4B1B78012B00D0E1
:1095000070471C4B1B681B07FAD1F0221A4B1B68D3
:10951000134018D1194B1B6813421CD0154B1B6804
:109520001B07EDD1F022144B1B681340402BE7D1F1
:10953000124B1B681342E3D1C12380220121DB00BF
:10954000D205D150DCE7102B01D0302BEAD10B4BE8
:109550001B681342E6D10A4A0A4B1A6080220A4B62
:1095600012021A60024B1B78012BD7D0C8E7C04605
:10957000E00F00F0E40F00F0E80F00F0EC0F00F057
:10958000DFFF07C004050040186C004061DF704732
:109590002EDF704748DF704751DF704710DF70479C
:1095A0000FB410B582B004AB0A4C04CB9621200056
:1095B000019301F05BF82078002805D00134FFF713
:1095C0008FF820780028F9D102B010BC08BC04B094
:1095D0001847C0463C21002070B516000F4C104DB6
:1095E00082B02960642200212000FEF7E1FD6322A1
:1095F0003100200000F0FCFF8021A022094B8903EC
:10960000D205D150522201942B68FF3200930649B3
:10961000064B0748FFF7C4FFFEE7C046D4210020F1
:10962000382100200C050000DCAE0100CCAE0100AA
:1096300048AF010030B5C3B002AD0B0000920C4939
:109640000200280000F0B2FF28780024002805D08E
:109650000134FFF745F8285D0028F9D1A0228021C8
:10966000044BD2058903D1508021C903D150FEE7B4
:1096700094AF01000C05000000B5037883B0012B06
:1096800003D0002B06D0022B0AD140680022002113
:10969000FFF7D0FF6B46D81DFFF71AF80028F9D066
:1096A00003B000BD00B58FB002E0019800F078F97A
:1096B00001A8FFF771FF0028F7D06B4601A8991C9D
:1096C000FFF764FF002809D102A800F037F96B46C4
:1096D00001A8991CFFF75AFF0028F5D00FB000BD74
:1096E000F0B5474680B4B6B00EAD2A004A4B16AE70
:1096F00013CB13C2002306AC2380484B484A169371
:1097000002237360474B3100B36080235B00F3603A
:1097100028000094FD3BFEF783FE002877D1424AE3
:109720004249300000F042FF30780027002805D081
:109730000137FEF7D5FFF05D0028F9D1A026002300
:109740000320F6051A00A021C132FF329200013336
:10975000C90590511F2BF5D1A1238022DB00920374
:10976000CA508022D203CA5080221204CA508022DA
:109770005204CA5005202E49FFF710FF002803D0DD
:1097800000220021FFF756FF1620FFF701FF804659
:10979000002838D1142000F013F90F2006222549A3
:1097A000684400F0C8FE072302AE73734346B373E8
:1097B000A02301273380503373803000EE3B337198
:1097C000B771777100F016F9192018261A4B182274
:1097D00019006844984600F0AEFE2000267000F0A4
:1097E00019F9392032004146684400F0A4FE2800EF
:1097F0002E7000F013F9380000F000F900F06CF85A
:10980000FFF7C8FEFCE700221100FFF713FF00225C
:109810001100FFF70FFFC046C0AE01003822002044
:10982000799601003C220020B8AF0100C4AF0100CE
:10983000D99501008020002068200020F0B51F4F3E
:10984000D9B00BAD280000F0CDF800280FD02B7A4E
:10985000142B0ED055201A4C0134FEF741FF20780E
:109860000028F9D1280000F0BDF80028EFD159B048
:10987000F0BD80216A68EB7A08922A6818AE0792D8
:10988000EA7C490006926A7B30000592AA7B00249C
:109890000492EA7B03922A7C02926A7C0192AA7C5F
:1098A00000923A0000F050FE30780028CAD001340F
:1098B000FEF716FF305D0028F9D1C3E748B001007C
:1098C000C0B0010070DF704773DF70477FDF704703
:1098D000A9DF704760DF704730B587B008220021EC
:1098E00001A8FEF765FC01A8FFF7F4FF0F4900206F
:1098F000FFF7E8FF4C2303AD2B800D4B0D4C059378
:109900000523302200212000AB80FEF751FC062306
:109910000021E3702000043B23706562FFF740FAEA
:109920000548FFF7D1FF07B030BDC046D4B00100F5
:10993000A82000203C23002088200020F02310B520
:1099400002881340102B04D0502B01D1522A0BD087
:1099500010BD112A0FD0132AFAD10023084A002182
:109960008088FFF7B3FFF3E70023002200218088FF
:10997000FFF7AEFFECE70348FFF7A6FFE8E7C046B6
:10998000A0200020882000204EDF7047002310B563
:10999000024C237000F068F8200010BDB0260020B3
:1099A00010B5052809D0082802D0042800D010BD21
:1099B00000F030FA00F01AFAF9E700F017FAF6E7CB
:1099C00010B500F06FFB00F02FF80548FFF7DCFF43
:1099D000FF23184003D000220021FFF72BFE10BD0B
:1099E0008D99010010B500F0A5FB43425841C0B26B
:1099F00010BDC04610B500F0A9F910BD10B5012882
:109A000004D0002801D100F005FA10BD00F0EEF9F5
:109A1000FBE7C04610B500F003FA10BD10B500F02A
:109A200013FA10BD50DF704770B50C4C282200218E
:109A30002000FEF7BDFB0A4D282200212800FEF77A
:109A4000B7FB46232370023B2B70403BA3700548B5
:109A500002336B70637000F011FB70BD7023002047
:109A60009C230020F4230020F0B5474680B4040076
:109A70008EB0012843D0002815D002280FD19F4E68
:109A80003578012D55D0002D00D17BE0022D06D177
:109A900088249B4D64002B59002B00D096E00EB01B
:109AA00004BC9046F0BD00F0E3F92423012295495F
:109AB0000B70954B1B781A4200D0AFE05810024251
:109AC00000D0AEE09810024200D0ADE0DB101A42A8
:109AD00000D0ACE0282328200B700022874B1A709E
:109AE00000F032FA0122864B1A60884800F03EFAF4
:109AF0000B2000F043FA102000F054FACFE70020CA
:109B000000F0ACFA102000F055FA882300227C4DBA
:109B10005B00EA50002000F077FA0222774B102019
:109B20001A7000F03FFA002000F028FA2C612C6136
:109B3000B5E78827724D7F00EB59002BAFD000208E
:109B400000F08CFA102000F035FA00230020EB51D1
:109B500000F05AFA8023DB00EB58002B6AD00F226A
:109B60006B4D2B781340032B00D186E0022310208D
:109B7000337000F017FA002000F000FA0122604B69
:109B80001A618CE788245E4F64003B59002B00D19A
:109B900085E7102000F00EFA01233D515C48337038
:109BA00000F0E4F9172000F0E9F9102000F0FAF9CC
:109BB000942000F0C1F90122C821002000F02EFA03
:109BC000544A5549002000F009FA68E7102000F0D7
:109BD000F1F900234B492B514B4B08781C7801229B
:109BE00001E0272811D80130C0B203002500253B31
:109BF0001D412A42F5D00870272807D8002333706A
:109C000000F0A2F93E4B01226EE70870434B1B782F
:109C1000002B14D10222424B1A7040E72520087015
:109C20005BE72620087058E72720087055E72820B2
:109C3000087052E73B4A13880133138096E73A4A8B
:109C40003A4B3B4C1E8813783A4D591C11703A4AD6
:109C5000D05C3A4B1988891B614300F057FCFA230A
:109C600003229B00594374432D4B0C195D601A70FD
:109C7000334B023AAC605A6011E76B780C2B00D082
:109C800074E7290021480931093A033000F044FC07
:109C90008046002800D069E72A4F10203B883470A6
:109CA00001333B8000F07EF9274800F05FF9032084
:109CB00000F064F9962000F03FF93B8801AC019375
:109CC000184B11201B88E91C02931423237243466E
:109CD00063722B7806225B06DB0F2373684400F067
:109CE0002AFC1720684400F051F90F20684400F066
:109CF00069F9200000F006FAD1E6C046982300205A
:109D000000100040C12300206D230020702300209C
:109D1000C823002004110040048000406C23002070
:109D2000B0260020C2230020F2230020F0230020D0
:109D300071020000B0200020F4230020EE23002058
:109D400000800040C42300209C23002070B5437B8A
:109D500004005A1E0020062A38D81D4E1D4A1E49EE
:109D60001370F01C062200F0E6FB1C4DE11D0622DC
:109D7000E81C00F0E0FB4020637931782A789B01F1
:109D80005BB20240014019431343022231702B7031
:109D9000A37B934302D000F081F901E000F080F949
:109DA00022880F4B0F491A8062880F4B01201A80BE
:109DB0003F222379CB5C13401900337893430B4344
:109DC00033702B789343042213432B7070BDC0462D
:109DD000702300206D230020C02000209C23002041
:109DE000F0230020DCB00100EE2300200122074B0D
:109DF00010B507481A70FFF715FEFF23184003D06F
:109E000000220021FFF716FC10BDC0466C23002085
:109E1000C82000200022014B1A7070476C230020DC
:109E200070B503781C1C1F2B00D91F24054D411C45
:109E30002800E4B222000930063400F07CFB6C708C
:109E4000012070BD7023002070B503781C1C1F2BEF
:109E500000D91F24054D411C2800E4B2220009301E
:109E6000063400F068FB6C70012070BD9C2300205C
:109E700001211E4B1E4A882030B599500022400017
:109E80001A50A22004251B4CC000255061601A4CBA
:109E900021351A5103241C50A1240220E40018513A
:109EA000164C1D51164C69351D51164D164C1D5141
:109EB000164C1A5104341951154C16495C50164C65
:109EC00004315C5004241549FF345C50144C15498E
:109ED0005C50154C04395C50912414495C50144971
:109EE0005A50144B1860013830BDC0460010004075
:109EF000FC0F0000008000400C050000540500002D
:109F00002405000000D6BE891C0500002C050000B9
:109F100006010200140500002500030234050000BC
:109F2000555555003C0500005B0600004405000047
:109F30000405000000E100E0014B024AD0507047E8
:109F40004405000000100040A122054BD2001B1860
:109F5000253B1978034B9950034A98507047C046E7
:109F6000E0B001000010004054050000014B024A1F
:109F7000D050704704050000001000408023024AC2
:109F80009B00D0507047C046001000408E22002138
:109F9000034B52009950A922D2009B58037070477E
:109FA00000100040C123024A9B00D0507047C046B9
:109FB00000100040C223024A9B00D0507047C046A8
:109FC00000100040034A044BD3583F221340037053
:109FD0007047C046001000405405000010B5074C03
:109FE000C300A446A2246344E4001A51044A9950D1
:109FF000012361468340034A8B5010BD00F00140AD
:10A0000014050000040500000123A1228340024939
:10A01000D2008B507047C04600F00140F0B50D4DA6
:10A02000A026AC46012400278300634476002C6000
:10A03000EC609F51002A08D01030C122844080205B
:10A040009200AC50044A40001060A822D2009950FF
:10A05000F0BDC0460080004000E100E00123044A5A
:10A060001030C22153608340890053507047C0466E
:10A070000080004039DF70473ADF704710B582B08A
:10A080006B460400D81D00230370FFF7F3FFFF2188
:10A090002000FFF7F1FF02B010BDC0467047C04678
:10A0A0007047C046C3B21A00143A70B5052A1ED8CC
:10A0B000104AFF211070104AC025944603221A400E
:10A0C000D2009140800880006044AD0044598C4328
:10A0D000C02191400A002243425101229A401300BC
:10A0E0006246064913600648082200F02FF8002057
:10A0F00070BDC046F324002000E100E0F4240020FD
:10A100009426002010B50100074800F033F800281D
:10A1100009D11F22054B06491B781A4001239340A1
:10A12000802252008B5010BD94260020F324002082
:10A1300000E100E0010010B50E20002902D0024825
:10A1400000F030F810BDC0469426002010B500295C
:10A150000DD00923002A01D1180010BD541E224041
:10A16000FAD1826001608480C2600023F4E70E238C
:10A17000F2E7C04610B50400C368A28880681B1AC5
:10A180000420934200D910BDE068236802403420C7
:10A1900042439818342200F0CEF9E36800200133DE
:10A1A000E360F0E770B5C268836804000D00052025
:10A1B0009A420FD0A388A16834221940342359430E
:10A1C000236828009C46614400F0B5F90020A3688C
:10A1D0000133A36070BDC04603210A4802680A43E8
:10A1E0000260094802680A4302600849084A094BAC
:10A1F0009B1A03DD043BC858D050FBDC064880475F
:10A2000006480047240500405405004020B10100E5
:10A2100000200020D8200020F9940100C180010016
:10A22000FEE7FEE7FEE7FEE7FEE7FEE70022430863
:10A230008B4274D303098B425FD3030A8B4244D30E
:10A24000030B8B4228D3030C8B420DD3FF22090250
:10A2500012BA030C8B4202D31212090265D0030B0F
:10A260008B4219D300E0090AC30B8B4201D3CB0305
:10A27000C01A5241830B8B4201D38B03C01A524147
:10A28000430B8B4201D34B03C01A5241030B8B4249
:10A2900001D30B03C01A5241C30A8B4201D3CB0234
:10A2A000C01A5241830A8B4201D38B02C01A524119
:10A2B000430A8B4201D34B02C01A5241030A8B421C
:10A2C00001D30B02C01A5241CDD2C3098B4201D334
:10A2D000CB01C01A524183098B4201D38B01C01AB2
:10A2E000524143098B4201D34B01C01A5241030929
:10A2F0008B4201D30B01C01A5241C3088B4201D3D8
:10A30000CB00C01A524183088B4201D38B00C01A84
:10A31000524143088B4201D34B00C01A5241411AAB
:10A3200000D20146524110467047FFE701B50020B8
:10A3300000F0F0F802BDC0460029F7D076E770477C
:10A3400003460B437FD4002243088B4274D3030996
:10A350008B425FD3030A8B4244D3030B8B4228D337
:10A36000030C8B420DD3FF22090212BA030C8B425D
:10A3700002D31212090265D0030B8B4219D300E0FD
:10A38000090AC30B8B4201D3CB03C01A5241830B82
:10A390008B4201D38B03C01A5241430B8B4201D332
:10A3A0004B03C01A5241030B8B4201D30B03C01A5B
:10A3B0005241C30A8B4201D3CB02C01A5241830AD5
:10A3C0008B4201D38B02C01A5241430A8B4201D304
:10A3D0004B02C01A5241030A8B4201D30B02C01A2E
:10A3E0005241CDD2C3098B4201D3CB01C01A524195
:10A3F00083098B4201D38B01C01A524143098B421E
:10A4000001D34B01C01A524103098B4201D30B0106
:10A41000C01A5241C3088B4201D3CB00C01A52412B
:10A4200083088B4201D38B00C01A524143088B42F0
:10A4300001D34B00C01A5241411A00D20146524189
:10A44000104670475DE0CA0F00D04942031000D3A8
:10A450004042534000229C4603098B422DD3030AFD
:10A460008B4212D3FC22890112BA030A8B420CD30D
:10A47000890192118B4208D3890192118B4204D336
:10A4800089013AD0921100E08909C3098B4201D3B6
:10A49000CB01C01A524183098B4201D38B01C01AF0
:10A4A000524143098B4201D34B01C01A5241030967
:10A4B0008B4201D30B01C01A5241C3088B4201D316
:10A4C000CB00C01A524183088B4201D38B00C01AC3
:10A4D0005241D9D243088B4201D34B00C01A52419A
:10A4E000411A00D20146634652415B10104601D327
:10A4F0004042002B00D54942704763465B1000D3B1
:10A50000404201B5002000F005F802BD0029F8D056
:10A5100016E770477047C04630B50024A24208D005
:10A52000035D651C0C5DA34201D0181B02E02C00EA
:10A53000F4E7002030BD002310B59A4203D0CC5C74
:10A54000C4540133F9E710BD0CB430B5164B9DB0BF
:10A550000C1E1D6804DA8B2301202B6040421DE095
:10A56000822302A99B008B810023029008619C42F8
:10A5700000D0631E8B604B6101235B42CB81209A2C
:10A5800021AB2800019300F0DFF8431C01DA8B2394
:10A590002B60002C02D00023029A13701DB030BC37
:10A5A00008BC02B01847C046602000200EB410B5A9
:10A5B0009DB002A9029008610B488224886048611E
:10A5C000012040421FABC881084804CBA4000068AA
:10A5D00001938C8100F0B8F80023029A13701DB02B
:10A5E00010BC08BC03B01847FFFFFF7F60200020AD
:10A5F000030030B5002A0DD00C7801335D1E013AFE
:10A600002C700131002CF5D19A189A4202D01C709E
:10A610000133FAE730BD30B514009BB005001A00D5
:10A62000002C04DA8B230360012040421CE08223CB
:10A6300068469B0083810023009104919C4200D0D6
:10A64000631E02930593012369465B42CB81280078
:10A650001E9B00F079F8431C01DA8B232B60002C41
:10A6600002D00023009A13701BB030BD07B50093D1
:10A6700013000A00010002480068FFF7CCFF0EBD7E
:10A6800060200020F0B58E6885B007000C000392B2
:10A6900001939E4243D890238A89DB001A423ED020
:10A6A00003250969236801985B1A029363695D4376
:10A6B000EB0F5D19029B6D1001331B18AB4200D9E3
:10A6C0001D00530510D52900380000F037FB061E89
:10A6D00014D0029A2169FFF72EFFA289194B13406B
:10A6E00080221343A38112E02A00380000F086FB89
:10A6F000061E0CD12169380000F0D4FA0C23402248
:10A7000001203B60A38940421343A38117E0029BD1
:10A710002661F61826606561019EED1AA560019B11
:10A72000B34200D21E0032000399206800F0A5FA5F
:10A730000020A3689B1BA36023689E19266005B0B8
:10A74000F0BDC0467FFBFFFFF0B59FB002900593C0
:10A750008B890F0016001B0610D50B69002B0DD13D
:10A76000402100F0EBFA38603861002804D10C2356
:10A77000029A01381360D8E040237B61002306ADC4
:10A780006B6120336B761033AB7634002378002B6B
:10A7900003D1A31B049312D003E0252BF9D001347D
:10A7A000F4E7A31B320039000298FFF76BFF431C4C
:10A7B00000D1B4E06A69049B944663446B612378DA
:10A7C000002B00D1ABE00122002352426A6002A9B3
:10A7D0005432521801342B60EB60AB601370AB65E0
:10A7E000534E21780522300000F03CFA002807D0B3
:10A7F0000123801B83402A68013413432B60EFE759
:10A800002B68DA0604D55322202102A812181170F1
:10A810001A0704D553222B2102A81218117022788E
:10A820002A2A03D0099B00200A210EE0059A111D57
:10A8300012680591002A01DB099204E05242EA60A5
:10A84000022213432B6001340BE02278303A092AAC
:10A8500004D84B4301349B180120F6E7002800D0B0
:10A86000099323782E2B1ED163782A2B0AD1059BBE
:10A8700002341A1D1B680592002B01DA01235B428A
:10A88000079310E000230A201A0001346B6021783E
:10A890003039092904D84243013452180123F6E71C
:10A8A000002B00D00792234E21780322300000F0C5
:10A8B000D9F9002806D04023801B83402A68013440
:10A8C00013432B60217806221B48661C297600F072
:10A8D000C9F9002812D0194B002B06D10722059B7D
:10A8E000073393430833059314E005AB00933A0014
:10A8F000134B2900029800E000BF07E005AB00936E
:10A900003A000F4B2900029800F08AF80390039B4D
:10A91000013304D06B69039A9B186B6135E7BB89DF
:10A920000B985B0601D5012040421FB0F0BDC04628
:10A93000E3B00100E9B00100EDB00100000000004B
:10A9400085A60100F7B5170001938A680B6900908E
:10A950000C00934200DA130022003B60433212786D
:10A96000002A01D001333B6023689B0602D53B6877
:10A9700002333B60062523681D401ED0230043336D
:10A980001B785A1E9341226892061CD53020E1188C
:10A990004331087021005A1C45310978A21843320E
:10A9A000023311700FE0220001231932019900983F
:10A9B000089EB047431C0ED00135E3683A689B1AE5
:10A9C0009D42F0DBDAE72200019943320098089DAE
:10A9D000A847431C02D10120404220E00623206802
:10A9E000E1683A6803400025042B03D18D1AEB433C
:10A9F000DB171D40A3682269934201DD9B1AED1805
:10AA00000027BD420AD0220001231A320199009882
:10AA1000089EB047431CDED00137F2E70020FEBDA0
:10AA2000F0B58BB006920A0043320793059004926A
:10AA30000A7E0C00109B6E2A00D1ABE011D8632A6D
:10AA400022D009D8002A00D1B5E0582A00D0C5E0AC
:10AA500045310A70814A4FE0642A1DD0692A1BD013
:10AA6000BCE0732A00D1AAE009D86F2A29D0702A45
:10AA700000D0B3E0202209680A43226037E0752A3B
:10AA80001FD0782A33D0A9E00E001A684236111D73
:10AA9000196013683370A4E021681A68080606D4A8
:10AAA000490604D5111D19600023D55E02E0111D71
:10AAB00019601568002D3BDA2D23049A6D4213703E
:10AAC00036E021681A68080606D4490604D51568D8
:10AAD000111D1960ADB202E0111D196015685F4BC0
:10AAE000227E039308276F2A1DD00A271BE022002D
:10AAF0007821453211705A4A19680392081D22685C
:10AB000018600D68100602D4500600D5ADB2D30708
:10AB100002D520231A4322601027002D03D12023C1
:10AB200022689A4322602300002243331A7002E015
:10AB30000A274A4B03936368A360002B09DB0422B6
:10AB4000216891432160002D05D1049E002B11D076
:10AB50007BE0002D79D0049E28003900FFF7ECFB44
:10AB6000039B013E5B5C280033703900FFF75EFBFE
:10AB7000051EF1D1082F09D12368DB0706D56368CC
:10AB80002269934202DC3023013E3370049B9B1BFD
:10AB900023612BE009681A68080607D4490605D521
:10ABA000111D19601368A28A1A8004E0111D196032
:10ABB000136862691A600023049E236116E01A6814
:10ABC000111D1960166800216268300000F04AF813
:10ABD000002801D0801B6060636803E026004236D5
:10ABE0003270012323610023049A1370079B09AA82
:10ABF00000932100069B0598FFF7A4FE431C02D199
:10AC00000120404227E02369320006990598079DFC
:10AC1000A847431CF4D0236800259B070FD4099B49
:10AC2000E068984217DA180015E022000123193273
:10AC300006990598079EB047431CE1D00135E368AB
:10AC4000099A9B1A9D42F0DBE9E72600039B4236F6
:10AC50001B7833708EE70BB0F0BDC046F4B0010036
:10AC600005B10100C9B28218904204D003788B422A
:10AC700002D00130F8E70020704710B5884202D9B1
:10AC80008B18984201D3002305E09B1A013A08D3A0
:10AC9000995C8154FAE7934203D0CC5CC4540133ED
:10ACA000F9E710BD70B50500002944D00C1F2368DA
:10ACB000002B00DAE418280000F0D8F81E4A1368C8
:10ACC0001100002B02D16360146031E0A3420DD962
:10ACD0002268A018834203D118685B68821822603A
:10ACE00063600C6024E0A24203D813005A68002A73
:10ACF000F9D11E689819A0420BD121687118581813
:10AD00001960824214D110685268411819605A6063
:10AD10000EE0A04202D90C232B6009E021686018E4
:10AD2000824203D1106852684118216062605C6001
:10AD3000280000F09CF870BDA8260020032370B501
:10AD4000CD1C9D43083506000C2D01D20C2501E0D9
:10AD5000002D01DBA94202D90C23336048E030000A
:10AD600000F084F8234B1C681A002100002913D03E
:10AD70000B685B1B0DD40B2B02D90B60CC181EE0AB
:10AD80008C4202D1636813601AE04B6863600C0068
:10AD900016E00C004968E9E7174C2368002B03D143
:10ADA000300000F051F820602900300000F04CF82D
:10ADB000431C18D00323C41C9C43A0420DD1256022
:10ADC000300000F054F8200007220B30231D904380
:10ADD000C31A0ED05A42E2500BE0211A300000F0A4
:10ADE00033F8431CEBD10C233000336000F03FF804
:10ADF000002070BDA8260020A4260020F8B506007B
:10AE00000C001500002904D11100FFF797FF040082
:10AE100018E0002A03D1FFF745FF2C0012E000F0F4
:10AE200027F885420ED929003000FFF787FF071E5B
:10AE300007D021002A00FFF77EFB21003000FFF73A
:10AE400031FF3C002000F8BD002370B5064C050022
:10AE50000800236000F018F8431C03D12368002B7E
:10AE600000D02B6070BDC046B826002070477047E8
:10AE70000B1F1A68101F002A04DA891804390B689E
:10AE8000D018043870470000044A1368002B03D020
:10AE90001818106018007047014BF9E7AC26002025
:10AEA000C0260020F8B5C046F8BC08BC9E467047D6
:10AEB000F8B5C046F8BC08BC9E467047002000208C
:10AEC0000B09080A0100000000509D0073645F61D7
:10AED00073736572745F636200000000433A2F3140
:10AEE000312E776F726B2F30322E4D7950726F6A20
:10AEF0006563742F6E524635315F53444B5F392E74
:10AF0000302E305F326532333536322F6578616DE1
:10AF1000706C65732F6E524635315F496E6F2E6FC0
:10AF20006E5F6F627365727665722D6164766572AD
:10AF300074697365722F6164766572746973657282
:10AF40002F6D61696E2E630054494D45534C4F542B
:10AF50005F544553545F4C4F473A2025733A2025A0
:10AF6000643A202225733A20534F465444455649AB
:10AF70004345204153534552543A206C696E652035
:10AF80003D2025642066696C65203D202573220DD7
:10AF90000A0000004552524F523A20307825582C72
:10AFA000206C696E653A2025642C2066696C653AD0
:10AFB0002025730D0A00000031393A32373A303516
:10AFC000000000000A7C202573207C2D2D2D2D2DC6
:10AFD0002D2D2D2D2D2D2D2D2D2D2D2D2D2D2D2DA1
:10AFE0002D2D2D2D2D2D2D2D2D2D2D2D2D2D2D2D91
:10AFF0002D2D2D2D2D2D2D2D2D2D2D2D2D2D0D0AC4
:10B000000A00000054494D45534C4F545F5445537A
:10B01000545F4C4F473A2025733A2025643A20224A
:10B0200025733A204E5246204153534552543A20FC
:10B030006C696E65203D2025642066696C65203D45
:10B04000202573220D0A00005265636569766564E8
:10B05000207363616E20726571206F6E2063682EAD
:10B060002025692E20416464723A20252E30325802
:10B070003A252E3032583A252E3032583A252E3085
:10B0800032583A252E3032583A252E30325820097F
:10B09000525353493A202D25692009205061636B92
:10B0A000657473202876616C69642F696E76616CB3
:10B0B0006964293A2025692F25690D0A00000000DE
:10B0C000556E6B6E6F776E20616476206576742E98
:10B0D0000D0A000001FCDE48ABCEFB0000010602B9
:10B0E000021A50232D302B2000686C4C00656667D7
:10B0F00045464700303132333435363738394142EE
:10B1000043444546003031323334353637383961BF
:08B11000626364656600000043
:08B11800A8CFFF7F0100000039
:10B12000000000000000000000000000000000001F
:10B13000000000000000000000000000000000000F
:10B1400000000000000000000000000000000000FF
:10B1500000000000000000000000000000000000EF
:10B1600000000000000000000000000000000000DF
:10B1700000000000000000000000000000000000CF
:10B18000002000200100000002010003190000025D
:10B190001C000D0954696D65736C6F7420616476D1
:10B1A0004E6F726469630000000000000000000040
:10B1B0000000000000000000F0000000000000009F
:10B1C0000C0710000000000001A0A1A2A3000000D5
:10B1D0000100000001010000A0860100CC10000069
:10B1E0004E6F7264696300000000000001010000FE
:08B1F000CC1000001027000044
:040000031000A1D96F
:00000001FF
