:1000000000800020417E0000897E00008B7E000081
:1000100000000000000000000000000000000000E0
:100020000000000000000000000000008D7E0000C5
:1000300000000000000000008F7E0000917E0000A4
:10004000937E0000937E0000ED530000937E00003D
:10005000937E000000000000937E0000937E00006D
:10006000937E0000937E0000937E0000937E00004C
:10007000937E0000937E0000937E0000937E00003C
:10008000937E000089480000937E0000937E00006C
:1000900069490000937E00000D7E0000937E000001
:1000A000937E0000937E000000000000000000002E
:1000B0000000000000000000000000000000000040
:1000C00010B5064C2378002B07D1054B002B02D02E
:1000D000044800E000BF0123237010BD6800002029
:1000E0000000000048850000084B10B5002B03D02D
:1000F0000749084800E000BF07480368002B00D10B
:1001000010BD064B002BFBD09847F9E7000000001C
:100110006C000020488500006800002000000000FE
:10012000164B002B00D1144B9D46402292029A1A86
:10013000924600218B460F461348144A121A00F0CB
:1001400067F80F4B002B00D098470E4B002B00D0C8
:1001500098470020002104000D000D48002802D01F
:100160000C4800E000BF00F02DF82000290006F048
:100170000FF800F011F8C0460000080000800020D1
:10018000000000000000000068000020D00D0020EA
:100190000000000000000000084B10B50400002B18
:1001A00002D0002100E000BF054B1868836A002BD5
:1001B00000D09847200000F033F8C046000000004F
:1001C000F47F00000E4B70B500251E000D4CE41AA4
:1001D000A410A54204D0AB00F35898470135F8E7C6
:1001E00007F0FCFE084B00251E00084CE41AA41082
:1001F000A54204D0AB00F35898470135F8E770BD2D
:1002000060000020600000206000002064000020EA
:1002100003008218934202D019700133FAE7704745
:10022000FEE7C04670B50B4B9A78002A05D09C7F3C
:100230000422002C0CD0100070BD00240126E20026
:10024000121B92009D189852AE7000220C60F2E7CB
:100250000134F3E78C0D00200A4B0200198881421B
:1002600004D0998B0520914209D070470021CA0023
:10027000521A92009B18002200209A70F5E7012183
:10028000F5E7C0468C0D002010B50A4B0200188817
:10029000904204D09C8B0520944207D010BD9878E2
:1002A0000128F7D100230B600020F7E79B7F012B8B
:1002B000F4D1F8E78C0D0020044A0523118881420F
:1002C00001D01800704700239370FAE7C40D002096
:1002D00010B5074B05221C88844201D0100010BDC8
:1002E0009B78012BFAD1002300220B60F6E7C04671
:1002F000C40D002000B583B001AB064A03F0A0FC9A
:10030000002803D00022002104F0FAF9019803B07C
:1003100000BDC0468400002000B583B001AA00F0F3
:1003200099FB002803D00022002104F0E9F901988C
:1003300003B000BD70B584B06B4606000D009C1D77
:10034000210002A804F024F90028F9D1029B290019
:10035000187023883000013B03930B4B1D60029BF8
:100360005A1C03AB03F034FC002803D00022002108
:1003700004F0C6F9039B054A591C0391029889B2FF
:1003800004F01AF904B070BD84000020F5020000EA
:1003900030B585B06B4605009C1D210002A804F015
:1003A000F7F80028F9D1029B03AA187023882800C7
:1003B000013B03930A4B1D60029B591C00F028FB74
:1003C000002803D00022002104F09AF9039B054A7B
:1003D000591C0391029889B204F0EEF805B030BDC3
:1003E0008400002019030000002310B50D4C82B0DA
:1003F0000193226801AB01F0CDF9002804D10198E6
:10040000002808D102B010BD0022002104F078F9C4
:1004100001980028F6D0A088FFF71EFF0028F1D130
:100420000198EFE790000020002300B583B001AAF7
:10043000019300F0F1FC002803D00022002104F019
:100440005FF9019803B000BD002300B583B001AA95
:10045000019301F045F9002803D00022002104F0A7
:100460004FF9019803B000BD002300B583B001AA85
:10047000019300F021FD002803D00022002104F0A8
:100480003FF9019803B000BD002300B583B001AA75
:10049000019301F005F9002803D00022002104F0A7
:1004A0002FF9019803B000BD002300B583B001AA65
:1004B000019300F059FD002803D00022002104F030
:1004C0001FF9019803B000BDF0B547461D00002399
:1004D00080B406000F00904686B00493059304ACE8
:1004E000210003A804F054F80028F9D1039B1870E8
:1004F0002388013B23801A4B1D609E80002D14D061
:1005000005A93000FFF78EFE002803D006B004BC1A
:100510009046F0BD059B1822D800C01A114B8000F0
:10052000C0180430290007F050FD039B01940133EB
:10053000009342462B003900300001F0D7F8002824
:1005400008D1049B084A591C0491039889B204F00D
:1005500033F8DBE70022002104F0D2F8F1E7C046CF
:10056000900000208C0D0020E9030000002370B5EE
:1005700005000E0082B0019301AC2100684604F032
:1005800007F80028F9D1009B310018702388280053
:10059000013B2380009B5A1C230000F00DFC002827
:1005A00003D00022002104F0ABF8019B044A591C3F
:1005B0000191009889B203F0FFFF02B070BDC04600
:1005C00029040000002310B582B0019301AC210082
:1005D000684603F0DDFF0028F9D1009B2100187068
:1005E0002388013B2380009B581C01F05FF8002802
:1005F00003D00022002104F083F8019B044A591C17
:100600000191009889B203F0D7FF02B010BDC04637
:10061000490400000023F0B505000E00170085B066
:10062000039303AC210002A803F0B2FF0028F9D124
:10063000029B3A00187023883100013B2380029B03
:1006400000940133280000F0EDFB002803D00022C5
:10065000002104F055F8039B044A591C03910298A9
:1006600089B203F0A9FF05B0F0BDC04669040000DF
:10067000002330B5050083B0019301AC210068462A
:1006800003F086FF0028F9D1009B22001870238810
:100690002800013B2380009B591C00F0D9FF002853
:1006A00003D00022002104F02BF8019B044A591CBE
:1006B0000191009889B203F07FFF03B030BDC046BE
:1006C000890400000023F0B505000E00170085B076
:1006D000039303AC210002A803F05AFF0028F9D1CC
:1006E000029B3A00187023883100013B2380029B53
:1006F00000940133280000F0E5FB002803D000221D
:10070000002103F0FDFF039B044A591C039102984A
:1007100089B203F051FF05B0F0BDC046A904000046
:1007200000B583B001AA02F0EDFA002803D0002240
:10073000002103F0E5FF019803B000BD00B583B0D0
:1007400001AA01F031FE002803D00022002103F0AD
:10075000D7FF019803B000BD00B583B001AA01F036
:1007600051FE002803D00022002103F0C9FF0198A8
:1007700003B000BD00B583B001AA02F0EDFB002874
:1007800003D00022002103F0BBFF019803B000BD9D
:100790000023F0B505000E00170085B0039303ACED
:1007A000210002A803F0F4FE0028F9D1029B3A00D0
:1007B000187023883100013B2380029B0094013391
:1007C000280002F071FA002803D00022002103F073
:1007D00097FF039B044A591C0391029889B203F0C6
:1007E000EBFE05B0F0BDC04621070000002370B548
:1007F00005000E0082B0019301AC2100684603F0B1
:10080000C7FE0028F9D1009B31001870238828000A
:10081000013B2380009B5A1C230001F099FD002816
:1008200003D00022002103F06BFF019B044A591CF6
:100830000191009889B203F0BFFE02B070BDC046BE
:100840003D070000002370B505000E0082B0019343
:1008500001AC2100684603F09BFE0028F9D1009B03
:100860003100187023882800013B2380009B5A1C0C
:10087000230001F09FFD002803D00022002103F097
:100880003FFF019B044A591C0191009889B203F073
:1008900093FE02B070BDC04659070000002370B53A
:1008A00005000E0082B0019301AC2100684603F000
:1008B0006FFE0028F9D1009B3100187023882800B2
:1008C000013B2380009B5A1C230002F0F9FA002808
:1008D00003D00022002103F013FF019B044A591C9E
:1008E0000191009889B203F067FE02B070BDC04666
:1008F0007507000000B583B001AA02F06FFF002861
:1009000003D00022002103F0FBFE019803B000BDDC
:1009100010B5084A84B003AC53681268009402F022
:10092000C3FE002803D00022002103F0E9FE039853
:1009300004B010BD98000020F0B54746984600234B
:1009400080B405000E00170084B0039303AC2100AF
:1009500002A803F01DFE0028F9D1029B3A0018708E
:1009600023883100013B2380029B019401330093D3
:100970002800434602F0ECFE002803D000220021AC
:1009800003F0BEFE039B054A591C0391029889B2ED
:1009900003F012FE04B004BC9046F0BDF508000060
:1009A000F0B547469846002380B40D0007001600B6
:1009B00084B0039303AC210002A803F0E9FD0028F2
:1009C000F9D1029B3200187023882900013B238053
:1009D0000D4B380060C3029B0194013300934346E2
:1009E00002F026FE002803D00022002103F088FE3A
:1009F000039B064A591C0391029889B203F0DCFD5F
:100A000004B004BC9046F0BD98000020110900001D
:100A100010B5140084B0002908D0002A06D012684E
:100A20000923012A04D8180004B010BD0E23FAE7E8
:100A3000083B03935F330B70054B2268009303ABB5
:100A400003F02EF9031EEED1039A2260EBE7C046B5
:100A5000B53B000010B51300602202F02DFF10BD61
:100A6000F8B516001D00002813D0002B11D0092363
:100A700001290CD9427804781202224317B20230BD
:100A80000239002E00D1CFE02A68032A03D81800CB
:100A9000F8BD0E23FBE7043ABBB22A60702B00D9E5
:100AA000BEE0664A9B00D3589F462B00320002F0FE
:100AB0009BFE002E05D0002800D0B2E037802B88A6
:100AC00073802B6804332B600300E0E72B003200B7
:100AD00002F034FBEDE72B00320002F0D7FAE8E732
:100AE0002B00320002F03EFAE3E72B00320002F066
:100AF000F5FADEE72B00320002F064FAD9E72B00AA
:100B0000320002F04BFBD4E72B00320002F02AF84F
:100B1000CFE72B00320001F07DFECAE72B00320048
:100B200002F050F8C5E72B00320001F0ABFDC0E742
:100B30002B00320001F060FFBBE72B00320001F018
:100B400045FDB6E72B00320001F0DEFDB1E72B00DA
:100B5000320001F05DFCACE72B00320001F0B6FF83
:100B6000A7E72B00320001F0BFFEA2E72B00320006
:100B700000F070FC9DE72B00320000F023FB98E7AB
:100B80002B00320000F006FD93E72B00320000F04E
:100B9000F1F98EE72B00320000F02CFC89E72B00E6
:100BA000320000F027FD84E72B00320000F04EFBFE
:100BB0007FE72B00320000F077FA7AE72B00320053
:100BC00000F042FA75E72B00320000F0E3FB70E71B
:100BD0002B00320000F078FC6BE72B00320000F0B5
:100BE000A5FC66E72B00320000F0A8FA61E72B00B5
:100BF000320000F09FFB5CE72B00320000F06AFB44
:100C000057E72B00320000F04DF852E72B0032007E
:100C100000F0A0F84DE72B00320000F013F848E791
:100C20000520002333804BE7BBB2702B03D8044A66
:100C30009B00D3589F46052043E7C046F87F00003D
:100C4000BC810000F0B51700002283B004000E0044
:100C50001D000192002806D0002B04D0022904D8E0
:100C6000092003B0F0BD0E20FBE7002F16D01B6853
:100C70000C20022BF5D901233B8002337B8001AA93
:100C80003B1D200002F07CFE3B0001AA083331002E
:100C9000200002F0A1FE019B9E42E1D1032300202F
:100CA0002B60DEE7F0B5474680B4050082B00E0049
:100CB00014001F00002837D0002A35D0002B33D075
:100CC00000230093033313800D335380131D6A46B2
:100CD00002F044FE002828D108239846A044434649
:100CE0006A463100280002F069FE00281DD1434603
:100CF0006A4608333100280002F030FE002814D183
:100D0000009B591CEB5C0091012B12D0E060A08885
:100D1000FFF7D2FA002808D1009B09309E4204D187
:100D2000102300203B6000E00E2002B004BC90467F
:100D3000F0BDA08801A9FFF7CBFA0028F5D1019BEF
:100D40005A00D318024A9B00D3185B68E360DEE7C1
:100D5000C40D0020F0B5474680B4050082B00E00F7
:100D600014001F00002821D0002A1FD0002B1DD006
:100D70000023019302331380033353809846131DDD
:100D800001AA02F0EBFD002811D1230001AA0833CB
:100D90003100280002F012FE002808D1019B093022
:100DA0009E4204D1434600203B6000E00E2002B08A
:100DB00004BC9046F0BDC046F0B50E2687B06E4428
:100DC0000F0015001C003080002A07D0002B05D032
:100DD0001B680920002B03D107B0F0BD0E20FBE7F4
:100DE000012305937D331370226805AB2900300081
:100DF00002F0A2FD0028EFD1064B226800932900E3
:100E000005AB380002F04CFF0028E5D1059B2360BC
:100E1000E2E7C046C91E000010B513007E2202F0B2
:100E20004BFD10BDF0B5474680B4050084B00E0000
:100E300017001C000E20002B12D00A9B002B0FD095
:100E400088230338684403700A9B21001B68984676
:100E500000234246039303AB02F0A2FD002803D017
:100E600004B004BC9046F0BD104B424600932100F4
:100E700003AB280002F014FF0028F1D10C4B4246CE
:100E80000093210003AB300002F00AFF0028E7D1F5
:100E9000084B42460093210003AB380002F000FFEC
:100EA0000028DDD10A9B039A1A60D9E721180000B7
:100EB00015210000D120000010B51300882202F097
:100EC000FBFC10BDF0B5474680B416001C1E069D05
:100ED00008D0002D06D02B68032B05D8092004BCB0
:100EE0009046F0BD0E20FAE781236070000A23705F
:100EF000A0702B68032BF1D90B005A1E9341E370AD
:100F000000292AD02B680D2BE8D90B8808222371E1
:100F10001B0A63710231A01D07F057F81F23202719
:100F200098460F200E223300591E8B41A354002EE9
:100F300010D02B68BB42D1D310222018310007F00B
:100F400044F8337C38005A08DB075200DB0F1343A8
:100F50004246A35428600020C1E71523162798466F
:100F600005200422DFE7C04610B51300812202F0FD
:100F7000A3FC10BDF0B5474680B41700002284B032
:100F800004000E001D000392002808D0002B06D09C
:100F90000A2906D8092004B004BC9046F0BD0E20F2
:100FA000F9E7002F4CD01B680C20292BF3D91B2309
:100FB0003B800F337B8003AA3B1D200002F0CEFC58
:100FC0000028E8D1BB1D03AA3100200000F042FC3C
:100FD0000028E0D13B0003AA0D333100200002F0CD
:100FE000EDFC0028D7D10B2303AA6B44310020006D
:100FF000984602F0E3FC0028CDD143461B7801213E
:101000001A00B87B0A4088431043062205319043FA
:10101000DA081940D3009C4603000B4307210B401C
:1010200061460B43BB733B0000920F3303AA3100B0
:10103000200002F027FD0028ADD1039B9E42A9D1DC
:101040002A2300202B60A6E7F0B51700002283B00A
:1010500004000E001D000192002806D0002B04D0D1
:10106000022904D8092003B0F0BD0E20FBE7002FB1
:1010700015D01B680C20022BF5D916233B80133B9F
:101080007B8001AA3B1D200002F07AFCBB1D01AA57
:101090003100200002F0A0FC019B9E42E2D103231C
:1010A00000202B60DFE7C046F0B51C00002383B0B2
:1010B00007000D0016000093002806D0002C04D075
:1010C000072904D8092003B0F0BD0E20FBE7002A51
:1010D0002DD01723138013335380131D6A4602F05B
:1010E0003DFC0028EFD1B31D6A462900380000F00E
:1010F00043FD0028E7D1B08801A9FFF7C5F8002813
:10110000E1D1019A2900D3009B1A0B4A9B009B183E
:1011100004336A46380001F09DF80028D3D1B08826
:10112000FFF79AF80028CED1009B9D42CAD12A230E
:1011300000202360C7E7C0468C0D0020F0B51700E3
:10114000002283B004000E001D000192002806D08A
:10115000002B04D0032904D8092003B0F0BD0E20D1
:10116000FBE7002F2AD01B680C20092BF5D912238E
:101170003B80083B7B8001AA3B1D200002F000FC65
:10118000BB1D01AA3100200002F0FAFB3B0001AABE
:1011900008333100200002F0F3FB3B0001AA0A33C0
:1011A0003100200002F0ECFB3B0001AA0C333100BF
:1011B000200002F0E5FB019B9E42CDD10A230020D6
:1011C0002B60CAE7F0B51700002283B004000E00C0
:1011D0001D000192002806D0002B04D0032904D85A
:1011E000092003B0F0BD0E20FBE7002F2AD01B68BA
:1011F0000C20092BF5D91D233B80133B7B8001AAD2
:101200003B1D200002F0BCFBBB1D01AA31002000E9
:1012100002F0B6FB3B0001AA08333100200002F0C7
:10122000AFFB3B0001AA0A333100200002F0A8FB0B
:101230003B0001AA0C333100200002F0A1FB019B0E
:101240009E42CDD10A2300202B60CAE7F0B51700DB
:10125000002283B004000E001D000192002806D079
:10126000002B04D0032904D8092003B0F0BD0E20C0
:10127000FBE7002F29D01B680C20032BF5D918237E
:101280003B80143B7B8001AA3B1D200002F078FBD1
:101290000F21019BE3181A780A401000BA798A439B
:1012A0000243BA711A78BB79120912010B40134339
:1012B000BB71019B01AA591C0191FB1D310020004B
:1012C00002F08AFB019B9E42CED1042300202B60BA
:1012D000CBE7C046F0B51600002283B005000F0032
:1012E0001C000192002809D0002B07D0002E07D047
:1012F0001B680C20192B07D803B0F0BD0E20FBE7AC
:101300001A2300202360F7E71A2301AA738028001C
:10131000331D02F023FB0028EED1B31D01AA3900D2
:10132000280000F04BFD0028E6D1019B9F42E7D04A
:101330000930E1E7F0B51700002283B004000E0089
:101340001D000192002806D0002B04D0022904D8E9
:10135000092003B0F0BD0E20FBE7002F15D01B685D
:101360000C20022BF5D911233B800E3B7B8001AA78
:101370003B1D200002F004FBBB1D01AA3100200030
:1013800002F02AFB019B9E42E2D1032300202B6046
:10139000DFE7C046F0B51D00002383B004000E0057
:1013A00017000193002806D0002D04D0072904D887
:1013B000092003B0F0BD0E20FBE7002A16D02B68F1
:1013C0000C20072BF5D9152313800D3B53802000EB
:1013D000131D01AA02F0D4FA019BB81DE1180622E0
:1013E00006F0F3FD019B06339E42E1D10823002065
:1013F0002B60DEE7F0B51700002283B004000E007A
:101400001D000192002806D0002B04D0022904D828
:10141000092003B0F0BD0E20FBE7002F15D01B689C
:101420000C20022BF5D91A233B80173B7B8001AAA5
:101430003B1D200002F0A4FABB1D01AA31002000D0
:1014400002F0D6FA019B9E42E2D1032300202B60DA
:10145000DFE7C046F0B51600002283B005000F009C
:101460001C000192002809D0002B07D0002E07D0C5
:101470001B680C20092B07D803B0F0BD0E20FBE73A
:101480000A2300202360F7E71E233380143B738078
:1014900001AA331D280002F061FA0028ECD1F31DE7
:1014A00001AA3900280000F0D5F90028E4D1B31DC5
:1014B00001AA3900280002F081FA0028DCD1019B42
:1014C0009F42DDD00930D7E7F0B51700002283B086
:1014D00004000E001D000192002806D0002B04D04D
:1014E000032904D8092003B0F0BD0E20FBE7002F2C
:1014F00017D01B680C20152BF5D914233B80023321
:101500007B8001AA3B1D200002F03AFABB1D01AA14
:101510003100200000F000FC0028E4D1019B9E4235
:10152000E0D1162300202B60DDE7C046F0B51700A0
:10153000002283B004000E001D000192002806D096
:10154000002B04D0062904D8092003B0F0BD0E20DA
:10155000FBE7002F19D01B680C20062BF5D91323AD
:101560003B800C3B7B8001AA3B1D200002F0F6F97A
:101570000028EAD1BB1D01AA3100200000F016FDB1
:101580000028E2D1019B9E42DED1072300202B6080
:10159000DBE7C046F0B51700002283B004000E0060
:1015A0001D000192002806D0002B04D0022904D887
:1015B000092003B0F0BD0E20FBE7002F15D01B68FB
:1015C0000C20022BF5D9032301AA7B8020003B1DB0
:1015D00002F0D6F9BB1D01AA3100200000F096FEF2
:1015E0000028E6D1019B9E42E2D1032300202B601C
:1015F000DFE7C04670B51600002282B004001D006F
:101600000192002806D0002B04D0032904D0092021
:1016100002B070BD0E20FBE7002E15D01B680C2019
:10162000022BF5D919237180338001AA331D0321C0
:10163000200002F0A5F9B31D01AA0321200002F049
:10164000CBF9019B032BE2D1032300202B60DFE7C2
:10165000F0B5060085B00C0015000E2000290ED054
:10166000002A0CD0862303386844037000231768CF
:1016700003933A0003AB02F093F9002801D005B0C0
:10168000F0BD064B3A000093210003AB300002F09E
:1016900007FB0028F3D1039B2B60F0E71521000026
:1016A00010B51300862202F007F910BD30B5040012
:1016B00083B00D000E20002C10D000290ED06B46F8
:1016C000D81C8723037000230A680193210001AB13
:1016D00002F066F9002801D1019B2B6003B030BDF8
:1016E00010B51300872202F0E7F810BDF0B54746A9
:1016F0000E240D2580B486B01F000C9B6C446D44F5
:101700002080160029700E20002B12D00D9B002B7C
:101710000FD07F230530684403700D9B0C991B6824
:10172000984600234246059305AB02F039F900289C
:1017300003D006B004BC9046F0BD05AB42460C9900
:10174000200002F0F9F80028F3D105AB42460C99CD
:10175000280002F025F90028EBD10C4B42460093FB
:101760000C9905AB300002F09BFA0028E1D1084B40
:10177000424600930C9905AB380002F091FA00281C
:10178000D7D10D9B059A1A60D3E7C046C91E000049
:10179000A521000070B586B004000E0003921D0064
:1017A000002813D0002B11D000230A0005930095C8
:1017B0007F3305A902F05AF8002808D12B68002BC6
:1017C00007D0059B9E4212D0092000E00E2006B0F3
:1017D00070BD039B002BF9D0064B05AA0093310086
:1017E00003AB200002F074FA0028EAD0EFE70020F3
:1017F000EDE7C0465522000070B51C001B680925A6
:10180000D21A0F2A01D8280070BDCB18102201006F
:10181000180006F0DAFB2368002510332360F2E796
:1018200070B51D681C00521B0923062A01D8180038
:1018300070BD03784B5523685A1C431C22608818DE
:101840001900062206F0C1FB23680633236000233B
:10185000EDE7C04670B515681400491B092206293A
:1018600001D8100070BD425D1A702268511C2160C1
:1018700006224118581C06F0A8FB236800220633F4
:101880002360EEE770B51C001B680925D21A0F2AE9
:1018900001D8280070BDCB1810220100180006F0F6
:1018A00094FB2368002510332360F2E770B5140021
:1018B00012680925891A0F2901D8280070BD8118DE
:1018C0001800102206F081FB2368002510332360E6
:1018D000F3E7C046F0B54F464646C0B4040083B0B7
:1018E0000D0017001E0000290AD0002B08D0037934
:1018F0000720082B06D903B00CBC90469946F0BDD2
:101900000E20F8E7237B082BF5D83300201D02F0CA
:1019100047F800233A00009329003300206802F0C2
:10192000BFF92379002B14D0002398461D4B99460C
:10193000434622689B0098584B463A000093290082
:10194000330002F0ADF901239C462379E044984529
:10195000EED3200033003A0029000C3002F020F8CA
:1019600000233A00009329003300A06802F098F9A0
:10197000237B002BBFD0002398460B4B9946434650
:10198000A2689B0098584B463A0000932900330008
:1019900002F086F901239C46237BE0449845EED370
:1019A000A9E7C04621180000F9170000F0B5474626
:1019B000050080B40E0017001C000E20002906D080
:1019C000002B04D01868131A102B03D8092004BC6C
:1019D0009046F0BD08181022290006F0F6FA2800FB
:1019E00022681230103222602B7CDB07DB0FB354ED
:1019F0002368F2182B7C11785B085B000B43137093
:101A000023683A00013323603100230001F094FF82
:101A1000804620683F1A072FD8D929003018143182
:101A2000082206F0D2FA2368404608332360CEE746
:101A3000F8B505000E0014001F00002822D0002A6F
:101A400020D01168731A0F2B01D80920F8BD411856
:101A50001022380006F0B9FA236810332360F61A12
:101A6000062EF2D93800EB5C11303B742368062255
:101A7000591C2160691806F0A8FA23680020063373
:101A80002360E3E70E20E1E7F8B507000D0016003C
:101A90001C00002922D0002B20D01868131A0F2B0D
:101AA00001D80920F8BD08181022390006F08DFA77
:101AB000236810332360F61A062EF2D939003A7CD7
:101AC0001131EA5423680622581C2060281806F0B9
:101AD0007CFA2368002006332360E3E70E20E1E769
:101AE000F0B54746060080B414000F0098460E2556
:101AF000002806D0002A04D011687B1A0F2B04D8C6
:101B00000925280004BC9046F0BD4118102240462B
:101B100006F05BFA2368103323609F42F0D0012067
:101B2000F25C4346024011001A7C82430A431A7455
:101B300023683900F25C43461B7C52085200034084
:101B40001343424613742368220001332360434643
:101B50003000123301F002FF051ED2D121687F1A36
:101B6000072FCDD9404671181430082206F02DFAFF
:101B7000236808332360C4E7F0B557464E46454610
:101B8000E0B41E00136882B007000D001400CB1AE9
:101B9000052B06D8092002B01CBC90469946A246E7
:101BA000F0BD0E20002EF6D03300380001F006FF05
:101BB0000028F0D16B46220003332900380001F0E1
:101BC000FDFE0028E7D103226B461100DB78707818
:101BD000194090439B08023A134090469A00030034
:101BE0000B4304218B4313437370236889469D4242
:101BF000D0D001AB22002900380001F0DFFE002820
:101C0000C9D14246019B41461A4094464246B078AB
:101C1000884359081140624610430222904392467D
:101C200042469B0813409A00030049000B43494673
:101C30008B431343B37023689D42ABD001AB2200AA
:101C40002900380001F0BAFE0028A4D14246019BC9
:101C500041461A4094464246F0788843590811405C
:101C6000624610435246904342469B0813409A00F6
:101C7000030049000B4349468B431343F370002F85
:101C800048D0236809209D4200D184E7FB5C0339DA
:101C90000B401A00337907388B43134333712368A1
:101CA0008046FB5C5B080B405A0033798343134347
:101CB000337123680230FB5C84469B080B409A001A
:101CC00033798343134333712368013323609D4287
:101CD00000D15FE7FB5C40460B401A0073798B43F1
:101CE000134373712368FB5C5B080B405A007379E4
:101CF000834313436246737123680020FB5C9B0897
:101D000019407379890093430B437371236801333E
:101D1000236040E70E203EE7F0B51E001368070081
:101D2000140083B00D00CA1A0920062A01D803B096
:101D3000F0BDFB5C062233702368701C591C2160C7
:101D4000791806F042F92368220006332360330035
:101D500029000833380001F001FE0028E7D121688E
:101D600009306B1A072BE2D93000791808220A30A3
:101D700006F02BF923682200083323606B46290004
:101D80000733380001F01AFE0028D0D101226B463B
:101D90001500DB79B47C1D4094432C43022559087F
:101DA0009B081340AC4311409A00230049000B43A9
:101DB00004218B431343B374B9E7C046F0B54746DB
:101DC00080B482B0140098466A460023D37122681A
:101DD00007000D008B1A062B05D80926300002B02B
:101DE00004BC9046F0BD835C424613702368591CC6
:101DF00021604118501C062206F0E7F823680633DC
:101E00002360EA1A062AE8D942464046FB5C0830BD
:101E1000D37123680622591C2160791806F0D5F881
:101E20002368220006332360434629000E3338001E
:101E300001F0C4FD061ED1D16B46220007332900F4
:101E4000380001F0BBFD061EC8D142460120D27BFE
:101E50006B46824301009446DB7919405B085A00C7
:101E600063460B43034013434246D3732368023354
:101E70009D42B2D34346220010332900380001F0BE
:101E80007FFD236802339D42A7D3434622001233CD
:101E90002900380001F074FD236802339D429CD371
:101EA0004346220014332900380001F069FD2368FD
:101EB00002339D4200D290E74346220016332900A8
:101EC000380001F05DFD89E7F0B547460D0080B4AC
:101ED0001E211700022282B006001C006B469046AD
:101EE0000A00D81D3378D9071A40C90F11432022A0
:101EF0001A400B00134303703A002300290001F03D
:101F00004FFD002803D002B004BC9046F0BD701C09
:101F100023003A00290001F043FD0028F3D1B01C52
:101F200023003A00290001F03BFD0028EBD1002DF1
:101F300039D0002C37D0226809309742E3D041468F
:101F4000F378DB07DB0FAB542368F278EB180A4019
:101F500019780A4304211A702368F278EB180A40B2
:101F60008C4619780A431A702368013323609F4214
:101F7000C9D0414632790020D207D20FEA542368F3
:101F8000EA1833790B4011780B43137023686246CB
:101F900098463379454413402A7813432B702368BD
:101FA00001332360AFE70E20ADE7C046F0B54F46E2
:101FB0004646C0B483B01E006B46073305000F00D1
:101FC000140001F0FBFC002804D003B00CBC9046C8
:101FD0009946F0BD0122904631786B4691438C467C
:101FE0004146DB7910005A080A4061461840014317
:101FF00002205200814311431C22914342468146F4
:102000001A3018405B0913405A010B00202103438A
:102010008B43134333702200731C3900280001F0F6
:10202000CDFC0028D1D1B31C22003900280001F0DA
:10203000C5FC0028C9D1002D48D0002C46D023680B
:1020400009309F42C1D042464146EB5C1A40F378CA
:102050008B431343F3702368EB5C5B080B404946EA
:102060005A00F3788B4313434246F37023680231DE
:10207000EB5C9B0813409A00F3788B431343F37097
:102080002368013323609F429FD042464046EB5C69
:102090001A4033798343134333712368EB5C5B0845
:1020A000034048465A003379834313434246337111
:1020B00023680020EB5C9B0813409A0033798B4324
:1020C000134333712368013323607EE70E207CE7DE
:1020D000F8B504000D0016001F0001F02DFC0028CB
:1020E00000D0F8BDA01C3B003200290001F024FC08
:1020F0000028F6D1201D3B003200290001F01CFC15
:102100000028EED1A01D3B003200290001F014FC94
:10211000E7E7C046F0B5070083B00D0016001C00CD
:10212000002907D0002B05D01B680920934203D15A
:1021300003B0F0BD0E20FBE73A78D207D20FCA54A5
:1021400002222368CB1839780A4019780A431A709A
:102150002368320001332360114B29000093786813
:10216000230001F09DFD0028E2D138002300320059
:102170002900083001F0E0FB0028D9D13800230005
:10218000320029000A3001F0D7FB0028D0D13800F6
:102190002300320029000C3001F0CEFBC8E7C04616
:1021A000D5180000F0B557464E464546E0B40C0041
:1021B000070082B016001D000E2000290AD0002B57
:1021C00008D0214B0093984638682B0001F068FD39
:1021D000002805D002B01CBC90469946A246F0BD2E
:1021E0001A4B32000093994621002B00786801F0C9
:1021F00057FD0028EED1164B320000939A4621007D
:102200002B00B86801F04CFD0028E3D14346009351
:1022100032002B002100F86801F042FD0028D9D1DE
:102220004B46009332002B002100386901F038FD45
:102230000028CFD1534678693200009321002B004B
:1022400001F02EFDC6E7C046AD190000891A000056
:1022500085180000F0B557464E464546E0B40400E8
:1022600082B00F0015001E000E20002C0AD0002A9C
:1022700008D0234B200098460093330001F028FD3E
:10228000002805D002B01CBC90469946A246F0BD7D
:102290001C4A331D9246009239002A00200001F0AA
:1022A00017FD0028EED1184B2A0099460093330001
:1022B00039000833200001F00BFD0028E2D143462D
:1022C000009333002A000C333900200001F000FD98
:1022D0000028D7D15346009333002A001033390029
:1022E000200001F0F5FC0028CCD14A4633000092D2
:1022F00014332A003900200001F0EAFCC2E7C0468E
:10230000E11A0000311A0000AD18000070B5041E7B
:102310001CD0002A1AD0156809208D4215D0655DA1
:10232000083805402E001D78854335431D7011681F
:10233000615C0224490801404800E9B2A14301431D
:102340000020197013680133136070BD0E20FCE784
:1023500010B5002A06D0002B04D01C68022C03D82C
:10236000092010BD0E20FCE792245070000A147062
:10237000907018680328F3D90800441EA041D0705B
:1023800000290ED018680728EAD908881071000AB9
:10239000507149889171090AD17108221A60002090
:1023A000DFE70422FAE7C04610B51300922201F0DD
:1023B00083FA10BD10B5002A06D0002B04D01C688B
:1023C000032C03D8092010BD0E20FCE75070000A32
:1023D0009324907008001470441EA041D07000290E
:1023E0000ED018680728EDD908881071000A5071BE
:1023F00049889171090AD17108221A600020E2E728
:102400000422FAE710B51300932201F055FA10BD2B
:10241000F0B55F4656464D464446F0B41E000023D4
:1024200087B004000D001700059300280BD0002E84
:1024300009D0072909D8092007B03CBC9046994625
:10244000A246AB46F0BD0E20F6E703AB05AA01F0AD
:1024500097FA02AB063305AA2900200001F090FA92
:1024600004AB05AA2900200001F08AFA02AA9446CA
:102470000A2305AA63442900200001F081FA02AB77
:102480005A8993009B185B000E330093002F00D1F4
:1024900099E031680C208B42CED832233B806B46CA
:1024A0001B8805997B8002AB9B88BA81BB8002ABFD
:1024B000DB88FB8002AB1B893B81D3009B185B1838
:1024C0009D42B8D3002A7AD00023A946A0461D0019
:1024D000BA46B346AC00641961000F000837574490
:1024E0000C00BB1D05AA4946404601F049FA3B00D5
:1024F00005AA08334946404601F06EFA02AB0233A2
:1025000005AA4946404601F067FA524601211619CC
:10251000012202AB9B78B07C1940019490430124C6
:10252000084302215A0822408843520002430420F3
:10253000990821408243890011430822D80820408D
:102540009143C000084310211A0922408843120118
:102550000243202059092140490182430A43402176
:102560001F389B0903409B018A431A4302ABB27494
:10257000033305AA4946404601F02EFA0122012103
:1025800002ABDB7840461A40F37C01358B431343A2
:10259000F3743B0005AA0C33494601F0F1F9019BA5
:1025A00005AA534416334946404601F0E9F902AB07
:1025B0005B89ADB2AB428DD84D465E4605998D42E2
:1025C00000D038E7009B3360002035E7F0B5474680
:1025D00080B4040086B00E0017001D0000280AD049
:1025E000002B08D000230493052906D8092006B043
:1025F00004BC9046F0BD0E20F9E72B6804AA98466B
:1026000008232B6002336B4401F0BAF903AB04AA30
:102610003100200001F0B4F90E2304AA6B4431000C
:10262000200001F0ADF9002F29D02B689845DDD3AB
:1026300034233B806B465B893A00BB806B469B89A9
:102640000C32FB806B46DB893B8143462968009254
:102650005B1A059304AA05AB3100200000F058FB7B
:102660000028C4D1059A2B68944663442B60002F40
:1026700000D07B80049B00209E42B7D1B7E70022A8
:10268000E3E7C04670B51600002282B004000D00DA
:102690000192002806D0002B04D0092904D8092073
:1026A00002B070BD0E20FBE7C279817912020A43A5
:1026B0000A32002E24D019680C208A42F0D81A6001
:1026C000362301AA33802900331D200001F058F978
:1026D000B31D01AA2900200001F052F9330001AA1C
:1026E00008332900200001F04BF9330001AA0C3314
:1026F0002900200000F082FB019B9D42CFD1CFE753
:102700001A600020CCE7C046F0B557464E46454615
:10271000E0B41E00002384B004000D0017000393F2
:1027200000280AD0002E08D0072908D8092004B0B4
:102730001CBC90469946A246F0BD0E20F7E701ABBF
:1027400003AA01F01DF96B4603AA063329002000F5
:1027500001F016F902AB03AA2900200001F010F9DC
:102760000A2303AA6B442900200001F009F90E2175
:102770006B4689465A8953009B185B009944002F89
:1027800043D033680C209945D1D833233B804B4646
:102790007B806B469B880399BB806B46DB88BA8144
:1027A000FB806B461B893B8193009B185B189D4205
:1027B000BCD300239A46002A24D053465B005344DE
:1027C0005B0008339846B844434603AA0633290001
:1027D000200001F0D5F8434603AA08332900200061
:1027E00001F0CEF8434603AA0A332900200001F085
:1027F000F3F8534601339BB29A466B465B895345C7
:10280000DBD803998D4200D090E74B46002033601F
:102810008DE7C046F0B54F4646461D000023C0B4C4
:1028200083B004000E0017000193002809D0002D8A
:1028300007D00A2907D8092003B00CBC9046994656
:10284000F0BD0E20F8E7837A427A1B021A439046C5
:10285000132343449946002F39D02B680C20994507
:10286000EAD838233B804B4601AA7B8020003B1DE1
:1028700001F086F8BB1D01AA3100200001F080F8AC
:102880003B0001AA08333100200001F079F83B0039
:1028900001AA0C333100200001F072F83B0001AABC
:1028A0000E333100200001F097F83B003100103367
:1028B00001AA200001F064F8434601995B189E428A
:1028C000B9D34346002B05D18E42B4D14B462B6081
:1028D0000020B1E7380061181230424605F075FB60
:1028E000019B43441900EFE7F0B557464E46454675
:1028F000E0B41E00002386B004000D00170005930D
:1029000000280AD0002E08D0072908D8092006B0D0
:102910001CBC90469946A246F0BD0E20F7E703ABDB
:1029200005AA01F02DF802AB063305AA2900200004
:1029300001F026F804AB05AA2900200001F020F8D8
:1029400002AA94460A2305AA63442900200001F044
:1029500017F80E21894602AB5A89D3009944002FFB
:1029600046D031680C208945D1D83021398049467C
:10297000798002A989889B1AB98002A9C988BA817D
:10298000F98002A90989398105995B189D42BDD357
:102990000023002A29D001339A46DB009846B84428
:1029A000434605AA06332900200000F0E9FF43460C
:1029B00005AA08332900200001F00EF8434605AAB5
:1029C0000A332900200000F0DBFF434605AA0C3340
:1029D0002900200000F0D4FF6A465346D380D388F4
:1029E00002AA52899A42D6D805998D4200D08DE725
:1029F0004B46002033608AE7F0B54F4646461D003F
:102A00000023C0B483B004000E0017000193002817
:102A100009D0002D07D00B2907D8092003B00CBC22
:102A200090469946F0BD0E20F8E7C37A827A1B02E1
:102A30001A439046132343449946002F39D02B68FC
:102A40000C209945EAD835233B804B4601AA7B8070
:102A500020003B1D00F094FFBB1D01AA31002000A7
:102A600000F08EFF3B0001AA08333100200000F087
:102A700087FF3B0001AA0C333100200000F080FFEB
:102A80003B0001AA0E333100200000F079FF3B002B
:102A90003100103301AA200000F072FF4346019973
:102AA0005B189E42B9D34346002B05D18E42B4D168
:102AB0004B462B600020B1E73800611812304246C7
:102AC00005F083FA019B43441900EFE770B5160047
:102AD000002282B004000D000192002806D0002BD5
:102AE00004D0072904D8092002B070BD0E20FBE7EE
:102AF000C279817912020A43013291008A18520088
:102B0000002E2BD01B680C209A42EDD8312301AA4D
:102B100033802900331D200000F020FF0028E3D17E
:102B2000B31D01AA2900200000F018FF0028DBD106
:102B3000330001AA08332900200000F00FFF00280D
:102B4000D2D1330001AA0C332900200000F074F91F
:102B50000028C9D1019B9D42C5D1C5E71A6000205C
:102B6000C2E7C046F0B51700002283B004000E0093
:102B70001D000192002806D0002B04D0022904D8A1
:102B8000092003B0F0BD0E20FBE7002F16D01B6814
:102B90000C200C2BF5D939233B802C3B7B8001AAE0
:102BA0003B1D200000F0ECFE3B0001AA0C3331007D
:102BB000200000F011FF019B9E42E1D10D23002077
:102BC0002B60DEE7F0B54F4646461D000023C0B43B
:102BD00083B004000E0017000193002809D0002DD7
:102BE00007D00C2907D8092003B00CBC90469946A1
:102BF000F0BD0E20F8E7037BC27A1B021A43904611
:102C0000152343449946002F40D02B680C2099454A
:102C1000EAD837233B804B4601AA7B8020003B1D2E
:102C200000F0AEFEBB1D01AA3100200000F0A8FE9E
:102C30003B0001AA08333100200000F0A1FE3B0058
:102C400001AA0C333100200000F09AFE3B0001AADB
:102C50000E333100200000F0BFFE3B0001AA10330C
:102C60003100200000F08CFE3B003100123301AA3D
:102C7000200000F085FE434601995B189E42B2D3C6
:102C80004346002B05D18E42ADD14B462B60002030
:102C9000AAE7380061181430424605F096F9019B06
:102CA00043441900EFE7C04630B5039C002B06D023
:102CB000002C04D02568042D03D8092030BD0E2037
:102CC000FCE790255870D970000A090A1D709870A9
:102CD000197121680529F0D91100481E81415971E7
:102CE000002A0CD021680829E7D911889971090AAE
:102CF000D97192781A72092323600020DEE7062337
:102D0000FAE7C04610B51300902200F0D5FD10BDC3
:102D1000F0B55F4656464546E0B41E00136882B0E3
:102D200007000D001400CB1A032B06D8092002B0AF
:102D30001CBC90469A46A346F0BD6B46063300F095
:102D40001FFE01AB22002900380000F019FE336895
:102D50006A4698466B46DB8891881A004A43944637
:102D6000D800021D624432600A9A002A3ED0518087
:102D7000138032689045D9D30A9A94466044021D64
:102D80009246002B38D00A9B9A602368EB1A012BDD
:102D9000CCD90A9B1E1D00239B461AE07918706847
:102DA00005F013F922680A9B94465B88634423600C
:102DB0006B469B889A4401239C466B46DB88E34420
:102DC0005B4519D95346F36023680836EB1A012B8B
:102DD000ACD9330022002900380000F0D1FD0A9B55
:102DE00021685A886B1A9A42D8D99FE722685B00FB
:102DF0006344944663442360002098E7F8B51E00BE
:102E0000136807000C001500CB1A012B01D809200C
:102E1000F8BD330000F0B4FD29683288641AA2427C
:102E2000F5D87918B01C05F0D0F82A683388944694
:102E300063442B600020EBE7F0B5474680B482B0D6
:102E40001C006B46063380460D00160000F086FD20
:102E500000280ED16B46DB88002723800234002B2C
:102E60002CD0230032002900404600F077FD0028D6
:102E700003D002B004BC9046F0BDA31C3200290070
:102E8000404600F019FE0028F3D13368EB1A032BFB
:102E900001D80920EDE7A31D32002900404600F0CB
:102EA0006FFD2300320008332900404600F068FD22
:102EB0006B46DB8801370A34BB42D2D80020D8E702
:102EC00070B50D001C00002A06D0002B04D01B6832
:102ED000032B03D8092070BD0E20FCE79723137045
:102EE0000B00591E8B415070000A9070D370002D5A
:102EF0002DD023680C2BEDD92B78072013716B781C
:102F000053716B8893711B0AD371AB8813721B0AC0
:102F10005372EB8893721B0AD372EB88142BDAD8A6
:102F2000AB68591E8B411373A968002911D0EB8837
:102F3000266818000D30B042CCD80D3210001A00AF
:102F400005F043F8EB880D3323600020C3E704232A
:102F5000FAE70D23F8E7C04610B51300972200F0FA
:102F6000ABFC10BDF0B51700002283B004000E00CA
:102F70001D000192002806D0002B04D0022904D89D
:102F8000092003B0F0BD0E20FBE7002F15D01B6811
:102F90000C20032BF5D953233B804F3B7B8001AAA8
:102FA0003B1D200000F0ECFCBB1D01AA31002000FD
:102FB00000F0E6FC019B9E42E2D1042300202B603E
:102FC000DFE7C046F0B5474680B4050086B00F0085
:102FD00016001C000E20002D15D0002B13D000234E
:102FE0000393236803AA98460223236008336B44A3
:102FF000280000F0B3FC002805D1002E41D0236842
:10300000984504D2092006B004BC9046F0BD512377
:1030100033806B465B89B21DB380434621680092C2
:103020005B1A049303AA04AB3900280000F0B4F93A
:103030000028E8D1049A2368944663442360002E54
:103040001AD0B379022B17D1B37A062B14D1B088DA
:1030500005A9FDF73DF905280ED00C22059B390086
:103060005A43094B2800D218131D0832009203AAB4
:1030700000F0CAFC0028C6D1039B9F42C2D10020A9
:10308000C1E70022C9E7C046C40D002030B50D00DD
:10309000002183B01C000191002819D0002B17D00B
:1030A000012D11D9002A15D01B680C21012B0CD938
:1030B00054231380523B53802900131D01AA00F0B2
:1030C0005FFC019B9D4205D00921080003B030BD83
:1030D0000E21FAE7022300212360F6E7F0B517007E
:1030E000002283B004000E001D000192002806D0CB
:1030F000002B04D0022904D8092003B0F0BD0E2013
:10310000FBE7002F15D01B680C20022BF5D95223AA
:103110003B804F3B7B8001AA3B1D200000F030FC30
:10312000BB1D01AA3100200000F056FC019B9E420D
:10313000E2D1032300202B60DFE7C046F0B5170083
:10314000002283B004000E001D000192002806D06A
:10315000002B04D0022904D8092003B0F0BD0E20B2
:10316000FBE7002F15D01B680C20022BF5D9552347
:103170003B80523B7B8001AA3B1D200000F000FCFD
:10318000BB1D01AA3100200000F026FC019B9E42DD
:10319000E2D1032300202B60DFE7C046F0B54746AD
:1031A00080B4050086B00E0017001C000E20002D14
:1031B00015D0002B13D000230393236803AA98464D
:1031C0000223236008336B44280000F0C7FB00286B
:1031D00005D1002F3DD02368984504D2092006B0C0
:1031E00004BC9046F0BD6B465B89BA1DBB8043466C
:1031F000216800925B1A049303AA04AB31002800F3
:1032000000F02CF80028EAD1049A2368944663441D
:103210002360002F18D03B7A062B15D1B88805A95A
:10322000FDF756F805280FD0059B31005A00D2183B
:10323000094B9200D218131D08320092280003AAED
:1032400000F0E2FB0028CAD1039B9E42C6D10020B9
:10325000C5E70022CBE7C046C40D0020F0B54F46BD
:103260004646C0B4040089B00F0015001E000E20B1
:10327000002C0ED0002A0CD0002B0AD01B68200096
:1032800099461A2333606B46063300F067FB00282B
:1032900004D009B00CBC90469946F0BD6B462A009C
:1032A00005333900200000F089FB0028F1D103AB81
:1032B0002A003900200000F0FFFB0028E9D104AB10
:1032C0002A003900200000F0F7FB0028E1D105AB0F
:1032D0002A003900200000F0EFFB0028D9D12B682C
:1032E0000930FB1A042BD4D906AB2A003900200080
:1032F00000F046FB1A232A006B443900200000F03E
:103300003FFB07AB2A003900200000F065FB02AB51
:103310002A003900200000F021FB0028B9D10A233F
:103320002A006B4439002000984600F017FB002863
:10333000AFD13268434694461B88109A6344336089
:10334000002A20D0994501D20920A2E76B46109AA5
:10335000DB88101D13806B465B7903A993701222E2
:1033600004F033FE6B46109A1B89D38243461A88B9
:10337000109B1A8329687F1ABA42E5D81800611891
:103380001A3004F022FE2A68434694461B88002027
:1033900063442B607DE7C046F0B55F4656464D4618
:1033A0004446F0B4040089B00F0016001D000E2042
:1033B000002C19D0002B17D0002A15D001AB20000B
:1033C00000F0FCFA00280FD12B689B4602232B60EB
:1033D000129B002B00D178E01A006B461B79093054
:1033E00013702A68934506D209B03CBC90469946B2
:1033F000A246AB46F0BD012B71D0022B63D1129BCC
:10340000023398466B46320006333900200000F044
:10341000A5FA0028E8D16B463200053339002000B8
:1034200000F0CCFA0028DFD103AB320039002000D5
:1034300000F042FB0028D7D104AB32003900200055
:1034400000F03AFB0028CFD105AB32003900200054
:1034500000F032FB0028C7D133680930FB1A042B77
:10346000C2D906AB32003900200000F089FA1A23D5
:1034700032006B443900200000F082FA07AB3200C2
:103480003900200000F0A8FA02AB32003900200019
:10349000994600F063FA0028A6D10A2332006B4453
:1034A0003900200000F05AFA00289DD11A226B46FC
:1034B00092465B899A444346002B00D194E0D34561
:1034C00074D2092090E70B208EE76B461B79012B05
:1034D00000D190E0022BF6D10023984692E7129B90
:1034E0000233994602AB32003900200000F036FA70
:1034F000002800D078E703AB32003900200000F04C
:10350000DBFA002800D06FE704AB3200390020005E
:1035100000F0D2FA002800D066E705AB320039008F
:10352000200000F0C9FA002800D05DE733680930B8
:10353000FB1A042B00D857E706AB320039002000F5
:1035400000F01EFA1A2332006B443900200000F00C
:1035500017FA07AB32003900200000F03DFA0A23C9
:1035600032006B4439002000984600F0F7F900283B
:1035700000D039E74B46002B11D05B460930152BA4
:1035800000D831E76B464A461B89901C138003A97B
:10359000122204F01AFD43464A461B8893821623E2
:1035A0009A462B68002053442B601DE76B46424629
:1035B000DB88101D13806B465B7903A99370122280
:1035C00004F003FD4B4642461B88D3826B465A8962
:1035D00043461A8331687B1A9A4200D971E7404604
:1035E00061181A3004F0F1FC32686B4694465B892E
:1035F00063443360D5E70023994673E7F0B583B0A1
:1036000004001F006B46D81D23780D00DB07DB0F7D
:1036100003703B00160000F0C3F9002805D1201DFF
:103620003B003200290000F069F903B0F0BDC0464C
:1036300030B585B00193089B099C002B07D0002C66
:1036400005D02368072B04D8092005B030BD0E2013
:10365000FBE7AA23089D2B7013006870000AA8706E
:10366000581E8341EB70002A1BD02368052BEBD931
:10367000138806222B711B0A6B7107232068834273
:10368000E2D803934B1E9941089B01A899542268E4
:1036900003AB089900F032F90028D6D1039B2360D0
:1036A000D3E705230422E9E7F0B5040085B00D0057
:1036B00017001E00002816D00A9B002B13D00023F1
:1036C00003930A9B0A00009303A9AA2300F0CEF8F3
:1036D000002809D10A9B1B68002B07D0039B9D4241
:1036E0001CD0092000E00E2005B0F0BD039B033381
:1036F0009D42F6D30A2329006B4403AA200000F060
:103700003FF9039B591CE35C0391012B08D0002E69
:1037100002D06B465B8933808D42E2D10020E3E723
:10372000002FE0D0002EDED06B465A8933880C2063
:103730009342D9D38B189D42D3D36118380004F03B
:1037400044FC6B465989039B31809C466144E3E706
:1037500030B585B00193089B1500099C002B07D05C
:10376000002C05D02368072B04D8092005B030BDF4
:103770000E20FBE7A923089A1370042303930B0080
:103780005070000A90705A1E9341089AD370002915
:1037900018D0802307209B009D42E7D82B00226889
:1037A0000A339342E1D8089B089A1D712B0A537182
:1037B0000623901D2A00039304F007FC039B9C46FC
:1037C0006544039503AB2268089901A800F096F8B8
:1037D0000028CBD1039B2360C8E7C04610B5130077
:1037E000A92200F069F810BDF0B5474680B4040086
:1037F00086B00F0016001D000E20002C30D0002ACD
:103800002ED0002B2CD0002304932B6804AA9846BA
:1038100002232B600C336B44200000F09FF800283B
:103820001ED1331D04AA3900200000F097F80028AB
:1038300016D143462A6806369B1A0593009605ABB7
:1038400004AA3900200000F063F9002808D1059A85
:103850002B68944663442B60049B09309F4203D03D
:1038600006B004BC9046F0BD0020F9E730B5041E58
:1038700020D000291ED0039800281BD00C20042A39
:1038800019D90A680138A55C9D4214D1A418651C99
:103890006A786478AB78120222431B0413431A003F
:1038A000EB7800201B061343039A13600B68053363
:1038B0000B6000E00E2030BD70B5002806D0002B54
:1038C00004D00C24042903D8200070BD0E24FBE78B
:1038D0000578013C9542F7D1461C45788078B2784E
:1038E00000022843120402431000F2780C2412064E
:1038F00002431A600529E7D10024E5E730B504004A
:10390000002916D0002814D0002B12D01D680920E1
:10391000521B032A0ED922684919100A0A704870EE
:10392000100C120E8870CA701A68002004321A60D7
:1039300000E00E2030BDC04630B51C680500121BEB
:103940000920012A08D900202A880C192270120A9D
:1039500062701A6802321A6030BDC04630B5146811
:103960000925091B012909D9002504196178207846
:10397000090201431980136802331360280030BD27
:1039800030B51468A51C8D4208D8041961782078D8
:1039900009020143198013680233136030BDC04629
:1039A00030B51C6805000920944205D000202A7813
:1039B0000A551A6801321A6030BDC04630B5146825
:1039C000050009208C4205D00020295D197013687C
:1039D0000133136030BDC04630B51468651C8D429C
:1039E00004D8015D197013680133136030BDC046FF
:1039F00030B51468651C8D4204D8015D19701368D8
:103A00000133136030BDC046F8B5150012688C1A3A
:103A1000012C16D9069C8218268854781278240224
:103A20002243069C22802C68A21C2A60914208D066
:103A30000334A14207D2002B22D0002200201A60BA
:103A400000E00920F8BD069F825C3F882C60012AB7
:103A5000F1D1002B12D01B68002B0FD0BE42F0D347
:103A6000091B8F42EDD801193A00180004F0ADFA95
:103A70002B6800209C4667442F60E3E70E20E1E7B7
:103A80000020DFE770B5150004AA1488002B06D0CB
:103A90002E680922891B8C4203D9100070BD0E22AA
:103AA000FBE722008119180004F08FFA2B6800222E
:103AB0009C4664442C60F0E7F8B51E0013680700CC
:103AC00015000C00CA1A0920022A00D8F8BD3300DC
:103AD0002A003800FFF754FF3800B31C2A002100E9
:103AE000FFF77AFF0020F1E770B51C001B6809257D
:103AF000D21A0F2A01D8280070BDCB18102201005D
:103B0000180004F062FA2368002510332360F2E7FE
:103B1000F0B546464F46C0B4050083B0884616004F
:103B20001F000E2400281BD0002A19D0002B17D00C
:103B30001B68994613686A460193002353806B46BD
:103B400001AA0233FFF70AFF041E09D16B465B8806
:103B50000A9A04333B60002A02D0994506D2092410
:103B6000200003B00CBC90469946F0BD13004146BE
:103B700032002800FFF7F2FE041EF1D10A9B32004A
:103B8000023341462800FFF7E9FE041EE8D10A9BF4
:103B900031681A8843465B1A9A42E0D80A9B691832
:103BA000181D04F012FA32680A9B94461B8863447D
:103BB0003360D5E710B504000E20002906D0002B95
:103BC00004D0002C02D02000FFF718FD10BDC04625
:103BD000F0B5474680B4060084B00F0014001D0005
:103BE0000E20002A10D0002B0ED0002303932B6848
:103BF00003389846632368440370424603AB2100B0
:103C0000FFF7CEFE002803D004B004BC9046F0BD00
:103C10000A4B42460093210003AB300000F040F80D
:103C20000028F1D1009003AB42462100380000F09B
:103C300037F80028E8D1039B2B60E5E7E93A00005C
:103C4000F0B5040085B00F0016001D000E20002CFA
:103C500015D0002B13D0002A11D000230A000393A3
:103C60000095633303A92000FFF700FE002806D16A
:103C70002B68002B05D0039B9F420DD0092005B077
:103C8000F0BD064B03AA009339003300200000F07A
:103C90001FF80028EFD0F2E70020F0E7BD39000060
:103CA00070B51C680500092094420ED02800461EFD
:103CB000B0410855186801301860002D06D00498EE
:103CC000002803D004002800A04770BD0020FCE7B6
:103CD000F0B5474680B41F001368060082B00C00A0
:103CE000150009208B4203D102B004BC9046F0BD00
:103CF00007236B4498463000FFF76EFE43461B785F
:103D0000012B07D00B20002BEED1002F10D03B60F1
:103D10000020E9E7002F0DD03B68002B0AD0089A5D
:103D2000002A05D021002A003000089CA047DBE7CC
:103D30000020D9E70E20D7E7EF23A0220321DB00E4
:103D4000D205D1508022A3210123D205C9005350AE
:103D5000822100204900505093605358002BFCD022
:103D60008223802200215B00D2050020D1507047C1
:103D700010B501F06FF910BD8021A022024BC905DA
:103D8000D205D1507047C0460C0500008021A12308
:103D9000A022C905DB00D205D1507047C5220549D4
:103DA00092008858044B0340C020000403438B500A
:103DB0007047C04600E100E0FFFF00FF8021802344
:103DC000024AC9035B00D1507047C04600E100E0E1
:103DD000014B18787047C046A4000020A023802221
:103DE0000121DB00D205D150FEE7C046F0B54746C1
:103DF00080B488B005AC01900291039200210C229E
:103E00002000FCF705FA052323706B461B79062B6F
:103E100014D8794A9B00D3589F4601236A462370E1
:103E200012898033FF33754D9A4200D96FE02B78A9
:103E3000012B00D1AFE0042B00D17EE00022002155
:103E4000002000F05DFC08B004BC9046F0BD0423E7
:103E50002370033B23716A4B05981B686168A26855
:103E60009847F0E7022204232271029A23700092FD
:103E7000A260644A1178032966D0604D2E78022E24
:103E8000E9D1039F2B7000F0EBFA002F00D194E0F2
:103E900010225D4B90469F4200D194E000F0DAFA88
:103EA00000220021404600F02BFCD4E7554B1A7845
:103EB000032AC3D1023A1A7000232370CBE74F4A7A
:103EC0001378022BBAD1042123706B46117002992A
:103ED000059861609B892381494BA2681B689847BC
:103EE000B1E7464D2B78032B3BD0062BA6D1033BE5
:103EF0002370434B05981B686168A26898470423A8
:103F00002B70A0E70423237000232371A3E72B78F1
:103F1000012B30D0042B00D090E707CC384B1B6826
:103F20009847002000F07AFA002803D000220021F0
:103F300000F0E6FB06232B7085E7314B07CC1B68AE
:103F4000984705232B707EE71370039B002B32D01C
:103F50002E4910208B4233D00022002100F0D0FBEC
:103F600079E72370264B05981B686168A26898471B
:103F700001232B7067E7224B07CC1B689847002072
:103F800000F04CFA002803D00022002100F0B8FB1A
:103F900003232B7057E71A4B07CC1B6898471A4826
:103FA00000F03CFA002803D00022002100F0A8FB1A
:103FB00002232B7047E70E20CEE70E2398466DE7CD
:103FC0000123137047E72B78042B12D0062B10D057
:103FD00008229046052B00D060E7380000F01EFA5A
:103FE00003239846002800D058E72E7000F032FADC
:103FF00031E7033B2B70F9E780830000AC00002021
:10400000A8000020B003002030020020B0000020F3
:10401000F8B50F4C020023780820002B00D0F8BD23
:104020000C4E3578002DFAD10630002AF7D00A4F11
:1040300001330A48237033703A6000F0A7F9002872
:10404000EDD0257035703D600728E8D00320E6E705
:10405000AC000020B0030020A8000020ED3D0000CF
:1040600070B5040000F0FCF9002C07D0104B1025AF
:104070009C4205D000F0EEF9280070BD0E25F9E74E
:104080000C4E3378042B0BD0062B09D00825052BBA
:10409000F0D1200000F0C2F9051E05D00325E9E7A4
:1040A000033B33700025E5E702233370E2E7C046A7
:1040B00030020020AC00002010B5002808D00029F4
:1040C00006D00A4C08232278002A03D1180010BD1C
:1040D0000E23FBE7043B012AF8D1023B2370044B7B
:1040E0000360C0235B000B800023EFE7B0030020D8
:1040F000B0000020F8B505000E0000281FD00724EE
:10410000002901D12000F8BD104B09349842F9D1A3
:10411000C023043C5B009942F4D80D4F043C3B782B
:10412000022BEFD100F09CF93100280000F04CF98F
:10413000041E06D103233B7000F08CF9E2E70E2445
:10414000E0E71128F8D00324F6E7C046B0000020CD
:10415000B003002030B51F4885B00168002915D094
:10416000C22380241C4A9B00D4501C4D1C4C2A881E
:104170002388934215D0012B27D9934208D30133CA
:104180002380C1238021144A9B00D15005B030BD4B
:10419000CB18023B187800F0D7FE0028F1D1238815
:1041A000EDE70023238003602B800E4B00221900D3
:1041B0001A7001AA31C931C20B4A1468002CE0D030
:1041C000019859689A68A047DBE7084AD05C00F07C
:1041D000BBFEE2E7BC03002000200040D803002023
:1041E000C0030020E4030020B4030020E00300200B
:1041F000F0B54F464646C0B48BB000280BD00378CC
:10420000032B49D0042B0BD0022B48D000220021D5
:10421000032000F075FA0BB00CBC90469946F0BD37
:10422000514B1A78002A06D1E621A024C900E405E2
:10423000625001321A704D4B4D4C19689846007906
:104240002388002973D04B4A91461288934263D247
:10425000494FB94271D0CF180133023F9BB2387039
:1042600023809342D7D1454B023A1A8102225960EA
:104270001A70414600220A6049460A8019002280CD
:1042800007AA31C931C23E4A1468002CC3D007982E
:1042900059689A68A047BEE7FFF75CFFBBE7416833
:1042A0008B07B8D00023314A1360324A1380304A5A
:1042B0001380324B062218001A70596001AA70C888
:1042C00070C22F4A1468002CA5D001989A68A047A4
:1042D000A1E7C223042001272A4A9B00D05070780E
:1042E000030230781843821C224B92B21A809946FE
:1042F000224B1F701F00988004A89C4668CF68C09E
:104300001F480768002F2CD0634604989A685968A4
:10431000B8474A4623881288934200D07BE7434639
:104320001968154B99429ED10322144BA0E7012B2B
:104330000BD9104A9146128893E701339BB208705B
:1043400023809A4200D066E7EEE75A1C0E4E92B2E6
:104350002280F054022ABCD0064B99461A880123C9
:104360007FE702237DE7C046BA030020C403002094
:10437000B2030020C8030020DC030020CC0300208F
:10438000B403002000200040B803002070B5041ED4
:1043900005D00A4D08202B68002B02D070BD0E20DE
:1043A000FCE70233064A0021064800F087FD2C6036
:1043B000002801D00720F1E70020EFE7B403002038
:1043C000F14100009C83000070B500281CD0072339
:1043D000002901D1180070BD0C4A0A331468002C62
:1043E000F8D10B4C2588002DF4D10A4D2D88002DD5
:1043F000F0D1094B0D0A19705D70023110602180F7
:10440000FFF7A8FE0023E5E70E23E3E7BC03002047
:10441000D8030020C0030020E0030020094B1A78D5
:104420000823012A01D018007047002808D0064B45
:1044300004211860C123054A9B00D1500023F2E7F4
:104440000348F4E7CC030020C40300200020004010
:10445000DC0300200422014B1A60704700E100E0F9
:1044600004218023014AD1507047C04600E100E09A
:1044700070B584B00190C0B202910392012836D089
:1044800000282DD0022811D004280DD1274B1A78EE
:10449000002A09D00321264A116000221A70254BF8
:1044A0001B68002B00D0984704B070BD6B46029C7F
:1044B0009989002CF8D00029F6D025780139601CA4
:1044C00089B2022D2DD0042D17D0012D15D020003A
:1044D000FFF7C6FD00220021280000F011F9E3E7F4
:1044E000FFF776FC0028DFD0FFF778FCDCE7124B03
:1044F0001B68002BD8D09847D6E70C4E3378002B9A
:10450000E5D00E4B1B689847094B18602000FFF759
:10451000A7FD00233370074B1B68002BC4D09847BE
:10452000C2E7074B1B689847BEE7C046F003002070
:10453000080400200004002004040020F8030020E8
:10454000FC03002010B5040008480160084907205A
:104550000A60084A13600022074B1A60074B1C6070
:10456000002C02D00648FFF753FD10BDF4030020D5
:1045700000040020040400200C040020FC030020A0
:1045800071440000014B1878C0B27047F00300205E
:1045900010B5054B1A781123002A01D0180010BD60
:1045A000FFF78AFD0300F9E7F003002010B501389A
:1045B000FFF756FD10BDC046012370B50F4E150024
:1045C00033700F4B1A60FFF795FD041E0DD1002DBF
:1045D0000FD00C4D2B68002B01D098472C600A4B54
:1045E0001B689847094B1C6805E00022002100F079
:1045F00087F800233370200070BDC046F003002010
:10460000F80300200C040020F4030020080400201C
:104610007047C04610B500F0A9FFFFF7B3FF0028B0
:10462000F9D110BD482310B594B0019302AA01AB93
:104630000400FCF715FA002817D12000FFF7B6FF99
:1046400000280DD102A90B4800F072F8002803D011
:104650000022002100F054F8FFF7B0FB14B010BDA9
:104660000022002100F04CF8ECE70022002100F0CD
:1046700047F8E2E7A88300000520704770B5040002
:104680000D000100074800F095F8002801D0052032
:1046900070BD63882A889A4201D20C20F8E72B80EB
:1046A000F6E7C046A883000010B5FFF745FB041EDF
:1046B00001D0200010BDFFF75FFB3220FFF758FB51
:1046C0000B4800F029F8041E02D0FFF767FBF0E763
:1046D0000023084A08490948FFF734FF041EF4D1B3
:1046E000FFF754FBFA204000FFF742FBEDE7C0461E
:1046F000A883000011460000154600002546000072
:10470000BFF34F8F024A034BDA60BFF34F8FFEE7D0
:104710000400FA0500ED00E00023426813704268CF
:1047200053704268937042680020D3707047C0464F
:10473000F8B54F464646C0B4036844689846837A45
:104740000F009946058900F06FFBA3780026994574
:1047500016D060780133421CA370D3B2994524D09F
:104760002A1D5043404463702A0020C0390003F0E2
:104770002CFC00F061FB30000CBC90469946F8BD63
:10478000E3780436002BF4D04B462278013B01320B
:10479000D2B2DBB291450AD0607801332270421C5C
:1047A000A370D3B204269945DAD10023D8E70022BA
:1047B000F2E7C046F8B54F464646C0B403684568C0
:1047C00098460E000489877A00F02EFB0423AA780D
:1047D0009946002A06D100F02FFB48460CBC9046B3
:1047E0009946F8BD2B78211D59430133013ADBB2BC
:1047F0004144AA709F4209D02B7004C930001204B2
:10480000120C03F0E2FB00239946E4E70023F3E7F0
:1048100080218023184A8902D1508022D221174B4F
:10482000520289005A5040395A5001222F205A60B2
:104830000138C046C046C046C046C046C046C04615
:10484000C046C046C046C046C046F1D19A6000236B
:104850000B4A2F2013600138C046C046C046C046F0
:10486000C046C046C046C046C046C046C046C04618
:10487000F1D1044A1370704700E100E000100140DC
:1048800090050020B0050020A021F0B50023474688
:104890002C4A490080B453500431535004315350D2
:1048A000043153504C39535004315350264B1B683C
:1048B000002B37D02549002652582549254F0C6832
:1048C000141B00222402240A904602E0002D1AD074
:1048D0002B001A68A24216D8A41AB6181A7CDD69F1
:1048E000002AF3D0424699691A745A693B68002B32
:1048F0001BD0100098470028E8D000220021FFF7C5
:10490000FFFE002DE4D1144B14491A780B789A421B
:104910000ED0134A9B009E5080218023114A4903E8
:104920005B00D15004BC9046F0BD08009047CDE735
:104930000132D3B2022B01D00B70EAE700230B70D7
:10494000E7E7C04600100140940500200405000080
:104950009005002098050020A4050020A505002052
:10496000A805002000E100E0F0B55F4656464D4640
:104970004446F0B4C24BC34A1B68C3498BB005938D
:1049800009781378994200D154E10133DBB2022B4C
:1049900000D100231370BD4A9B009B58B84A9A4629
:1049A000059B53441B021B0A136001230193B84B60
:1049B00000241B689B46B74B5A461B78914619004A
:1049C00088460393B44B47461B68013F0493AC4BA6
:1049D0001B680893B14B1B78079300230993069338
:1049E0001E00FBB29846FF2B32D04346D800049BF2
:1049F0009C46130060440178457800961A00A9424D
:104A00001FD046684A00B446521886780131D20059
:104A1000C9B262448E4200D1EBE01678022E00D17A
:104A2000C5E0032EEAD1002BE8D01C74DB69002B13
:104A3000FBD1013345780093002399461A00A9421F
:104A4000DFD14746013FFBB2009E9846FF2BCCD1F9
:104A50000292002E00D0F1E0069B002B02D0884B82
:104A6000089A1A60099B002B03D06A468B4B127F71
:104A70001A70019B002B00D02AE15B46029A0025A8
:104A80009B1A5A1E9341DBB205937D4B00271B688E
:104A900002999C467E4B1B689B46804B1B78069375
:104AA000002301937E4B994601230093039B013B16
:104AB000DBB20393FF2B00D1F6E0049ADB009246B1
:104AC0000E009A44002D28D06A68A9682C00ED6970
:104AD0006346D31A1B021B0A4B4552D86A4612780A
:104AE0005B1823606760A7602274E761002E58D0CE
:104AF00031683000994205D3B6E01168994200D37D
:104B0000A0E01000C2695B1A002AF6D1E26132000F
:104B10002360C4611600002DD6D153461A785B7805
:104B200031009342C2D051464968530088465146ED
:104B30009B180132D2B20A708978DB00434491425B
:104B400000D19AE0197832000129E3D15C68227C17
:104B50009046414632000029DCD19A686260D968EB
:104B6000A1601869E0605B69A361069B002BAFD070
:104B70004346002263606346D31A1B021B0A4B455F
:104B8000ACD963469A1A1202120A8A4261D28B1A6F
:104B90006A46127823606760A7602274E761002E7E
:104BA000A6D122000123A34601931600B3E756685D
:104BB000002B30D09E421ED0009A1F00944602E087
:104BC000964206D01700FA69002AF9D1624600928F
:104BD00014E765460095BA420FD01568D269FA61AC
:104BE000002A16D013689C466544156045784B46EC
:104BF00004E7002111E71A001F00DE69002E0CD027
:104C0000012500951568D269B1463300FA61002A82
:104C1000E8D14578F2E60023F0E60125214B9D60BE
:104C200009950795069500250023089501359946B5
:104C30000095D2E700239A460193B8E64A46144B02
:104C40001A6009E7C91A1160E26123603200C46189
:104C500060E76B461B7827606760A7602374E76195
:104C6000002E9ED000233168CB1A3360220001232E
:104C7000E661A346019316004DE75246157061E7C1
:104C800090050020A4050020A5050020A80500200F
:104C9000940500209C050020A0050020A60500200A
:104CA000FEFF7F0000100140019B002B00D09DE023
:104CB000029B994236D1059B002B33D10023534AE6
:104CC00013700BB03CBC90469946A246AB46F0BD73
:104CD0004F4B002418680025029B002100265746F0
:104CE00015E01A68BA4200D984E0D868BF1A89185A
:104CF0001E60DC69002807D0DD611D00059A986000
:104D000052181202120A5A6023002000019C002B44
:104D1000E7D1002C01D03E4B1860002302930133F1
:104D20000593B2E6002900D15DE00B68394898464A
:104D3000394B3A4DC4583A4B2E781B68E11A090298
:104D4000090A0331002E2DD042468A4200D20A00C1
:104D5000A820D21812022F49130AC0002E4D0B5062
:104D60004A591B1B121B1202120A1B0203321B0A96
:104D70009A42A3D94B590B502F200138C046C04648
:104D8000C046C046C046C046C046C046C046C046F3
:104D9000C046C046F1D180218023224A89025B00AF
:104DA000D1508BE78026D1277602BF00C651403F05
:104DB000C651C02280271B4EBF025200B750376039
:104DC000012606602F200138C046C046C046C046B6
:104DD000C046C046C046C046C046C046C046C046A3
:104DE000F1D12E70B0E7FFF713FD67E75A46084B85
:104DF0001A605DE7BA46002C01D0054908605146AB
:104E0000521A1A600293012305933EE6A60500207C
:104E1000940500200010014004050000B0050020AA
:104E20009005002000E100E072B6024A13680133E9
:104E300013607047B4050020034A1368013B1360F8
:104E4000002B00D162B67047B405002010B504787D
:104E500084B0012C0CD0022C1BD0002C06D10323D3
:104E600002AA1370124B10001B68984704B010BDC3
:104E7000042302AA1370436801211B780D481371A3
:104E800000F026FA0C4B02A81C70094B1B689847CF
:104E9000ECE702AB1C70C368012106480193039341
:104EA00000F016FA024B02A81B689847DEE7C046DE
:104EB000BC050020C0050020C1050020F0B589B068
:104EC0006D461C499C46C8C9C8C5C8C9C8C548C99B
:104ED00048C581686C4606910579634629004E1ED7
:104EE000B1412377217543790E215E1EB3415B42A8
:104EF00019406175C3780293837803930378019313
:104F00004378062000930C4B1A6000220B4B1A705A
:104F1000022D01D109B0F0BD0949684600F0F6F84C
:104F20000028F7D100F04CFA0121064800F0D0F932
:104F3000F0E7C046B4830000BC050020C105002096
:104F40004D4E0000C0050020084B10B5012118701F
:104F5000180000F063F90422112805D00300581E40
:104F60008341013A5B421A40100010BDB805002091
:104F7000F0B55F4656464D464446F0B4824683B08F
:104F80008B46002A2DD0013A92B201329300019350
:104F9000184B802500279846174E184CED005B46AD
:104FA000DB5999463378002B04D000F0DFFA3378D0
:104FB000002BFAD101234246A3506359002BFCD0A9
:104FC00053464A46DA516359002BFCD00022414631
:104FD0000A4B5A506359002BFCD0019B0437BB424B
:104FE000DDD1002003B03CBC90469946A246AB46BA
:104FF000F0BDC04604050000C205002000E00140ED
:10500000802310B5022280245B051B690F491B0415
:105010001B0C58430E4BE400CA500A590B4B002A94
:10502000FBD0A122D200985080201A00C000115855
:10503000064B0029FBD00021054A99508021C90068
:105040005A58002AFCD0002010BDC04600E00140A4
:105050000405000082B00190019B002B14D0019B3D
:105060000A48013B01930138C046C046C046C046CD
:10507000C046C046C046C046C046C046C046C04600
:10508000F1D1019B002BEAD102B07047E703000089
:10509000F0B500281EDBFF261A4B37009C46032381
:1050A0008208C025C0B20340DB0089019F40314027
:1050B000994092006244AD005459BC432143515180
:1050C0001F23C02118401E3B83400E4A4900535005
:1050D0001360F0BDFF250C4A2E00944603220F23D7
:1050E000C0B20240D200890196402940914003405D
:1050F000083B9B089B006344DC69B4432143D961AE
:10510000DEE7C04600E100E000ED00E0F0B5574604
:105110004E464546E0B4394C0300A27D0820002AE3
:1051200004D01CBC90469946A246F0BD002B62D02C
:105130001A68A0200325C132FF32C0059200155025
:105140000122AA461D68AA40A125ED004251A946A8
:1051500000255A68AC46C132FF32920015509E6954
:10516000274A284D56515D7DA84646461D7D35434C
:10517000254E95515D681E68A846244D56514646F9
:10518000234D56511D7D012D1AD19E683700E02612
:105190007600B0464744BE0067463750C137FF37F8
:1051A000B8465746DE684644B6003750DE68B5401C
:1051B0004E468551D8689D689051A220C000155078
:1051C0001A6961602260002908D0197FC123114843
:1051D0000B4A9B00D0500220FFF75AFFA023042166
:1051E000074ADB00D15000230122E374A374A275A7
:1051F0006375002095E70922074B9AE7C405002054
:1052000000200040240500006C0500000C05000093
:105210001405000080000200D4830000F0B5264A87
:105220000400937C1120002B00D0F0BD0125917467
:1052300022482349138294600B6005600B60138A37
:10524000E05C138A1F4C01339BB213821E4BE0506B
:105250005068002801D00020E7E7002726001D0045
:105260000130FF30947C138A9C4203D812E0138AE9
:10527000834202D00B68002BF9D0138A8342F2D00C
:105280000F60138A9468E45C138A01339BB2138223
:105290007451E7E78023118A5B0099420AD00849DC
:1052A0000B68002BFCD001210020084B1960002363
:1052B0009374BAE70F20FAE7C405002008200040E5
:1052C0001C210040002000401C0500000C20004074
:1052D000F0B5474680B4344B1122DC7C002C03D05F
:1052E000100004BC9046F0BD5A7DD974D8601C757E
:1052F000002A0AD05A68002A0FD08121C1232B4AE4
:1053000089009B00D1500022EAE729490A60294917
:105310000A600121254A1160ECE7244A244E944694
:10532000A322D2009046234C234D316820682A687E
:1053300000280BD1002A28D10029F6D000221E49CE
:105340000A601B490A60DA740332C9E70029F5D103
:10535000002A1CD1474660462260197DC059DF688B
:105360007854197DD87C0131C9B21975197D8842EC
:10537000DBD811490A600E490A60DA745B7D002BA4
:105380000DD00121094B1960AAE70029D6D10022CE
:1053900009490A6006490A60DA740F32A0E7012160
:1053A000064B19609CE7C046C40500200020004061
:1053B00024210040082100404421004004200040F6
:1053C000064A537D002B07D105490B6005490B6048
:1053D000054901330B6053757047C046C405002072
:1053E000242100400821004000200040C12210B5C7
:1053F000514B92009A5884B092054CD54F4A11688F
:10540000002948D0002111608121C2228900920028
:1054100099504B4B5A7D002A02D10121494A116013
:10542000022269460A7090214348C90042584250FE
:1054300069460392DA7C68460A72DA681968019252
:105440000022DA745B6898473F4A1368002B10D03B
:105450003B4B188A997C814251D9002111601A8AEC
:105460009968895C1A8A013292B21A82374B324AA1
:10547000D150374B1A68002A0BD000221A60304BEB
:105480005A7D002A02D001212B4A1160DA7C002AC1
:1054900044D104B010BDC123274A9B00D3585B07F9
:1054A000D2D52C4B19680029CED00021A324196035
:1054B000234BE400187DD96812590A541A7DD87C10
:1054C0000132D2B21A751A7D9042BDD15A7D002A9E
:1054D00002D101201B4A10608124C2221648A40078
:1054E000920084506C461A7D0120227200222070A6
:1054F0000191DA74196868465B689847A4E7002050
:1055000010600029B5D06A46107011729A689874BC
:10551000196801925B6868469847AAE768461A7D51
:1055200001210272DA680170019200221968DA74AE
:105530005B689847ADE7C04600200040242100404A
:10554000C4050020042000401C2100401C05000070
:1055500044210040082100401F2318401E3B834087
:10556000014A00201360704700E100E020BF0020E6
:105570007047C046002210B50F4B1A600F4B586998
:10558000431C14D080235B0519690904090C02F03F
:1055900081FC802301225B051B6902381B041B0C64
:1055A0005843074B1860074B00201A7010BD80232A
:1055B0005B055869EDE7C046EC05002000100010BF
:1055C000F4050020F0050020F8B54F464646C0B46B
:1055D0002E4B04001B780D000820002B03D10CBCBF
:1055E00090469946F8BD002C4BD0002949D023683D
:1055F000002B46D0802149050B69A2889BB2013857
:105600009A42ECD80F2AEAD9E688002EE7D0204B40
:1056100056431F689846F31999461E4B5869431C18
:1056200031D009690904090C02F034FC80225205CA
:10563000136901381B041B0C434307209945CED83E
:1056400013699BB2B342CADB134B03389C461B68F9
:10565000012BC4D088C511481D01266841194F602F
:105660002E50A0880881E088488101208881126935
:105670001B1892B2D7194246176062460020136089
:10568000ADE70E20ABE74869D0E7C046F005002043
:10569000F405002000100010EC050020DC050020BF
:1056A00030B5114B1C780823002C01D1180030BDF7
:1056B000002806D0002A04D00368002B03D007235B
:1056C000F4E70E23F2E7094C2568002DF7D0258971
:1056D0004068694309186089454360682D18A942EC
:1056E000EDD213605160E1E7F0050020DC050020F9
:1056F000F0B54F464646C0B41700224A050012785E
:1057000083B00E000820002A04D103B00CBC9046E0
:105710009946F0BD002933D0002D31D02A680138D8
:10572000002AF2D1184C2268002AEED06A6821893A
:10573000944662894A439146626890464A4642448A
:105740006245E2D9002FE0D0B942DED3FA18914287
:10575000DBDB0930B207D8D19A07D6D16344BA0847
:1057600018003100FFF704FC80462B6800971B01EE
:10577000E7580200330028000121B8474046C4E73B
:105780000E20C2E7F0050020DC050020F0B55F46E2
:1057900056464D464446F0B41C00634B05001B784A
:1057A00085B00E0017000820002B06D105B03CBCC8
:1057B00090469946A246AB46F0BD002900D1AAE02A
:1057C000002D00D1A7E02B680138002BEED1574BFC
:1057D00099461B68002BE9D04B4649461A896B68ED
:1057E000496898464B468C465B895343634443451E
:1057F000DCD9002FDAD0BA42D8D33B199A42D5DB94
:105800004B4B5869431C00D187E080235B05196925
:1058100089B202F03FFB824680235B051A691020A3
:1058200093461A69029203221642BFD11442BDD197
:105830003F4A5069421C75D0196989B202F02AFBAF
:105840005B466A46938153469289013B53439B468C
:105850006B4642461B89A2185B421A4043469B1A7C
:105860009B10A4081C19A3B28024640598462369E0
:1058700021699BB20138584389B2924602F00AFB73
:10588000C0B2FFF7BDFB236903934346002B06D04C
:10589000424651465846FFF76BFB041E2FD1424645
:1058A000BB08900058441A0031000293FFF760FBD8
:1058B000041E24D16B469A8943469208D21A029B51
:1058C000D21A92B2002A08D04344980053461918BD
:1058D0005844FFF74DFB041E11D180246405216953
:1058E000504689B202F0D6FAC0B2FFF789FB2269AE
:1058F000594692B292085046FFF73AFB04004A46D6
:105900002B6800971B01D758280033002200042180
:10591000B84720004AE70E2048E780235B055B6913
:105920009A4679E758698BE7F0050020DC050020EE
:1059300000100010F0B54F464646C0B41700254A87
:1059400083B0127806000D000824002A05D120003B
:1059500003B00CBC90469946F0BD002906D0002843
:1059600004D00C68002C03D00724F0E70E24EEE7E7
:10597000194A90461268002AF6D042461089528988
:105980004968424391464246526894464A466244B8
:105990008A42E9D9002FE7D0B842E5D3FA189042FD
:1059A000E2DBB20701D01024D1E703221A4091466E
:1059B000F9D159183A00300002F007FB42462B6833
:1059C00000971B01D758022133004A462800B847E8
:1059D000BDE7C046F0050020DC050020F0B54F46CD
:1059E0004646C0B4264B06001B7885B00F00082041
:1059F000002B04D105B00CBC90469946F0BD002E9A
:105A000038D033680138002BF4D11E4B98461B6800
:105A1000002BEFD080235B05196970680904090C1D
:105A200002F038FA43469B898146002B24D000259A
:105A300008E04246336801351B01D2189289ADB2A5
:105A4000AA420DD94B466A46D373D07BFFF7D8FAEA
:105A500001239C460400E1440028EAD033681B017E
:105A600042460097D5583000002322000321A84762
:105A70002000BFE70E20BDE700240023F0E7C0466A
:105A8000F0050020DC0500207047C046002801D04A
:105A900000230360002070477422F0B5414E438814
:105AA000B25A85B09A4200D16BE0F622B25A9A42BD
:105AB00000D168E0BC225200B25A9A4200D164E0A0
:105AC000FD225200B25A9A4261D09F229200B25AED
:105AD0009A425ED0344AB25A9A425CD0E022920096
