:10000000008000209D040000E5040000E7040000DB
:1000100000000000000000000000000000000000E0
:10002000000000000000000000000000E9040000E3
:100030000000000000000000EB040000ED040000E0
:10004000EF040000EF040000EF040000EF040000E4
:10005000EF04000000000000EF040000EF040000C7
:10006000EF040000EF040000EF040000EF040000C4
:10007000EF040000EF040000EF040000EF040000B4
:10008000EF040000EF040000EF040000EF040000A4
:10009000EF040000EF040000EF040000EF04000094
:1000A000EF040000EF04000000000000000000006A
:1000B0000000000000000000000000000000000040
:1000C00010B5064C2378002B07D1054B002B02D02E
:1000D000044800E000BF0123237010BD6800002029
:1000E0000000000010050000084B10B5002B03D0E5
:1000F0000749084800E000BF07480368002B00D10B
:1001000010BD064B002BFBD09847F9E7000000001C
:100110006C000020100500006800002000000000B6
:10012000164B002B00D1144B9D46402292029A1A86
:10013000924600218B460F461348144A121A00F0CB
:1001400067F80F4B002B00D098470E4B002B00D0C8
:1001500098470020002104000D000D48002802D01F
:100160000C4800E000BF00F02DF82000290000F04E
:1001700021F900F011F8C0460000080000800020BE
:100180000000000000000000680000208400002043
:100190000000000000000000084B10B50400002B18
:1001A00002D0002100E000BF054B1868836A002BD5
:1001B00000D09847200000F033F8C046000000004F
:1001C000080500000E4B70B500251E000D4CE41A0A
:1001D000A410A54204D0AB00F35898470135F8E7C6
:1001E00000F086F9084B00251E00084CE41AA41004
:1001F000A54204D0AB00F35898470135F8E770BD2D
:1002000060000020600000206000002064000020EA
:1002100003008218934202D019700133FAE7704745
:10022000FEE7C04680B500AF00F01CF8031E06D004
:10023000094B0A4A1A600A4B802212021A6000F027
:1002400051F8031E05D08023DA05C123DB0001210C
:10025000D150C046BD4680BD04050040DFFF07C049
:10026000186C004080B500AF1A4B1B68FF2213408A
:10027000012B2AD1184B1B680F22134025D1174B95
:100280001B68F022134006D1154B1B68F022134067
:1002900001D101231AE0114B1B68F0221340102BEF
:1002A00006D10F4B1B68F022134001D101230DE052
:1002B0000A4B1B68F0221340302B06D1084B1B68F9
:1002C000F022134001D1012300E000231800BD46B5
:1002D00080BDC046E00F00F0E40F00F0E80F00F032
:1002E000EC0F00F080B500AF0D4B1B68FF221340F0
:1002F000012B11D10B4B1B680F2213400CD10A4B61
:100300001B68F0221340402B06D1084B1B68F022DB
:10031000134001D1012300E000231800BD4680BD39
:10032000E00F00F0E40F00F0E80F00F0EC0F00F039
:1003300090B583B000AF78600C0010001900FB1C72
:10034000221C1A70BB1C021C1A707B1C0A1C1A701F
:10035000A023DB05FA1C1178BA1C12785200114355
:100360007A1C1278920011431822BA1812781202DD
:1003700011431C22BA181278120411437A68C13250
:10038000FF329200D150C046BD4603B090BDC0467A
:1003900080B584B002AF78607868002301930023B1
:1003A0000093002301220121FFF7C2FFC046BD4692
:1003B00002B080BD80B584B000AF0023FB600EE0CA
:1003C000F0235A04FB681A4113000122134003D0A2
:1003D000FB681800FFF7DCFFFB680133FB60FB687C
:1003E0001F2BEDD90023BB602AE0A023DB05164AB2
:1003F0009B587B60A023DA051449BB68CB181B7897
:10040000190001238B4019007B68DB431940A123AD
:10041000DB00D150A023DB050C49BA688A1812789A
:10042000110001228A4011007A680A4008495A5096
:10043000FA235B00180000F00DF8BB680133BB60C5
:10044000BB68032BD1DDCDE7040500000C050000DF
:100450000C05000080B584B000AF786014E07B68C4
:10046000013B7B600C4BFB60FB6818000138C04609
:10047000C046C046C046C046C046C046C046C0464C
:10048000C046C046C046F1D17B68002BE7D1C046CC
:10049000BD4604B080BDC046E703000003210A4802
:1004A00002680A430260094802680A430260084978
:1004B000084A094B9B1A03DD043BC858D050FBDCAB
:1004C0000648804706480047240500405405004080
:1004D0001805000000000020680000202502000030
:1004E00021010000FEE7FEE7FEE7FEE7FEE7FEE78C
:1004F000F8B5C046F8BC08BC9E467047F8B5C04683
:10050000F8BC08BC9E46704700000020151617185E
:0805100010FCFF7F0100000058
:1005180000000000000000000000000000000000D3
:1005280000000000000000000000000000000000C3
:1005380000000000000000000000000000000000B3
:1005480000000000000000000000000000000000A3
:100558000000000000000000000000000000000093
:100568000000000000000000000000000000000083
:08057800E9000000C1000000D1
:040000030000049D58
:00000001FF
