:020000021000EC
:10B000000080002059D9010099D901009BD9010085
:10B010000000000000000000000000000000000030
:10B020000000000000000000000000009DD90100A9
:10B0300000000000000000009FD90100A1D901001C
:10B040005DBE0100A3D9010059C70100A3D90100C9
:10B05000A3D90100000000007DC20100A3D90100B6
:10B06000A3D90100A3D90100A3D90100A3D90100EC
:10B07000A3D90100A3D90100A3D90100A3D90100DC
:10B08000A3D9010041B40100A3D90100A3D9010053
:10B090001DB50100A3D9010019DC0100A3D90100ED
:10B0A000A3D90100A3D901000000000000000000A6
:10B0B0000000000000000000000000000000000090
:10B0C00010B5064C2378002B07D1054B002B02D07E
:10B0D000044800E000BF0123237010BDF8180020D1
:10B0E00000000000D4DE0100084B10B5002B03D097
:10B0F0000749084800E000BF07480368002B00D15B
:10B1000010BD064B002BFBD09847F9E7000000006C
:10B11000FC180020D4DE0100F4180020000000001C
:10B12000164B002B00D1144B9D46402292029A1AD6
:10B13000924600218B460F461348144A121A00F01B
:10B1400067F80F4B002B00D098470E4B002B00D018
:10B1500098470020002104000D000D48002802D06F
:10B160000C4800E000BF00F02DF82000290001F09D
:10B1700099FE00F011F8C046000008000080002091
:10B180000000000000000000F81800205C1B0020F8
:10B190000000000000000000084B10B50400002B68
:10B1A00002D0002100E000BF054B1868836A002B25
:10B1B00000D09847200000F033F8C046000000009F
:10B1C000D8DD01000E4B70B500251E000D4CE41AB1
:10B1D000A410A54204D0AB00F35898470135F8E716
:10B1E00002F0EEFD084B00251E00084CE41AA410E6
:10B1F000A54204D0AB00F35898470135F8E770BD7D
:10B20000EC180020EC180020EC180020F0180020AA
:10B2100003008218934202D019700133FAE7704795
:10B22000FEE7C046F0B54E4657464546E0B4214BD2
:10B230001978994600292AD01F4B002598461F4BA4
:10B240001F4F01269A4603E00135EDB28D421ED212
:10B2500043461B6832009C46EC00644420783B68FF
:10B2600082401342F0D093433B6000F0FDFF330077
:10B2700022785146934009680B40010091408B426F
:10B280000AD04B4601351978EDB28D42E0D31CBC93
:10B2900090469946A246F0BD6368002BF1D06178D4
:10B2A00001394C424C41211A4C424C411000E1B250
:10B2B0009847E6E71C1900201819002040190020C3
:10B2C00044190020F8B5124D0700280000F0B8FC22
:10B2D000002807D10124BC400E4E3368234202D01F
:10B2E000A3433360F8BD380000F0BEFF0A4A13687C
:10B2F00000280BD023431360336800221C43074B04
:10B3000028001968346000F03BFCEBE7A343F2E748
:10B310002019002044190020401900201419002091
:10B32000F0B54F464646C0B41400070083B00E0087
:10B330000720042A04D803B00CBC90469946F0BDFF
:10B3400000F086FE00282FD01A4B1B4A1F601B4BB3
:10B35000751E1E701A4BEDB21C6000231360194A53
:10B360001360002E1AD0184B01AC99460323002617
:10B37000984600E01D004246EB00FB182270A670C4
:10B38000E6709A781878627021004A4600F06AFEEA
:10B390000028D0D16B1EDBB2002DEBD10B4A00216F
:10B3A0000B4800F0D3FBC6E700F018FE0028CBD016
:10B3B000C1E7C04618190020401900201C190020C0
:10B3C0001419002044190020C5B2010025B2010063
:10B3D000DCDD010070B5094D2B78002B0BD000246B
:10B3E000074E3268E300985C012100F0E9FE2B78FB
:10B3F0000134A342F5D8002070BDC0461C190020BE
:10B4000018190020002300B585B001AA9060002122
:10B4100003481380536000F005F805B000BDC04636
:10B4200001400000BFF34F8F034A044BDA60BFF3C3
:10B430004F8FC046FDE7C0460400FA0500ED00E06E
:10B44000A021F0B5002347462B4A490080B4535051
:10B450000431535004315350043153504C3953503C
:10B4600004315350254B1B68002B35D0244900264E
:10B4700052582449244F0C68141B00222402240A29
:10B48000904602E0002D18D02B001A68A24214D872
:10B49000A41AB6181A7CDD69002AF3D042469969CD
:10B4A0001A745A693B68002B19D01000984700287D
:10B4B000E8D0FFF7A7FF002DE6D1144B14491A7806
:10B4C0000B789A420ED0134A9B009E508021802315
:10B4D000114A49035B00D15004BC9046F0BD0800FE
:10B4E0009047CFE70132D3B2022B01D00B70EAE7CD
:10B4F00000230B70E7E7C046001001404C19002004
:10B50000040500004819002050190020541900209B
:10B51000551900206019002000E100E0F0B5564602
:10B520005F464D464446F0B4AE4BAF4A1B68AF4948
:10B530009A46097813788BB0994200D1F1E0013333
:10B54000DBB2022B00D1F0E01370A94A9B009E5899
:10B5500053469B191B02A34A1B0A136001239846FA
:10B560000020A44B84461B78002401931900A24BB1
:10B570001B6899469F4B4D465B781A0005939D4B7F
:10B580005B6802939B4B9B7808900393954B0790C5
:10B590001B689A4804939A4B83461B78604606932F
:10B5A00009964B4616000090B1421DD002984A0001
:10B5B0008446521803980131D200C9B262448142D4
:10B5C00000D1A4E01078022800D184E00328EBD158
:10B5D000002BE9D01C74DB69002BFBD101330093F5
:10B5E00000250023B142E1D1009A099E002A00D033
:10B5F000F6E1079A002A02D07A4A04991160089A63
:10B60000002A03D069467E4A097E11704246002A0C
:10B6100000D05EE14A46D21A511E8A4100251E0022
:10B62000D2B2089206936F4B00271B689C46724B60
:10B630001B689B46724B1B780793019B984600231F
:10B640000193049301339A466E4B0093002D27D04B
:10B650006968A8682C00ED696346CA1A009B12024B
:10B66000120A9A4273D81318524623606760A76083
:10B670002274E761002E79D031683000994204D3FA
:10B680008BE01168994277D21000C2695B1A002AD8
:10B69000F7D1E26132002360C4611600002DD7D1DA
:10B6A000059B984500D1AFE0029A43469146424639
:10B6B0000132D2B25B0043449046039ADB004B4414
:10B6C000424500D18BE01A78012A6FD03200012365
:10B6D00016000493E2E75768002B28D018009F4219
:10B6E00001D116E01000C269002A00D15CE7974240
:10B6F000F8D190420ED01768D269BC46C261002AC8
:10B7000000D151E71368634413602B004CE700211C
:10B7100058E71A00DD69002D0BD001272B00009798
:10B72000E9E70023002698461AE700230CE70023E8
:10B730003AE701275B4601359D6008970697079712
:10B74000002704970137002500230097D3E76346BD
:10B75000591A0902090A814215D25246431A236036
:10B760006760A7602274E761002E85D12200012363
:10B77000A3460193160091E7C91A1160E2612360A4
:10B780003200C46189E7534627606760A76023746D
:10B79000E761002EEAD000233168CB1A3360220023
:10B7A0000123E661A3460193160077E75C68227CDB
:10B7B000110032000491002900D06EE799686160A1
:10B7C000D868A0601A69E2605B69A361079B002BDF
:10B7D00000D177E0049A0021626004933CE70022E4
:10B7E000904670E748190020541900205519002090
:10B7F00060190020581900204C1900200010014049
:10B8000056190020FEFF7F00049B002B00D0EAE0C9
:10B81000019B002B02D05A46764B1A60069BB3421E
:10B8200053D0002E00D1A4E07349744B744C585887
:10B830006146411A09022578090A32680331002D50
:10B8400021D18025D1266D02B6009D51403E9D51EB
:10B85000C02780266B4DB6027F00EE512E60012579
:10B860001D60694B694F1E682F23C046C046C04605
:10B87000C046C046C046C046C046BE4200D0C046D4
:10B88000013BF2D125708A4200D20A00A82462440A
:10B8900012025A49130AE400574D0B514A591B1A18
:10B8A000121A1202120A1B0203321B0A9A4246D8CB
:10B8B0000023574A13700BB03CBC90469946A246F1
:10B8C000AB46F0BD01230493C6E6089B002BEFD0E6
:10B8D000A7E70025474AAC4610680027002100244E
:10B8E000454615E01A68B2421ED8D868B61A8918BB
:10B8F0001C60DF69002808D0524652181202120A52
:10B900005A6062469C469860DA613B0038002F001E
:10B91000002BE7D16546002F00D05EE000230693A0
:10B9200001330893069E7EE66546002F00D05EE058
:10B93000961B1E6006930123069E089373E64B59DF
:10B940000B51314B31491A682F23C046C046C046BF
:10B95000C046C046C046C046C0468A4200D0C04627
:10B96000013BF2D180218023264A89025B00D1501D
:10B970009EE780218023234A8902D1508023D2214F
:10B9800001241E4A5B0289005350403953501E4B1C
:10B99000546019682F231D481D00C046C046C0468C
:10B9A000C046C046C046C046C046814200D0C046E0
:10B9B000013DF2D19460174A1660C046C046C046A9
:10B9C000C046C046C046C046C046814200D0C046C0
:10B9D000013BF2D10A4B1E706AE7064B18609DE7E7
:10B9E000044A156005E642460B4B1A7010E7014900
:10B9F00008609DE74C19002004050000001001407C
:10BA00006819002000E100E0E81800200024F4009C
:10BA1000561900204819002058190020F0B55F463B
:10BA2000444656464D46F0B4032483B007000193C4
:10BA300014400720002C06D003B03CBC9046994629
:10BA4000A246AB46F0BD002AF6D08026324DB602A3
:10BA500079302E50802040028046D22043462F4E1F
:10BA600080003350403833500120706081462C48AC
:10BA7000006884462B4880462F208346C046C04637
:10BA8000C046C046C046C046C046C046C44500D0B9
:10BA9000C0460138F2D14846B0605846C046C0465C
:10BAA000C046C046C046C046C046C046C44500D099
:10BAB000C0460138F2D11C48019B04701B4803604A
:10BAC0001B4BC5201C7099705C705A60194B80210B
:10BAD0001C60194BFF221C70184B49031C70C023BB
:10BAE0005B00E95080002B5893433F3A13432B509F
:10BAF000A123C422DB0029609200F750A958104B03
:10BB000000200B40C02109020B43AB500D4BF258F3
:10BB10000D4B1A6090E7C04600E100E000100140C4
:10BB2000E81800200024F4006819002050190020B3
:10BB3000581900204C1900205419002055190020D4
:10BB4000FF00FFFF040500004819002010B50B4B53
:10BB50005B68002B0BD0002A07D0002805D00368B3
:10BB600008201C7C002C04D010BD0720FCE7082016
:10BB7000FAE759745A610020F6E7C04658190020C8
:10BB8000F0B54F4680B42A4C82B0636805000E00C1
:10BB90001700002B08D0002806D00720042905D85C
:10BBA00002B004BC9146F0BD0820F9E76B69002B98
:10BBB000FAD000226B7C9146012B2ED06A460023DE
:10BBC000D01DD37100F07EF86378A1785A1CD2B2F0
:10BBD000914224D02178914223D05900CB1861683A
:10BBE000DB008C466344002B1BD0012111481970E7
:10BBF00011495D604158DE60996049465F61196195
:10BC00006B46D879627000F07DF8802180230B4A62
:10BC100049035B00D1500020C2E78946CEE70022ED
:10BC2000D8E76B46D87900F06DF80420B8E7C04635
:10BC300058190020001001400405000000E100E058
:10BC400070B51E4C0500636882B00820002B2BD015
:10BC5000002D29D06B69002B26D06A460023D61D03
:10BC60002B743000337000F02DF86378A1785A1CE3
:10BC7000D2B291421AD02178914219D05900CB18F2
:10BC80006168DB008C466344002B11D002211970DF
:10BC90005D603078627000F035F8802180230020EC
:10BCA000074A49035B00D15002B070BD0022E2E7B1
:10BCB000307800F027F80420F6E7C0465819002035
:10BCC00000E100E0F0B5EFF3108172B60A4B5A685C
:10BCD000002A0DD101248025084E5C607459084F5C
:10BCE0003C401C6077510270002900D162B6F0BD63
:10BCF00001230370F8E7C046541B002000E100E078
:10BD0000FC06FFBC10B5084B5A68002A0BD000286F
:10BD100009D1EFF3108272B604491C680C605860B8
:10BD2000002A00D162B610BD541B002000E100E0E3
:10BD3000A022044BD205D358034A125C0120D34001
:10BD40009843704704050000E0DD0100044BA0218A
:10BD50001A5C01239340034AC9058B507047C046C3
:10BD6000E0DD01000C050000044BA0211A5C01235A
:10BD70009340A122C905D2008B507047E0DD01003D
:10BD8000A022A1238021D205DB008903D15080218C
:10BD9000C903D15080210904D15080214904D150D8
:10BDA0007047C046A0228021064BD2058903D1509E
:10BDB0008021C903D15080210904D1508021490438
:10BDC000D15070470C050000084AA021105C0122E8
:10BDD000824010B51400A120054BC905CB58C00006
:10BDE0009C431340034A0C508B5010BDE0DD010012
:10BDF000040500000C050000A02303220B49DB050D
:10BE00005A5004315A500A495A5004315A50A1220A
:10BE10008021D200890399508021C9039950802143
:10BE20000904995080214904995070475407000033
:10BE30005C07000011280AD012280AD013280AD063
:10BE40001438431E98410323404218437047002092
:10BE5000FCE70120FAE70220F8E7C04610B51A4BCC
:10BE60001A68002A14D0002280211A60C2220123FD
:10BE7000164C9200C9058B506370A368002B07D045
:10BE80001A6800205B68A2609847A368002BF7D16E
:10BE90000F4B1A68002A15D000221A60C223802294
:10BEA00002219B00D205D1500123084CA3702369C5
:10BEB000002B07D01A6801205B682261984723692C
:10BEC000002BF7D110BDC046000100406C190020C6
:10BED0000401004010B500280BD1064CA368002BCC
:10BEE00007D01A6800205B68A2609847A368002BFF
:10BEF000F7D110BD6C19002030B583B06B46DD1D45
:10BF0000002328002B70FFF7DDFE134C2378002B55
:10BF100013D16360A3602361E360104B1B68DB07F0
:10BF200015D501F023FE002805D1A323802201218D
:10BF3000DB00D205D15001232370E3682878013358
:10BF4000E3600123A370FFF7DDFE03B030BD0321E2
:10BF5000002000F005F8E4E76C19002000E100E0A3
:10BF6000F0B500281EDBFF261A4B37009C46032342
:10BF70008208C025C0B20340DB0089019F403140E8
:10BF8000994092006244AD005459BC432143515141
:10BF90001F23C02118401E3B83400E4A49005350C6
:10BFA0001360F0BDFF250C4A2E00944603220F2398
:10BFB000C0B20240D200890196402940914003401E
:10BFC000083B9B089B006344DC69B4432143D9616F
:10BFD000DEE7C04600E100E000ED00E070B544257A
:10BFE000184C0820665D002E00D070BD0123402251
:10BFF000FF215B42A3540132A1540132A3542362B6
:10C0000001326362A362E36223636363A363E36356
:10C01000FC390238A35423606360A360E3602361AA
:10C020006361A361E361FFF79BFF074B80211E6003
:10C03000C123064A9B000906D15001230020635505
:10C04000D3E7C046801900207C61004000600040BA
:10C050004423034AD05C431E9841C0B27047C04697
:10C0600080190020F0B5474680B4524C08252318AB
:10C0700020331E787F2E03D8280004BC9046F0BDE4
:10C08000CD78AC46002D36D02568013500D186E04C
:10C09000042300269846731C9D006759013733D04E
:10C0A000B31C984525D99D00675901372CD0F31C46
:10C0B00098451ED99D006759013725D0331D9845F5
:10C0C00017D99D00675901371ED0731D984510D9A7
:10C0D0009D006759013717D0B31D984509D99D00B8
:10C0E0006759013710D00736B04502D9E3690133EB
:10C0F00008D00425C0E72569013555D0082304265A
:10C100009846C8E707231C256251624627185EB28D
:10C1100020373E70002A02D1E3183C3318708B7828
:10C12000002B14D10300A0254A78C133FF339200BD
:10C130009B00ED055A51CB78002B14D1A4193C3447
:10C140000B7822789B0113432370002594E7A022EB
:10C15000D2059446E025022783006344ED005A5936
:10C16000BA435A51E7E7144A0B789446A221B60025
:10C170006644C9007458114A000222407250F822E5
:10C18000520110400500C02218040300280092024A
:10C190007458134018432043705000256CE7002565
:10C1A00022601D700026BAE7042522611D702E0052
:10C1B0002B00B1E78019002000600040FFE0FCFF89
:10C1C0000023F0B5254C22182032D356032B18DD5E
:10C1D000E3183C331B789B09032B33D0012B39D058
:10C1E000C0218902A023DB059C46E0238000604437
:10C1F000DB00C4581A4A2240C250C2580A43C250F7
:10C20000F0BDD8B20328FBD8164DA227AC460126B4
:10C2100098006044FF00C5593543C5511800654674
:10C2200000274030800080B247510029E8D01278C2
:10C2300052B292001259002AE2D09E40C1239B00C4
:10C24000EE50DDE7A223A022DB00D205D358C34085
:10C25000DB07C5D480218902C4E7C04680190020CD
:10C26000FFFFFCFF00600040A222A0210300D200DB
:10C27000C9058858D840012318407047F0B54D468D
:10C280005F46564644460023F0B4C64A87B003933F
:10C2900013680025012B00D1DDE1C34B1A68012A88
:10C2A00000D1CCE1C14B1A68012A00D1BBE1C04BDF
:10C2B0001A68012A00D1AAE1BE4B1A68012A00D1EE
:10C2C00099E12B071CD0BC4BA227984603230126DB
:10C2D00000249946FF002E420ED0B84AA3009A18B7
:10C2E000D059D1594246D358002B05D04A46090CA3
:10C2F000C0041140C00E984701347600042CEAD1E6
:10C30000002D06DB07B03CBC90469946A246AB46E2
:10C31000F0BD00230493013B059341339846C026AA
:10C32000A54C4346E1564B1C2CD007220123C9B231
:10C3300008000A409340B043C70805AAD25D1342E3
:10C3400020D0221820321278890952B29200A258C5
:10C350009146002A00D10EE1032900D10EE1A0256B
:10C36000ED05AC4682009444E0226546D200AA580E
:10C3700003ADEF5D9203920F3B4200D0D2E0032A5F
:10C3800000D172E100274123E1564B1C37D007232F
:10C390000125C9B20B409D4008002B00B043C208E4
:10C3A00005ADAD5C2B422AD02518AC462025A94608
:10C3B000CC4465462D7889096DB2AD00655901916F
:10C3C000A946002D00D1FBE0032900D1FBE0850048
:10C3D000AA46A025ED05AC46E025ED00E244AC46BA
:10C3E0005546614669588903890F8C4603A98A5CC2
:10C3F000134200D0A3E06346032B00D147E1422360
:10C40000E1564B1C36D007230125C9B20B409D4095
:10C4100008002B00B043C20805ADAD5C2B4229D00B
:10C420002518AC462025A946CC4465462D788909B7
:10C430006DB2AD0065590191A946002D00D1A3E070
:10C44000032900D1A3E08500AA46A025ED05AC464E
:10C45000E025ED00E244AC46554661466958890343
:10C46000890F8C4603A98A5C134277D16346032B5C
:10C4700000D146E14323E1564B1C36D0072301256A
:10C48000C9B20B409D4008002B00B043C20805AD67
:10C49000AD5C2B4229D02518AC462025A946CC44BA
:10C4A00065462D7889096DB2AD0065590191A9469F
:10C4B000002D00D192E0032900D191E08500AA4629
:10C4C000A025ED05AC46E025ED00E244AC4655461E
:10C4D000614669588903890F8C4603A98A5C134217
:10C4E00013D16346032B00D1ECE0002F00D109E704
:10C4F000A223A022DB00D205D358039A934200D195
:10C5000000E70393049B05930BE76346022BECD1F2
:10C51000019B032B00D118E14B46002BE5D001997C
:10C52000C847E2E7022A00D02CE7032900D103E143
:10C5300000274B46002B00D125E7C84723E7634679
:10C54000022B00D05BE7019B032B00D1F7E04B46A9
:10C55000002B00D153E70199C84750E76346022BEF
:10C5600088D1019B032B00D1ECE04B46002B81D0FE
:10C570000199C8477EE7032900D003E704AAD2192E
:10C5800015781D431570EAE6032900D072E704A967
:10C590008C4694446146097819438A46614655465B
:10C5A0000D7050E7006100400461004008610040E8
:10C5B0000C6100407C610040801900200060004058
:10C5C000032900D01BE704A98C46944461460978EE
:10C5D00019438A46614655460D70F8E6032984D111
:10C5E00004A98C4694446146097819438A466146F9
:10C5F00055460D7062E700221A6080231B061D431A
:10C60000A022A223D205DB00D358039359E6C1220E
:10C610004F499200895808220A4200D14CE6002175
:10C620001543196048E6C1224949920089580422FD
:10C630000A4200D13BE600211543196037E6C122CA
:10C6400043499200895802220A4200D12AE6002179
:10C650001543196026E6C1213D48890041580B4227
:10C6600000D11AE61560013517E6032900D05FE70F
:10C6700080229202E0236546DB00ED58354F2F40C3
:10C680006546EF50EF583A43EA50012751E7019BC6
:10C69000032B00D05BE780229202E0235146DB00AF
:10C6A000C95801378B462B49FFB28C46594665461F
:10C6B00029408C4651466546CD50C9580A435146DB
:10C6C000CA5044E7019B032B00D025E78022920249
:10C6D000E0235146DB00C95801378B461D49FFB2A4
:10C6E0008C465946654629408C4651466546CD5094
:10C6F000C9580A435146CA504B46002B00D00EE79A
:10C70000F6E6019B032B00D02FE780229202E02364
:10C710005146DB00C95801378B460E49FFB28C46A3
:10C720005946654629408C4651466546CD50C95804
:10C730000A435146CA5018E7C02292029AE7C02223
:10C740009202AAE7C0229202E1E7C0229202BFE76A
:10C7500000600040FFFFFCFFC12310B5614A9B0051
:10C76000D35884B09B054FD592235B00D158002944
:10C770004AD00021D1508121E5338900FF33D150C7
:10C78000594B997E002901D101315160022269463D
:10C790000A7090215348C90042584250694603929A
:10C7A000DA7D68460A72DA68196801920022DA7541
:10C7B0001A765B6898478E214A4A49005358002BE5
:10C7C0000FD0494B9C8A987D84424FD20020505014
:10C7D000998A9868405C998A013189B29982434B61
:10C7E000D050A2233F4A5B00D15800290AD0002133
:10C7F000D1503D4B997E002901D001211160DA7D95
:10C80000002A42D104B010BDC123364A9B00D35840
:10C810005B07D0D5842149005358002BCBD0324B35
:10C82000D87D00283ED15050A321C90052585A7ECD
:10C830008242C0D11A7E002A42D19A7E002A02D1B9
:10C840000121284A51608120C2222649800092009D
:10C850008850002268460121DA755A7E0170027202
:10C86000DA68196801925B689847A4E7002454507D
:10C870000028B6D06A46147010729A689C751968C0
:10C8800001925B6868469847ABE700226846012141
:10C89000DA755A7E01700272DA68196801925B6873
:10C8A0009847AFE700205050A320C000597E12588F
:10C8B000D86842545A7ED87D0132D2B25A76B6E751
:10C8C000DA751A69D968DA6000226C46587E1A76E1
:10C8D0005A760132207201912270196868465B68AD
:10C8E000984768E700200040C81900201C05000098
:10C8F00010B50220FFF768FA10BDC046F8B54646ED
:10C900004F46C0B40D000600FFF794FA0400032858
:10C9100012D8012D14D0002D22D0022D0CD14300AD
:10C920001C181E4B1C196578002D05D01C4B1B686C
:10C93000002B01D0280098470CBC90469946F8BDC2
:10C94000164B4700984642463B18D55C43445B78FB
:10C95000002B12D13F194744BA78124B1A55E3E71E
:10C960001148FFF76DF90D4A63001B19D3180D4AE2
:10C970009B78155D9D42DFD1D6E70C4B0A4899465E
:10C980000B4B4A461B689900C9184900FFF7F8F895
:10C990000028DFD14B461E70DCE7C0465C1A002041
:10C9A000101A0020581A0020141A0020091A00201A
:10C9B0000C1A002070B5724B1B68DB0700D470BDE9
:10C9C000704E714D33782C78002B05D1172CF6D88A
:10C9D0006E4AA300D3589F4600233370FFF7D0F967
:10C9E000F4E7012301203370FFF7EEF9684B0022D2
:10C9F0001B6868489900C918FFF7C2F8DFE70123F0
:10CA000001203370FFF7E0F9614B0022196861489B
:10CA1000FFF7B6F8D3E7604D2800FFF711F91123AF
:10CA20001C1B00D18FE0002800D08CE0012C0CD022
:10CA3000C8306421604301F02DF9554B00221B687A
:10CA4000434328001900FFF79BF80220FFF77EF907
:10CA5000B5E7FFF795F912232B70B0E7FFF790F9D0
:10CA60000020FFF773F913232B70A8E7FFF79AF95B
:10CA70002C70A4E7FFF784F900232B709FE70020B8
:10CA8000FFF756F9002862D00020FFF76DF9282142
:10CA9000022C55D02C7022E0FFF784F90C232B7068
:10CAA0008DE7FFF76DF90020FFF750F90120FFF740
:10CAB0004DF915232B7082E7FFF762F90120FFF78C
:10CAC00045F914232B707AE70020FFF731F900288D
:10CAD00050D00020FFF748F9082103232B702C4B7E
:10CAE00000221B682B485943FFF74AF867E70020EC
:10CAF000FFF71EF9002833D00020FFF735F9282171
:10CB00000423EBE70020FFF721F907232B7056E7FA
:10CB10000020FFF70DF9002828D00020FFF724F9A6
:10CB200005232B701A4B002219681A484900FFF799
:10CB300027F844E70020FFF747F906232B7063E747
:10CB400016392C70CBE70220FFF70EF937E70020EB
:10CB5000FFF7FCF80421022C9CD102392C70BEE7AF
:10CB60000020FFF7F3F804210423B7E70020FFF7C4
:10CB7000EDF8D5E70020FFF7E9F802210323ADE740
:10CB8000041A0020081A0020341A0020E4DD0100F5
:10CB90000C1A0020E4190020381A002010B5007883
:10CBA000FFF748F903280BD843001818054B18184D
:10CBB0004078002804D0044B1B68002B00D0984715
:10CBC00010BDC0465C1A0020101A002070B5804BC2
:10CBD00005001B680024DB0701D4200070BD7D4EDA
:10CBE0003378002B06D1172D00D9EEE07A4AAB003E
:10CBF000D3589F463470FFF7C3F8F4E701230120B0
:10CC00003370FFF7E1F8754B00221B6874489900F8
:10CC1000C918FEF7B5FF0400DFE7012301203370D8
:10CC2000FFF7D2F86D4B002219686D48FEF7A8FF98
:10CC30000400D2E7FFF7A4F80120FFF787F81422D9
:10CC4000684B00241A70C8E70020FFF77FF807221E
:10CC5000644B00241A70C0E7FFF792F80020FFF73A
:10CC600075F80120FFF772F815225E4B00241A7048
:10CC7000B3E70020FFF75CF8002800D19AE000201D
:10CC8000FFF772F808210322564B1A7077E0002054
:10CC9000FFF74EF8002800D186E00020FFF764F887
:10CCA00028210422F0E70020FFF742F8002800D1F5
:10CCB00085E00020FFF758F805224A4B48481A70D3
:10CCC000464B002219684900FEF75AFF040084E72A
:10CCD0000020FFF779F80622424B1A70A2E7FFF70F
:10CCE00061F80C223F4B00241A7076E73E4E30006C
:10CCF000FEF7A6FF04001120451B49D0002C47D1A8
:10CD0000012D0DD0B7306421684300F0C3FF334BD1
:10CD100000221B68434330001900FEF731FF040076
:10CD20000220FFF713F858E7FFF72AF812222D4BDD
:10CD300000241A7051E7FFF723F80020FFF706F8E8
:10CD40001322284B00241A7047E7FFF72BF8254BD6
:10CD500000241D7041E7FFF713F80022214B002447
:10CD60001A703AE70020FEF7E3FF002814D00020F5
:10CD7000FEF7FAFF2821022D25D01A4B1D70174B04
:10CD800000221B6816485943FEF7FAFE040024E708
:10CD90000220FEF7E9FF20E70020FEF7D7FF04217D
:10CDA000022DEAD10239E8E70020FEF7CFFF042187
:10CDB000042269E70020FEF7C9FF022163E7002093
:10CDC000FEF7C4FF78E71639D7E7002405E7C04629
:10CDD000041A0020081A002044DE01000C1A00206A
:10CDE000E4190020341A0020381A0020204B70B5B6
:10CDF0001960204B040018601F4B1A60830713D57D
:10CE00000E221E4B1E481A700132DA7001329A71DE
:10CE100001325A724A080421FEF782FA051E19D01F
:10CE2000E30712D4280070BDC3070DD4154A0021B2
:10CE30001548FEF78BFE051EF4D1144A0121144853
:10CE4000FEF784FE0500EDE70025FEF7D5FF002D77
:10CE5000E8D1EBE7FEF7BEFA051EE1D10D4A00214D
:10CE60000D48FEF773FE0500E307F0D5EDE7C04679
:10CE70000C1A0020041A0020101A00205C1A00204E
:10CE8000ACDE0100B5C90100A8DE0100F1C8010057
:10CE9000CCDE01009DCB0100A4DE010073DF7047F2
:10CEA00048DF704710B5002392B0364A05210020B4
:10CEB000FEF7B4FD002801D0FEF7A4FA00223249A3
:10CEC0000120FFF793FF002801D0FEF79BFA042210
:10CED0002E49684600F06AFF002348222C49684624
:10CEE00000F04AFE002801D0FEF78CFA03AC2200C5
:10CEF0000021002000F0A8FE002801D0FEF782FAF1
:10CF0000200000F0B9FE002801D0FEF77BFA6A4647
:10CF1000592313801F4B0021029317232000938075
:10CF20003C22FEF775F9002323700433E3706B464F
:10CF300000212000636200F0CBFA002801D0FEF748
:10CF400061FA154C182200212000FEF761F9032335
:10CF5000A022237000232000636023722282638258
:10CF6000FFF79CFF002801D0FEF74CFA0220FFF7E4
:10CF70002DFE002803D1FFF793FF0028FBD0FEF71A
:10CF800041FAF8E7681A0020CD0C0000D0DE01005D
:10CF9000E01A0020D0180020281B002071DF704705
:10CFA00072DF704779DF70477DDF704765DF70475C
:10CFB000F0B55F4656464D464446F0B485B09A46B5
:10CFC0000EAB80CB06001B8800919B463B880193EB
:10CFD0000388002B63D00023994602ABDD1C3B0085
:10CFE00000241700984603E033880134A3422CDD67
:10CFF0007368A1009C460422614403A800F0D6FE99
:10D000000022290003A8FFF7D1FF002829D12B789F
:10D01000BB42E9D14B46002B2AD043461A88D3198C
:10D020005B453EDC5244290003A8FFF7BFFF002800
:10D0300017D143462A781B880134D31842461380FF
:10D04000012399463388A342D2DC4B464746002B46
:10D0500025D03B88019A013B9B1A9BB20C20FF2BE9
:10D060001AD905B03CBC90469946A246AB46F0BDE5
:10D0700043461B88DA1902325A4512DC4246013314
:10D0800069469BB2138052460978D15443461A88A8
:10D09000013292B21A80C5E7110052465354002063
:10D0A000DFE70C20DDE7C046F0B5444656464D4666
:10D0B0005F46F0B4138814009846002313802D3384
:10D0C000C25C87B005000E000023002A00D0EFE00C
:10D0D000AA78002A00D018E1E978002900D0DCE025
:10D0E0006A68002A15D0D91C414500D9D8E0022130
:10D0F0001278F1542388083101339BB22380F15414
:10D10000238852B201339BB22380F2542388013327
:10D1100023802B89002B00D02AE12B8A002B00D002
:10D1200041E12B8B002B00D058E12B6A002B48D01B
:10D1300022880C20911D414500D9B2E0198805389C
:10D140008B46052900D8ACE0B54F5F44BFB2B94665
:10D15000B44FBC46B94500D8A3E05F88BA46052F56
:10D1600000D89EE0AE4F6946B946D1444F46CF81C4
:10D17000CF89674500D894E0AB4FBB4504D0BA4592
:10D1800002D0D34500D98CE00521B15422880D315D
:10D19000013292B22280B1542288013292B22280AE
:10D1A0001988B2181170090A51702288023292B29D
:10D1B00022805988B3181970090A597023880233DC
:10D1C00023806F6A002F2CD0BA882188131D5B182A
:10D1D0000C20434565D8931CFE2B62D80332725451
:10D1E000FF22238801339BB22380F254238801332A
:10D1F0009BB223803A88F3181A70120A5A70238857
:10D2000002339BB22380BA88002A0AD0B968053855
:10D21000002946D0F01800F0C9FD2288BB88D31839
:10D2200023802C23EB5C002B00D0FFE02B78002028
:10D23000002B36D02A880720012A32D02288901C61
:10D2400040452DD8012B04D16B7802339B189845AB
:10D2500026D34746023FBA1A97B202AB301804A948
:10D260001F81FFF7A1FE00281BD12B78022B00D1D4
:10D2700025E1012B00D1CCE03B000821FE2B0FD88B
:10D2800022885D1CB5542288013292B22280B154AA
:10D29000228801329B18238003E0DA1C424555D9CD
:10D2A0000C2007B03CBC90469946A246AB46F0BD68
:10D2B00043460C20082BF4D904A8FFF76FFE002882
:10D2C000EFD1082223880921F25423881332013335
:10D2D0009BB22380F25402AB9C462088153A013061
:10D2E00080B220806144301800F060FD238802AADB
:10D2F0000633127A9BB22380002A00D00122F25416
:10D30000238801339BB22380E2E604330C2043459B
:10D31000C7D804A8FFF746FE0028C2D103222388FD
:10D32000F2542388163201339BB22380F2542388AF
:10D3300002AA01339BB212892380F3181A70120AD1
:10D340005A70238802339BB22380C5E60222F2542E
:10D350002388013A01339BB22380F254238801339E
:10D360009BB22380F154238801339BB22380B7E61C
:10D370002F00434608370193009433000222022114
:10D380003800FFF715FE002800D08AE743460094D6
:10D3900001931022330006213800FFF709FE002810
:10D3A00000D07EE7B9E62F00434610370193009482
:10D3B0003300022203213800FFF7FAFD002800D0D5
:10D3C0006FE7434600940193102233000721380091
:10D3D000FFF7EEFD002800D063E7A2E62F004346EA
:10D3E0001837019300943300022214213800FFF70C
:10D3F000DFFD002800D054E743460094019310223B
:10D40000330015213800FFF7D3FD002800D048E78E
:10D410008BE66B789F4200D32FE73B002DE7C04699
:10D420007FF3FFFF7DF30000FFFF0000AF6A002FD6
:10D4300043D0BB880233FE2B00D931E7002291464E
:10D4400016329246163293462088524601333354A0
:10D45000238801339BB22380F254238801339BB28B
:10D4600023803A88F3181A70120A5A702088023002
:10D4700080B22080BA88002A0AD0B96800291CD05E
:10D48000301800F093FC2088BB88C01880B2208040
:10D490004B460133DBB299465B46EB5C4B4500D80B
:10D4A000C4E64B465F00AB6A4F449C46BF006744EE
:10D4B000BB880233FE2BC8D9F2E60720F1E602ABA7
:10D4C0001B8909219F4200D3D8E63B00D5E6C04620
:10D4D000F0B54E46574645461F23E0B496B002AA23
:10D4E00004000E00D38100282ED0C078430724D535
:10D4F000002302AA93812D33E35C002B00D074E15A
:10D50000A3780EAF002B00D0ACE100230021032252
:10D5100006AD02276F54591C02339BB289B2013FFA
:10D520006F54E85493B202AA93816268002A39D0FA
:10D53000D91C1F2929D90C2000E0072016B01CBCDB
:10D5400090469946A246F0BD002502AB9881002E78
:10D5500016D0F378002BF0D102AA94460E23634430
:10D560001A000EA93000FFF79FFD0028E6D102AB9C
:10D570009B7B0EAA02A9097B2800FFF711FDDDE7BE
:10D5800002ABDE8100220023F4E7002010560222C5
:10D590000A27EA545A1C02339BB292B2AF54E854A1
:10D5A00002AB99812389002B00D0C4E0238A002B91
:10D5B00000D0DEE0238B002B00D0F8E0226A002AA6
:10D5C0003ED002AB9B890C20991D1F29B6D810882C
:10D5D00082460528B1D9B14F5744BFB2B846B04FC3
:10D5E000BC46B845A9D95788B946052FA5D9AB4F30
:10D5F0006846B846C8444746C781C78967459CD92D
:10D60000A84FBA4504D0B94502D0CA4500D994E71D
:10D6100005201227E854581C80B22F54981C80B261
:10D6200002AFB8811788281807703F0A4770043383
:10D6300052889BB2EB181A70120A5A7002AB998189
:10D64000676A002F34D0BB88991C02AB9B899A1C57
:10D6500050188046914642460C201F2A00D96DE79B
:10D66000FE2900D96AE70131E954591C89B2F33027
:10D6700068544A466946CA81CA8902A98A8139889A
:10D68000AA180433117098B2090A02AB517098813C
:10D69000BA88002A0CD0B968002900D14DE72818B3
:10D6A00000F084FB02AB9A89BB88D31802AA93814D
:10D6B0002C23E15C002900D0F6E02378002B00D178
:10D6C00045E722880720012A00D137E702AA92897C
:10D6D000901C1F2800D92EE7012B05D163789B18D9
:10D6E00002331F2B00D926E71D230EAF9A1A93B2DF
:10D6F0002818390098463B80FFF756FC002800D0D8
:10D700001CE72378022B00D119E1012B00D11CE189
:10D71000434608203B804346FE2B00D90BE702AA74
:10D720009289591CA954511C02329B1889B202AA31
:10D73000685493810BE71F2327009846083701930D
:10D7400005AB009302222B0002213800FFF730FCCA
:10D75000002800D0F2E64346019305AB0093102267
:10D760002B0006213800FFF723FC002800D0E5E657
:10D770001CE71F23270098461037019305AB009341
:10D7800002222B0003213800FFF712FC002800D0F2
:10D79000D4E64346019305AB009310222B000721EA
:10D7A0003800FFF705FC002800D0C7E602E71F237A
:10D7B000270098461837019305AB009302222B00EF
:10D7C00014213800FFF7F4FB002800D0B6E64346EA
:10D7D000019305AB009310222B0015213800FFF7B1
:10D7E000E7FB002800D0A9E6E8E60EAF3800FFF717
:10D7F000D5FB002800D0A1E6082202AB9B8906AD2C
:10D80000EA545A1C023398B21B2102AB9C4692B2D6
:10D81000A9541631988106226144281800F0C6FAEE
:10D8200002AB9B8902A99A1D92B28A81397800299C
:10D8300000D001210733A9549BB202AA9381A27898
:10D84000002A0AD1E078002800D16EE6DA1C19001F
:10D850001F2A00D85DE60C2070E604330C201F2B35
:10D8600000D96BE63800FFF79DFB002800D065E685
:10D870000322192102AB9B8906ADEA545A1C92B2CD
:10D88000A9549A1C398892B2AA1811700433090A53
:10D8900051709BB202AA9381D4E7C0467FF3FFFF89
:10D8A0007DF30000FFFF0000A76A002F00D144E6CF
:10D8B000BB880233FE2B00D93DE602AA90890022E4
:10D8C000904616329146163292464A4601332B5400
:10D8D000431C9BB2EA54831C9BB202AA93813A88F0
:10D8E000EB181A700430120A5A7080B202AB988199
:10D8F000BA88002A0FD0B968002900D11DE628187F
:10D9000000F054FA02AB9889BB88C01880B202AB11
:10D9100098815346E15C43460133DBB298468B4223
:10D9200000D3CAE643465F00A36A47449C46BF0053
:10D930006744BB880233FE2BC7D90C20FEE53B8829
:10D940000930984500D3E7E6E2E66378984500D2CF
:10D95000DEE63B800820DFE603210A4802680A432E
:10D960000260094802680A4302600849084A094BF4
:10D970009B1A03DD043BC858D050FBDC00F012F8C2
:10D98000FDF7CEFB2405004054050040E0DE010019
:10D9900070180020F8180020FEE7FEE7FEE7FEE71B
:10D9A000FEE7FEE72E4B1B78012B00D070472D4B76
:10D9B0001B681B07FAD1F0222B4B1B68134027D1A1
:10D9C0002A4B1B6813422BD0264B1B681B07EDD13B
:10D9D000F022254B1B681340402B2DD0224B1A6898
:10D9E000F0231340A02B01D0D02BDFD1F0231F4A0E
:10D9F00012681A42DAD11E4A1368012B04D01D4B5B
:10DA000013601368012BFCD1C0221B4B1A60CDE7B9
:10DA1000102B01D0302BDBD1144B1B681342D7D114
:10DA2000164A174B1A608022164B12021A600C4BD2
:10DA30001B78012BC8D0B9E70C4B1B681342CDD122
:10DA4000C12380220121DB00D205D150044B1B7879
:10DA5000012BABD1034B1B681B07BFD0A6E7C04609
:10DA6000E00F00F0E40F00F0E80F00F0EC0F00F022
:10DA700000EC06407593000014EC0640DFFF07C081
:10DA800004050040186C004052DF704710DF7047FB
:10DA900060DF704761DF704710B5FDF7C3FC10BD54
:10DAA000F0B557464E464546E0B42B4B00261C6861
:10DAB0009A4663425C41294B294F9946294B82B0D3
:10DAC0009846E4B2002E1BD105E0FDF79BFC002C2C
:10DAD00019D001240026224D2B78002B33D101A828
:10DAE000FFF7D2FF052828D00028EED10198FEF7D5
:10DAF000F1F91D4B1B68002BE9D001989847E6E728
:10DB0000002C20D13D002B78002B1CD14B461B88CC
:10DB100001A90B8043461C682000FFF7BBFF0528C6
:10DB200017D0002803D0FDF76DFC0024CAE7534648
:10DB300020001B6898470024C4E7002C03D12B78F1
:10DB40000126002BE2D002B01CBC90469946A246AA
:10DB5000F0BD002EBDD0F6E74C1B0020421B00207C
:10DB6000401B0020441B0020481B0020014B18785C
:10DB7000C0B27047411B002070B50724002901D0B6
:10DB80008D0701D0200070BD01251B4C21601B4971
:10DB90001B4C0A801B4A136023681D4209D0802356
:10DBA0001949E550FFF772FF002807D025600400EF
:10DBB000E8E71549FFF76AFF041EE3D10124134B80
:10DBC0001C70FEF799F9C5230D4A9B00D3589B0D95
:10DBD0001C4207D00E4B5C68002C05D18023DB0370
:10DBE0001360CFE70B4CCDE780211A68C9030A43C5
:10DBF0001A600024C6E7C046441B0020421B0020D8
:10DC000000E100E0501B002099DA0100411B0020D8
:10DC1000541B00200220000010B5094B1B68002B8C
:10DC200006D09847002800D110BDFDF7EBFBFBE7BD
:10DC3000044B1B78002BF7D0FFF732FFF4E7C04608
:10DC4000501B0020411B002070B5140005000E0081
:10DC5000142200212000FDF7DBFA002301222361BA
:10DC6000237B22809343237326726572002D01D09B
:10DC70000123A372002070BD00B5054B83B0019352
:10DC8000019B69460093FFF703FF019B03B000BDB2
:10DC900070180020002243088B4274D303098B4282
:10DCA0005FD3030A8B4244D3030B8B4228D3030C6C
:10DCB0008B420DD3FF22090212BA030C8B4202D30E
:10DCC0001212090265D0030B8B4219D300E0090A36
:10DCD000C30B8B4201D3CB03C01A5241830B8B423F
:10DCE00001D38B03C01A5241430B8B4201D34B0328
:10DCF000C01A5241030B8B4201D30B03C01A52418D
:10DD0000C30A8B4201D3CB02C01A5241830A8B4211
:10DD100001D38B02C01A5241430A8B4201D34B02FA
:10DD2000C01A5241030A8B4201D30B02C01A52415E
:10DD3000CDD2C3098B4201D3CB01C01A5241830912
:10DD40008B4201D38B01C01A524143098B4201D34C
:10DD50004B01C01A524103098B4201D30B01C01A77
:10DD60005241C3088B4201D3CB00C01A52418308F1
:10DD70008B4201D38B00C01A524143088B4201D31E
:10DD80004B00C01A5241411A00D20146524110467E
:10DD90007047FFE701B5002000F006F802BDC0465D
:10DDA0000029F7D076E770477047C046002310B5CA
:10DDB0009A4203D0CC5CC4540133F9E710BD000093
:10DDC000F8B5C046F8BC08BC9E467047F8B5C046DA
:10DDD000F8BC08BC9E46704770180020201900202F
:10DDE0001516171874CA01007ECA01007ECA010008
:10DDF000C8CA0100EECA010010CB010034CB0100FB
:10DE000004CB0100FEC90100E2C90100FEC9010006
:10DE1000E2C9010098CA010016CA010016CA010031
:10DE200016CA010016CA010016CA010052CA010032
:10DE30005CCA0100B8CA0100A2CA01006CCA010094
:10DE40006CCA010056CD010064CD010064CD010013
:10DE500072CC01008ECC0100A6CC0100D0CC010018
:10DE600048CC01001ACC0100FCCB01001ACC010007
:10DE7000FCCB0100DECC0100ECCC0100ECCC0100BD
:10DE8000ECCC0100ECCC0100ECCC010028CD010071
:10DE900036CD010034CC010058CC01004ACD010040
:10DEA0004ACD0100141A0020E419002011000300DB
:10DEB000FDC8010012000300FDC8010013000300AB
:10DEC000FDC8010014000300FDC80100381A00203D
:08DED000010000070000000042
:08DED80048D2FF7F01000000A9
:10DEE0000000000000000000000000000000000032
:10DEF0000000000000000000000000000000000022
:10DF00000000000000000000000000000000000011
:10DF10000000000000000000000000000000000001
:10DF200000000000000000000000000000000000F1
:10DF300000000000000000000000000000000000E1
:10DF400002150112233445566778899AABBCCDDEA1
:10DF5000EFF001020304C3000024F400E9B0010063
:08DF6000C1B001000000000047
:040000031000D959B7
:00000001FF
