:1000000000800020010B0000410B0000430B0000AA
:1000100000000000000000000000000000000000E0
:10002000000000000000000000000000450B000080
:100030000000000000000000470B0000490B00001A
:10004000A90800004B0B0000210900004B0B000029
:100050004B0B0000000000004B0B00004B0B00009E
:100060004B0B00004B0B00004B0B00004B0B000038
:100070004B0B00004B0B00004B0B00004B0B000028
:100080004B0B0000610200004B0B00004B0B00000B
:100090003D0300004B0B00004B0B00004B0B00001E
:1000A0004B0B00004B0B00000000000000000000A4
:1000B0000000000000000000000000000000000040
:1000C00010B5064C2378002B07D1054B002B02D02E
:1000D000044800E000BF0123237010BD7000002021
:1000E00000000000500C0000084B10B5002B03D09E
:1000F0000749084800E000BF07480368002B00D10B
:1001000010BD064B002BFBD09847F9E7000000001C
:1001100074000020500C00006C0000200000000063
:10012000164B002B00D1144B9D46402292029A1A86
:10013000924600218B460F461348144A121A00F0CB
:1001400067F80F4B002B00D098470E4B002B00D0C8
:1001500098470020002104000D000D48002802D01F
:100160000C4800E000BF00F02DF82000290000F04E
:10017000A3FC00F011F8C046000008000080002039
:10018000000000000000000070000020E0000020DF
:100190000000000000000000084B10B50400002B18
:1001A00002D0002100E000BF054B1868836A002BD5
:1001B00000D09847200000F033F8C046000000004F
:1001C000480C00000E4B70B500251E000D4CE41AC3
:1001D000A410A54204D0AB00F35898470135F8E7C6
:1001E00000F026FD084B00251E00084CE41AA41060
:1001F000A54204D0AB00F35898470135F8E770BD2D
:1002000064000020640000206400002068000020DA
:1002100003008218934202D019700133FAE7704745
:10022000FEE7C046002300B585B001AA906000211A
:1002300003481380536000F005F805B000BDC046C8
:1002400001400000BFF34F8F034A044BDA60BFF355
:100250004F8FC046FDE7C0460400FA0500ED00E000
:10026000A021F0B5002347462B4A490080B45350E3
:100270000431535004315350043153504C395350CE
:1002800004315350254B1B68002B35D024490026E0
:1002900052582449244F0C68141B00222402240ABB
:1002A000904602E0002D18D02B001A68A24214D804
:1002B000A41AB6181A7CDD69002AF3D0424699695F
:1002C0001A745A693B68002B19D01000984700280F
:1002D000E8D0FFF7A7FF002DE6D1144B14491A7898
:1002E0000B789A420ED0134A9B009E5080218023A7
:1002F000114A49035B00D15004BC9046F0BD080090
:100300009047CFE70132D3B2022B01D00B70EAE75E
:1003100000230B70E7E7C04600100140900000206A
:10032000040500008C0000209400002098000020AC
:1003300099000020A400002000E100E0F0B556463E
:100340005F464D464446F0B4AE4BAF4A1B68AF49DA
:100350009A46097813788BB0994200D1F1E00133C5
:10036000DBB2022B00D1F0E01370A94A9B009E582B
:1003700053469B191B02A34A1B0A1360012398468C
:100380000020A44B84461B78002401931900A24B43
:100390001B6899469F4B4D465B781A0005939D4B11
:1003A0005B6802939B4B9B7808900393954B079057
:1003B0001B689A4804939A4B83461B7860460693C1
:1003C00009964B4616000090B1421DD002984A0093
:1003D0008446521803980131D200C9B26244814266
:1003E00000D1A4E01078022800D184E00328EBD1EA
:1003F000002BE9D01C74DB69002BFBD10133009387
:1004000000250023B142E1D1009A099E002A00D0C4
:10041000F6E1079A002A02D07A4A04991160089AF4
:10042000002A03D069467E4A097E11704246002A9E
:1004300000D05EE14A46D21A511E8A4100251E00B4
:10044000D2B2089206936F4B00271B689C46724BF2
:100450001B689B46724B1B780793019B98460023B1
:100460000193049301339A466E4B0093002D27D0DD
:100470006968A8682C00ED696346CA1A009B1202DD
:10048000120A9A4273D81318524623606760A76015
:100490002274E761002E79D031683000994204D38C
:1004A0008BE01168994277D21000C2695B1A002A6A
:1004B000F7D1E26132002360C4611600002DD7D16C
:1004C000059B984500D1AFE0029A434691464246CB
:1004D0000132D2B25B0043449046039ADB004B44A6
:1004E000424500D18BE01A78012A6FD032000123F7
:1004F00016000493E2E75768002B28D018009F42AB
:1005000001D116E01000C269002A00D15CE79742D1
:10051000F8D190420ED01768D269BC46C261002A59
:1005200000D151E71368634413602B004CE70021AE
:1005300058E71A00DD69002D0BD001272B0000972A
:10054000E9E70023002698461AE700230CE700237A
:100550003AE701275B4601359D60089706970797A4
:10056000002704970137002500230097D3E763464F
:10057000591A0902090A814215D25246431A2360C8
:100580006760A7602274E761002E85D122000123F5
:10059000A3460193160091E7C91A1160E261236036
:1005A0003200C46189E7534627606760A7602374FF
:1005B000E761002EEAD000233168CB1A33602200B5
:1005C0000123E661A3460193160077E75C68227C6D
:1005D000110032000491002900D06EE79968616033
:1005E000D868A0601A69E2605B69A361079B002B71
:1005F00000D177E0049A0021626004933CE7002276
:10060000904670E78C0000209800002099000020A0
:10061000A40000209C000020900000200010014059
:100620009A000020FEFF7F00049B002B00D0EAE030
:10063000019B002B02D05A46764B1A60069BB342B0
:1006400053D0002E00D1A4E07349744B744C585819
:100650006146411A09022578090A32680331002DE2
:1006600021D18025D1266D02B6009D51403E9D517D
:10067000C02780266B4DB6027F00EE512E6001250B
:100680001D60694B694F1E682F23C046C046C04697
:10069000C046C046C046C046C046BE4200D0C04666
:1006A000013BF2D125708A4200D20A00A82462449C
:1006B00012025A49130AE400574D0B514A591B1AAA
:1006C000121A1202120A1B0203321B0A9A4246D85D
:1006D0000023574A13700BB03CBC90469946A24683
:1006E000AB46F0BD01230493C6E6089B002BEFD078
:1006F000A7E70025474AAC461068002700210024E0
:10070000454615E01A68B2421ED8D868B61A89184C
:100710001C60DF69002808D0524652181202120AE3
:100720005A6062469C469860DA613B0038002F00B0
:10073000002BE7D16546002F00D05EE00023069332
:1007400001330893069E7EE66546002F00D05EE0EA
:10075000961B1E6006930123069E089373E64B5971
:100760000B51314B31491A682F23C046C046C04651
:10077000C046C046C046C046C0468A4200D0C046B9
:10078000013BF2D180218023264A89025B00D150AF
:100790009EE780218023234A8902D1508023D221E1
:1007A00001241E4A5B0289005350403953501E4BAE
:1007B000546019682F231D481D00C046C046C0461E
:1007C000C046C046C046C046C046814200D0C04672
:1007D000013DF2D19460174A1660C046C046C0463B
:1007E000C046C046C046C046C046814200D0C04652
:1007F000013BF2D10A4B1E706AE7064B18609DE779
:10080000044A156005E642460B4B1A7010E7014991
:1008100008609DE7900000200405000000100140E2
:10082000AC00002000E100E0600000200024F400A3
:100830009A0000208C0000209C000020084AA02183
:10084000105C0122824010B51400A120054BC9059F
:10085000CB58C0009C431340034A0C508B5010BD32
:100860004C0C0000040500000C050000A02303222E
:100870000B49DB055A5004315A500A495A50043189
:100880005A50A1228021D200890399508021C903A6
:10089000995080210904995080214904995070474A
:1008A000540700005C07000010B51A4B1A68002AB4
:1008B00014D0002280211A60C2220123164C92001B
:1008C000C9058B506370A368002B07D01A680020FD
:1008D0005B68A2609847A368002BF7D10F4B1A689A
:1008E000002A15D000221A60C223802202219B0018
:1008F000D205D1500123084CA3702369002B07D0E7
:100900001A6801205B68226198472369002BF7D1A0
:1009100010BDC04600010040B000002004010040AE
:10092000C12310B5614A9B00D35884B09B054FD5B5
:1009300092235B00D15800294AD00021D150812157
:10094000E5338900FF33D150594B997E002901D1FD
:1009500001315160022269460A7090215348C90052
:100960004258425069460392DA7D68460A72DA6854
:10097000196801920022DA751A765B6898478E2111
:100980004A4A49005358002B0FD0494B9C8A987D06
:1009900084424FD200205050998A9868405C998ACE
:1009A000013189B29982434BD050A2233F4A5B0068
:1009B000D15800290AD00021D1503D4B997E002901
:1009C00001D001211160DA7D002A42D104B010BDAE
:1009D000C123364A9B00D3585B07D0D584214900F8
:1009E0005358002BCBD0324BD87D00283ED15050ED
:1009F000A321C90052585A7E8242C0D11A7E002AD1
:100A000042D19A7E002A02D10121284A51608120D8
:100A1000C2222649800092008850002268460121A7
:100A2000DA755A7E01700272DA68196801925B68A1
:100A30009847A4E7002454500028B6D06A461470A2
:100A400010729A689C75196801925B6868469847AD
:100A5000ABE7002268460121DA755A7E0170027206
:100A6000DA68196801925B689847AFE70020505038
:100A7000A320C000597E1258D86842545A7ED87DAF
:100A80000132D2B25A76B6E7DA751A69D968DA60F5
:100A900000226C46587E1A765A76013220720191F5
:100AA0002270196868465B68984768E70020004034
:100AB000C40000201C050000F8B5FFF7D7FE0D4E5E
:100AC0000D4F0E4D00242000FFF7B8FE2B003A68B2
:100AD000C046C046C046C046C046C046C046C046E6
:100AE000B24200D0C046013BF2D10134042CEAD11D
:100AF000E8E7C0460024F4006000002020A10700C1
:100B000003210A4802680A430260094802680A434E
:100B100002600849084A094B9B1A03DD043BC85888
:100B2000D050FBDC00F012F8FFF7FAFA2405004081
:100B3000540500405C0C0000000000207000002004
:100B4000FEE7FEE7FEE7FEE7FEE7FEE72E4B1B783B
:100B5000012B00D070472D4B1B681B07FAD1F022E8
:100B60002B4B1B68134027D12A4B1B6813422BD0F9
:100B7000264B1B681B07EDD1F022254B1B68134049
:100B8000402B2DD0224B1A68F0231340A02B01D00C
:100B9000D02BDFD1F0231F4A12681A42DAD11E4A45
:100BA0001368012B04D01D4B13601368012BFCD17B
:100BB000C0221B4B1A60CDE7102B01D0302BDBD1AC
:100BC000144B1B681342D7D1164A174B1A60802268
:100BD000164B12021A600C4B1B78012BC8D0B9E7D8
:100BE0000C4B1B681342CDD1C12380220121DB00B5
:100BF000D205D150044B1B78012BABD1034B1B68A2
:100C00001B07BFD0A6E7C046E00F00F0E40F00F0DE
:100C1000E80F00F0EC0F00F000EC064075930000C8
:100C200014EC0640DFFF07C004050040186C0040CC
:100C3000F8B5C046F8BC08BC9E467047F8B5C0463B
:100C4000F8BC08BC9E467047000000201516171817
:040C500000000000A0
:080C5400CCF4FF7F0100000059
:100C5C000000000000000000000000000000000088
:100C6C000000000000000000000000000000000078
:100C7C000000000000000000000000000000000068
:100C8C000000000000000000000000000000000058
:100C9C000000000000000000000000000000000048
:100CAC000000000000000000000000000000000038
:100CBC000024F400E9000000C10000000000000066
:0400000300000B01ED
:00000001FF
