:020000021000EC
:10800000008000206DA30100B5A30100B7A301000B
:108010000000000000000000000000000000000060
:10802000000000000000000000000000B9A30100F3
:108030000000000000000000BBA30100BDA3010080
:10804000BFA30100BFA301004D900100BFA3010029
:10805000BFA301000000000045980100BFA301007C
:10806000BFA30100BFA30100BFA30100BFA3010084
:10807000BFA30100BFA30100BFA30100BFA3010074
:10808000BFA30100BFA30100BFA30100BFA3010064
:1080900079850100BFA3010005850100BFA3010090
:1080A000BFA30100BFA3010000000000000000000A
:1080B00000000000000000000000000000000000C0
:1080C000164B002B00D1144B9D46402292029A1A67
:1080D000924600218B460F461348144A121A00F0AC
:1080E00067F80F4B002B00D098470E4B002B00D0A9
:1080F00098470020002104000D000D48002802D000
:108100000C4800E000BF00F02DF82000290000F02E
:10811000BBF800F011F8C046000008000080002005
:108120000000000000000000BC20002054250020BA
:108130000000000000000000084B10B50400002BF8
:1081400002D0002100E000BF054B1868836A002BB5
:1081500000D09847200000F033F8C046000000002F
:10816000F8AD01000E4B70B500251E000D4CE41A51
:10817000A410A54204D0AB00F35898470135F8E7A6
:1081800002F02EFE084B00251E00084CE41AA41035
:10819000A54204D0AB00F35898470135F8E770BD0D
:1081A000BC200020BC200020BC200020BC200020DF
:1081B00003008218934202D019700133FAE7704726
:1081C000FEE7C04661DF70472EDF704733DF704740
:1081D00051DF704710DF70477047C0460FB430B5AD
:1081E00083B006AB0B4D04CB96212800019302F01F
:1081F000CDF92C78002C08D0200001F011F90028CE
:10820000FAD101352C78002CF6D103B030BC08BC73
:1082100004B018472822002070B51400154D164EE2
:1082200082B03160642200212800FFF7C1FF2100E5
:108230006322280002F059F98021A123A0220F4CCB
:108240008903DB00D205D15020002F2102F060F914
:1082500000280DD02F21200002F05AF9411C019571
:108260003368F42200930648064BFFF7B7FFFEE79A
:108270002100F4E7C4200020C020002028AE010027
:1082800094AE010010AE0100F0B5A02503234646D0
:108290004F46E021834AED05C0B4AB500432AB50E9
:1082A000814AC9006B50535080499BB053500431F0
:1082B00053507F490AA85350043153507D495350BD
:1082C000043153508022A1239203DB00EA500200C4
:1082D000794B52CB52C2262300226B441A80774A34
:1082E0000DAC0D9202226260754A2100A2608022CC
:1082F0005200E2600093734A032300F039FF002824
:1083000011D02C00704D8023DB031800A12162598D
:10831000C90090436050FA2013406C4A4000A350BB
:1083200001F0BEF8EFE76A4D2F21280002F0F0F8C7
:10833000002800D1B3E02F21280002F0E9F8411C09
:10834000644BB5226448FFF749FF64490520FFF7F5
:1083500041FF2F21280002F0DBF8002800D19CE02B
:108360002F21280002F0D4F8411CB9225C48FFF705
:1083700035FF1620FFF728FF03211420FFF726FF03
:108380001420FFF721FF2F21280002F0C1F8002858
:1083900000D180E02F21280002F0BAF8411CC4224D
:1083A0005048FFF71BFF142001F006FE2F21280084
:1083B00002F0AEF800286CD02F21280002F0A8F8B7
:1083C000411CC8224848FFF709FF484B03CB01F086
:1083D0000BFE2F21280002F09BF8002857D02F21F8
:1083E000280002F095F8411CCC224148FFF7F6FE28
:1083F000404B186801F012FE2F21280002F088F887
:10840000002842D02F21280002F082F8411CD022FF
:108410003948FFF7E3FE00F0BFF8384B33269846A3
:1084200000239946364F43461B78002BFBD0200093
:1084300001F0D0FD0C2820D143464A461A70F2E7DD
:108440002F21280002F064F8411CA25DE37A069215
:10845000627B38000592A27B0492E27B0392227C2D
:108460000292627C0192A27C0092E222FFF7B6FEA9
:10847000200001F0AFFD0C28DED02F21280002F0F3
:1084800047F80028DCD12900DFE72900BFE72900F1
:10849000AAE7290095E7290081E7290065E7290077
:1084A0004EE7C046540700000400005004070000D7
:1084B0000C07000014070000FCAD0100BC200020E8
:1084C00028210020D9810100040500000C050000CE
:1084D00028AE010008AE0100E0AE010019820100E3
:1084E0000CAF010040AF010074AF010020AE0100ED
:1084F000A8AF0100FCB00100E0AF0100BE220020E7
:1085000010B0010070B5194C90B0194E194D03E030
:10851000039B043B042B12D803A8FFF759FE002845
:10852000F6D002E004A800F063F80A236B441900B7
:1085300003A8FFF747FE0028F4D010B070BD2F212C
:10854000200001F0E5FF00280DD02F21200001F0D0
:10855000DFFF411C9422039B52000093280033004C
:10856000FFF73CFED8E72100F4E7C04628AE010043
:10857000ECB00100A0B001000122014B1A7070475D
:10858000BE22002070DF704773DF70477FDF7047C7
:10859000A9DF704760DF704730B587B001A8FFF7EB
:1085A000F9FF0F490020FFF7EDFF4C2303AD2B80AF
:1085B0000C4B0D4C05930523302200212000AB808D
:1085C000FFF7F6FD04230021E3702000023B237037
:1085D000656200F02FF90548FFF7D6FF07B030BD00
:1085E00000B1010084200020C0220020642000206F
:1085F000F02310B502881340102B04D0502B01D16A
:10860000522A0BD010BD112A0FD0132AFAD1002301
:10861000084A00218088FFF7B9FFF3E70023002212
:1086200000218088FFF7B4FFECE70348FFF7ACFFB9
:10863000E8E7C0467C200020642000201D4B1B780A
:10864000012B00D070471C4B1B681B07FAD1F0228E
:108650001A4B1B68134018D1194B1B6813421CD0CE
:10866000154B1B681B07EDD1F022144B1B68134000
:10867000402BE7D1124B1B681342E3D1C123802268
:108680000121DB00D205D150DCE7102B01D0302BCB
:10869000EAD10B4B1B681342E6D10A4A0A4B1A6017
:1086A00080220A4B12021A60024B1B78012BD7D092
:1086B000C8E7C046E00F00F0E40F00F0E80F00F05C
:1086C000EC0F00F0DFFF07C004050040186C00400D
:1086D00010B500290DD00923002A01D1180010BDC2
:1086E000541E2240FAD1826001608480C26000235F
:1086F000F4E70E23F2E7C046030010B59C888068BB
:10870000DA68121A0420944200D210BDDA68002000
:1087100014401A681155DA680132DA60F5E7C0468C
:1087200010B58468C26803000520944200D110BDD2
:1087300098689A8802401868825C00200A709A68DB
:1087400001329A60F3E7C04672DF704779DF704705
:108750007DDF704765DF7047F0B55F46564644469B
:108760004D46F0B485B09A460E9B060098461B789D
:108770008B46019303881700002B40D000239946B5
:1087800002AB0024DD1C03E033880134A3422CDD5E
:108790007368A1009C460422614403A801F09CFE7A
:1087A0000022290003A8FFF7D5FF002828D12B7845
:1087B000BB42E9D14B46002B29D043461A78D31946
:1087C0001F2B34DC5244290003A8FFF7C3FF002805
:1087D00016D143461A782B780134D31842461370C9
:1087E000012399463388A342D2DC4B46002B06D0A6
:1087F000434651461B78019A013B9B1A8B5400203B
:1088000005B03CBC90469946A246AB46F0BD4346F7
:108810001B78DA191D2A0ADC41469A1C0A70524656
:1088200059460133DBB2D15443461A78CAE70C20CB
:10883000E6E7C046F0B55F464D464446564600233F
:10884000F0B497B005AD02AA04000F002B7053736B
:10885000002800D1C6E0C278530700D4BAE00378FC
:10886000002B00D071E28378002B00D0C3E20023FC
:1088700006AE0221F154991CC9B288460121581C48
:10888000C0B2315441460333DBB22B70725462687C
:10889000002A10D00C201C2B00DD9CE0002151563A
:1088A00002220A20F2545A1CD2B2B054DA1C02330B
:1088B000DBB22A70F1542389002B00D03BE1238ADC
:1088C000002B00D011E2238B002B00D025E2226A7E
:1088D000002A49D02B780C20991D8A461F2900D9DF
:1088E00079E011888B46052974D9C14968468C46C0
:1088F000DC446146818181898C46BE4988468C452D
:1089000068D951888C46052964D9B9496144818167
:10891000818941455ED9B8498B4503D08C4501D04A
:10892000E34557D80520F054981CC1B26846297019
:108930008946591C0173017B04338C4612218846F9
:108940006146404670541188DBB28C464946701827
:10895000614601706146090A41705288F3181A7025
:10896000120A5A7053462B70636A9846002B2AD01D
:108970001B792A789C460233911CDBB2CB180C2061
:108980001F2B28DC63460333B354531CDBB2F33094
:10899000F0544346C9B229701B8871180B701B0A2A
:1089A0004B7043460432D0B228709A88002A0AD00D
:1089B000996800290ED0301801F08EFD43469A8840
:1089C0002B78D3182B702C23E15C002900D0CAE04F
:1089D000B14609E0072017B03CBC90469946A24634
:1089E000AB46F0BD00239946002F00D1FFE1FB7894
:1089F000002BEFD102AA53733B78002B00D0FDE18E
:108A0000BB78002B00D0AFE27A68002A00D058E192
:108A10003B89002B00D0F1E03B8A002B00D00EE117
:108A20003B8B002B00D02BE13A6A002A41D002ABED
:108A30005B7B0C20991D1F29CDD810880528C9D92A
:108A40006B4C6C4E0419A4B2B046B442C2D95488DF
:108A5000A246052CBED9664E6C46B446D444664642
:108A6000A681A6894645B5D9634EB04203D0B2452A
:108A700001D05045AED80EA8804605204446E054AB
:108A8000981CC0B202AC60738446122640465C1C3F
:108A9000E4B206556046148840440470240A4470C9
:108AA00050881A1DD2B24244107002AB000A5070B6
:108AB00059737C6A002C2FD002AB26795A7BB31CE9
:108AC000911CDBB2CB180C201F2B00DD83E70EAB13
:108AD000984603369E544646C9B202AB5973531C9E
:108AE000DBB2F330F054238841440B7004321B0A8C
:108AF0004B70D0B202AB5873A288002A0CD0A16888
:108B0000002900D166E7404401F0E6FC02ABA288F0
:108B10005B7BD31802AA53732C23F95C002900D085
:108B2000DAE10EAA904602AB5B7B424629784846C2
:108B3000FFF70AFE4FE708239846A044009533004C
:108B4000022202214046FFF707FE002800D042E73C
:108B500000953300102206214046FFF7FDFD002856
:108B600000D038E7ABE6A36A002B00D132E7002241
:108B7000914616329246163228788C46934600E08B
:108B8000A36A4A46984652004A449200904443469B
:108B900051469B88421C0333D2B23354B1544246EF
:108BA000831CDBB22B701288F3181A70120A5A70E9
:108BB00043460430C0B228709A88002A0FD09968C2
:108BC000002900D106E7301801F086FC434698885A
:108BD0002B78C0185B46E35CC0B29C4628704B46BD
:108BE0000133DBB299466345CAD3B146FCE6C046C1
:108BF0007FF3FFFF7DF30000FFFF00000EAB02AA32
:108C0000984694463C000D230834634400930222A6
:108C1000434602212000FFF79FFD002800D0DAE63E
:108C200002AA94460D236344009310224346062172
:108C30002000FFF791FD002800D0CCE6ECE60EAB5B
:108C400002AA984694463C000D23103463440093D6
:108C50000222434603212000FFF77EFD002800D0BA
:108C6000B9E602AA94460D236344009310224346BA
:108C700007212000FFF770FD002800D0ABE6CFE60B
:108C80000EAB02AA984694463C000D231834634468
:108C900000930222434614212000FFF75DFD0028C7
:108CA00000D098E602AA94460D2363440093102254
:108CB000434615212000FFF74FFD002800D08AE62B
:108CC000B2E60EA9002388460021404651560222F2
:108CD0004446C2540A205A1CD2B2A054DA1C0233B1
:108CE00002A8DBB24273E15492E610239846A044F6
:108CF00000953300022203214046FFF72DFD002896
:108D000000D068E600953300102207214046FFF7A7
:108D100023FD002800D05EE6D5E518239846A04440
:108D200000953300022214214046FFF715FD00286C
:108D300000D050E600953300102215214046FFF781
:108D40000BFD002800D046E6C1E563780C201D2B02
:108D500000DD40E60EAB98461D234246138002AB71
:108D60009C46063041466044FFF7F2FC002800D0E4
:108D700031E62378022B00D1FBE06378002B03D08F
:108D80009BB208221D2B02D9434608221B8806AE3F
:108D900072702A78DBB20232591C9B18DBB2317038
:108DA0002B70A278002A04D1E278002A00D16EE567
:108DB0005FE50C201B2B00D90DE64046FFF7C6FCF3
:108DC000002800D007E6032219212B7806AEF254C2
:108DD0005A1CD2B2B154424611889A1CD2B2B2186F
:108DE00004331170DBB2090A51702B70DCE702AB5F
:108DF0005B7B00229AE60EAB9846DEE77B780C2080
:108E00001D2B00DDE7E502AB9C460E241D236444C8
:108E10002630210060442380FFF79AFC002800D010
:108E2000D9E53B78022B00D1AAE07B78002B03D058
:108E30009BB208221D2B01D9082223880EA988463F
:108E40004046427002AA527BDBB20232591C9B1888
:108E5000DBB202AA01705373BA78002A1AD1FC78E7
:108E6000002C0ED00222414646460120CA54591C0D
:108E70009A1CC9B203337054D2B2DBB202A94B734D
:108E8000B4547A68002A00D1C2E50C201C2B00DD06
:108E9000A1E519E70C201B2B00D99CE52000FFF76A
:108EA00055FC002800D096E50EAA904603224146C4
:108EB00002AB5B7B4046CA5419215A1CD2B2815482
:108EC0009A1C2188D2B2424411700433090A5170AD
:108ED000DBB202AA5373C2E7BC6A002C00D179E569
:108EE00003910EA98846162102AB8A4616315B7B98
:108EF000220000268B4600E0BA6A40467400A4199E
:108F0000A4001419A28841460332C2549A1CD2B25A
:108F100002A8427394465246581CC0B20A54624694
:108F20002088424410700433000A5070DBB202AA59
:108F30005373A288002A11D0A168002900D149E505
:108F40004344180001F0C8FA02ABA0885B7B02AA78
:108F5000C318DBB253735A46BA5C03920136039AC4
:108F6000F6B29642C8D3E0E502AB0E249C466444B8
:108F700094E743461B8809221D2B00D807E7FCE62F
:108F8000238809221D2B00D858E74EE730B585B05D
:108F900000F04EFC002818D1274C2378DBB2002BC0
:108FA00005D0032B01D10223237005B030BDA022D0
:108FB0000421224BD2009950012221481A60856871
:108FC000C1688D420BD12270EFE71B4A1378DBB2E8
:108FD000012B1DD0022BE8D103231370E5E7217884
:108FE000022900D09A606B46D91DFFF799FB002833
:108FF00017D1C2218022114B89005A506946C87985
:109000001049585002212170C12189005A50CCE7E3
:1090100000211170094AD3605360A023DB00D150B6
:10902000C3E70123054A02A8D3602370023303700B
:10903000054B1B689847B8E7042300200020004038
:10904000F42200201C050000F0220020842210B52C
:10905000414B5200995884B000292DD18E223E4BAD
:1090600052009958002914D192223B4B5200995832
:1090700000290CD0002199509021C9005A5802A80B
:109080005A5002230370354B42601B68984704B066
:1090900010BD0021324C99502278D2B2002AE3D080
:1090A000022A21D9032ADFD1023A2170DA605A60FC
:1090B000A022D2009950D7E700219950A322D200D4
:1090C0009958284CC9B22000FFF716FB00281AD186
:1090D000A268E3689B1A012BC0D1204A02AB18702A
:1090E000126818009047B9E71F488168C26891422A
:1090F00012D10122DA602270032302A80370174BF9
:109100001B689847B0E7012202AB1A70134A03901C
:10911000126818009047A1E72278022A01D00122A4
:109120009A606B46D91DFFF7FBFA00280ED1C221C9
:109130008022094B89005A506946C8790B4958501A
:1091400002212170C12189005A508DE70123024A72
:10915000D3602370D0E7C04600200040F0220020FA
:109160000423002008230020F42200201C05000016
:10917000F0B55F4656464D464446F0B489B001937B
:109180000023994C994D06000F0023702A60072098
:10919000002906D08A8896480968FFF799FA0028BE
:1091A00006D009B03CBC90469946A246AB46F0BDFD
:1091B000904BBA89B96818009846FFF789FA021EE1
:1091C000EFD1A02103207378C905C133FF339B0081
:1091D00058503378C133FF339B005A507178864B17
:1091E000864A99503178864A9950B168854A995093
:1091F0007279002A48D00E21834A99503379022B84
:109200005FD0012B43D0A02204217B4BD200995088
:1092100000220531FF315A507B4814315A501958F9
:1092200001329143195001216438494219500830E4
:1092300019509A601A602270129B1B88002B05D16E
:10924000724A1378591C1170129A13800121C2229C
:10925000694B494292009950A121043A89009950E2
:10926000C0230420C024FF21694A5B00D050019B29
:10927000A40015599F05674B09040F402B401F435D
:109280001751106000208CE75F495A50B6E7A021C3
:109290000420594AC900505000210530FF301150B8
:1092A000143011505848115819431150A221F07828
:1092B000C9005050B0780839505093601360237043
:1092C000BAE700F073F9002804D100F045F900284E
:1092D00000D066E704AB9A460323032200215046E0
:1092E0009B46FEF765FF0123994653464A465A704E
:1092F000B078514600F064F9031E00D051E73E4AB1
:1093000001219246A22250464942D2008150B178B2
:10931000083A81503C494258484602435046425020
:109320005A4605A90A704B708B70CB70F0783A4A98
:1093300000F0AEF9071E00D033E7F078012100F00D
:1093400023FAF07800F074FA2378DBB2002807D013
:10935000012B0DD0022B00D06EE75B4623706BE72C
:10936000002B0DD0032B00D066E70223237063E7A8
:1093700052462770D3605360A023DB00D7505BE7D1
:10938000A02304225146DB00CA504A4643460A60E5
:109390009A68DB689A4202D14B4623704CE72378E7
:1093A000022B01D04A468A6002ABDE1D31004046E6
:1093B000FFF7B6F900280DD1C22180220E4B89009B
:1093C0005A5030781549585002212170C121890026
:1093D0005A5031E70123084A06A8D36023700233AC
:1093E00003702B68984727E704230020F022002011
:1093F00008230020F4220020002000400C0500007B
:1094000014050000240500006C05000089200020E0
:1094100000E100E0FFFF00FF8D8F01001C05000050
:1094200070B51A4D010084B02800FFF765F9184C9B
:1094300006002378DBB2012B02D0300004B070BDEF
:109440002278022A01D0134A93606B462800D91D66
:10945000FFF766F900280ED1C22180220D4B89004A
:109460005A506946C8790C49585002212170C121CF
:1094700089005A50E1E70123064A02A8D36023700D
:1094800002330370054B1B689847D6E7F42200208F
:1094900004230020002000401C050000F0220020D2
:1094A00082B00190019B002B14D0019B0A48013B24
:1094B00001930138C046C046C046C046C046C046BB
:1094C000C046C046C046C046C046C046F1D1019B1A
:1094D000002BEAD102B07047E7030000F0B5002886
:1094E0001EDBFF261A4B37009C4603238208C0254B
:1094F000C0B20340DB0089019F4031409940920097
:109500006244AD005459BC43214351511F23C02133
:1095100018401E3B83400E4A490053501360F0BD73
:10952000FF250C4A2E00944603220F23C0B20240AE
:10953000D20089019640294091400340083B9B0896
:109540009B006344DC69B4432143D961DEE7C04634
:1095500000E100E000ED00E070B53525114C082079
:10956000635D002B00D070BD3422013B6361A361B9
:10957000E36123626362A362E36223630121023831
:10958000A35423606360A360E3602361FFF7A6FF39
:109590008021C123044A9B000906D15001230020E9
:1095A0006355E0E718230020006000403523034A9C
:1095B000D05C431E9841C0B27047C04618230020BB
:1095C000F0B514252E4B02001C18655708200135F4
:1095D00000D0F0BD8878002843D01868013049D009
:1095E0005868013048D09868013047D0DC680420C2
:1095F00003260134EDD1981806750020A227B60085
:109600009851204BFF00F318DE591F4D4C78354020
:10961000C0260878DD51DD59B6020004AC46304062
:10962000250580262C00760334402043F8240500CD
:109630006401100204402800204364462043D851AE
:109640001300A0200324C133FF339B00C0051C502E
:109650004B78012B08D0012393400C4A8350002003
:10966000B7E7FE232375EBE79340A122D200835096
:109670000020AEE70026BEE70126BCE70226BAE7D7
:109680001823002000600040FFE0ECFF0C05000004
:10969000F0B53A4B08241D182E7D7F2E01D82000EE
:1096A000F0BDCE78002E0DD01C6801345DD05C6812
:1096B000013460D09C6801345BD0DC68013409D08F
:1096C0000424ECE71C690134FAD104241A612C75D6
:1096D000250007E003251F186CB23C75AF00DA5176
:1096E000002E02D15D19303528708A78002A16D0F4
:1096F000A025ED05AC46E026022782006244F60074
:109700009559BD439551CA78002A12D11B190A7880
:109710003033197892010A431A700024BFE702001F
:10972000A0264D78C132FF32AD009200F60595516A
:10973000E9E7134A0B789446A221A4006444C900C7
:109740006558104A00022A406250F8225201104027
:109750000600C0221804030030009202655813402E
:10976000184328436050002499E700241A602C75A0
:10977000BBE70225AFE70125ADE7C046182300206F
:1097800000600040FFE0FCFF1423F0B5254A1418E8
:10979000E356032B18DDD31830331B789B09032BBA
:1097A00033D0012B3AD0C0218902A023DB059C468F
:1097B000E02380006044DB00C4581B4A2240C250B2
:1097C000C2580A43C250F0BDD8B20328FBD8174D87
:1097D000A227AC46012698006044FF00C5593543D6
:1097E000C5511800654600274030800080B24751BF
:1097F0000029E8D01421615689008A58002AE2D055
:109800009E40C1239B00EE50DDE7A223A022DB0097
:10981000D205D258012383401A42C4D18021890243
:10982000C3E7C04618230020FFFFFCFF0060004094
:10983000A222A0210300D200C9058858D8400123E4
:1098400018407047F8B5704A00241368012B49D0BE
:109850006E4B1A68012A51D06D4B1A68012A5BD0F1
:109860006C4B1A68012A65D06B4B00251A68012AD7
:1098700000D170E023070BD0E30700D581E0A307F8
:1098800000D58DE0630700D598E0230700D56CE094
:10989000002C00DBF8BD3422604B99564A1CF9D0ED
:1098A000C9B2C022080090431A18127D52B2920029
:1098B000D658002EEED0A0230124DB059C46E023E1
:1098C000844082006244DB00D35889099B039B0FCC
:1098D000254200D182E0022BDCD1032900D190E0A7
:1098E000B047D7E7C1214E48890041580B42AFD05D
:1098F000464B14601A680134012AADD1C12248498F
:109900009200895802220A42A6D000211960404BD9
:1099100014431A68012AA3D1C122414992008958EF
:1099200004220A429CD0002119603A4B14431A6861
:10993000012A99D1C1223A499200895808220A4243
:1099400000D191E700211960334B14431A680025B8
:10995000012A00D08EE71D6080231B061C43A02235
:10996000A223D205DB00D55884E72D4A2D4BD058D1
:10997000D1582A4B8903C004890FC00EDB68984771
:1099800086E7A223264ADB00D058D158234B89030F
:10999000C0041B68890FC00E9847A30700D471E765
:1099A000214B1F4AD058D1581C4B8903C0045B6817
:1099B000890FC00E9847630700D466E7A323184AAF
:1099C000DB00D058D158154B8903C0049B68890F20
:1099D000C00E9847230700D45AE7C6E7032B00D0F0
:1099E00058E7032900D07BE78024A402E023DB00B2
:1099F000D7580E4D3D40D550D5582C43D450B04784
:109A000048E7C024A402F1E700610040046100407F
:109A1000086100400C6100407C6100401823002078
:109A2000006000401C05000014050000FFFFFCFF63
:109A3000C3B21A00143A70B5052A1ED8104AFF2185
:109A40001070104AC025944603221A40D20091405B
:109A5000800880006044AD0044598C43C02191408F
:109A60000A002243425101229A40130062460649ED
:109A700013600648082200F02FF8002070BDC04691
:109A80005023002000E100E054230020F4240020B3
:109A900010B50100074800F033F8002809D11F2253
:109AA000054B06491B781A4001239340802252003F
:109AB0008B5010BDF42400205023002000E100E072
:109AC000010010B50E20002902D0024800F030F845
:109AD00010BDC046F424002010B500290DD0092384
:109AE000002A01D1180010BD541E2240FAD1826014
:109AF00001608480C2600023F4E70E23F2E7C046D1
:109B000010B50400C368A28880681B1A0420934221
:109B100000D910BDE0682368024034204243981801
:109B2000342200F0D9FCE36800200133E360F0E761
:109B300070B5C268836804000D0005209A420FD0FA
:109B4000A388A1683422194034235943236828008C
:109B50009C46614400F0C0FC0020A3680133A36070
:109B600070BDC04603000220252B0BD01830262BD9
:109B700008D03630272B05D04C380A2B00D90230BC
:109B8000C318D8B27047C046F0B5244D8FB02B78BB
:109B90007F2B31D8042301AC237200230F22204EE7
:109BA000637233781340062B26D81E4A9B00D35885
:109BB0009F4602230127E37211201B4BF11C1B68F7
:109BC00006220193194B68441B68636000F084FC13
:109BD0000122337829789B11134023733323E154F6
:109BE000E37C063B1F2B07D80023E374002F03D12F
:109BF0002000A272FFF74CFF0FB0F0BD0023012739
:109C0000E372D9E701230027E372D5E70323012795
:109C1000E372D1E704230127E372CDE72925002071
:109C20000425002008B101002C2500203425002047
:109C300070B5414CE378002835D1032B01D0052BBA
:109C400031D13E4A13680133136000F091FA3C4E63
:109C5000307000F065FA3B4D252200212800FEF708
:109C6000A7FA280000F06CFA012000F097FA00F043
:109C70006FFA2378012B5CD00323E370324A136818
:109C8000013313600F222B781340012B2FD0002BB0
:109C900035D0022B2BD0062B31D000F069FA307072
:109CA00000F03EFA10E0264E264D032BE6D0052BA1
:109CB0001CD1254A13680133136000F059FA204B78
:109CC0001870FFF761FF1F4D252200212800FEF7C5
:109CD0006FFA280000F034FA012000F05FFA00F07B
:109CE00037FA2378012B21D00323E37070BD00F0F5
:109CF0003FFA307000F014FAFFF746FFE4E700F097
:109D000037FA3070FFF740FF2378012BDCD10F4E7C
:109D1000E91C30000622093000F0DEFB300000F0C4
:109D20000FFA00F0B1FA0423E370DFE700F0A2FAC3
:109D3000DAE700F09FFA9FE7302500203425002065
:109D400029250020042500202C2500208C2000201F
:109D500070B50B4CE378042B11D10A4D252200215C
:109D60002800FEF725FA280000F0EAF9002000F0AC
:109D700015FA00F0EDF900F047FA0523E37070BD25
:109D8000302500200425002070B5114CE378052B08
:109D900000D070BD00F0ECF90E4B187000F0C0F967
:109DA0000D4D252200212800FEF702FA280000F0C0
:109DB000C7F9012000F0F2F900F0CAF92378012B6D
:109DC00002D00323E370E4E700F054FAF9E7C04659
:109DD0003025002029250020042500200122024BE7
:109DE0000020DA707047C0463025002070B5084B5F
:109DF0000600DC780C20651E012D00D970BD1E7098
:109E000059709A700020012CF8D10222DA70F5E71F
:109E100030250020A22170B50124254A254BC90018
:109E200053502548254B264D5850264826491A5050
:109E30005C50264C1450264C04301C50254C1D51AF
:109E400002245C50244C1450A4222448D200985080
:109E50002348244A985004225A50234BFC321A605B
:109E6000224A107828281CD0431CDBB2137000F063
:109E7000F1F800F0B3F91E4C252200212000FEF776
:109E800097F9200000F05CF9012000F087F900F05C
:109E90005FF9184C2378012B06D003230020E370D0
:109EA00070BD26232520E1E700F0E4F9F5E7C04680
:109EB00000600040030003000C11004000F001406E
:109EC00004600040140500000405000003011300B5
:109ED000001100401C050000030203004481004003
:109EE000086000402405000000E100E09B20002005
:109EF0000425002030250020002070474EDF7047E9
:109F00004FDF704750DF704770B50400012820D044
:109F1000002807D0022802D0234D280070BD00F091
:109F2000CDF9F9E701228021204B4902DA60403265
:109F3000FF329850C532FF329950A8211C4AC900FF
:109F4000D268F53AFF3A5A50FFF764FF164D2C706D
:109F5000E3E7A025154C6D006359002B10D1124D7D
:109F6000A222124B520099580029D6D000219950B4
:109F70008021C5328902FF32995000F0F3F9CCE715
:109F8000FFF7BAFF002380226351C22352029B00D5
:109F90008021E2508023074A4900D150024D044BF2
:109FA0006B6003232B70DBE7382500200080004026
:109FB0009C20002000E100E010B5FFF739FD0448C7
:109FC000FFF79CFF002801D00C2010BD0020FCE70B
:109FD000099F010010B5FFF773FD002801D00C2088
:109FE00010BD0020FCE7C04600B50A4B83B00191CC
:109FF00089B29960084B020CD9609A600090FFF713
:10A00000EDFE6B46DA7999791878FFF7EFFE03B029
:10A0100000BDC046AC2000209C20002000B583B0CD
:10A0200001AA1080C0B200280BD0012802D0002065
:10A0300003B000BD0648FFF765FF0028F7D00C20ED
:10A04000F6E7FFF75DFF0028F1D00C20F0E7C046EF
:10A05000AC200020F8B50126002503221F4C204B20
:10A060000700E6501F4BE5500433E250FFF77AFD3E
:10A07000A1238E22DB00E0501B4BC021E7501B4B7D
:10A080004900E2501A4A1B4BE2501B4B1B4AE55059
:10A090000433E6501A4BE2501A4A0433E2500422C9
:10A0A000194BFF32E250194A194BE250194A043B4E
:10A0B000E25088235B00E550043BE5500C3BE55043
:10A0C0000433E550C12312229B00E250124B103A98
:10A0D0005A501A60114B1D70F8BDC0460010004068
:10A0E000FC0F00000C0500005405000024050000D2
:10A0F00000D6BE891C0500002C05000006010200E8
:10A1000014050000250003023405000055555500D4
:10A110003C0500005B06000000E100E04025002057
:10A1200088210023044A49005350F0315350012143
:10A130001161024A13707047001000404025002052
:10A14000014B024AD0507047040500000010004047
:10A150008E220021054B52009950802189005858C9
:10A160000D3AFF3A02435A507047C0460010004073
:10A170008E22094B52009A58FF20002A05D18E23C7
:10A180000021054A5B00D1507047A922D2009B589C
:10A1900080381840F3E7C0460010004088210022B4
:10A1A0000B4B490010B55A501039FF3959608021C6
:10A1B000032489005C50002806D19521054A995056
:10A1C0000122054B1A7010BD02495A50F8E7C046EB
:10A1D000001000404405000040250020A622054B49
:10A1E0000549D20099500549054A99501021054A60
:10A1F0009950704700F00140101100404480004029
:10A200003405000004050000A222002110B5104B07
:10A21000520099500F4A802099588002C8319950B5
:10A22000C12189005850A7210B4B0C48C900585038
:10A230000B480C490C4C585020200C495850A82071
:10A24000C0001C500A48985040225A5010BDC046C9
:10A25000008000404405000000F00140041100406F
:10A26000448000403C05000044810040040500009B
:10A2700010100040802204230249920088580343B2
:10A280008B5070470010004088220021084B52007C
:10A290009950103AFF3A1A6080220B31920099507F
:10A2A000044A8A3199500222034B1A707047C04603
:10A2B000001000404405000040250020882210B511
:10A2C000234B52009A58002A0CD0224A1278012AB5
:10A2D00029D0022A01D1FFF73BFD882300211C4A27
:10A2E0005B00D15082231A4A5B00D358002B08D060
:10A2F000184B1B78012B05D082230021144A5B00E8
:10A30000D15010BD0021144B144A99508021C22213
:10A31000890292009950A1232021114ADB00D150DB
:10A320002031D150E8E78021102089005A5882431B
:10A330005A508022D2009858431E9841C0B2FFF76D
:10A3400077FC88230021024A5B00D150CAE7C0464F
:10A35000001000404025002000800040440500001F
:10A3600000F0014010B5FFF70FFD10BD03210A48B2
:10A3700002680A430260094802680A430260084909
:10A38000084A094B9B1A03DD043BC858D050FBDC3C
:10A390000648804706480047240500405405004011
:10A3A00060B1010000200020BC2000203D8601009B
:10A3B000C1800100FEE7FEE7FEE7FEE7FEE7FEE7FD
:10A3C000002243088B4274D303098B425FD3030AF4
:10A3D0008B4244D3030B8B4228D3030C8B420DD307
:10A3E000FF22090212BA030C8B4202D31212090295
:10A3F00065D0030B8B4219D300E0090AC30B8B42D3
:10A4000001D3CB03C01A5241830B8B4201D38B0380
:10A41000C01A5241430B8B4201D34B03C01A524125
:10A42000030B8B4201D30B03C01A5241C30A8B4268
:10A4300001D3CB02C01A5241830A8B4201D38B0253
:10A44000C01A5241430A8B4201D34B02C01A5241F7
:10A45000030A8B4201D30B02C01A5241CDD2C30969
:10A460008B4201D3CB01C01A524183098B4201D3E5
:10A470008B01C01A524143098B4201D34B01C01AD0
:10A48000524103098B4201D30B01C01A5241C30848
:10A490008B4201D3CB00C01A524183088B4201D3B7
:10A4A0008B00C01A524143088B4201D34B00C01AA3
:10A4B0005241411A00D20146524110467047FFE70F
:10A4C00001B5002000F006F802BDC0460029F7D013
:10A4D00076E770477047C046002310B59A4203D014
:10A4E000CC5CC4540133F9E710BD030030B5002A39
:10A4F0000DD00C7801335D1E013A2C700131002C17
:10A50000F5D19A189A4202D01C700133FAE730BD97
:10A5100070B50D000024002907D0290000F032FB9F
:10A52000031E05D0581C1C00F7E700F02BFB0400AD
:10A53000200070BD30B514009BB005001A00002C3F
:10A5400004DA8B230360012040421CE0822368462A
:10A550009B0083810023009104919C4200D0631EE4
:10A5600002930593012369465B42CB8128001E9B21
:10A5700000F07AF8431C01DA8B232B60002C02D008
:10A580000023009A13701BB030BD000007B5009384
:10A5900013000A00010002480068FFF7CBFF0EBD60
:10A5A00060200020F0B58E6885B007000C00039293
:10A5B00001939E4243D890238A89DB001A423ED001
:10A5C00003250969236801985B1A029363695D4357
:10A5D000EB0F5D19029B6D1001331B18AB4200D9C4
:10A5E0001D00530510D52900380000F045FB061E5C
:10A5F00014D0029A2169FFF76FFFA289194B13400B
:10A6000080221343A38112E02A00380000F094FB5B
:10A61000061E0CD12169380000F0E2FA0C2340221A
:10A6200001203B60A38940421343A38117E0029BB2
:10A630002661F61826606561019EED1AA560019BF2
:10A64000B34200D21E0032000399206800F0B3FA32
:10A650000020A3689B1BA36023689E19266005B099
:10A66000F0BDC0467FFBFFFFF0B59FB002900593A1
:10A670008B890F0016001B0610D50B69002B0DD11E
:10A68000402100F0F9FA38603861002804D10C2329
:10A69000029A01381360D8E040237B61002306ADA5
:10A6A0006B6120336B761033AB7634002378002B4C
:10A6B00003D1A31B049312D003E0252BF9D001345E
:10A6C000F4E7A31B320039000298FFF76BFF431C2D
:10A6D00000D1B4E06A69049B944663446B612378BB
:10A6E000002B00D1ABE00122002352426A6002A994
:10A6F0005432521801342B60EB60AB601370AB65C1
:10A70000534E21780522300000F04AFA002807D085
:10A710000123801B83402A68013413432B60EFE739
:10A720002B68DA0604D55322202102A812181170D2
:10A730001A0704D553222B2102A81218117022786F
:10A740002A2A03D0099B00200A210EE0059A111D38
:10A7500012680591002A01DB099204E05242EA6086
:10A76000022213432B6001340BE02278303A092A8D
:10A7700004D84B4301349B180120F6E7002800D091
:10A78000099323782E2B1ED163782A2B0AD1059B9F
:10A7900002341A1D1B680592002B01DA01235B426B
:10A7A000079310E000230A201A0001346B6021781F
:10A7B0003039092904D84243013452180123F6E7FD
:10A7C000002B00D00792234E21780322300000F0A6
:10A7D000E7F9002806D04023801B83402A68013413
:10A7E00013432B60217806221B48661C297600F053
:10A7F000D7F9002812D0194B002B06D10722059B50
:10A80000073393430833059314E005AB00933A00F4
:10A81000134B2900029800E000BF07E005AB00934E
:10A820003A000F4B2900029800F08AF80390039B2E
:10A83000013304D06B69039A9B186B6135E7BB89C0
:10A840000B985B0601D5012040421FB0F0BDC04609
:10A8500024B101002AB101002EB101000000000066
:10A86000A5A50100F7B5170001938A680B69009050
:10A870000C00934200DA130022003B60433212784E
:10A88000002A01D001333B6023689B0602D53B6858
:10A8900002333B60062523681D401ED0230043334E
:10A8A0001B785A1E9341226892061CD53020E1186D
:10A8B0004331087021005A1C45310978A2184332EF
:10A8C000023311700FE02200012319320199009820
:10A8D000089EB047431C0ED00135E3683A689B1AC6
:10A8E0009D42F0DBDAE72200019943320098089D8F
:10A8F000A847431C02D10120404220E006232068E3
:10A90000E1683A6803400025042B03D18D1AEB431C
:10A91000DB171D40A3682269934201DD9B1AED18E5
:10A920000027BD420AD0220001231A320199009863
:10A93000089EB047431CDED00137F2E70020FEBD81
:10A94000F0B58BB006920A0043320793059004924B
:10A950000A7E0C00109B6E2A00D1ABE011D8632A4E
:10A9600022D009D8002A00D1B5E0582A00D0C5E08D
:10A9700045310A70814A4FE0642A1DD0692A1BD0F4
:10A98000BCE0732A00D1AAE009D86F2A29D0702A26
:10A9900000D0B3E0202209680A43226037E0752A1C
:10A9A0001FD0782A33D0A9E00E001A684236111D54
:10A9B000196013683370A4E021681A68080606D489
:10A9C000490604D5111D19600023D55E02E0111D52
:10A9D00019601568002D3BDA2D23049A6D4213701F
:10A9E00036E021681A68080606D4490604D51568B9
:10A9F000111D1960ADB202E0111D196015685F4BA1
:10AA0000227E039308276F2A1DD00A271BE022000D
:10AA10007821453211705A4A19680392081D22683C
:10AA200018600D68100602D4500600D5ADB2D307E9
:10AA300002D520231A4322601027002D03D12023A2
:10AA400022689A4322602300002243331A7002E0F6
:10AA50000A274A4B03936368A360002B09DB042297
:10AA6000216891432160002D05D1049E002B11D057
:10AA70007BE0002D79D0049E28003900FFF726FDE9
:10AA8000039B013E5B5C280033703900FFF798FCA4
:10AA9000051EF1D1082F09D12368DB0706D56368AD
:10AAA0002269934202DC3023013E3370049B9B1BDE
:10AAB00023612BE009681A68080607D4490605D502
:10AAC000111D19601368A28A1A8004E0111D196013
:10AAD000136862691A600023049E236116E01A68F5
:10AAE000111D1960166800216268300000F058F8E6
:10AAF000002801D0801B6060636803E026004236B6
:10AB00003270012323610023049A1370079B09AA62
:10AB100000932100069B0598FFF7A4FE431C02D179
:10AB20000120404227E02369320006990598079DDD
:10AB3000A847431CF4D0236800259B070FD4099B2A
:10AB4000E068984217DA180015E022000123193254
:10AB500006990598079EB047431CE1D00135E3688C
:10AB6000099A9B1A9D42F0DBE9E72600039B4236D7
:10AB70001B7833708EE70BB0F0BDC04635B10100D5
:10AB800046B101000200C9B21378002B03D09942EC
:10AB900004D00132F8E71800002900D110007047F6
:10ABA000C9B28218904204D003788B4202D001309F
:10ABB000F8E70020704710B5884202D98B189842F8
:10ABC00001D3002305E09B1A013A08D3995C815414
:10ABD000FAE7934203D0CC5CC4540133F9E710BDCB
:10ABE00070B50500002944D00C1F2368002B00DA43
:10ABF000E418280000F0D8F81E4A13681100002B52
:10AC000002D16360146031E0A3420DD92268A0181C
:10AC1000834203D118685B688218226063600C600D
:10AC200024E0A24203D813005A68002AF9D11E6812
:10AC30009819A0420BD121687118581819608242E6
:10AC400014D110685268411819605A600EE0A04291
:10AC500002D90C232B6009E021686018824203D1DD
:10AC6000106852684118216062605C60280000F042
:10AC70009CF870BD48250020032370B5CD1C9D4372
:10AC8000083506000C2D01D20C2501E0002D01DB5A
:10AC9000A94202D90C23336048E0300000F084F868
:10ACA000234B1C681A002100002913D00B685B1B82
:10ACB0000DD40B2B02D90B60CC181EE08C4202D1B4
:10ACC000636813601AE04B6863600C0016E00C00C8
:10ACD0004968E9E7174C2368002B03D1300000F0E6
:10ACE00051F820602900300000F04CF8431C18D0C7
:10ACF0000323C41C9C43A0420DD12560300000F00A
:10AD000054F8200007220B30231D9043C31A0ED0A5
:10AD10005A42E2500BE0211A300000F033F8431C95
:10AD2000EBD10C233000336000F03FF8002070BD01
:10AD30004825002044250020F8B506000C00150029
:10AD4000002904D11100FFF797FF040018E0002A42
:10AD500003D1FFF745FF2C0012E000F027F88542F1
:10AD60000ED929003000FFF787FF071E07D021000A
:10AD70002A00FFF7B1FB21003000FFF731FF3C0054
:10AD80002000F8BD002370B5064C050008002360C4
:10AD900000F018F8431C03D12368002B00D02B606F
:10ADA00070BDC04650250020704770470B1F1A68C1
:10ADB000101F002A04DA891804390B68D0180438E7
:10ADC00070470000044A1368002B03D01818106065
:10ADD00018007047014BF9E74C250020582500204A
:10ADE000F8B5C046F8BC08BC9E467047F8B5C046EA
:10ADF000F8BC08BC9E467047002000200B09080ADA
:10AE00000000000000509D006D61696E00000000B0
:10AE100073645F6173736572745F63620000000046
:10AE20000100204E10270000433A2F31312E776F5A
:10AE3000726B2F30322E4D7950726F6A6563742FAA
:10AE40006E524635315F53444B5F392E302E305FA2
:10AE5000326532333536322F6578616D706C6573CB
:10AE60002F6E524635315F496E6F2E6F6E5F6F6287
:10AE70007365727665722D61647665727469736547
:10AE8000722F6F627365727665722F6D61696E2EB7
:10AE90006300000054494D45534C4F545F54455393
:10AEA000545F4C4F473A2025733A2025643A2022BC
:10AEB00025733A20534F4654444556494345204153
:10AEC00053534552543A206C696E65203D202564E9
:10AED0002066696C65203D202573220D0A00000064
:10AEE00054494D45534C4F545F544553545F4C4F58
:10AEF000473A2025733A2025643A202250726F6722
:10AF000072616D20696E6974220D0A0054494D45C5
:10AF1000534C4F545F544553545F4C4F473A202590
:10AF2000733A2025643A2022536F6674646576690B
:10AF3000636520656E61626C6564220D0A00000025
:10AF400054494D45534C4F545F544553545F4C4FF7
:10AF5000473A2025733A2025643A2022496E7465C9
:10AF600072727570747320656E61626C6564220D17
:10AF70000A00000054494D45534C4F545F5445530B
:10AF8000545F4C4F473A2025733A2025643A2022DB
:10AF90005363616E6E657220696E697469616C6974
:10AFA0007A6564220D0A000054494D45534C4F54B4
:10AFB0005F544553545F4C4F473A2025733A202540
:10AFC000643A20225363616E6E6572207061726113
:10AFD0006D657465727320736574220D0A0000003C
:10AFE00054494D45534C4F545F544553545F4C4F57
:10AFF000473A2025733A2025643A20225363616E34
:10B000006E657220656E61626C6564220D0A0000D7
:10B0100054494D45534C4F545F544553545F4C4F26
:10B02000473A2025733A2025643A202254797065E6
:10B030003A2025582C20416464723A2025583A253C
:10B04000583A25583A25583A25583A25582C20522E
:10B050005353493A202569220D0A000054494D45B1
:10B06000534C4F545F544553545F4C4F473A20253F
:10B07000733A2025643A202225733A204E52462006
:10B080004153534552543A206C696E65203D20254A
:10B09000642066696C65203D202573220D0A00003E
:10B0A00054494D45534C4F545F544553545F4C4F96
:10B0B000473A2025733A2025643A202225733A2006
:10B0C00050726F6772616D206661696C7572652C74
:10B0D00020756E646566696E6564206576656E745C
:10B0E000203D202564220D0A0000000053574932FC
:10B0F0005F49525148616E646C6572000100000046
:10B1000001FCDE48ABCEFB00FC9B0100049C01006F
:10B110000C9C0100F89B0100149C0100F89B0100AD
:10B12000B29B0100232D302B2000686C4C0065661B
:10B130006745464700303132333435363738394188
:10B14000424344454600303132333435363738399E
:08B150006162636465660000A2
:08B1580068CFFF7F0100000039
:10B1600000000000000000000000000000000000DF
:10B1700000000000000000000000000000000000CF
:10B1800000000000000000000000000000000000BF
:10B1900000000000000000000000000000000000AF
:10B1A000000000000000000000000000000000009F
:10B1B000000000000000000000000000000000008F
:10B1C000002000200000000000000000000000003F
:10B1D00000000000F0000000000000000C0710005C
:10B1E0000000000001A0A1A2A3010000C30C00DE2A
:10B1F000DEDEDEDEDE0000000000002501000000D3
:10B20000000100000000000000000000000000003D
:0CB21000000100000000000010270000FA
:040000031000A36DD9
:00000001FF
